:100000000C9472040C94E4040C94E4040C94E40442
:100010000C94E4040C94DD310C94E4040C949932B7
:100020000C94E4040C94E4040C94E4040C94E404B0
:100030000C94E4040C9485330C94E4040C94E404D0
:100040000C94E4040C94E4040C94E4040C94E40490
:100050000C94E4040C94E4040C94E4040C940F3326
:100060000C94E4040C94FD3E0C94E4040C94783F4E
:100070000C94E4040C94E4040C94E4040C94E40460
:100080000C94E4040C94E4040C94E4040C94E40450
:100090000C94F23F0C94E4040C946D400C94833E59
:1000A0000C94E4040C94E4040C94E4040C94E40430
:1000B0000C94E4040C94E4040C94E4040C94E40420
:1000C0000C94E4040C94E4040C94E40400354935E5
:1000D0009035B635CA35F235FA351F36FD3441361E
:1000E00088368E3694369A36B736A036B736ED3621
:1000F000C236D7365254432074696D65205B253073
:1001000032643A253032643A253032645D00486505
:100110006C6C6F20576F726C64007700756172743D
:1001200030000A000A23446562756720000A2349EB
:100130006E666F2020000A234E6F74696320000AE8
:10014000235761726E2020000A23457272202020FE
:10015000000A23437269742020000A23416C6572EF
:100160007420000A23456D65726720003F3F203CE4
:10017000444D4B3E200057443A200056533A20004D
:1001800056453A200055543A200055443A2000552F
:10019000413A200053523A200053503A200053472E
:1001A0003A200053453A200053543A200052543A22
:1001B000200052433A2000504C3A200050413A204F
:1001C000004D443A20004D4D3A20004D453A200064
:1001D00053593A20004C473A20004C453A20004BF6
:1001E000423A2000494E3A200048543A2000464CFA
:1001F0003A200046413A200044503A2000434D3A0C
:10020000200043483A200041553A20003080300019
:10021000170780B0173C06001750003F2400060067
:10022000162012008F570000CE10122900990000EE
:100230004D0080404C180600D7960028550D000050
:10024000480D0600505B0930420080B00180144226
:1002500040BC182840C71336423C003E03B8140087
:10026000031B1500C259D66F2400003603981228CC
:10027000D55700004D000028402BF33624004C8059
:10028000103E1438103E0A78133E0DB8033E05F8B0
:1002900006009555093015141B00D4FF0300CEFF4E
:1002A00001000A000024CE168AB5240092F20094C0
:1002B0005261240002FE2400B24824004A4501B6DF
:1002C000F33605D8F3360D98F0360A5800200000B2
:1002D000F0361418618013362400123E17B8123E0F
:1002E0001538053E14B82536240000000A80103E5B
:1002F00003B8944105B8113E2400113E07B8143EDE
:100300001278143E0DF8033E0EF806005100002846
:10031000D5240000240088B81200046405040000FD
:1003200024000028582194402400002402210000C9
:1003300024009864030856FE2400B6482400D64DD5
:100340002400103A24C0F03224C056FE2400B648DF
:100350002400D64D24008443834496638C8800F4A3
:10036000D540003D2480060091003F00C3FE0600FA
:1003700053000131248060FE2400BE48240034A6CE
:10038000030C244324008442022C060011000028A0
:10039000D824003124800600115000392480060042
:1003A000110000314C9884424C9000F488400028A1
:1003B000452800002400F03C40380930413809301D
:1003C000103800200000000088270930D01B0028CA
:1003D00080280930811BF334CC1BF3360ED8F43659
:1003E0000DD8F4361258F1360798F1360518F03664
:1003F000039805341490F3362400F23615180020C3
:100400000000F2361798AD80123E17B8123E15382C
:10041000053E14B81536240000000A80103E02780C
:10042000103E04F8113E1078143E1278132980C94A
:10043000143E24C0132980C988404C1800F405409C
:100440000000C018006424000000C01B0028953084
:10045000300010030028803F01382440006424004D
:100460000000401A002855370600D0550000037DD3
:1004700084B84C1809300538093000008AFF240080
:100480001D29007BB24824000000411806001050CE
:100490008A4044B800290013884024000030CC1B57
:1004A00014602400300051030028D53600002400D9
:1004B00006001100003124003000510300382400F0
:1004C0000028803F01392440006424003000D0031C
:1004D0000028553F0000037D0600D05584B84C1815
:1004E00009300538093000008AFF24001D29007BEF
:1004F000B24824008A40CC9B000041180028553B9C
:10050000060010509A682400003024001460240073
:10051000300092030028853E06009100060011007D
:10052000000052180600530080B800240600910015
:100530000438248030009203003B24000139244019
:100540000028803F013A24400138244080B8D31B62
:10055000F4361258F1361058F03604D8F0360258F6
:1005600005341490F3362400F236151800200000EC
:10057000F2361798300000000000457869740000DA
:10058000000053EF6E000000004578697453EF6E71
:100590004DEA6D5400000000070606060606060632
:1005A00006060606060606060606060606060606EB
:1005B00006060606060606060606060606060606DB
:1005C00006060606060606060606060606060606CB
:1005D00006070606060606060606060606060606BA
:1005E00006060606060606060606060606060606AB
:1005F000060606060606060606060606070606069A
:10060000060606060606060606060606060606068A
:10061000060606060606060606060606060606067A
:10062000060606060606060606060606060606066A
:10063000060606060606060606060606060606065A
:10064000060606060606060606060606060606064A
:10065000060606060606060606060606060606063A
:10066000060606060606060606060606060606062A
:10067000060606060606060606060606060606061A
:10068000060606060606060606060606060606060A
:1006900006060606060706060606060606060606F9
:1006A00006060606060606060606060606060606EA
:1006B00006060606060606060606060606060606DA
:1006C00006060606060606060606060606060606CA
:1006D00006060606060606060606060606060606BA
:1006E00006060606060606060606060606060606AA
:1006F000060606060606060606060606060606069A
:100700000606060606060606060606060606060689
:100710000606060606060606060606060606060679
:100720000606060606060606060606060606060669
:100730000606060606060606060606060606060659
:10074000060606060606060606060606065468722D
:10075000656164206661696C656400436172645020
:1007600072657300436172642072656D6F766564B3
:10077000004361726420696E73657274656400453C
:1007800072726F7220696E697469616C6973696EE7
:10079000672046696C652073797374656D20616E9E
:1007A0006420436172642D647269766572004361EE
:1007B0007264206D6F756E74656400696E76616C2D
:1007C0006964205370656564006572726F7220649D
:1007D0007572696E6720435344207265616400003E
:1007E0000000000000000000000000000000000009
:1007F00000000000000000000000000000000000F9
:1008000000000000000000000000000000000000E8
:1008100000000000000000000000000000000000D8
:1008200000000000000000000000000000000000C8
:1008300000000000000000000000000000000000B8
:1008400000000000000000000000000000000000A8
:100850000000000000000000000000000000000098
:100860000000000000000000000000000000000088
:100870000000000000000000000000000000000078
:100880000000000000000000000000000000000068
:100890000000000000000000000000000000000058
:1008A0000000000000000000000000000000000048
:1008B0000000000000000000000000000000000038
:1008C0000000000000000000000000000000000028
:1008D0000000000000000000000000000000000018
:1008E0000000000084E880937400479A3F9A469A7B
:1008F0003E9A81EE809300C380E4809301C385B764
:100900008F7785BF80E090E0359B05C0019641F070
:10091000359BF8CFFBCF019619F03599F3CFFBCF7C
:1009200085B7806885BF47983F9846983E9887E08E
:100930008093C4008093CC0011241FBECFEFD1E27E
:10094000DEBFCDBF13E0A0E0B2E0E4E9FFE800E0E5
:100950000BBF02C007900D92A639B107D9F717E077
:10096000A6E9B3E001C01D92A032B107E1F78FEF15
:100970009FE79EBF8DBF8FEF9FE7805297408158C2
:10098000914040F06FEF7EE76052774080E297E061
:100990000E946B260E942E2F892B41F060ED72E0A1
:1009A00086E097E00E9427470E94152F20E831E05B
:1009B00040E050E062E675E289ED92E00E945D3031
:1009C0000E9400000C94C9470C94000087EF84B982
:1009D0008CE08AB98BB18C70836F8BB98EE88DB93E
:1009E0008EB18E7881608EB985B7806885BF85B7F6
:1009F000806885BF8EE080BB81B38E70816F81BBC4
:100A000088E183BB08950F931F93CF93DF93CDB7F6
:100A1000DEB762970FB6F894DEBF0FBECDBF0E945F
:100A2000F90D84E60E94592A0E94E6040E949B0F59
:100A30000E943B060E94EF050E9466088EE091E04E
:100A40009F938F9316EC1F930E9426070E942321E9
:100A5000CE0101960E943F210F900F900F90892B9D
:100A6000D9F489819A819F938F938B819C819F93E5
:100A70008F938D819E819F938F9384EF90E09F93BE
:100A80008F931F930E9426078DB79EB709960FB6C6
:100A9000F8949EBF0FBE8DBF0E94F71E0E947F0E6E
:100AA0000E948B0D0E9462090E948C080E94EA0934
:100AB00040E050E060EA75E080EF92E00E94582F3D
:100AC000892B49F485B5846085BDA89A80916E0014
:100AD000816080936E0081E00E948F2920E034E0E5
:100AE00040E050E06FEA75E080E092E00E945D3007
:100AF00020E034E040E050E065EA75E086E092E016
:100B00000E945D30789400E010E064E670E080E0E0
:100B100090E00E946B2B0E944509883831F081E0FB
:100B20000E94A60901E010E008C00F5F1F4F0431CA
:100B300011051CF080E00E94A6090E94F70DE5CF88
:100B40000E9494080E94260E089564EF71E080E0F0
:100B500090E00E946B2B83E00E946C08F6CF64EF5C
:100B600071E080E090E00E946B2B82E00E946C08B4
:100B7000F6CF809196039091970308958091960304
:100B800090919703009731F00E94134110929703C0
:100B9000109296030895CF93DF93CDB7DEB72497D5
:100BA0000FB6F894DEBF0FBECDBF69837A838B8307
:100BB0009C8380919603909197030E946441AE01BB
:100BC0004F5F5F4F63E171E00E94A94024960FB62A
:100BD000F894DEBF0FBECDBFDF91CF910895EF92A5
:100BE000FF920F931F93CF93DF93CDB7DEB72D976F
:100BF0000FB6F894DEBF0FBECDBF80E092ECA1E04F
:100C0000B0E08C839D83AE83BF8388E0E82EF12C17
:100C1000EC0EFD1E6CE171E0C7010E94D9466AE14D
:100C200071E08E010F5F1F4FC8010E94D9464091AD
:100C30003F0350914003B801C7010E94C441909303
:100C4000970380939603009749F00E946441AE0198
:100C50004C5F5F4F61E071E00E94A9402D960FB696
:100C6000F894DEBF0FBECDBFDF91CF911F910F91E2
:100C7000FF90EF900895109297031092960340E032
:100C800060E070E08CEF92E00E94E92E0895909170
:100C90009803883010F480939803892F992708953A
:100CA0002F923F924F925F926F927F928F929F927C
:100CB000AF92BF92CF92DF92EF92FF920F931F936A
:100CC000CF93DF93CDB7DEB7CD54D0400FB6F894B5
:100CD000DEBF0FBECDBF7C016B011A01892B09F469
:100CE0008EC094E0692E712C44245524AA24BB2480
:100CF000A0E0B0E000E010E07EC0C5018F70907011
:100D0000892B69F54DE450E060E270E08E010F5FE1
:100D10001F4FC8010E940C479301220F331F220F5F
:100D2000331F2450304040E050E0D801F201022E41
:100D300002C0F695E7950A94E2F7EF70F070E45F71
:100D4000FD4F80818D934F5F5F4F2450304046159B
:100D5000570561F7D301129683010C5C1F4FF60112
:100D60009081E92FE295EF70FF27E45FFD4F5081FE
:100D70004D010894811C911CE92FFF27EF70F07042
:100D8000E45FFD4F4081892F80528F3510F08EE255
:100D900001C0892F9E012F5F3F4FA20FB31F5C93AD
:100DA000F901E80DF91D4083F901E00FF11F80837F
:100DB0000F5F1F4F0894A11CB11CC5018F7090706C
:100DC000892B19F0A214B30489F4F901E00FF11F83
:100DD0001082B701C9010E945742B7018AE090E032
:100DE0000E942F4280E190E0480E591E0894C11CD9
:100DF000D11CD4011296A214B30409F07ECFC35BB8
:100E0000DF4F0FB6F894DEBF0FBECDBFDF91CF919D
:100E10001F910F91FF90EF90DF90CF90BF90AF9018
:100E20009F908F907F906F905F904F903F902F900A
:100E300008956091990370919A036115710529F0E5
:100E4000992787FD90950E942F4208951F93CF9375
:100E5000DF93CDB7DEB722970FB6F894DEBF0FBE93
:100E6000CDBF19856091990370919A036115710541
:100E700009F410C1212F3327277030708091980317
:100E80009927821793070CF405C1812F877083304F
:100E9000F1F0843028F48130A1F08230A8F40EC043
:100EA0008530D9F08530B0F08630D1F0873019F434
:100EB00084E291E017C082E291E014C083E691E001
:100EC00011C08AE591E00EC081E591E00BC088E495
:100ED00091E008C08FE391E005C086E391E002C095
:100EE0008DE291E00E9468426091990370919A03AB
:100EF000212F287F283709F4AAC0293790F52833F5
:100F000009F499C02933B0F4283109F48EC029318D
:100F100038F4283009F486C0203109F053C055C098
:100F2000283209F485C0203309F455C0203209F075
:100F300049C04EC0283509F484C0293548F4283406
:100F400009F47CC0203509F44CC02034D9F546C0E2
:100F5000283609F479C0203709F449C0203691F5C4
:100F600043C0283B09F47FC0293BA8F4283909F481
:100F700074C0293940F4283809F46CC02039E9F1EB
:100F8000203801F537C0283A09F46AC0203BD9F16E
:100F9000203AC1F435C0283D09F46BC0293D40F426
:100FA000283C09F463C0203DA1F1203C59F42EC037
:100FB000283E29F0203F99F1203E21F42DC086E7FC
:100FC00091E059C08CE691E056C087E092E053C0B2
:100FD00082E092E050C08DEF91E04DC088EF91E04B
:100FE0004AC083EF91E047C08EEE91E044C089EEA5
:100FF00091E041C084EE91E03EC08FED91E03BC0B6
:101000008AED91E038C085ED91E035C080ED91E04A
:1010100032C08BEC91E02FC086EC91E02CC081ECCB
:1010200091E029C08CEB91E026C087EB91E023C0D2
:1010300082EB91E020C08DEA91E01DC088EA91E04A
:101040001AC083EA91E017C08EE991E014C089E9E3
:1010500091E011C084E991E00EC08FE891E00BC0EF
:101060008AE891E008C085E891E005C080E891E059
:1010700002C08BE791E00E946842AE01445F5F4F7F
:101080005A8349836A857B858091990390919A035D
:101090000E947C4222960FB6F894DEBF0FBECDBFF1
:1010A000DF91CF911F9108958091990390919A03B8
:1010B00010929A03109299030E94534108950E943E
:1010C000B90590939A0380939903089587E08093DC
:1010D00098030E945F080895833059F0843018F413
:1010E000882339F008C0853031F0853040F08630F3
:1010F00091F48B9801C08B9A80939B030895809103
:101100009B03813021F48B9810929B0308958B9A56
:1011100081E080939B0308958B9810929B03089520
:1011200080919B0399270895A398000000006FB158
:10113000A39AA498000000004FB1A49A5B98000005
:1011400000008FB15B9A5A98000000002FB15A9AA4
:1011500062956F707727407F5527642B752B807FB2
:10116000992734E0880F991F3A95E1F7682B792B7E
:10117000207F3327322F2227622B732B70939F03FC
:1011800060939E038FEF6F3B780709F458C08FEF91
:10119000603C7807F8F48BEF6F3F780709F45EC086
:1011A0008CEF6030780748F48FEE6F3F780709F4D2
:1011B0005BC06F5F774F89F548C08EEF6F3F780750
:1011C00009F449C08FEF6F37780781F16F5F7D4F6A
:1011D00021F547C08FEF673F780759F18FEF683FE0
:1011E000780760F48FEF6F3D780791F18FEF6F3ED6
:1011F000780741F16F5C7F4F81F40CC08FEF6D3F3A
:10120000780789F08FEF6E3F7807B1F06B5F7F4F03
:1012100021F406C08EE090E029C088E890E026C066
:1012200081E090E023C082E090E020C083E090E085
:101230001DC084E090E01AC085E090E017C086E011
:1012400090E014C087E090E011C088E090E00EC00C
:1012500089E090E00BC08AE090E008C08BE090E06D
:1012600005C08CE090E002C08DE090E08093A00388
:101270000895E82F862F8150823030F4E03120F439
:10128000FF27EC55FC4F608308958091A0039927B8
:1012900008958093A003E0919C03F0919D03309703
:1012A00039F48FEF9FEF90939D0380939C030895F3
:1012B0008FEFEF3FF80729F08481958101969583A0
:1012C00084830895A39AA49A5B9A5A9A1092A303CE
:1012D0008FEF9FEF90939F0380939E030FB6F89438
:1012E0000F9210929D0310929C030F900FBE8FEFF0
:1012F0008093A003E4EAF3E082E0819393E0E43B8F
:10130000F907D9F71092A2031092A10361E088E0D7
:101310000E94390961E08BE00E94390961E08AE0AE
:101320000E94390961E08CE00E9439090895AB01FF
:10133000BC018CE993E00E94532E20E030E08F5FE7
:101340009F4F11F421E030E0C9010895813011F47C
:10135000739A0895882309F4739808959AB19F7039
:10136000906F9AB99BB19F70607F962B9BB982302A
:1013700011F48A9801C08A9A729A0000000072984B
:101380008A988AB18F708AB98BB18F70806F8BB950
:1013900008950F931F93082F162F8A98899A729A8F
:1013A000000000004F99FBCF72988A988998612FAE
:1013B000607F802F0E94AE091295107F612F802FD1
:1013C0000E94AE091F910F910895682F83E00E943B
:1013D000C90908951F938CE80E94592A10E063E31D
:1013E00082E00E94AE0984E00E94592A1F5F1330F8
:1013F000B1F762E282E00E94AE0981E00E94592AC0
:1014000068E282E00E94C90985E00E94592A6CE0E6
:1014100082E00E94C90985E00E94592A61E082E0C9
:101420000E94C90985E00E94592A66E082E00E9474
:10143000C90960E882E00E94C9091F9108950FB6AA
:10144000F8940F929DB3882311F0EE9A01C0EE98A4
:101450000F900FBE892F992726E0969587952A959C
:10146000E1F781709070089580E00E941F0A982F24
:101470008091B403813011F41092B403892F0E943B
:101480001F0A80E090E008958091B40399270895A1
:101490008091B5039091B60308958091B503909122
:1014A000B60308950F931F93CF93DF93EC018B0145
:1014B00080E090E00E949F0F05C0FE0184910E9491
:1014C000870F219601501040FFEF0F3F1F07A9F72C
:1014D0000E947C0FDF91CF911F910F9108951F9370
:1014E00080E00E941F0A182F64E070E08AE795E010
:1014F0000E94520A64E070E086E795E00E94520A7A
:10150000812F0E941F0A80E090E01F9108950F93A1
:101510001F93CF93DF938C01EB0180E090E00E945A
:101520009F0F05C0F80181918F010E94870F2197BD
:10153000FFEFCF3FDF07B1F70E947C0FDF91CF9124
:101540001F910F910895EF92FF920F931F93F82E22
:101550008B010E94830FE82E80E00E94800F80E0C4
:1015600090E00E949F0F2C9882E00E94870F8F2DA1
:101570000E94870F812F99270E94870F802F0E943A
:10158000870F2C9A0E947C0F8E2D0E94800F1F9136
:101590000F91FF90EF900895DF92EF92FF920F93DB
:1015A0001F93082FE62E80E00E941F0AD82E1127D5
:1015B000102F0027FF240E291F29B8018BE00E945D
:1015C000A30A8D2D0E941F0A80E090E01F910F91C9
:1015D000FF90EF90DF900895FF920F931F938C017F
:1015E00080E00E941F0AF82E1C60B80180E00E9473
:1015F000A30A8F2D0E941F0A80E090E01F910F9197
:10160000FF9008951F93CF93DF93CDB7DEB7219757
:101610000FB6F894DEBF0FBECDBF898380E00E9475
:101620001F0A182F80E290E00E94EC0A63E070E04D
:1016300082E895E00E94520A61E070E0CE010196D6
:101640000E94870A64E070E08EE795E00E94520AEB
:10165000812F0E941F0A80E090E021960FB6F89437
:10166000DEBF0FBECDBFDF91CF911F910895282F10
:10167000332727703070C90153E0880F991F5A959E
:10168000E1F7820F931F885C0E94020B0895DF929E
:10169000EF92FF920F931F93CF93DF93CDB7DEB7F7
:1016A00021970FB6F894DEBF0FBECDBF89837B01B3
:1016B00080E00E941F0AD82E80E290E00E94EC0A8F
:1016C00089818295807F885C898363E070E08DE802
:1016D00095E00E94520A61E070E0CE0101960E94FE
:1016E000870A05E815E064E070E0C8010E94520A2C
:1016F0008E2D0E94592A64E070E089E895E00E94EE
:10170000520A64E070E0C8010E94520A8D2D0E94C6
:101710001F0A80E090E021960FB6F894DEBF0FBE5E
:10172000CDBFDF91CF911F910F91FF90EF90DF9090
:1017300008950F931F938C0180E00E941F0A10925E
:10174000B403C80184600E94EC0A8AE00E94592A0E
:1017500080E48CBB80E090E01F910F910895DF92B0
:10176000EF92FF920F931F93182F0E94830FD82E92
:1017700080E00E94800F80E090E00E949F0F2C98F4
:1017800083E00E94870F812F0E94870F0E948C0F99
:10179000E82EFF24FE2CEE240E948C0F082F2C9A9A
:1017A0000E947C0F8D2D0E94800F1127C701802B76
:1017B000912B1F910F91FF90EF90DF900895FF9272
:1017C0000F931F9380E00E941F0AF82E8BE00E9467
:1017D000AF0B8C018F2D0E941F0AC8011F910F9122
:1017E000FF900895FF920F931F93182F80E00E949F
:1017F0001F0AF82E812F0E94AF0B8C018F2D0E94A3
:101800001F0AC8011F910F91FF90089589E00E945F
:10181000F20B9C018FEF213E380790F58DE42435C3
:101820003807A1F18DE42535380768F481E42435C3
:101830003807F9F08DE424333807D9F081E42434F3
:10184000380709F516C087E52D363807F9F087E522
:101850002E36380728F487E52D343807A1F409C05F
:1018600086E72536380729F08FEF203E380759F4F0
:101870000DC08091B5039091B603039739F403C06E
:1018800020EE3FEF03C080E090E00895C901089585
:1018900080E00E941F0A2F982C9A2898209A84E0B2
:1018A0000E94592A80E00E94800F1092B4032F9A60
:1018B00084E00E94592A81E00E94AF0B74E0969563
:1018C00087957A95E1F7877090709093B60380932F
:1018D000B503039719F460E070EE02C060E078E9A8
:1018E00083E00E94A30A82E30E94592A80E090E0EC
:1018F0000E94EC0A60E080E00E94CC0A82E30E9431
:10190000592A8091B5039091B6030397029710F47A
:1019100082E001C081E00E94800F40E050E060EA78
:101920007CE08AEE92E00E94582F66E070E08AEE3A
:1019300092E00E94D62F80E48CBB80E090E0089576
:10194000BF92CF92DF92EF92FF920F931F93CF93AC
:10195000DF93CDB7DEB722970FB6F894DEBF0FBE88
:10196000CDBF8091B403813009F04FC0669B4DC05C
:1019700080E00E941F0AB82E78941A82198280E0B3
:1019800090E00E949F0FF0E2EF2EF12C00E010E0BB
:10199000CC24DD2403C0EFE1EE2EF12C89819A8165
:1019A000C816D906C0F0C114D10419F0C6010E94AE
:1019B0007327CE0101960E94F2268C0189819A81BB
:1019C000892B19F0CC24DD2408C082E08093B40375
:1019D000CC24DD2412C0892B41F0F80181918F01C4
:1019E0000E94870F0894C11CD11C6699D4CF08941B
:1019F000E108F108E114F10489F60E947C0FC601A8
:101A00000E9410288B2D0E941F0A22960FB6F89470
:101A1000DEBF0FBECDBFDF91CF911F910F91FF9021
:101A2000EF90DF90CF90BF9008950F931F93CF93C7
:101A3000DF938091B403813009F435C080E00E94C7
:101A40001F0ACCE0D2E0FE0165917491E8E9F5E06F
:101A5000E4918E2F0E94A30A00E010E011C0FE0165
:101A600065917491F801E856FA4FE4918E2F0E9427
:101A7000A30AC80164EF71E00E946D47892B11F43D
:101A80000E94F70D0F5F1F4F229681E0053B18075C
:101A900031F781E08093B40380E090E00E94A00CD5
:101AA00081E00E941F0A80E090E0DF91CF911F91BA
:101AB0000F9108951F93CF93DF9380E090E00E94F1
:101AC000990B80E290E00E94EC0A80E00E941F0ADD
:101AD000182F68E070E080E995E00E94520A88E2E1
:101AE0000E94592A88E00E94AF0BEC01812F0E94CE
:101AF0001F0A8091B5039091B603039731F480E8F3
:101B0000CF37D80711F4C0E0D0E0CE01DF91CF91FC
:101B10001F910895089580916A008C7F80936A00D8
:101B200040E050E06AE87DE084EE92E00E94582FA9
:101B3000892B31F480916A00826080936A00EC9A6C
:101B400080918100836080938100AD9A0FB6F894F4
:101B50000F921092B8031092B7030F900FBE089522
:101B6000EF92FF920F931F93AB01BC01A89521E068
:101B7000E12CE8E0FE2E012D112D01C02F5FD801D0
:101B8000C701022E04C0880F991FAA1FBB1F0A9409
:101B9000D2F737E0B695A795979587953A95D1F7FF
:101BA00084179507A607B70748F32093BA032A308E
:101BB00018F029702093BA032091BA0323FF02C0C2
:101BC00038E201C038E088E190E02770322B0FB690
:101BD000F894A895809360000FBE3093600081E078
:101BE0008093B9031F910F91FF90EF900895A895EE
:101BF00008958091B903882319F08F5F8093B9030A
:101C000088E10FB6F89480936000109260000FBED8
:101C100008958091B9038230C0F081508093B90358
:101C2000813099F42091BA0323FF02C038E201C049
:101C300038E088E190E02770322B0FB6F894A89531
:101C4000809360000FBE3093600008958091BE03C2
:101C50009091BF038130910589F08130910530F07A
:101C60008230910521F10397E9F52DC078993AC0AA
:101C700081E08093BD0381E090E020C0789912C09C
:101C80008091BD038F5F8093BD038E3159F581E054
:101C90008093BC0382E090E09093BF038093BE03E7
:101CA00081E021C01092BF031092BE031BC0789B3D
:101CB00019C081E08093BD0383E090E09093BF035F
:101CC0008093BE030FC08091BD038F5F8093BD03DF
:101CD000843141F41092BC031092BF031092BE03F2
:101CE00080E001C082E0992708958091BC03992784
:101CF00008958091C0039091C103089508950F93B2
:101D00001F93CF93DF93CDB7DEB72A970FB6F89422
:101D1000DEBF0FBECDBF1092BF031092BE03109264
:101D2000BC036BE577E08E010F5F1F4FC8010E9477
:101D3000D946C8010E943B29892BB1F420E033E049
:101D400040E050E060E47FE0C8010E945D30892BF4
:101D500059F48DE497E09F938F9380EE8F930E94C8
:101D600026070F900F900F902A960FB6F894DEBFBB
:101D70000FBECDBFDF91CF911F910F910895FF92BC
:101D80000F931F93CF93DF93CDB7DEB72A970FB68C
:101D9000F894DEBF0FBECDBF8EE192E00E94CD2E43
:101DA000892BB9F480E00E941F0AF82E40E067E01A
:101DB00070E08CE192E00E94E92E8C01892B51F5B4
:101DC00040E067E070E08FE392E00E94E92E8C0132
:101DD00021C00E94611380E00E941F0AF82EE0914A
:101DE0002F02F0913002309729F08CE192E01995A2
:101DF000892B59F4E0915202F0915302309741F04F
:101E00008FE392E01995892B19F00FEF1FEF02C0B5
:101E100000E010E08F2D0E941F0A01151105C1F48A
:101E20008EEA97E09F938F9386EE8F930E9426070A
:101E300060E070E0CE0101960E94BB400F900F90D1
:101E40000F902FEF8F3F920771F00E9493400BC0CD
:101E50008FE797E09F938F9383EE8F930E942607DF
:101E60000F900F900F90C8012A960FB6F894DEBF1E
:101E70000FBECDBFDF91CF911F910F91FF900895BD
:101E80008091BC038093BB038091BC038130B9F483
:101E90008091BB03882349F581E797E09F938F9357
:101EA00086EE8F930E9426070E94BF0E0F900F9020
:101EB0000F90892B29F780E10E944909E1CF8823FF
:101EC000A1F48091BB03813081F484E697E09F9375
:101ED0008F9386EE8F930E9426078091BC03809398
:101EE000BB030F900F900F90CFCF64EF71E080E0B5
:101EF00090E00E946B2BC8CF779A2E982D9A089568
:101F00008093C20308958091C203992708958EBDDE
:101F10000DB407FEFDCF08958FEF8EBD0DB407FE03
:101F2000FDCF8EB5992708958EBD0DB407FEFDCF68
:101F30008EB599270895779A2E982D9A08959C0129
:101F40000097F9F48091C203882321F481E08DBDCC
:101F500081E504C0813021F41DBC80E58CBD25C025
:101F6000823019F481E08DBDF8CF8BEB97E09F9321
:101F70008F938BE78F930E9426070F900F900F90FF
:101F800014C0019741F481E08DBD80E58CBD2D9A90
:101F90002E98779808951DBC80E58CBD21303105C1
:101FA00020F02230310541F404C0779A2D9A2E9A00
:101FB0000895779A2E982D98089580E090E00895DE
:101FC00080E090E0089580E090E0089540E050E0E7
:101FD00060E070E083EC93E00E94532E0895CF936D
:101FE000DF93CEEFDFEF0E948C0F8F3F11F421972C
:101FF000D1F79927DF91CF910895CF93DF93CEEF5B
:10200000DFEF0E948C0F8E3F11F02197D1F79927B7
:10201000DF91CF910895DF92EF92FF920F931F937C
:10202000D82E8B017A0182E090E00E949F0F8FEF03
:102030000E94870F8D2D80640E94870F812F992722
:102040000E94870F802F0E94870F8F2D99270E9453
:10205000870F8E2D0E94870F85E90E94870F8FEFD3
:102060000E94870F1F910F91FF90EF90DF900895CE
:102070006F927F928F929F92AF92BF92CF92DF9298
:10208000EF92FF920F931F93CF93DF935B01690150
:102090007A013801882499243AC0A601542F442794
:1020A000550FC701B60127E09695879577956795F7
:1020B0002A95D1F781E10E940B100E94FD0F8E3FFF
:1020C00029F00E947C0F81E090E026C08501C0E0ED
:1020D000D0E00E948C0FF80181938F012196F2E0ED
:1020E000C030DF07B1F780E092E0A80EB91E8FEF95
:1020F0000E94870F8FEF0E94870F0E947C0F089429
:10210000811C911C0894C11CD11CE11CF11C86147B
:10211000970419F680E090E0DF91CF911F910F9125
:10212000FF90EF90DF90CF90BF90AF909F908F90F7
:102130007F906F90089583EC93E00E94002E0895A5
:102140002F923F924F925F926F927F928F929F92C7
:10215000AF92BF92CF92DF92EF92FF920F931F93B5
:10216000CF93DF93CDB7DEB728970FB6F894DEBFD5
:102170000FBECDBFF82E6B0139014A0118010E9434
:10218000E60FFF2019F022E030E0A8C0C801AA271E
:10219000BB27860D971DA81DB91D2091C80330913E
:1021A000C9034091CA035091CB03281739074A0746
:1021B0005B0728F483E090E09E838D8302C01E823B
:1021C0001D828091C5039091C60397FD04C0E2E093
:1021D000F0E0FE83ED8396FD7FC02D813E81232BB1
:1021E00009F092C0DC82CB8272C03FEF231631042B
:1021F00009F010F4610103C0C12CA1E0DA2E4B807C
:102200005C80840173011A82198253C0A701542F84
:102210004427550FC801B701E7E096958795779554
:102220006795EA95D1F788E10E940B100E94EF0FA5
:102230008F3F09F445C08EEF0E94870F5201188628
:102240001F82F50181915F010E94870F2F813885E0
:102250002F5F3F4F38872F832050324091F7E0E0C7
:10226000F2E04E0E5F1E8FEF0E94870F8FEF0E94ED
:10227000870F8FEF0E94870F5FEFA52EB52E0E946C
:102280008C0F882339F40894A108B108A114B10473
:10229000B9F0F5CF0894E11CF11C011D111DAB280C
:1022A00079F00E947C0F29813A812F5F3F4F3A835A
:1022B000298389819A818C159D0509F0A7CF11C0CA
:1022C0000E947C0FE1E0F0E0FE83ED831DC021144D
:1022D000310409F08ACF18C028E030E03E832D8316
:1022E00013C0C601AA27BB27680E791E8A1E9B1E33
:1022F0002C183D08DC2CCC24DD0C8B819C818C0DB2
:102300009D1D9C838B83E3CF0E949B108D819E81BA
:1023100028960FB6F894DEBF0FBECDBFDF91CF91E8
:102320001F910F91FF90EF90DF90CF90BF90AF90F3
:102330009F908F907F906F905F904F903F902F90E5
:1023400008958F929F92AF92BF92CF92DF92EF92B9
:10235000FF920F931F93CF93DF93F82EEB01490168
:102360005A0168010E94E60FFF20F1F48091C50335
:102370009091C60397FF18C0C801AA27BB27880DF4
:10238000991DAA1DBB1D2091C8033091C90340911E
:10239000CA035091CB03281739074A075B0708F097
:1023A00042C003E010E044C002E010E041C02FEF63
:1023B000C216D10409F010F4E60102C0C0E0D1E079
:1023C0008E01A5019401B70185EC93E00E943810BD
:1023D0008C01892B69F5CE01AA27BB27880E991E8F
:1023E000AA1EBB1ECC1ADD0A8091CC039091CD03AE
:1023F0009C01C29FC001C39F900DD29F900D1124DC
:10240000E80EF91EC114D10491F600E010E010C0EE
:1024100001E010E0A5019401BE0185EC93E00E946B
:1024200038108C0105C07E010130110559F7F0CF3D
:102430000E949B10C801DF91CF911F910F91FF90D7
:10244000EF90DF90CF90BF90AF909F908F900895C6
:10245000EF92FF920F931F93182F0E94E60F112304
:1024600021F0EE24FF24870108C0E090C803F0901B
:10247000C9030091CA031091CB030E949B10C801AD
:10248000B7011F910F91FF90EF9008951F93CF9385
:10249000DF93182F0E94E60F112319F0C0E0D0E05F
:1024A00004C0C091CC03D091CD030E949B10CE01FB
:1024B000DF91CF911F910895CF92DF92EF92FF921B
:1024C0000F931F93CF93DF93CDB7DEB760970FB60F
:1024D000F894DEBF0FBECDBF6B010E94E60F809166
:1024E000C5039091C60397FF8AC040E050E060E0CA
:1024F00070E089E00E940B100E94FD0F8E3F61F09A
:1025000089EC97E09F938F9383EF8F930E94260728
:102510000F900F900F9073C08E010F5F1F4F0E949E
:102520008C0FF80181938F01CE014196E817F907CE
:10253000B1F78FEF0E94870F8FEF0E94870F0E94E5
:102540007C0FEE80FFE0EF2221E030E0C90102C005
:10255000880F991FEA94E2F77C016F8177276370F7
:102560007070762F6627770F770FE885FF27EE0FBD
:10257000FF1FEE0FFF1F6E2B7F2B09851127EA85AA
:10258000FF27E370F070DF01AA0FBB1FEA2BFB2BC4
:10259000AB85BB2786E0169507958A95E1F7602BFA
:1025A000712B6F5F7F4F88279927AA0FAB2FAA1F28
:1025B000BB0BB195EA2BFB2B329602C0220F331FC7
:1025C000EA95E2F7442755270E942E476093C803F7
:1025D0007093C9038093CA039093CB03F092CD0309
:1025E000E092CC030E949B1001E010E020E030E07C
:1025F00040E050E0B60180E00E94A11104C00E94BA
:102600009B1081E090E060960FB6F894DEBF0FBE9D
:10261000CDBFDF91CF911F910F91FF90EF90DF9091
:10262000CF900895CF93DF937093CF036093CE0341
:102630005093D1034093D00389E0E5ECF3E011928D
:102640008A95E9F71092C70383EC93E00E94002E6D
:10265000C0E0D0E08FEF0E94870F2196CA30D105ED
:10266000C9F740E050E060E070E080E00E940B10AD
:102670000E94EF0F813099F4CFEFDFEF07C040E009
:1026800050E060E070E081E00E940B100E948C0F2F
:10269000882319F0219799F702C0CD2B29F40E94C5
:1026A0007C0F81E090E00AC00E947C0F80E090E8FF
:1026B0009093C6038093C50380E090E0DF91CF91B3
:1026C00008951092D3031092D2030895EF92FF92CF
:1026D0000F931F93CF93DF93EC017A018B018B81D2
:1026E00080FD1AC08EEF9FEFAFEFBFEFE80EF91E2F
:1026F0000A1F1B1F2A81332744275527C801B7010A
:102700000E942E47AB01BC018A8D9B8DAC8DBD8D87
:10271000480F591F6A1F7B1FCB01BA01DF91CF9170
:102720001F910F91FF90EF9008958FEF9FEF089505
:102730008FEF9FEF0895282F8F3F11F420E006C000
:10274000882321F099270E94A247282F822F9927BA
:1027500087FD909508958F929F92AF92BF92CF92EE
:10276000DF92EF92FF920F931F93FC016A017B01AE
:10277000838180FF07C0CB01BA016F5F7F4F8F4F0E
:102780009F4F69C0808182889388A488B5886091B2
:10279000D6037091D7038130A9F5A7019601A7E070
:1027A0005695479537952795AA95D1F7280D391D48
:1027B0004A1D5B1D01E010E081810E94A111809102
:1027C000D6039091D703F601EF77F070EE0FFF1F5D
:1027D000EE0FFF1FE80FF91F6081718182819381E5
:1027E0009F706F3F2FEF72072FEF82072FE0920746
:1027F00071F1673F2FEF72072FEF82072FE09207EB
:1028000051F525C055274F2D3E2D2D2D280D391D55
:102810004A1D5B1D01E010E081810E94A1118091A1
:10282000D6039091D703F601F070EE0FFF1FE80F6B
:10283000F91F208131818FEF2F3F380741F08FEF53
:10284000273F380721F0B9018827992704C060E0A5
:1028500070E080E090E01F910F91FF90EF90DF908B
:10286000CF90BF90AF909F908F9008952F923F92FE
:102870004F925F926F927F928F929F92AF92BF9290
:10288000CF92DF92EF92FF920F931F93CF93DF933C
:10289000CDB7DEB76A970FB6F894DEBF0FBECDBFD7
:1028A000988B8F877A8B698B5C8B4B8B18012901F6
:1028B000FE8AED8AD88ECF8AD7011D921D921D9275
:1028C0001C921397DA010D900020E9F71197A41BD1
:1028D000B50BCD010C966DE070E00E946D47F62FB0
:1028E000F064F983F53E09F496C18DE0689F90018C
:1028F00011243B832A832F3331050CF08CC17901DD
:10290000BF2E1E86CC24DD2480C1B201A1018F859B
:1029100098890E946613688779878A879B87EF85E5
:10292000F8898281282F33273D872C8731E02316B1
:1029300031044104510479F48081882361F4828553
:102940009385A485B58588879987AA87BB872681C3
:1029500037813D872C87688479848A849B8442C12F
:102960006091D6037091D70301E010E0A4019301B8
:10297000EF85F88981810E94A1112091D6033091C1
:10298000D7033F832E838091D8039091D9039D83F1
:102990008C833A8F298F9E85913019F4E98DFA8DB9
:1029A0001DC02F89388D232B99F5A98DBA8D8C9157
:1029B000853E71F1882361F14BE050E069897A89A5
:1029C000CD010E94F646892B19F5E989FA8993858C
:1029D000E98DFA8D838589238917D1F484899589B6
:1029E000AA27BB27AC0133272227828D938DAA27E4
:1029F000BB27282B392B4A2B5B2B848D958DA68DDD
:102A0000B78DED89FE8980839183A283B38307C14B
:102A1000E98DFA8D83858F3009F0D0C0A080AB148A
:102A200009F0CCC0B6FE0DC0BFEBAB2EAB20AC8125
:102A3000BD81AE0DBF1D1C920894E108F108CC8049
:102A4000DD80E98DFA8D868D978D0E949B13F601AE
:102A5000EE0DFF1D8083870101501040E98DFA8D36
:102A6000848D958D0E949B13F601E00FF11F8083EA
:102A700001501040E98DFA8D808D918D0E949B133D
:102A8000F601E00FF11F808301501040E98DFA8DAF
:102A9000868997890E949B13F601E00FF11F8083BE
:102AA00001501040E98DFA8D848995890E949B130D
:102AB000F601E00FF11F808301501040E98DFA8D7F
:102AC000828993890E949B13F601E00FF11F808396
:102AD00001501040E98DFA8D808991890E949B13E5
:102AE000F601E00FF11F808301501040E98DFA8D4F
:102AF000868597850E949B13F601E00FF11F808366
:102B000001501040E98DFA8D818592850E949B13BA
:102B1000F601E00FF11F808301501040E98DFA8D1E
:102B2000878190850E949B13F601E00FF11F80833F
:102B300001501040E98DFA8D858196810E949B138A
:102B4000F601E00FF11F808301501040E98DFA8DEE
:102B5000838194810E949B13F601E00FF11F808313
:102B600001501040E98DFA8D818192810E949B1362
:102B7000F601E00FF11F8083BA2CBA9429F0780196
:102B80000894E108F1081AC0AB89BC890D900020B7
:102B9000E9F711972B893C89A21BB30BAD01B60154
:102BA000C9010E94F646892B31F4EA80FB80B98086
:102BB00031E03E8703C0EA80FB80B980898D9A8D21
:102BC00080969A8F898F8E819F8180509E4FA98D8C
:102BD000BA8DA817B90709F0DECE0894611C711CE4
:102BE000811C911CC301E885F9858E1B9F0B2C85E8
:102BF0003D85821793070CF4B3CEB201A1018F85F6
:102C000098890E94AB131B012C012114310441044B
:102C1000510409F07ACE20E030E040E050E0CA01F3
:102C2000B9016A960FB6F894DEBF0FBECDBFDF9133
:102C3000CF911F910F91FF90EF90DF90CF90BF90B9
:102C4000AF909F908F907F906F905F904F903F904C
:102C50002F90089580E494E00E94002E089580E46F
:102C600094E00E94002E089540E050E060E070E0A3
:102C700080E494E00E94532E08952F923F924F9249
:102C80005F926F927F928F929F92AF92BF92CF92FC
:102C9000DF92EF92FF920F931F93CF93DF93CDB705
:102CA000DEB728970FB6F894DEBF0FBECDBF8C01FC
:102CB0006B015E834D830E9434160115110509F4E2
:102CC000F6C0F8010481158118870F8301151105DD
:102CD00009F4EDC06D817E816115710509F4E7C0CD
:102CE000F801E484F58406851785208131814281CD
:102CF0005381E216F3060407150708F0D2C0CB0192
:102D0000AA2797FDA095BA2F8E0D9F1DA01FB11F5A
:102D1000281739074A075B0720F42E193F093E831D
:102D20002D83EF81F885008CF18DE02DFC83EB8302
:102D3000DA82C982248035804D805E80ABC0EF810D
:102D4000F88560887188828893885101CC24DD24BD
:102D500040855185628573858B819C810E946613B5
:102D60007B018C01C401B301A60195010E9480473B
:102D7000442737FD4095542F2E0D3F1D401F511FF6
:102D80006091D6037091D70301E010E0EB81FC81E4
:102D900081810E94A111892B09F079C0C401B3017E
:102DA000A60195010E9480476101421453040CF46E
:102DB0006201CB018C0D9D1D281639061CF46101A2
:102DC000C61AD70A8091D6039091D703680F791F4E
:102DD000A60189819A810E94034776010027F7FCAA
:102DE0000095102FEF81F885248535854685578518
:102DF0002E0D3F1D401F511F24873587468757875B
:102E000080899189A289B3898E0D9F1DA01FB11F52
:102E1000808B918BA28BB38B80819181A281B381B6
:102E2000281739074A075B0720F081E090E0978B6D
:102E3000868BEF81F8852089318942895389EB811E
:102E4000FC81868D978DA0A1B1A1281739074A076B
:102E50005B07A0F0EF81F885408551856285738519
:102E60008B819C810E94AB13EF81F885608771870D
:102E700082879387108A118A128A138A69817A81DC
:102E80006C0D7D1D7A8369834C185D0803C08DEF3E
:102E90009FEF09C04114510409F051CF0D811E81EB
:102EA00008C08EEF9FEFEF81F885958B848B00E053
:102EB00010E00E942F16C80128960FB6F894DEBFC6
:102EC0000FBECDBFDF91CF911F910F91FF90EF907B
:102ED000DF90CF90BF90AF909F908F907F906F903A
:102EE0005F904F903F902F900895EF92FF920F9335
:102EF0001F93CF93DF93EC010E943416209749F083
:102F0000EC81FD81309729F0E080F180028113810E
:102F100008C00FEFE02E0FEFF02E0FEF002F0FEF96
:102F2000102F0E942F16C801B701DF91CF911F917A
:102F30000F91FF90EF900895CF93DF93EC010E94E3
:102F40003416209719F4CFEFDFEF0BC08C819D81F1
:102F5000009711F00E94FE25CE010E94FE25C0E0E0
:102F6000D0E00E942F16CE01DF91CF9108950F93EC
:102F70001F938C010E943416012B11F41092DC0374
:102F80000E942F161F910F9108952F923F924F92FA
:102F90005F926F927F928F929F92AF92BF92CF92E9
:102FA000DF92EF92FF920F931F93CF93DF93CDB7F2
:102FB000DEB724970FB6F894DEBF0FBECDBF182F33
:102FC0000E9434168091D4039091D503892B41F44B
:102FD00080E490E00E948B259093D5038093D403E6
:102FE0008091D8039091D903892B41F480E490E03B
:102FF0000E948B259093D9038093D8038091D603A8
:103000009091D703892B59F480E092E00E948B25A0
:103010009093D7038093D603892B09F445C18091FF
:10302000D4039091D503892B09F43EC18091D80334
:103030009091D903892B09F437C182E2189FF001DE
:103040001124E652FC4F11928A95E9F7E12EFF24F4
:103050002701440C551CC70135E0880F991F3A958C
:10306000E1F7480E591E2AED33E0420E531EF201DD
:103070001183812F0E944612F20195838483812F50
:103080000E94DD0F019721F4F20183818160838327
:10309000812F0E94E00F019721F4F2018381826069
:1030A0008383F201848195818050924019F001E080
:1030B00010E0FCC0F201838181FF05C020E230E016
:1030C00040E050E038C06091D6037091D70301E032
:1030D00010E020E030E040E050E08E2D0E94A11191
:1030E0008C01892B09F0E2C0E091D603F091D7035F
:1030F000E250FE4F80819181EE5FF14085559A4A02
:1031000009F0D4C0E653FE4F80819181A281B38142
:10311000EA5CF1400097A105B10509F4C7C0EA5384
:10312000FE4F2081318142815381211531054105B6
:10313000510509F4BBC06091D6037091D70301E03B
:1031400010E08E2D0E94A1112090D6033090D7035D
:103150004EEF51E0240E351ED1018D919C91E2E09D
:10316000FEEF2E0E3F1E85559A4A09F09DC0F101D3
:103170008585F2018283F101268937892115310580
:1031800071F0C901AA27BB2789839A83AB83BC83CB
:10319000D2011C9281E090E0A0E0B0E010C0F1010B
:1031A00024A135A146A157A129833A834B835C838F
:1031B00081E0D2018C9384A595A5A6A5B7A5F201BF
:1031C00086879787A08BB18BF10163857485818990
:1031D000928925E0880F991F2A95E1F7860F971F9E
:1031E00001970E9459473B0188249924E684F7847B
:1031F00000271127A48CB58CC68CD78CAE0CBF1CB5
:10320000C01ED11EF201A28AB38AC48AD58A29813E
:103210003A814B815C81A20EB31EC41ED51EA68AC4
:10322000B78AC08ED18EF1016089772788279927C8
:103230000E942E47F101248D358D468D578DE20E6B
:10324000F31E041F151FE60CF71C081D191DE60EC2
:10325000F71E081F191FF201E28EF38E048F158FDF
:10326000F10185859927F20124813581AC01429FC6
:10327000C001439F900D529F900D1124AA27BB2798
:10328000868F978FA0A3B1A366827782808691866E
:1032900029813A814B815C81A20EB31EC41ED51ECA
:1032A000A286B386C486D58600E010E00E942F1661
:1032B000C80124960FB6F894DEBF0FBECDBFDF91D4
:1032C000CF911F910F91FF90EF90DF90CF90BF9023
:1032D000AF909F908F907F906F905F904F903F90B6
:1032E0002F9008952F923F924F925F926F927F920C
:1032F0008F929F92AF92BF92CF92DF92EF92FF9206
:103300000F931F93CF93DF93CDB7DEB72E970FB6F2
:10331000F894DEBF0FBECDBFFC01892B09F4A1C21A
:10332000848180330CF49DC282330CF490C28634C5
:1033300009F097C28CC20E9434168091DE039091EE
:10334000DF030E948B259E878D87892B09F489C214
:103350003090DB03832D0E9428122B013C0180EE6C
:103360009FEFAFEFBFEF480E591E6A1E7B1EE2E6CD
:10337000F2E09F012C5F3F4F80819181A281B38158
:1033800084159505A605B70538F0D9018C919927C4
:10339000282E882341F00CC02B5F3F4F3596B2E0BA
:1033A00024383B0749F78D859E850E94FE2559C22A
:1033B0009927AA27BB2789839A83AB83BC83C30140
:1033C000B20129813A814B815C810E948047DA01F8
:1033D000C90102E0880F991FAA1FBB1F0A95D1F7E8
:1033E00081509E4FAF4FBF4F19E0B695A795979567
:1033F00087951A95D1F789879A87AB87BC874C0147
:103400005D01880C991CAA1CBB1C89819A81AB8127
:10341000BC81815A9F4FAF4FBF4F880E991EAA1E85
:10342000BB1E8F559040A040B04089839A83AB83E8
:10343000BC834091DE035091DF0360E070E08D8536
:103440009E850E940C47CC24DD24760110C001E04B
:1034500010E0A70196016D857E85832D0E94A01046
:10346000892B51F40894C11CD11CE11CF11CC81417
:10347000D904EA04FB0459F780E090E00E94D342AB
:103480006D837E838F8398874091DE035091DF03A5
:1034900060E070E08D859E850E940C47AD85BE85FD
:1034A000A254BE4F1D9281E08D938D931D928BE0AF
:1034B0008D931D921C921296EFE3AE2EB12CC12C6F
:1034C000D12CFD01A192B192C192D192DF01408233
:1034D000518262827382AA5CB140BE87AD877EEF63
:1034E000E72E71E0F72EEA0EFB1E65E5862E6AEAEE
:1034F000962EF7019182808201E010E020E030E01A
:1035000040E050E0BD01832D0E94A0108C01892B6A
:1035100009F005C14091DE035091DF0360E070E0E7
:103520008D859E850E940C478BEEAD85BE858C9364
:1035300088E5FD01818380E982830DE4038393E5BF
:10354000948384E485831FE41683978385E38087CF
:103550008EE2818780E3828780E092E09487838790
:10356000258680E290E09787868782E0808B128AAA
:10357000118A148A138A88EF858B178A168A8FE33B
:1035800090E0918F808F8FEF90E0938F828FED8509
:10359000FE85A48EB58EC68ED78E40A251A262A2A1
:1035A00073A289859A85AB85BC8584A395A3A6A3C0
:1035B000B7A311A610A613A612A652E0A52EB12CF1
:1035C000C12CD12CED85FE85A4A6B5A6C6A6D7A68E
:1035D00081E090E091AB80AB86E090E093AB82AB72
:1035E000E05CFF4F1082329689E28193FE87ED877F
:1035F0006D817E818F819885A30192010E942E4763
:10360000AD85BE856D937D938D939D938EE48D9353
:103610001D9390E29D938D9321E42D930D9385E46A
:103620008D939D939D939D939D9386E48D932D9370
:1036300084E58D9383E38D9382E38D939D939D9396
:103640009C93A955B040BE87AD87F70191828082D7
:1036500001E010E02FE330E040E050E0BD01832DB9
:103660000E94A0108C01892B09F059C001E010E0E4
:1036700025E430E040E050E06D857E85832D0E949A
:10368000A010892B09F0E7C04091DE035091DF03C1
:1036900060E070E08D859E850E940C4781EA9FEF77
:1036A000AFEFBFEF480E591E6A1E7B1E82E592E502
:1036B000A1E6B1E4ED85FE8580839183A283B38387
:1036C000EC51FE4F82E792E7A1E4B1E6819391933A
:1036D000A193B193FE87ED87C301B20129813A819D
:1036E0004B815C810E948047AD85BE852D933D93C3
:1036F0004D935D93FD01A082B182C282D382EC5EC4
:10370000F140FE87ED87D7018D929C9220E430E056
:1037100040E050E0BF01832D0E94A0108C010115F4
:10372000110509F086C04091DE035091DF0360E08F
:1037300070E08D859E850E940C472D853E8588EF23
:103740009FEFAFEFBFE0F90181939193A193B19304
:103750009F018FEF9FEFAFEFBFE0ED85FE85848384
:103760009583A683B783F90184839583A683B78362
:1037700001E010E02FE530E040E050E06D857E850F
:10378000832D0E94A0108C01892B09F052C0C9849E
:10379000DA84EB84FC848FE590E0A0E0B0E0C80E12
:1037A000D91EEA1EFB1E01E010E0A70196016D85FF
:1037B0007E85832D0E94A010892B09F04CC040917A
:1037C000DE035091DF0360E070E08D859E850E94EE
:1037D0000C4795E4AD85BE859C9324E5FD012183CE
:1037E00088E48283938382E584838EE4858385E500
:1037F0008683278380E280878187828788E083872A
:10380000158A148A138E128EED85FE85148E158E00
:10381000168E178E89859A85AB85BC85C80ED91EF4
:10382000EA1EFB1EA7019601BF01832D0E94A01076
:103830008C018D859E850E94FE250E942F16012BEE
:1038400081F4832D0E94C517009769F00AC060506B
:10385000704139F470CD8D859E850E94FE250E94B1
:103860002F168FEF9FEF2E960FB6F894DEBF0FBE88
:10387000CDBFDF91CF911F910F91FF90EF90DF901F
:10388000CF90BF90AF909F908F907F906F905F9000
:103890004F903F902F9008950F931F93CF93DF93F6
:1038A0008C0180E092E00E948B25EC01892B31F0A5
:1038B000802F0E94C517CE010E94FE25DF91CF9177
:1038C0001F910F910895EF92FF920F931F93CF9343
:1038D000DF93FC018091D2039091D3030097A9F567
:1038E0008281863409F03FC083818134E1F584818F
:1038F0008435C9F5848595850797A9F537C047EBC9
:1039000057E16CE47CE180E090E00E9412138C01AE
:10391000892B19F00EEF1FEF14C0B70180E090E083
:103920000E945C12C0E0D0E08C2F0E94C517219647
:10393000C330D105C9F781E090E09093D303809321
:10394000D203C7010E94FE251CC0019761F4828149
:10395000863449F483818D3431F48481803319F4C1
:1039600000E010E00EC00FEF1FEF0BC00E942A1600
:1039700080E092E00E948B257C01892B09F0BFCF6B
:10398000EFCFC801DF91CF911F910F91FF90EF9082
:1039900008952F923F924F925F926F927F928F92F3
:1039A0009F92AF92BF92CF92DF92EF92FF920F93CE
:1039B0001F93CF93DF93CDB7DEB7A6970FB6F894DA
:1039C000DEBF0FBECDBF9EA38DA34B018091D2035E
:1039D0009091D303892B21F48DA19EA10E94631C99
:1039E0000E9434166090D4037090D5038DA19EA1DF
:1039F000009709F422C1FC01848180330CF41DC1BD
:103A000082330CF41DC1863409F017C119C1F401C9
:103A10008081882309F411C18AE190E00E948B25FE
:103A20005C018091EC039091ED03A091EE03B091C5
:103A3000EF030097A105B10509F41AC1A114B1045F
:103A400009F4FBC0F40180818E3209F4E7C08AE1F9
:103A5000F50111928A95E9F72090E8033090E90387
:103A60004090EA035090EB03F40180818F3209F01B
:103A700006C102C1FFE3EF16F1040CF003C183019C
:103A80000E0D1F1D992787FD90950E94A247F801F2
:103A900080830894E11CF11C0894811C911CF401A2
:103AA00080818F3209F4D2C08C3509F4CFC08823CD
:103AB00009F7CCC06EE270E0C3010E941347009783
:103AC00021F409301105D8F50BC0DC011196FD0178
:103AD00001900020E9F73197EA1BFB0B349778F54A
:103AE0008E010B5F1F4F80E2F80111928A95E9F772
:103AF00048E050E060E270E0C8010E940C4743E0FB
:103B000050E060E270E0CE010D960E940C47D801B3
:103B1000F301930104C08D932F5F3F4F3196808155
:103B20008E3219F08823B9F70DC0F901DE011D9618
:103B300001C08D93818131968823D9F703C021E09C
:103B400030E002C020E030E0F40180818F3209F4DF
:103B500048C08C3509F445C0882309F05FC080E275
:103B6000888B8091DD0380FD8DC08AED882E83E0F7
:103B7000982E69017E010894E11CF11C92018101DB
:103B8000A301BE016B5F7F4FC4010E9436149B01ED
:103B9000AC01611571058105910509F473C0898136
:103BA0009A81AB81BC81F50180839183A283B38329
:103BB0002483358346835783208731874287538701
:103BC0001486158616861786108A118A128A138A19
:103BD000918E808E158A148A178A168A80E090E06A
:103BE00053C080E1888B8091DD0380FD4BC069016B
:103BF0007E010894E11CF11C92018101A301BE0128
:103C00006B5F7F4F8AED93E00E9436141B012C01FD
:103C10006115710581059105A9F12EC0C5010E94AC
:103C2000FE250BC086E090E00E948B258C0100975A
:103C300071F5C5010E94FE2533C00FEF1FEF30C0A4
:103C40008091DC03882309F0E2CEF7CFE60CF71C65
:103C5000F7011082F30101900020E9F78F01015074
:103C60001040061917090D30110508F068CF22CF52
:103C7000A114B10499F6E1CF0894811C911CEE24A3
:103C8000FF240DCF81E090E0019761F6C7CFFC01E2
:103C9000118210828DA19EA193838283B582A4821A
:103CA0000E942F16C801A6960FB6F894DEBF0FBE6D
:103CB000CDBFDF91CF911F910F91FF90EF90DF90DB
:103CC000CF90BF90AF909F908F907F906F905F90BC
:103CD0004F903F902F9008958FEF9FEF08952F9270
:103CE0003F924F925F926F927F928F929F92AF928C
:103CF000BF92CF92DF92EF92FF920F931F93CF93D9
:103D0000DF935C016B014A0129013801170181E051
:103D100090E00E949F0FC0E0D0E07601850109C0CD
:103D2000F80181918F010E94940FF70181937F0127
:103D30002196C815D905A4F3C0E0D0E07301820133
:103D400009C0F80181918F010E94940FF7018193BE
:103D50007F012196C215D305A4F30E947C0F80E059
:103D600090E0DF91CF911F910F91FF90EF90DF9046
:103D7000CF90BF90AF909F908F907F906F905F900B
:103D80004F903F902F900895EF92FF920F931F93C3
:103D9000CF93DF93CDB7DEB722970FB6F894DEBF8F
:103DA0000FBECDBF87ED89838FEF8A83EE24FF247A
:103DB00000E010E020E030E042E050E0CE0101966B
:103DC000BC010E946F1E892B19F08FEF90E002C09A
:103DD0008A81992722960FB6F894DEBF0FBECDBF19
:103DE000DF91CF911F910F91FF90EF9008950F9366
:103DF0001F930E94C41E0E94C41E082F60E070E042
:103E000020914204309143040EC06F5F7F4F808544
:103E100080239185891739F48AE0189F9001112435
:103E200020583D4F18C0162F462F5527FA01EE0F88
:103E3000FF1FCA01A3E0880F991FAA95E1F7E80FB9
:103E4000F91FE058FD4F80819181A281B3810097D5
:103E5000A105B105D1F63093430420934204CA0171
:103E60001F910F910895EF92FF920F931F93CF939D
:103E7000DF937B018C01EA0119C0209731F461E0E6
:103E800070E080E090E00E946B2B0894E108F1085C
:103E9000010911098FEFE8168FEFF8068FEF080779
:103EA0008FEF180719F48FEF9FEF06C00E94C41E12
:103EB00087FFE3CF80E090E0DF91CF911F910F91DA
:103EC000FF90EF9008955F926F927F928F929F92F2
:103ED000AF92BF92CF92DF92EF92FF920F931F9318
:103EE000CF93DF93582E4A015B01E9013801870126
:103EF000293031051CF08FEF9FEF23C0A90160E04E
:103F000070E084E494E00E940C47509244048114D1
:103F10009104A104B10469F0C501AA27BB278093CD
:103F20004504BB27AB2D9A2D892D809346048092A2
:103F3000470476019301AE0164E474E0CB010E9472
:103F40006F1EDF91CF911F910F91FF90EF90DF9047
:103F5000CF90BF90AF909F908F907F906F905F9029
:103F600008958F929F92AF92BF92CF92DF92EF927D
:103F7000FF920F931F93CF93DF934B015C018A0154
:103F80006901C9010E94F842EC01009719F40FEF92
:103F90001FEF36C07C0124E030E040E050E060E0FC
:103FA00070E084E80E94631F892B29F5E0914204A8
:103FB000F0914304068004C0880C991CAA1CBB1C09
:103FC0000A94D2F7CC24DD24EE24FF2400E010E094
:103FD00024E030E0B501A40183E80E94631F892B2F
:103FE00051F441E050E068EE73E080E090E00E9420
:103FF000331F8C0102C00FEF1FEFCE010E94F5426C
:10400000C801DF91CF911F910F91FF90EF90DF904A
:10401000CF90BF90AF909F908F900895CF92DF92F6
:10402000EF92FF920F931F93E0914204F0914304AB
:10403000068004C0660F771F881F991F0A94D2F765
:1040400069017A018A0128E030E0AB01BC0188EE09
:104050000E94631F1F910F91FF90EF90DF90CF9010
:104060000895CF92DF92EF92FF920F931F93AA27AA
:10407000BB27CC24DD24EE24FF2400E010E024E064
:1040800030E0AC01BD0181E80E94631F1F910F91D8
:10409000FF90EF90DF90CF90089560957095809598
:1040A000909520914C0430914D0440914E045091D4
:1040B0004F04262337234823592320934C0430935D
:1040C0004D0440934E0450934F0480E090E00895D7
:1040D000AF92BF92CF92DF92EF92FF920F931F9316
:1040E000CF93DF93CDB7DEB722970FB6F894DEBF3C
:1040F0000FBECDBF9B015A01492F552749838A83A3
:10410000CC24DD247601850142E050E0BE016F5FE2
:104110007F4F87E50E945F3D8A159B0519F480E07B
:1041200090E002C08FEF9FEF22960FB6F894DEBFAB
:104130000FBECDBFDF91CF911F910F91FF90EF90F8
:10414000DF90CF90BF90AF900895AF92BF92CF9283
:10415000DF92EF92FF920F931F93CF93DF93CDB730
:10416000DEB722970FB6F894DEBF0FBECDBF9B011E
:104170005A0119828A83CC24DD2476018A0142E027
:1041800050E0BE016F5F7F4F8FE60E945F3D8A1552
:104190009B0519F480E090E002C08FEF9FEF22961C
:1041A0000FB6F894DEBF0FBECDBFDF91CF911F9148
:1041B0000F91FF90EF90DF90CF90BF90AF90089558
:1041C0000F931F93CF93DF93CDB7DEB721970FB631
:1041D000F894DEBF0FBECDBF8C0141E050E0BE01C0
:1041E0006F5F7F4F8FE30E94A520892BE9F48981BF
:1041F0009927AA27BB2720914C0430914D04409168
:104200004E0450914F04822B932BA42BB52B8093FB
:104210004C0490934D04A0934E04B0934F04F801C6
:1042200080839183A283B38380914C0490914D0449
:1042300021960FB6F894DEBF0FBECDBFDF91CF91B0
:104240001F910F910895CF93DF93CDB7DEB72497D9
:104250000FB6F894DEBF0FBECDBF80E00E945B3C7E
:10426000009721F4CE0101960E94E02024960FB61B
:10427000F894DEBF0FBECDBFDF91CF910895EF92CE
:10428000FF920F931F93CF93DF93CDB7DEB728979D
:104290000FB6F894DEBF0FBECDBF8C0148E050E0F2
:1042A000BE016F5F7F4F80E30E94A5207C01892BB8
:1042B00009F073C02981822F82958F706AE0869FF2
:1042C000C00111242F70820F911DD8018D939C93F2
:1042D0002A81822F82958F70869FC00111242F70B2
:1042E000820F911DF801938382832B813327C901AB
:1042F0008F739070B4E095958795BA95E1F7AC010E
:10430000A3E0440F551FAA95E1F7880F991F840F6A
:10431000951F2F703070820F931F958384832C819B
:10432000822F82958F70869FC00111242F70820F7B
:10433000911D978386832D81822F82958F70869F12
:10434000C00111242F70820F911D019791878087E2
:104350008E81282F22952F70269FA0011124992746
:104360008F7090708C599F4F480F591F5387428709
:104370002885822F82958F70869FC00111242F700F
:10438000820F911D4A9724F04C595F4F5387428703
:104390008F819927F80195878487C70128960FB6E2
:1043A000F894DEBF0FBECDBFDF91CF911F910F916B
:1043B000FF90EF900895AF92BF92CF92DF92EF926D
:1043C000FF920F931F93CF93DF93CDB7DEB7239761
:1043D0000FB6F894DEBF0FBECDBF19822FE32A833C
:1043E0005E010894A11CB11C892BA1F082E08B8393
:1043F000CC24DD24760100E010E020E030E043E052
:1044000050E0B5018FE60E945F3D009789F486E099
:104410008B8306C01B82CC24DD24760100E010E0F3
:1044200020E030E043E050E0B5018FE60E945F3DC0
:1044300023960FB6F894DEBF0FBECDBFDF91CF91AC
:104440001F910F91FF90EF90DF90CF90BF90AF90B2
:104450000895AF92BF92CF92DF92EF92FF920F93A7
:104460001F93CF93DF93CDB7DEB721970FB6F894A4
:10447000DEBF0FBECDBF13E1A12EB12C0FC061E096
:1044800070E080E090E00E946B2B0894A108B108D6
:10449000A114B10419F48FEF9FEF14C0CC24DD24D4
:1044A000760101E010E09E012F5F3F4F40E050E0B9
:1044B00060E070E087E50E945F3D8F5F9F4FF9F2FB
:1044C00080E090E021960FB6F894DEBF0FBECDBF1E
:1044D000DF91CF911F910F91FF90EF90DF90CF90E0
:1044E000BF90AF9008952F923F924F925F926F923C
:1044F0007F928F929F92AF92BF92CF92DF92EF9274
:10450000FF920F931F93CF93DF933C014A012B013E
:1045100000E010E046C0C3018F73907020E430E0EB
:10452000281B390B54012815390508F4590182E07C
:10453000282E312C2A0C3B1CC1010E94F842EC01B0
:10454000892BA1F1872D992788836982A501B20162
:10455000CE0102960E94034781E090E00E94DB2199
:104560008C01892B31F5CC24DD24760100E010E0AC
:1045700020E030E0A101BE0187E50E945F3D8C0193
:10458000CE010E94F54201151105B1F40E942922C5
:104590008C01892B89F48A189B086A0C7B1C4A0CB5
:1045A0005B1C8114910409F0B6CF06C00FEF1FEF1A
:1045B00003C0CE010E94F54280E090E00E94DB2122
:1045C000C801DF91CF911F910F91FF90EF90DF9085
:1045D000CF90BF90AF909F908F907F906F905F90A3
:1045E0004F903F902F9008958F929F92AF92BF92DD
:1045F000CF92DF92EF92FF920F931F93CF93DF93AF
:104600004C015B01EA0181E090E00E94DB218C011A
:10461000892BC1F4CC24DD24760100E010E020E0F9
:1046200030E0AE01B5018FE60E945F3D8C01892B21
:1046300029F4892819F00E9429228C0180E090E059
:104640000E94DB21C801DF91CF911F910F91FF9054
:10465000EF90DF90CF90BF90AF909F908F90089594
:10466000EF92FF920F931F93CF93DF93CDB7DEB7F7
:104670002A970FB6F894DEBF0FBECDBF8B017A012B
:104680002AE0FE01319611922A95E9F723E0880F7E
:10469000991F2A95E1F78A836115710509F47AC09B
:1046A00040FF12C0FB0140815181842F6AE00E94CB
:1046B0004D47282F2295207FCA016AE070E00E94B2
:1046C0006D47280F20682B83E1FE12C0F80142815C
:1046D0005381842F6AE00E944D47282F2295207F26
:1046E000CA016AE070E00E946D47280F20682C83A1
:1046F000E2FE12C0F80144815581842F6AE00E94D5
:104700004D47282F2295207FCA016AE070E00E9461
:104710006D47280F20682D83E3FE12C0F801468103
:104720005781842F6AE00E944D47282F2295207FD1
:10473000CA016AE070E00E946D47280F20682E834E
:10474000E4FE14C0F80140855185842F8F5F6AE034
:104750000E944D47282F2295207FCA0101966AE0CA
:1047600070E00E946D47280F20682F83E7FE12C07B
:10477000F80144855585842F6AE00E944D47282F13
:104780002295207FCA016AE070E00E946D47280FE1
:10479000206829874AE050E0BE016F5F7F4F81E0CB
:1047A00090E00E94F4222A960FB6F894DEBF0FBE66
:1047B000CDBFDF91CF911F910F91FF90EF900895A2
:1047C000EF92FF920F931F93CF93DF93CDB7DEB796
:1047D00028970FB6F894DEBF0FBECDBF7B018A01CC
:1047E000FA011182108292E1FB0111929A95E9F788
:1047F00048E050E0BE016F5F7F4F880F880F880F41
:104800000E94A520BC01892B09F09FC0298127FFA8
:1048100020C0F8018081918181609183808333275A
:10482000C9018F779070F4E095958795FA95E1F737
:10483000AC01E3E0440F551FEA95E1F7880F991F9B
:10484000840F951F2F703070820F931FF701918393
:1048500080833A8137FF13C0F801808191818260A3
:1048600091838083832F82958F702AE0829FC0017D
:1048700011243F70830F911DF701938382832B8155
:1048800027FF20C0F801808191818460918380831B
:104890003327C9018F779070A4E095958795AA95E5
:1048A000E1F7AC01F3E0440F551FFA95E1F7880FEB
:1048B000991F840F951F2F703070820F931FF7017F
:1048C000958384833C8137FF13C0F80180819181F7
:1048D000886091838083832F82958F702AE0829FE6
:1048E000C00111243F70830F911DF70197838683C8
:1048F0003D8137FF14C0F8018081918180619183EF
:104900008083832F82958F702AE0829FC0011124BB
:104910003F70830F911D0197F701918780873F8139
:1049200037FF13C0F8018081918180689183808373
:10493000832F82958F702AE0829FC00111243F70DF
:10494000830F911DF70195878487CB0128960FB6B9
:10495000F894DEBF0FBECDBFDF91CF911F910F91B5
:10496000FF90EF9008950F931F93CF93DF93CDB7F0
:10497000DEB72A970FB6F894DEBF0FBECDBF8C010D
:104980008AE0FE01319611928A95E9F70115110529
:1049900009F481C080E38A83F80140815181842F2A
:1049A0006AE00E944D47282F2295207FCA016AE0C5
:1049B00070E00E946D47280F2B8342815381842F22
:1049C0006AE00E944D47282F2295207FCA016AE0A5
:1049D00070E00E946D47280F2C8344815581842FFD
:1049E0006AE00E944D47282F2295207FCA016AE085
:1049F00070E00E946D47280F20682D834681578103
:104A0000842F6AE00E944D47282F2295207FCA01FB
:104A10006AE070E00E946D47280F2E834085518523
:104A2000842F8F5F6AE00E944D47282F2295207FB8
:104A3000CA0101966AE070E00E946D47280F2F833B
:104A400042855385443651059CF0842F84566AE094
:104A50000E944D47282F2295207FCA0184569040FE
:104A60006AE070E00E946D47280F288780E20FC03F
:104A7000842F6AE00E944D47282F2295207FCA018B
:104A80006AE070E00E946D47280F288789E18A87D5
:104A9000F801848589874AE050E0BE016F5F7F4F4F
:104AA00080E090E00E94F4222A960FB6F894DEBFD0
:104AB0000FBECDBFDF91CF911F910F9108958093CD
:104AC000E30208950E94E92C20E033E040E050E04A
:104AD00063E075E08EED92E00E945D308EEF0E9403
:104AE0008F290E94132A0E945A292091E3022F3F06
:104AF000C1F393B783B7817F822B83BF83B7816074
:104B000083BF889583B78E7F83BF83B7817F9E7075
:104B1000892B83BFE6CF0F931F93CF93DF93009131
:104B20005104109152048017910730F080E090E01A
:104B300060C0EF01DB012FC0AC014A5F5F4F443022
:104B4000510510F444E050E0E091EF06F091F006DA
:104B50006FEE76E0C0E0D0E0A0E0B0E017C02081CA
:104B600031812417350760F02417350711F320979A
:104B700029F0888199812817390710F4EF01DB01AA
:104B8000BF016E5F7F4F0280F381E02D309739F7D0
:104B9000CE01209771F128813981CA010A966A8174
:104BA0007B818217930770F4FE01E40FF51F241B2D
:104BB000350B318320837383628359834883ED935C
:104BC000FC9302C06D937C93E881F9810E1B1F0B4F
:104BD0001093520400935104EC0FFD1F34978FEE95
:104BE0009EEBADEABEED80839183A283B383CE01B9
:104BF0000296DF91CF911F910F910895CF93DF938C
:104C0000DC0112976D917C911197E091EF06F09184
:104C1000F006CFEED6E03AC040815181CF01840F3B
:104C2000951F8A179B07C1F49A01260F371F3183FE
:104C3000208382819381DF01A20FB31FA817B907D8
:104C400091F58D919C911197280F391F3183208305
:104C5000ED018A819B8125C0AE17BF0778F4B98327
:104C6000A8832D913C911197CD01820F931F8E1730
:104C70009F0779F0ED01FB83EA8315C0A817B907F8
:104C800028F1EF0122960280F381E02D309721F682
:104C900017C0240F351F11963C932E938281938168
:104CA000FD01938382838091510490915204860F79
:104CB000971F909352048093510480E090E008C0C5
:104CC000FD0113821282B983A883EDCF8FEF9FEF8E
:104CD000DF91CF910895FC0161937193CF010E9400
:104CE000FE250895809151049091520408950F93E8
:104CF0001F93CF93DF938C010E948B25EC010097CB
:104D000029F0A80160E070E00E940C47CE01DF911D
:104D1000CF911F910F91089580915C0490915D0453
:104D2000909361048093600490936404809363047F
:104D3000109262041092650422E02093FFFF21E0AC
:104D400020935304109258041092590410925A045C
:104D500010925B04089580E090E890935D04809346
:104D60005C0480E090EC90935F0480935E0480E0AC
:104D700090E8A7E0B0E08093540490935504A0938A
:104D80005604B09357040E948C260895FC0180912C
:104D90005304882389F490916204809165049817E4
:104DA00059F42091600430916104809163049091E2
:104DB00064048217930740F480915E0490915F042D
:104DC0002091600430916104821B930B9183808356
:104DD000809162048E5F8093FFFF809160049091C8
:104DE00061040895FC0180915304882319F0118215
:104DF000108227C09091620480916504981759F43D
:104E00002091630430916404809160049091610466
:104E10002817390768F080915E0490915F04209113
:104E2000630430916404821B930B9183808309C0D7
:104E3000821B930B91838083892B19F481E08093EB
:104E40005304809165048E5F8093FFFF809163041B
:104E5000909164040895009709F440C06091600443
:104E600070916104680F791F70936104609360040E
:104E7000109253049C014427552780915804909127
:104E80005904A0915A04B0915B04820F931FA41F90
:104E9000B51F8093580490935904A0935A04B0937B
:104EA0005B0480915E0490915F0468177907B1F408
:104EB00080915C0490915D04909361048093600400
:104EC000809162048F5F809362048E3114F010929F
:104ED0006204809162048E5F8093FFFF8091600482
:104EE000909161040895009709F452C060916304A1
:104EF00070916404680F791F709364046093630475
:104F00009C01442755278091580490915904A09101
:104F10005A04B0915B04821B930BA40BB50B8093D6
:104F2000580490935904A0935A04B0935B04809161
:104F30005E0490915F0468177907B1F480915C0476
:104F400090915D0490936404809363048091650460
:104F50008F5F809365048E3114F010926504809108
:104F600065048E5F8093FFFF209163043091640499
:104F700080916004909161042817390749F4909159
:104F8000650480916204981719F481E080935304BA
:104F9000809163049091640408950097D9F1609121
:104FA000600470916104680F791F709361046093CD
:104FB00060049C014427552780915804909159041E
:104FC000A0915A04B0915B04820F931FA41FB51FD8
:104FD0008093580490935904A0935A04B0935B04AF
:104FE0001092530480915E0490915F0468177907D2
:104FF00089F480915C0490915D04909361048093A6
:105000006004809162048F5F809362048E3114F09B
:1050100010926204809165048E5F8093FFFF089573
:10502000009709F44DC06091630470916404680FA7
:10503000791F70936404609363049C01442755278F
:105040008091580490915904A0915A04B0915B0446
:10505000821B930BA40BB50B8093580490935904B7
:10506000A0935A04B0935B0480915E0490915F0416
:105070006817790789F480915C0490915D0490939E
:10508000640480936304809165048F5F809365045A
:105090008E3114F010926504209163043091640401
:1050A00080916004909161042817390749F4909128
:1050B000650480916204981719F481E08093530489
:1050C000809162048E5F8093FFFF08956091540485
:1050D0007091550480915604909157042091580482
:1050E0003091590440915A0450915B04621B730B38
:1050F000840B950B08956091580470915904809128
:105100005A0490915B040895809158049091590439
:10511000A0915A04B0915B0480509044A040B040EC
:105120008093580490935904A0935A04B0935B045D
:10513000809165048F5F809365048E3114F0109226
:105140006504809165048E5F8093FFFF0895CF937F
:10515000DF93DC019B01EC01788F6F8B1D821C8239
:105160000FB6F8940F92EB01E881F9818FEFEF3FD2
:10517000F80749F4ED018C819D8101969D838C8314
:10518000E0E0F0E015C0309799F00F900FBEED0110
:105190009A8908C09F012E5F3F4F0280F381E02D66
:1051A000309719F082899817A8F70FB6F8940F92E4
:1051B000ED01FB83EA83F901B183A083EA81FB81DE
:1051C000309771F084819581892B51F08C819D817C
:1051D00024813581820F931F9D838C8315821482D5
:1051E0000F900FBEDF91CF910895CF93DF939C0175
:1051F000DB010FB6F8940F92ED91FC9111970F908F
:105200000FBE8FEFEF3FF80731F527C08281938102
:10521000E217F307E9F40FB6F8940F9211969C93F6
:105220008E9384819581892B59F0A281B381109747
:1052300029F084819581ED019D838C8315821482F0
:105240000F900FBEF90113821282108E178A05C0CB
:10525000DF011296FC013097C9F6DF91CF910895D6
:10526000FB01168A158A82E0878763EF76E0CF011B
:105270000E94A72808950F931F93CF93DF938C016B
:10528000C091F106D091F2060CC0B801CE0106968D
:105290000E941E47892B11F4CE0107C00990D881C6
:1052A000C02D209791F780E090E0DF91CF911F9182
:1052B0000F910895E091F706F091F806309741F0CC
:1052C000838994890E94FE251092F8061092F706B1
:1052D0000895CF93DF93C091F106D091F2060E941A
:1052E0005A292091F5063091F606E1EFF6E00AC062
:1052F00088819981C217D30719F49183808304C0F0
:10530000FE01EC012097A1F78091F5069091F60639
:105310009093F8068093F706DF91CF9108950F934D
:105320001F93182FE091F506F091F606028963EFBE
:1053300076E0CF010E94F528E091F506F091F6069F
:10534000128B1F3F49F063EF76E08091F506909154
:10535000F6060E94A72802C00E946929E091F5067E
:10536000F091F6068091F3069091F406E817F9079C
:1053700019F481E0878709C082E087870FB6F89427
:105380000F920E941E300F900FBE802F99271F9101
:105390000F9108958FEF0E948F290895CF93DF9387
:1053A000C091F106D091F20620C00FB6F8940F928A
:1053B0008C819D810F900FBE892BA1F0EF89F88D14
:1053C0000FB6F8940F928C819D8101979D838C83F9
:1053D0000F900FBE808191818F5F9F4F19F0CF0199
:1053E0000E94712D0990D881C02D2097F1F60E945E
:1053F0005D2CE091F506F091F6068091F306909110
:10540000F406E817F90761F08785813011F482E02E
:1054100087870FB6F8940F920E941E300F900FBE30
:10542000DF91CF910895E091F506F091F606828123
:105430009381892B69F063EF76E0CF010E94F52814
:1054400063EF76E08091F5069091F6060E94A7281A
:105450000E94CE2908958091FF0690910007A091A7
:105460000107B09102070196A11DB11D8093FF06AF
:1054700090930007A0930107B093020708959B0142
:10548000AC016091F9067091FA068091FB0690914B
:10549000FC060E942E4728EE33E040E050E00E94D8
:1054A000804701C000002150310941095109D0F75E
:1054B00008959927AA27BB27BC01CD0128EE33E028
:1054C00040E050E00E942E470E943F2A0895CF936B
:1054D000DF93EC011B821A82E091FD06F091FE063B
:1054E0001AC0288539854A855B8580859185A28586
:1054F000B385281739074A075B0780F0281B390B4B
:105500004A0B5B0B288739874A875B87FB83EA83D3
:105510000190F081E02D309721F718C0821B930B8A
:10552000A40BB50B80879187A287B387F983E883A3
:10553000D383C283EA81FB81309719F0D183C08382
:1055400008C0D093FE06C093FD0603C019821882DE
:10555000F1CFDF91CF910895CF93DF93FC011482B7
:105560001582168217821586148680859185A285FC
:10557000B3850097A105B10561F1A281B381808156
:105580009181109719F08D939C9304C09093FE061F
:105590008093FD06C081D1812097A1F08281938103
:1055A0009B838A8388859985AA85BB8520853185DB
:1055B00042855385820F931FA41FB51F8887998743
:1055C000AA87BB871086118612861386CF010E9498
:1055D000672ADF91CF9108950FB6F8940F926091EA
:1055E000FF067091000780910107909102070F90CC
:1055F0000FBE0895AF92BF92CF92DF92EF92FF92CB
:105600000F93CF93DF936B017C01EA01590180E195
:1056100090E00E948B25FC01892B81F10FB6F89454
:105620000F928091FF0690910007A0910107B09121
:1056300002070F900FBE8C0D9D1DAE1DBF1D20914A
:105640006604309167044091680450916904821B9C
:10565000930BA40BB50B80879187A287B38700FFBC
:1056600005C0148215821682178204C0C482D582B6
:10567000E682F782D587C487B786A686CF01DF91F9
:10568000CF910F91FF90EF90DF90CF90BF90AF90B0
:1056900008950F93CF93DF930E94FA2AEC010097AD
:1056A00011F00E94672ACE01DF91CF910F910895EA
:1056B000CF92DF92EF92FF920F936A0179010E94DD
:1056C0002F319701A6010E94492B0F91FF90EF9077
:1056D000DF90CF900895AF92BF92CF92DF92EF927A
:1056E000FF920F93CF93DF935B016C0161157105FE
:1056F00081059105D1F1C3EFD6E0BE018091F50699
:105700009091F6060E94F528E091F506F091F606D4
:1057100083E08787E090F506F090F60601E09701B8
:1057200040E359E2C601B5010E94582BF701968B60
:10573000858B892B19F00E94CE2919C0E091F506BE
:10574000F091F606D08FC78B8091F3069091F40606
:105750009383828381E087878091F5069091F60696
:105760009093F4068093F30602C00E94132ADF91FF
:10577000CF910F91FF90EF90DF90CF90BF90AF90BF
:1057800008952F923F924F925F926F927F928F92E5
:105790009F92AF92BF92CF92DF92EF92FF920F93C0
:1057A0001F93CF93DF93CDB7DEB724970FB6F8944E
:1057B000DEBF0FBECDBF0FB6F8940F92A090FF06CC
:1057C000B0900007C0900107D09002070F900FBE65
:1057D0000E9405319B01AC01C601B5010E948047C2
:1057E00039014A010E9405311B012C010E9405313B
:1057F00069837A838B839C83C401B30128EE33E0F1
:1058000040E050E00E942E477B018C01C401B301AF
:10581000A20191010E942E47A61AB70AC80AD90A06
:10582000C601B50128EE33E040E050E00E942E476B
:1058300029813A814B815C810E948047E20EF31EF0
:10584000041F151FC801B70124960FB6F894DEBFD8
:105850000FBECDBFDF91CF911F910F91FF90EF90C1
:10586000DF90CF90BF90AF909F908F907F906F9080
:105870005F904F903F902F900895EF92FF920F937B
:105880001F930FB6F8940F92E090FF06F090000778
:1058900000910107109102070F900FBE0E94053181
:1058A0009B01AC01C801B7010E948047CA01B90140
:1058B0001F910F91FF90EF900895EF92FF920F9339
:1058C0001F93CF93DF930FB6F8940F922091FF06AA
:1058D0003091000740910107509102070F900FBED1
:1058E0008091660490916704A0916804B091690466
:1058F00079018A01E81AF90A0A0B1B0B2093660446
:105900003093670440936804509369044FC08885BE
:105910009985AA85BB85E816F9060A071B07A0F436
:105920008E199F09A00BB10B88879987AA87BB871F
:105930000097A105B10521F0EE24FF24870136C0B0
:10594000EE24FF24870108C0E81AF90A0A0B1B0B92
:10595000188619861A861B86EC85FD85309721F0FE
:105960006E857F85CE011995E091FD06F091FE06CA
:105970000190F081E02DF093FE06E093FD06309754
:1059800011F0138212828C819D81AE81BF81888744
:105990009987AA87BB870097A105B10521F4CE019D
:1059A0000E94FE2503C0CE010E94672AC091FD0619
:1059B000D091FE06209731F0E114F10401051105A4
:1059C00009F0A5CFDF91CF911F910F91FF90EF903C
:1059D00008958BE29AE20E940A3180917000826001
:1059E000809370000FB6F8940F922091FF063091CB
:1059F000000740910107509102070F900FBE0FB6AC
:105A0000F8940F928091FF0690910007A0910107F2
:105A1000B09102070F900FBE281739074A075B079E
:105A200071F30FB6F8940F922091FF0630910007A2
:105A300040910107509102070F900FBE13C0809153
:105A4000F9069091FA06A091FB06B091FC0601962A
:105A5000A11DB11D8093F9069093FA06A093FB0651
:105A6000B093FC060FB6F8940F928091FF069091C8
:105A70000007A0910107B09102070F900FBE2817F1
:105A800039074A075B07D9F26091F9067091FA0667
:105A90008091FB069091FC0627E630E040E050E064
:105AA0000E942E476093F9067093FA068093FB06D6
:105AB0009093FC066091F9067091FA068091FB06BE
:105AC0009091FC062AE130E040E050E00E948047DF
:105AD0002093F9063093FA064093FB065093FC0698
