:100000000C945E050C94D0050C94D0050C94D0058E
:100010000C94D0050C94BD730C94D3860C94797415
:100020000C94D0050C94D0050C94D0050C94D005FC
:100030000C94D0050C9465750C94D0050C94D005E7
:100040000C94D0050C94D0050C94D0050C94D005DC
:100050000C94D0050C94D0050C94D0050C94EF743E
:100060000C94D0050C94DD800C94D0050C94588130
:100070000C94D0050C94D0050C94D0050C94D005AC
:100080000C94D0050C94D0050C94D0050C94D0059C
:100090000C94D2810C94D0050C944D820C94638006
:1000A0000C94D0050C94D0050C94D0050C94D0057C
:1000B0000C94D0050C94D0050C94D0050C94D0056C
:1000C0000C94D0050C94D0050C94D005E0762977DB
:1000D00070779677AA77D277DA77FF77DD7621780F
:1000E00068786E7874787A78977880789778CD7811
:1000F000A278B77856616C7565206F662066697264
:100100007374537461727475703A2025640056617B
:100110006C7565206F662074696D655A6F6E653AFF
:1001200020256400495020257320504F525420252B
:10013000730043484152203D202563004572726F91
:10014000723A203E3E204E7574546370436F6E6E5B
:1001500065637428290077007561727430000A00A5
:100160000A23446562756720000A23496E666F2082
:1001700020000A234E6F74696320000A23576172BE
:100180006E2020000A23457272202020000A23439B
:100190007269742020000A23416C65727420000A81
:1001A00023456D65726720003F3F203C444D4B3E28
:1001B000200057443A200056533A200056453A2032
:1001C0000055543A200055443A200055413A200049
:1001D00053523A200053503A200053473A200053DC
:1001E000453A200053543A200052543A20005243DA
:1001F0003A2000504C3A200050413A20004D443AF9
:1002000020004D4D3A20004D453A200053593A20E8
:10021000004C473A20004C453A20004B423A20001F
:10022000494E3A200048543A2000464C3A200046B5
:10023000413A200044503A2000434D3A20004348C0
:100240003A200041553A200030803000170780B036
:10025000173C06001750003F24000600162012002D
:100260008F570000CE101229009900004D008040E9
:100270004C180600D7960028550D0000480D0600C2
:10028000505B0930420080B00180144240BC182805
:1002900040C71336423C003E03B81400031B150050
:1002A000C259D66F2400003603981228D557000093
:1002B0004D000028402BF33624004C80103E1438AB
:1002C000103E0A78133E0DB8033E05F8060095551A
:1002D000093015141B00D4FF0300CEFF01000A00F3
:1002E0000024CE168AB5240092F2009452612400B4
:1002F00002FE2400B24824004A4501B6F33605D870
:10030000F3360D98F0360A5800200000F036141825
:10031000618013362400123E17B8123E1538053E90
:1003200014B82536240000000A80103E03B894411A
:1003300005B8113E2400113E07B8143E1278143E51
:100340000DF8033E0EF8060051000028D5240000E9
:10035000240088B81200046405040000240000286A
:1003600058219440240000240221000024009864B5
:10037000030856FE2400B6482400D64D2400103A47
:1003800024C0F03224C056FE2400B6482400D64DC6
:1003900024008443834496638C8800F4D540003D58
:1003A0002480060091003F00C3FE06005300013187
:1003B000248060FE2400BE48240034A6030C24439D
:1003C00024008442022C060011000028D8240031A9
:1003D00024800600115000392480060011000031ED
:1003E0004C9884424C9000F4884000284528000036
:1003F0002400F03C403809304138093010380020E2
:100400000000000088270930D01B00288028093010
:10041000811BF334CC1BF3360ED8F4360DD8F436EA
:100420001258F1360798F1360518F036039805345E
:100430001490F3362400F236151800200000F2362E
:100440001798AD80123E17B8123E1538053E14B805
:100450001536240000000A80103E0278103E04F891
:10046000113E1078143E1278132980C9143E24C01E
:10047000132980C988404C1800F405400000C018BA
:10048000006424000000C01B0028953030001003D9
:100490000028803F01382440006424000000401AF6
:1004A000002855370600D0550000037D84B84C184D
:1004B00009300538093000008AFF24001D29007B1F
:1004C000B248240000004118060010508A4044B889
:1004D00000290013884024000030CC1B1460240045
:1004E000300051030028D53600002400060011001A
:1004F0000031240030005103003824000028803FE0
:1005000001392440006424003000D0030028553F06
:100510000000037D0600D05584B84C18093005381A
:10052000093000008AFF24001D29007BB248240006
:100530008A40CC9B000041180028553B0600105013
:100540009A682400003024001460240030009203D4
:100550000028853E06009100060011000000521898
:100560000600530080B8002406009100043824805F
:1005700030009203003B2400013924400028803FD2
:10058000013A24400138244080B8D31BF436125875
:10059000F1361058F03604D8F0360258053414906D
:1005A000F3362400F236151800200000F2361798B2
:1005B000300000000000457869740000000053EF2F
:1005C0006E534E4F4F5A4500536E6F6F7A655469A4
:1005D0006D6520256400000000004578697453EFC4
:1005E0006E4DEA6D5400000000070606060606067A
:1005F000060606060606060606060606060606069B
:10060000060606060606060606060606060606068A
:10061000060606060606060606060606060606067A
:100620000606070606060606060606060606060669
:10063000060606060606060606060606060606065A
:100640000606060606060606060606060607060649
:10065000060606060606060606060606060606063A
:10066000060606060606060606060606060606062A
:10067000060606060606060606060606060606061A
:10068000060606060606060606060606060606060A
:1006900006060606060606060606060606060606FA
:1006A00006060606060606060606060606060606EA
:1006B00006060606060606060606060606060606DA
:1006C00006060606060606060606060606060606CA
:1006D00006060606060606060606060606060606BA
:1006E00006060606060607060606060606060606A9
:1006F000060606060606060606060606060606069A
:100700000606060606060606060606060606060689
:100710000606060606060606060606060606060679
:100720000606060606060606060606060606060669
:100730000606060606060606060606060606060659
:100740000606060606060606060606060606060649
:100750000606060606060606060606060606060639
:100760000606060606060606060606060606060629
:100770000606060606060606060606060606060619
:100780000606060606060606060606060606060609
:100790000606060606060606060606060606546849
:1007A00072656164206661696C65640043617264AE
:1007B0005072657300436172642072656D6F766577
:1007C00064004361726420696E73657274656400CD
:1007D0004572726F7220696E697469616C697369C0
:1007E0006E672046696C652073797374656D20614E
:1007F0006E6420436172642D647269766572004391
:10080000617264206D6F756E74656400696E7661E7
:100810006C6964205370656564006572726F722044
:10082000647572696E672043534420726561640089
:1008300053686F7753657474696E6773004572729D
:100840006F723A203E3E204E7574546370436F6E53
:100850006E6563742829004572726F7220636F643D
:10086000653A202564004572726F723A2043616ECA
:100870006E6F7420636F6E666967757265206E6552
:1008800074776F726B2E0A00677720202020203A41
:100890002025730069702D6D61736B3A20257300FC
:1008A00069702D616464723A2025730069665F6E19
:1008B000616D653A202573004E6574776F726B69C0
:1008C0006E67207365747570204F4B2C206E6577B2
:1008D0002073657474696E6773206172653A0A00EB
:1008E0004572726F723A203E3E204E7574446863C2
:1008F000704966436F6E6669672829004572726F9A
:10090000723A203E3E204E75745265676973746575
:1009100072446576696365282900FFFFFF30FFFF99
:10092000FFFFFFFFFFFFFFFFFFFFFFFF00000000D3
:1009300000000000000000000000000000000000B7
:1009400000000000000000000000000000000000A7
:100950000000000000000000000000000000000097
:100960000000000000000000000000000000000087
:100970000000000000000000000000000000000077
:100980000000000000000000000000000000000067
:100990000000000000000000000000000000000057
:1009A0000000000000000000000000000000000047
:1009B0000000000000000000000000000000000037
:1009C0000000000000000000000000000000000027
:1009D0000000000000000000000000000000000017
:1009E0000000000000000000000000000000000007
:1009F00000000000000000000000000000000000F7
:100A000000000000000000000000000000000000E6
:100A100000000000000000000000000000000000D6
:100A200000000000000000000000000000000000C6
:100A300000000000000000000000000000000000B6
:100A400000000000000000000000000000000000A6
:100A50000000000000000000000000000000000096
:100A60000000000000000000000000000000000086
:100A70000000000000000000000000000000000076
:100A80000000000000000000000000000000000066
:100A90000000000000000000000000000000000056
:100AA0000000000000000000000000000000000046
:100AB00000000000000000000000000084E88093B7
:100AC0007400479A3F9A469A3E9A81EE809300C3FB
:100AD00080E4809301C385B78F7785BF80E090E085
:100AE000359B05C0019641F0359BF8CFFBCF0196B1
:100AF00019F03599F3CFFBCF85B7806885BF47984C
:100B00003F9846983E9887E08093C4008093CC003D
:100B100011241FBECFEFD1E2DEBFCDBF1AE0A0E0AF
:100B2000B2E0E0EBF2E301E00BBF02C007900D92F0
:100B3000A836B107D9F71EE0A8E6BAE001C01D92B9
:100B4000A93FB107E1F78FEF9FE79EBF8DBF8FEF02
:100B50009FE7895F9E408158914040F06FEF7EE7AC
:100B6000695F7E4089EF9EE00E94C3660E94866FA7
:100B7000892B41F060EE78E08DEC9EE00E949A981F
:100B80000E946D6F20E831E040E050E060EE78E3D5
:100B900089EE98E00E943D720E9400000C945799E3
:100BA0000C94000087EF84B98CE08AB98BB18C700B
:100BB000836F8BB98EE88DB98EB18E7881608EB9D6
:100BC00085B7806885BF85B7806885BF8EE080BBAC
:100BD00081B38E70816F81BB88E183BB08951092D1
:100BE000480E1092470E08959093320E8093310E66
:100BF00008950E94FB120E94FA1B08950F931F9301
:100C0000CF93DF93CDB7DEB7A6970FB6F894DEBFCC
:100C10000FBECDBFDE011196E3E1FEE082E101905F
:100C20000D928150E1F701E010E01093FA0D00936E
:100C3000F90D83E19EE00E94212F1092340E109254
:100C4000330E20E034E040E050E06FEA7CE080E0EA
:100C500092E00E943D721093320E0093310E0E947A
:100C60001A158091270E9091280E892B81F083E12F
:100C700092E00E94B2145BC00E941A151092120EEC
:100C80001092110E1092FA0D1092F90DA5C083E189
:100C900092E00E94E9144BC064E670E080E090E0CE
:100CA0000E94C36B8091110E9091120E892B21F737
:100CB0000E94E6148091FB0D9091FC0D813091050E
:100CC00071F082309105A9F0892B89F58091190E78
:100CD00090911A0E9F938F9383E292E014C08091BB
:100CE0001B0E90911C0E01969F938F9382E392E0CE
:100CF0000AC080911D0E90911E0E8459984F9F93AB
:100D00008F9383E492E09F938F938E010D5E1F4F2C
:100D10001F930F930E94408EC8010E94B5148DB797
:100D20009EB706960FB6F8949EBF0FBE8DBF8091FA
:100D3000330E9091340E019709F0AECF0E941A1530
:100D40001092320E1092310E83E19EE00E941E330B
:100D5000892B49F0A3E1BEE0FE01319682E10190CA
:100D60000D928150E1F780911D0E90911E0E8459D5
:100D7000984F9F938F9380911B0E90911C0E01961C
:100D80009F938F938091190E90911A0E9F938F933A
:100D90008091130E9091140E9F938F938091150E56
:100DA0009091160E9F938F938091170E9091180E2D
:100DB0009F938F9383E592E09F938F930E94B18DD1
:100DC0001092FA0D1092F90D8DB79EB70E960FB6D0
:100DD000F8949EBF0FBE8DBFA6960FB6F894DEBFE7
:100DE0000FBECDBFDF91CF911F910F910895CF938B
:100DF000DF93EC0128813981C9010C964B9728F5C6
:100E00003F932F9382E892E09F938F930E94B18D3E
:100E10002881398180EF91EFAC01249FC001259F8B
:100E2000900D349F900D1124AA2797FDA095BA2FFD
:100E30008093D7099093D809A093D909B093DA0980
:100E40000F900F900F900F9008C01092D70910923A
:100E5000D8091092D9091092DA09DF91CF9108953B
:100E6000CF93DF93CDB7DEB764970FB6F894DEBFAC
:100E70000FBECDBF0E941A1522E030E049E25EE0CD
:100E800062E070E080E090E00E94E22D8091290E07
:100E900090912A0E0C964B9720F010922A0E1092E9
:100EA000290E8091270E9091280E892B41F4809174
:100EB000F70D9091F80D892B09F49DC0B6C0809173
:100EC000290E90912A0E9093260E8093250E81E094
:100ED00090E09093320E8093310E81E992E00E946F
:100EE000B21410922C0E10922B0E20E034E040E051
:100EF00050E06DE27EE08EE992E00E943D7236C0E5
:100F000064E670E080E090E00E94C36B8091110E77
:100F10009091120E892B09F09BC08091250E909123
:100F2000260E9E012F5F3F4F4FEF8F3F940731F00A
:100F30002CF09F938F938FEA92E004C09F938F933E
:100F400088EB92E09F938F933F932F930E94408E64
:100F50008DB79EB706960FB6F8949EBF0FBE8DBF95
:100F6000CE0101960E94B5140E94CB1B80912B0EDE
:100F700090912C0E019721F61092320E1092310EA4
:100F80008091F70D9091F80D892B59F14091250E24
:100F90005091260E8091290E90912A0E9A01281BBD
:100FA000390B8091170E9091180E280F391F30932E
:100FB000180E2093170E283131051CF028513040AF
:100FC00004C037FF06C0285E3F4F3093180E2093B1
:100FD000170E50932A0E4093290E83E19EE00E9443
:100FE0001E3322E030E049E25EE062E070E080E043
:100FF00090E00E94852D8091290E90912A0E9F935A
:101000008F938EE091E09F938F9386EC8F930E9455
:101010008D110E941A1589E29EE00E94F7060F903A
:101020000F900F900F900F9019C08091290E909102
:101030002A0E9093260E8093250E81E090E09093E7
:10104000320E8093310E81E992E00E94E91449CF7B
:101050000E941A151092120E1092110E64960FB67D
:10106000F894DEBF0FBECDBFDF91CF9108950F93EF
:101070001F93CF93DF93CDB7DEB764970FB6F89485
:10108000DEBF0FBECDBF83E19EE00E94212F892BE2
:1010900041F58091130E9091140E9F938F93809140
:1010A000150E9091160E9F938F938091170E90912D
:1010B000180E9F938F9380EC92E09F938F938E01F5
:1010C0000F5F1F4F1F930F930E94408EC8010E9415
:1010D0001F158DB79EB70A960FB6F8949EBF0FBE28
:1010E0008DBF64960FB6F894DEBF0FBECDBFDF9103
:1010F000CF911F910F9108950F931F93CF93DF937B
:10110000CDB7DEB766970FB6F894DEBF0FBECDBF82
:10111000AE014F5F5F4F6DEF7DE081E090E00E9498
:10112000243210922E0E10922D0E20E034E040E07A
:1011300050E06FED7AE08FEC92E00E943D7281E02A
:101140000E9417140E941A158FED92E00E94E91474
:101150000E9437086CC064E670E080E090E00E9476
:10116000C36B8091110E9091120E892B39F00E9461
:101170001A151092120E1092110E6DC00E94E614F4
:1011800080910F0E9091100E8230910511F18330F5
:10119000910534F4009759F0019709F048C010C048
:1011A00083309105F9F0049709F041C024C0809183
:1011B000050E9091060E9F938F938BEE92E023C0C5
:1011C0008091030E9091040E9F938F938BEF92E08A
:1011D0001AC08091010E9091020E9F938F9389E027
:1011E00093E011C08091FF0D9091000E9F938F931B
:1011F00088E193E008C08091FD0D9091FE0D9F93D2
:101200008F938AE293E09F938F938E010D5F1F4F20
:101210001F930F930E94408EC8010E94B5148DB792
:101220009EB706960FB6F8949EBF0FBE8DBF8091F5
:101230002D0E90912E0E019709F08DCF0E941A1558
:1012400080E00E9417144FE150E06DEF7DE081E0F7
:1012500090E00E94123166960FB6F894DEBF0FBE82
:10126000CDBFDF91CF911F910F9108950F931F93E1
:10127000CF93DF93CDB7DEB766970FB6F894DEBF96
:101280000FBECDBFAE014F5F5F4F65E37EE080E0F4
:1012900090E00E9424321092300E10922F0E20E027
:1012A00034E040E050E061EF7BE08CE393E00E94AB
:1012B0003D7281E00E9417140E941A158CE493E09D
:1012C0000E94E9140E9437084FC064E670E080E095
:1012D00090E00E94C36B8091110E9091120E892BA9
:1012E00039F00E941A151092120E1092110E50C071
:1012F0000E94E61480910F0E9091100E813091059E
:1013000071F082309105A1F0892B71F58091390E31
:1013100090913A0E9F938F9388E593E011C080914E
:10132000370E9091380E9F938F9388E193E008C019
:101330008091350E9091360E9F938F938AE293E0C1
:101340009F938F938E010D5F1F4F1F930F930E94EA
:10135000408EC8010E94B5148DB79EB706960FB691
:10136000F8949EBF0FBE8DBF80912F0E9091300ECE
:10137000019709F0AACF0E941A1580E00E94171465
:1013800047E050E065E37EE080E090E00E941231AB
:1013900066960FB6F894DEBF0FBECDBFDF91CF913A
:1013A0001F910F9108950F931F93CF93DF93CDB7A4
:1013B000DEB7A6970FB6F894DEBF0FBECDBFDE0135
:1013C0001196E3E1FEE082E101900D928150E1F798
:1013D00001E010E01093FA0D0093F90D83E19EE017
:1013E0000E94212F1092340E1092330E20E034E030
:1013F00040E050E068E67DE080E092E00E943D72CF
:101400001093320E0093310E0E941A158091270E10
:101410009091280E892B61F088E693E00E94B21427
:1014200056C00E941A151092120E1092110E6BC027
:1014300088E693E00E94E9140E94370848C064E6F9
:1014400070E080E090E00E94C36B8091110E90915B
:10145000120E892B31F70E94E6148091FB0D9091BA
:10146000FC0D8130910571F082309105A1F0892B3E
:1014700071F58091170E9091180E9F938F9388E5C8
:1014800093E011C08091150E9091160E9F938F934B
:1014900088E193E008C08091130E9091140E9F9301
:1014A0008F938AE293E09F938F938E010D5E1F4F7F
:1014B0001F930F930E94408EC8010E94B5148DB7F0
:1014C0009EB706960FB6F8949EBF0FBE8DBF809153
:1014D000330E9091340E019709F0B1CF0E941A1586
:1014E0001092320E1092310E83E19EE00E941E3364
:1014F000892B49F0A3E1BEE0FE01319682E1019023
:101500000D928150E1F71092FA0D1092F90DA69606
:101510000FB6F894DEBF0FBECDBFDF91CF911F9104
:101520000F91089583E19EE00E94AD36892BC1F4AE
:1015300088E793E00E94B21480E893E00E94B5141B
:1015400060ED77E080E090E00E94C36B81E790E07F
:1015500090931E0E80931D0E0E94D3090E94FE05DB
:1015600008951092480E1092470E68EC70E080E0EB
:1015700090E00E94C36B0E94C613883839F0109225
:10158000480E1092470E81E00E9417148091310E90
:101590009091320E892B49F48091470E9091480E1C
:1015A00001969093480E8093470E8091470E90913C
:1015B000480E4997D4F280E00E941714D6CF1092BB
:1015C000100E10920F0E6CE271E080E090E00E942D
:1015D000C36B64EF71E080E090E00E940814019713
:1015E00091F30E94C613883009F05EC020910F0E5F
:1015F0003091100E2230310569F1233031053CF471
:101600002115310559F021303105E9F615C0233097
:10161000310571F124303105B1F638C08091050EE5
:101620009091060E8B3091052CF01092060E1092C0
:10163000050EC9CF01965BC08091030E9091040EF8
:101640008F3191052CF03093040E2093030EBBCF05
:1016500001965DC08091010E9091020E8731910537
:101660002CF01092020E1092010EADCF01965FC0C9
:101670008091FF0D9091000E8B3391052CF010920C
:10168000000E1092FF0D9FCF019661C08091FD0D5D
:101690009091FE0D8B3391052CF01092FE0D10925F
:1016A000FD0D91CF019665C08B3009F067C0809128
:1016B0000F0E9091100E8230910581F183309105CB
:1016C00034F4009759F0019709F07DCF17C08330AB
:1016D0009105A1F1049709F076CF40C08091050EE5
:1016E0009091060E181619063CF08BE090E090934E
:1016F000060E8093050E67CF0197F9CF8091030EF8
:101700009091040E823091053CF48FE190E090932B
:10171000040E8093030E57CF0197F9CF8091010EED
:101720009091020E181619063CF087E190E0909314
:10173000020E8093010E47CF0197F9CF8091FF0DE4
:101740009091000E181619063CF08BE390E09093F0
:10175000000E8093FF0D37CF0197F9CF8091FD0DDB
:101760009091FE0D181619061CF08BE390E001C055
:1017700001979093FE0D8093FD0D25CF8A3061F483
:1017800080910F0E9091100E181619061CF084E02F
:1017900090E00DC001970BC08C3071F480910F0E5A
:1017A0009091100E843091050CF009CF0196909322
:1017B000100E80930F0E07CF893039F481E090E04E
:1017C00090932E0E80932D0E09C0873009F0FBCE2A
:1017D00081E090E09093120E8093110E0E94226A95
:1017E000F2CE1092100E10920F0E6CE271E080E0BB
:1017F00090E00E94C36B64EF71E080E090E00E9493
:101800000814019791F30E94C6138830B1F58091B6
:101810000F0E9091100E8130910599F08230910554
:10182000F1F0892B11F78091390E90913A0E8731A2
:1018300091052CF010923A0E1092390ED6CF0196E7
:1018400034C08091370E9091380E8B3391052CF077
:101850001092380E1092370EC8CF019636C0809184
:10186000350E9091360E8B3391052CF01092360E7A
:101870001092350EBACF019638C08B30E9F58091C1
:101880000F0E9091100E81309105B1F082309105CC
:1018900019F1892B09F0A9CF8091390E90913A0E58
:1018A000181619063CF087E190E090933A0E809369
:1018B000390E9BCF0197F9CF8091370E9091380E5A
:1018C000181619063CF08BE390E09093380E809345
:1018D000370E8BCF0197F9CF8091350E9091360E50
:1018E000181619063CF08BE390E09093360E809327
:1018F000350E7BCF0197F9CF8A3061F480910F0EBE
:101900009091100E181619061CF082E090E00DC0A0
:1019100001970BC08C3071F480910F0E9091100ED6
:10192000823091050CF05DCF01969093100E80935C
:101930000F0E5BCF893039F481E090E09093300E48
:1019400080932F0E09C0873009F04FCF81E090E0DF
:101950009093120E8093110E0E94226A46CF10922D
:10196000FC0D1092FB0D6CE271E080E090E00E94B3
:10197000C36B64EF71E080E090E00E94081401976F
:1019800091F30E94C613883081F58091FB0D9091F0
:10199000FC0D81309105A9F08230910501F1892B70
:1019A00011F78091190E90911A0E8E3191051CF04D
:1019B00081E090E001C0019690931A0E8093190E79
:1019C000D2CF80911B0E90911C0E8B3091052CF084
:1019D00010921C0E10921B0EC6CF01962AC0809149
:1019E0001D0E90911E0E019634C08B30B9F580917A
:1019F000FB0D9091FC0D8130910591F082309105A5
:101A0000F9F0892B09F0AFCF8091190E90911A0E41
:101A1000823091051CF48FE190E0CECF0197CCCFBE
:101A200080911B0E90911C0E181619063CF08BE04D
:101A300090E090931C0E80931B0E95CF0197F9CFE9
:101A400080911D0E90911E0E181619060CF08BCF6A
:101A5000019790931E0E80931D0E85CF8A3061F4FE
:101A60008091FB0D9091FC0D181619061CF082E078
:101A700090E00DC001970BC08C3071F48091FB0D8C
:101A80009091FC0D823091050CF069CF01969093F6
:101A9000FC0D8093FB0D67CF893039F481E090E035
:101AA0009093340E8093330E10C0873009F05BCFD3
:101AB0008091270E9091280E892B09F054CF81E058
:101AC00090E09093120E8093110E0E94226A4BCFE9
:101AD0001092FC0D1092FB0D6CE271E080E090E042
:101AE0000E94C36B64EF71E080E090E00E940814F4
:101AF000019791F30E94C6138830B1F58091FB0DD8
:101B00009091FC0D8130910599F082309105F1F0B2
:101B1000892B11F78091170E9091180E873191053E
:101B20002CF01092180E1092170ED6CF019634C0DA
:101B30008091150E9091160E8B3391052CF010921A
:101B4000160E1092150EC8CF019636C08091130E56
:101B50009091140E8B3391052CF01092140E10926C
:101B6000130EBACF019638C08B30E9F58091FB0D8A
:101B70009091FC0D81309105B1F08230910519F101
:101B8000892B09F0A9CF8091170E9091180E181685
:101B900019063CF087E190E09093180E8093170EA1
:101BA0009BCF0197F9CF8091150E9091160E1816C4
:101BB00019063CF08BE390E09093160E8093150E7F
:101BC0008BCF0197F9CF8091130E9091140E1816B8
:101BD00019063CF08BE390E09093140E8093130E63
:101BE0007BCF0197F9CF8A3061F48091FB0D909102
:101BF000FC0D181619061CF082E090E00DC001974C
:101C00000BC08C3071F48091FB0D9091FC0D8230F3
:101C100091050CF05DCF01969093FC0D8093FB0D28
:101C20005BCF893039F481E090E09093340E80935B
:101C3000330E10C0873009F04FCF8091270E90915E
:101C4000280E892B09F048CF81E090E09093120E86
:101C50008093110E0E94226A3FCF68EC70E080E012
:101C600090E00E94C36B64EF71E080E090E00E941E
:101C70000814019791F30E94C613883081F4809173
:101C8000250E9091260E8E30910514F4019602C017
:101C900084EF9FEF9093260E8093250EDECF8B303E
:101CA00069F48091250E9091260E2FEF853F9207C3
:101CB00014F00197EFCF8EE090E0ECCF893039F44B
:101CC00081E090E090932C0E80932B0E0FC0873014
:101CD00021F68091270E9091280E892B09F0BDCF17
:101CE00081E090E09093120E8093110E0E94226A80
:101CF000B4CFCF92DF92EF92FF920F931F937C01AC
:101D00006B01DB010D900020E9F71197A61BB70BC3
:101D1000FC0101900020E9F7E81BF90BCD018E0FC3
:101D20009F1F0E94F3928C01B7010E949A98B601FE
:101D3000C8010E947B98C8011F910F91FF90EF90FE
:101D4000DF90CF9008958F929F92AF92BF92CF92E3
:101D5000DF92EF92FF920F931F93CF93DF930E9436
:101D6000E24EEC0181E993E00E940A53AB01BC0111
:101D700020E530E0CE010E947C4F892B61F08CE39E
:101D800091E09F938F9383EC8F930E948D1181E05C
:101D900090E00E9457996FE973E0CE010E948D8B0D
:101DA000EC0183EA93E09F938F9385EA93E09F93FE
:101DB0008F93DF93CF930E945A8D87EB93E09F938D
:101DC0008F9385EC93E09F938F93DF93CF930E9443
:101DD0005A8DBE0180ED93E00E94A08DBE0187EE7A
:101DE00093E00E94A08DBE0185EF93E00E94A08D3C
:101DF000BE0187E094E00E94A08DCE010E94DE8BA0
:101E00008AE090E00E94F3924C010DE114E08DB75E
:101E10009EB70C960FB6F8949EBF0FBE8DBF09C03B
:101E2000F4018081882369F0B401C8010E94790E11
:101E30008C01AE016AE070E0C4010E94E68C892B3F
:101E400079F760E070E0C8010E94790E8C01CC2423
:101E5000DD2420E030E07C0129C0F70180818C374F
:101E6000F9F45801A20EB31EE90116C0F5018191E3
:101E70005F01992787FD90959F938F9382E391E06F
:101E80009F938F9386EC8F930E948D1121960F90D4
:101E90000F900F900F900F90CC15DD053CF396013D
:101EA0000894C11CD11C0894E11CF11CF80101909C
:101EB0000020E9F73197E01BF10BCE16DF0668F240
:101EC0008DE194E09F938F939F938F9384E291E0B1
:101ED0009F938F9386EC8F930E948D11C4010E9473
:101EE000F0928DB79EB707960FB6F8949EBF0FBEBF
:101EF0008DBFDF91CF911F910F91FF90EF90DF90F9
:101F0000CF90BF90AF909F908F9008951092320E17
:101F10001092310E0E94CD1B84E60E94B16A0E948D
:101F2000D2050E946F1D0E94A2100E9456100E94AE
:101F3000CD120E94531C0E945F1B0E94E3130E945B
:101F4000F3120E94301640E050E069EF75E084E241
:101F500099E00E94B06F892B49F485B5846085BDF6
:101F6000A89A80916E00816080936E00789420E042
:101F700034E040E050E061EB7AE08EE194E00E94D2
:101F80003D720E94CB2C0297E9F422E030E047E258
:101F90005EE060E070E080E090E00E94E22D8091E1
:101FA000270E9091280E9F938F9384EF90E09F933C
:101FB0008F9386EC8F930E948D110F900F900F904E
:101FC0000F900F900E94052F0E947F370E943007CC
:101FD00081E090E09093F80D8093F70D0E94920AB3
:101FE0000E9499341092FA0D1092F90D8091270EEB
:101FF0009091280E892B71F01092280E1092270EC6
:1020000022E030E047E25EE060E070E080E090E0F7
:102010000E94852D0E94A30E81E00E94E76964EF73
:1020200071E080E090E00E94C36B8091F90D909187
:10203000FA0D892B11F40E9437080E94CB1BEFCFB9
:102040008091680A9091690A08958091680A909138
:10205000690A009731F00E944D8B1092690A109224
:10206000680A0895CF93DF93CDB7DEB724970FB6F4
:10207000F894DEBF0FBECDBF69837A838B839C83C8
:102080008091680A9091690A0E94EF8BAE014F5FC0
:102090005F4F63E171E00E94E38A24960FB6F894E3
:1020A000DEBF0FBECDBFDF91CF910895EF92FF92BB
:1020B0000F931F93CF93DF93CDB7DEB72D970FB656
:1020C000F894DEBF0FBECDBF80E092ECA1E0B0E09F
:1020D0008C839D83AE83BF8388E0E82EF12CEC0EC9
:1020E000FD1E68E571E0C7010E94419866E571E058
:1020F0008E010F5F1F4FC8010E9441984091C40993
:102100005091C509B801C7010E947B8C9093690A60
:102110008093680A009749F00E94EF8BAE014C5FF4
:102120005F4F61E071E00E94E38A2D960FB6F8944C
:10213000DEBF0FBECDBFDF91CF911F910F91FF90FA
:10214000EF9008951092690A1092680A40E060E0EA
:1021500070E080E399E00E94416F089590916A0ACF
:10216000883010F480936A0A892F992708952F9256
:102170003F924F925F926F927F928F929F92AF9217
:10218000BF92CF92DF92EF92FF920F931F93CF9364
:10219000DF93CDB7DEB7CD54D0400FB6F894DEBF95
:1021A0000FBECDBF7C016B011A01892B09F48EC0D3
:1021B00094E0692E712C44245524AA24BB24A0E069
:1021C000B0E000E010E07EC0C5018F709070892BF8
:1021D00069F54DE450E060E270E08E010F5F1F4F43
:1021E000C8010E9474989301220F331F220F331FDE
:1021F0002450304040E050E0D801F201022E02C0ED
:10220000F695E7950A94E2F7EF70F070E05DFB4F0A
:1022100080818D934F5F5F4F2450304046155705A6
:1022200061F7D301129683010C5C1F4FF601908178
:10223000E92FE295EF70FF27E05DFB4F50814D01E4
:102240000894811C911CE92FFF27EF70F070E05D6E
:10225000FB4F4081892F80528F3510F08EE201C0F4
:10226000892F9E012F5F3F4FA20FB31F5C93F9018F
:10227000E80DF91D4083F901E00FF11F80830F5F26
:102280001F4F0894A11CB11CC5018F709070892B41
:1022900019F0A214B30489F4F901E00FF11F1082C0
:1022A000B701C9010E94A08DB7018AE090E00E94A9
:1022B000788D80E190E0480E591E0894C11CD11C15
:1022C000D4011296A214B30409F07ECFC35BDF4F92
:1022D0000FB6F894DEBF0FBECDBFDF91CF911F9137
:1022E0000F91FF90EF90DF90CF90BF90AF909F90B5
:1022F0008F907F906F905F904F903F902F900895B8
:1023000060916B0A70916C0A6115710529F099272B
:1023100087FD90950E94788D08951F93CF93DF934A
:10232000CDB7DEB722970FB6F894DEBF0FBECDBF94
:10233000198560916B0A70916C0A6115710509F439
:1023400010C1212F33272770307080916A0A992796
:10235000821793070CF405C1812F87708330F1F049
:10236000843028F48130A1F08230A8F40EC085308A
:10237000D9F08530B0F08630D1F0873019F480E69E
:1023800091E017C08EE591E014C08FE991E011C093
:1023900086E991E00EC08DE891E00BC084E891E001
:1023A00008C08BE791E005C082E791E002C089E6B2
:1023B00091E00E94F38D60916B0A70916C0A212F5D
:1023C000287F283709F4AAC0293790F5283309F463
:1023D00099C02933B0F4283109F48EC0293138F47A
:1023E000283009F486C0203109F053C055C0283286
:1023F00009F485C0203309F455C0203209F049C0E2
:102400004EC0283509F484C0293548F4283409F42D
:102410007CC0203509F44CC02034D9F546C028369C
:1024200009F479C0203709F449C0203691F543C03A
:10243000283B09F47FC0293BA8F4283909F474C06B
:10244000293940F4283809F46CC02039E9F12038E2
:1024500001F537C0283A09F46AC0203BD9F1203A87
:10246000C1F435C0283D09F46BC0293D40F4283C37
:1024700009F463C0203DA1F1203C59F42EC0283E50
:1024800029F0203F99F1203E21F42DC082EB91E00C
:1024900059C088EA91E056C083E492E053C08EE3CD
:1024A00092E050C089E392E04DC084E392E04AC0DC
:1024B0008FE292E047C08AE292E044C085E292E077
:1024C00041C080E292E03EC08BE192E03BC086E1F9
:1024D00092E038C081E192E035C08CE092E032C0F9
:1024E00087E092E02FC082E092E02CC08DEF91E077
:1024F00029C088EF91E026C083EF91E023C08EEEE3
:1025000091E020C089EE91E01DC084EE91E01AC0F8
:102510008FED91E017C08AED91E014C085ED91E058
:1025200011C080ED91E00EC08BEC91E00BC086EC09
:1025300091E008C081EC91E005C08CEB91E002C015
:1025400087EB91E00E94F38DAE01445F5F4F5A83A9
:1025500049836A857B8580916B0A90916C0A0E9401
:10256000078E22960FB6F894DEBF0FBECDBFDF9167
:10257000CF911F91089580916B0A90916C0A1092EF
:102580006C0A10926B0A0E94DE8B08950E94201044
:1025900090936C0A80936B0A089587E080936A0A8F
:1025A0000E94C6120895833059F0843018F48823AD
:1025B00039F008C0853031F0853040F0863091F434
:1025C0008B9801C08B9A80936D0A089580916D0A53
:1025D000813021F48B9810926D0A08958B9A81E0D6
:1025E00080936D0A08958B9810926D0A08958091DA
:1025F0006D0A99270895A398000000006FB1A39A6F
:10260000A498000000004FB1A49A5B98000000005D
:102610008FB15B9A5A98000000002FB15A9A6295C8
:102620006F707727407F5527642B752B807F992704
:1026300034E0880F991F3A95E1F7682B792B207FBA
:102640003327322F2227622B732B7093710A6093EA
:10265000700A8FEF6F3B780709F453C08FEF603C2F
:10266000780708F58BEF6F3F780709F459C08CEFB6
:102670006030780750F48FEE6F3F780709F456C04A
:102680006F5F774F09F055C042C08EEF6F3F7807FC
:1026900009F443C08FEF6F37780751F16F5F7D4FBB
:1026A00009F047C040C08FEF673F780721F18FEFF7
:1026B000683F780760F48FEF6F3D780759F18FEF2F
:1026C0006F3E780709F16F5C7F4F99F547C08FEF38
:1026D0006D3F780751F08FEF6E3F780779F06B5FB1
:1026E0007F4F39F581E090E03BC082E090E038C058
:1026F00083E090E035C084E090E032C085E090E077
:102700002FC086E090E02CC087E090E029C088E0F0
:1027100090E026C089E090E023C08AE090E020C0ED
:102720008BE090E01DC08CE090E01AC08DE090E05E
:1027300017C088E88093720A08958FEF9FEF9093F7
:102740006F0A80936E0A08958FEFEF3FF80789F0C4
:102750008481958101969583848308958EE090E02D
:102760008093720AE0916E0AF0916F0A309761F7D8
:10277000E4CF0895E82F862F8150823030F4E03185
:1027800020F4FF27EA58F54F608308958091720A7C
:10279000992708958093720AE0916E0AF0916F0A6A
:1027A000309739F48FEF9FEF90936F0A80936E0A02
:1027B00008958FEFEF3FF80729F084819581019606
:1027C000958384830895A39AA49A5B9A5A9A109247
:1027D000750A8FEF9FEF9093710A8093700A0FB67E
:1027E000F8940F9210926F0A10926E0A0F900FBE1B
:1027F0008FEF8093720AE6E7FAE082E081939AE035
:10280000E638F907D9F71092740A1092730A0895FE
:10281000AB01BC018EE69AE00E94AB6E20E030E096
:102820008F5F9F4F11F421E030E0C901089581309E
:1028300011F4739A0895882309F4739808959AB14E
:102840009F70906F9AB99BB19F70607F962B9BB9D8
:10285000823011F48A9801C08A9A729A00000000AE
:1028600072988A988AB18F708AB98BB18F70806F95
:102870008BB908950F931F93082F162F8A98899A62
:10288000729A000000004F99FBCF72988A9889983D
:10289000612F607F802F0E941F141295107F612F7F
:1028A000802F0E941F141F910F910895682F83E0BD
:1028B0000E943A1408951F93162F682F82E00E94F9
:1028C0003A14612F83E00E943A141F9108950F93E8
:1028D0001F93CF93DF938C01EC01699180E80E94F4
:1028E0005B14095F1F4F8991882329F00E945614B9
:1028F000C017D107C1F7DF91CF911F910F910895B4
:102900000F931F93CF93DF938C01EC01699180E8C3
:102910000E945B14005F1F4F8991882329F00E9459
:102920005614C017D107C1F7DF91CF911F910F91B6
:1029300008950F931F93CF93DF938C01EC0169915E
:1029400080EC0E945B14005F1F4F8991882329F05F
:102950000E945614C017D107C1F7DF91CF911F9184
:102960000F9108950E9480140895CF93DF93EC0196
:102970009093890A8093880A80918C0A90918D0A9D
:10298000892B79F481E00E94E76920E034E0AE0110
:1029900066E475E180E494E00E943D7280E00E946C
:1029A000E76981E090E090938D0A80938C0ADF9133
:1029B000CF91089585E494E00E94B514089586E5CA
:1029C00094E00E9467140E94DA1408950E94DA14B9
:1029D0000895CF93DF93EC019093870A8093860A42
:1029E00080918A0A90918B0A892B79F481E00E9468
:1029F000E76920E034E0AE016BEB75E18FE594E030
:102A00000E943D7280E00E94E76981E090E090932F
:102A10008B0A80938A0ADF91CF91089584E694E02F
:102A20000E94E914089585E494E00E94B2140E9483
:102A30000E1508950E9413150E94DA140895EF925E
:102A4000FF920F931F93CF93DF938C01EC01699159
:102A500088E80E945B1481E0E82EF12C06C0899181
:102A60000E9456140894E11CF11CF801019000200A
:102A7000E9F73197E01BF10BEE16FF0680F3DF91CB
:102A8000CF911F910F91FF90EF900895CF93DF9317
:102A9000CDB7DEB760970FB6F894DEBF0FBECDBFDF
:102AA00000E010E080918C0A90918D0A019741F42A
:102AB00082E090E090938D0A80938C0A00E010E011
:102AC000A091880AB091890AFD0101900020E9F7E0
:102AD0003197EA1BFB0B709758F485E494E00E9451
:102AE00099148091880A9091890A0E9499143CC097
:102AF0000130110531F460E971E080E090E00E945E
:102B0000C36BFE01319680E1DF011D928A95E9F7E2
:102B1000A091880AB091890AA00FB11F9E012F5E73
:102B20003F4F02C08D918193E217F307D9F7CE0191
:102B300001960E9499140F5F1F4FE091880AF0914F
:102B4000890AE00FF11F8785882341F468EE73E05E
:102B500080E090E00E94C36B00E010E06AE872E061
:102B600080E090E00E94C36B64E670E080E090E05B
:102B70000E94C36B97CFCF93DF93CDB7DEB7279774
:102B80000FB6F894DEBF0FBECDBF00E010E080911D
:102B90008A0A90918B0A019741F482E090E0909329
:102BA0008B0A80938A0A00E010E0A091860AB09117
:102BB000870AFD0101900020E9F73197EA1BFB0B22
:102BC000379758F484E694E00E9467148091860A4F
:102BD0009091870A0E9467143CC00130110531F4BE
:102BE00060E971E080E090E00E94C36BFE013196E5
:102BF00087E0DF011D928A95E9F7A091860AB091DE
:102C0000870AA00FB11F9E01285F3F4F02C08D9120
:102C10008193E217F307D9F7CE0101960E9467145A
:102C20000F5F1F4FE091860AF091870AE00FF11FB6
:102C30008681882341F468EE73E080E090E00E9492
:102C4000C36B00E010E06AE872E080E090E00E9470
:102C5000C36B64E670E080E090E00E94C36B97CFA6
:102C60001F938CE80E94B16A10E063E382E00E9447
:102C70001F1484E00E94B16A1F5F1330B1F762E253
:102C800082E00E941F1481E00E94B16A68E282E043
:102C90000E943A1485E00E94B16A6CE082E00E94D2
:102CA0003A1485E00E94B16A61E082E00E943A1421
:102CB00085E00E94B16A66E082E00E943A1460E812
:102CC00082E00E943A141F9108950FB6F8940F9273
:102CD0009DB3882311F0EE9A01C0EE980F900FBEBD
:102CE000892F992726E0969587952A95E1F7817097
:102CF0009070089580E00E946516982F80918E0A4A
:102D0000813011F410928E0A892F0E94651680E09E
:102D100090E0089580918E0A9927089580918F0AF6
:102D20009091900A089580918F0A9091900A089549
:102D30000F931F93CF93DF93EC018B0180E090E022
:102D40000E94731D05C0FE0184910E945B1D2196A7
:102D500001501040FFEF0F3F1F07A9F70E94501DC1
:102D6000DF91CF911F910F9108951F9380E00E94F2
:102D70006516182F64E070E086EB95E00E949816C7
:102D800064E070E082EB95E00E949816812F0E942B
:102D9000651680E090E01F9108950F931F93CF93E5
:102DA000DF938C01EB0180E090E00E94731D05C071
:102DB000F80181918F010E945B1D2197FFEFCF3FAA
:102DC000DF07B1F70E94501DDF91CF911F910F9146
:102DD000089581E00E94E76920E034E040E050E09F
:102DE0006DE078E18CE694E00E943D72089581E008
:102DF0000E94E76920E034E040E050E061E878E1DB
:102E00008AE794E00E943D720895EF92FF920F933B
:102E10001F93F82E8B010E94571DE82E80E00E9420
:102E2000541D80E090E00E94731D2C9882E00E9467
:102E30005B1D8F2D0E945B1D812F99270E945B1DBA
:102E4000802F0E945B1D2C9A0E94501D8E2D0E9487
:102E5000541D1F910F91FF90EF900895DF92EF9214
:102E6000FF920F931F93082FE62E80E00E946516B5
:102E7000D82E1127102F0027FF240E291F29B80153
:102E80008BE00E9405178D2D0E94651680E090E072
:102E90001F910F91FF90EF90DF900895FF920F9395
:102EA0001F938C0180E00E946516F82E1C60B8010B
:102EB00080E00E9405178F2D0E94651680E090E04B
:102EC0001F910F91FF9008951F93CF93DF93CDB77C
:102ED000DEB721970FB6F894DEBF0FBECDBF898352
:102EE00080E00E946516182F80E290E00E944E1745
:102EF00063E070E08EEB95E00E94981661E070E070
:102F0000CE0101960E94CD1664E070E08AEB95E058
:102F10000E949816812F0E94651680E090E021960D
:102F20000FB6F894DEBF0FBECDBFDF91CF911F91DA
:102F30000895282F332727703070C90153E0880F78
:102F4000991F5A95E1F7820F931F885C0E946417BE
:102F50000895BF92CF92DF92EF92FF920F931F934B
:102F6000CF93DF93CDB7DEB721970FB6F894DEBFCE
:102F70000FBECDBF89837B0180E00E946516B82E0D
:102F800080E290E00E944E1763E070E08EED95E0E5
:102F90000E94981661E070E0CE0101960E94CD1665
:102FA00066EDC62E65E0D62E64E070E0C6010E9494
:102FB000981600271127C801B7010E94C36B64E06F
:102FC00070E08AED95E00E94981664E070E0C6011A
:102FD0000E9498168B2D0E94651680E090E0219645
:102FE0000FB6F894DEBF0FBECDBFDF91CF911F911A
:102FF0000F91FF90EF90DF90CF90BF90089564EF16
:1030000071E080E50E94A91764EF71E080E090E034
:103010000E94C36B80E090E00895CF93DF93CDB71B
:10302000DEB762970FB6F894DEBF0FBECDBFCE01FC
:1030300001960E94212F2B813C8184E690E0289FFD
:103040007001299FF00C389FF00C11242D813E81D6
:1030500088EE93E0AC01249FC001259F900D349F22
:10306000900D112429813A81820F931FE80EF91ED9
:10307000CE0101960E94212F2B813C8184E690E0B5
:10308000289F8001299F100D389F100D11242D813C
:103090003E8188EE93E0AC01249FC001259F900DF6
:1030A000349F900D112429813A81820F931F080FBC
:1030B000191F0E94C6130E191F090F31110514F4B0
:1030C000813019F40E94226AD3CF0E94FF17D0CF1B
:1030D00068EC70E084E60E94A91764E670E080E086
:1030E00090E00E94C36B68EC70E084E60E94A91730
:1030F00064EF71E080E090E00E94C36B80E090E0BC
:103100000895CF93DF93CDB7DEB7A4970FB6F894A9
:10311000DEBF0FBECDBFCE0101960E94212F2B81B5
:103120003C8184E690E0289F7001299FF00C389F35
:10313000F00C11242D813E8188EE93E0AC01249F98
:10314000C001259F900D349F900D112429813A8153
:10315000820F931FE80EF91E80918804682F0E9449
:103160002E17CE0101960E94212F8B819C81F4E6BF
:10317000AF2EB12C8A9D80018B9D100D9A9D100D54
:1031800011248D819E81E8EECE2EE3E0DE2E9C019F
:103190002C9DC0012D9D900D3C9D900D11242981E9
:1031A0003A81820F931F080F191F0E94C613882EA1
:1031B0008091490E90914A0EA801481B590B5F93CC
:1031C0004F9388EC95E09F938F937EED972E9F927F
:1031D0000E948D110F900F900F900F900F9054E060
:1031E0008516E9F58091890490918A040197B9F5D3
:1031F0008B819C818A9DA0018B9D500D9A9D500DC5
:1032000011248D819E819C012C9DC0012D9D900DCE
:103210003C9D900D112429813A81820F931F480F04
:10322000591F50934A0E4093490E82E090E09093CC
:103230008A048093890481EC95E09F938F939F92F9
:103240000E948D11809188040F900F900F90882319
:1032500031F0855080938804682F0E942E1780914A
:10326000890490918A048230910589F48091490EF5
:1032700090914A0EA801481B590B4A3051055CF049
:1032800081E090E090938A048093890402C00197C2
:1032900011F40E9468180E191F09093C110524F445
:1032A00051E0851609F05DCF8DE090E0988F8F8B0F
:1032B0008AE090E09E8B8D8B1C8A1B8A85E090E0D3
:1032C0009A8F898F83E090E09C8F8B8FCE014396FD
:1032D0000E941E330E94226A44CFDF92EF92FF9237
:1032E0000F931F93182F0E94571DD82E80E00E9425
:1032F000541D80E090E00E94731D2C9883E00E9492
:103300005B1D812F0E945B1D0E94601DE82EFF2423
:10331000FE2CEE240E94601D082F2C9A0E94501D46
:103320008D2D0E94541D1127C701802B912B1F91B9
:103330000F91FF90EF90DF900895FF920F931F93EE
:1033400080E00E946516F82E8BE00E946D198C01BA
:103350008F2D0E946516C8011F910F91FF9008954F
:10336000FF920F931F93182F80E00E946516F82E8E
:10337000812F0E946D198C018F2D0E946516C80146
:103380001F910F91FF90089589E00E94B0199C0150
:103390008FEF213E380790F58DE424353807A1F1F1
:1033A0008DE42535380768F481E424353807F9F0D1
:1033B0008DE424333807D9F081E42434380709F543
:1033C00016C087E52D363807F9F087E52E36380721
:1033D00028F487E52D343807A1F409C086E725369F
:1033E000380729F08FEF203E380759F40DC080913F
:1033F0008F0A9091900A039739F403C020EE3FEFB3
:1034000003C080E090E00895C90108950F931F93D1
:103410008C0180E00E94651610928E0AC8018460BB
:103420000E944E178AE00E94B16A80E48CBB80E063
:1034300090E01F910F91089580E00E9465162F98EB
:103440002C9A2898209A84E00E94B16A80E00E9419
:10345000541D10928E0A2F9A84E00E94B16A81E076
:103460000E946D19B4E096958795BA95E1F787703B
:1034700090709093900A80938F0A039719F460E0FC
:1034800070EE02C060E078E983E00E94051782E3F5
:103490000E94B16A80E090E00E944E1760E080E0F8
:1034A0000E942E1782E30E94B16A80918F0A909148
:1034B000900A0397029710F482E001C081E00E9415
:1034C000541D40E050E064E77AE18EE199E00E940B
:1034D000B06F66E070E08EE199E00E942E7080E4AB
:1034E0008CBB80E090E00895BF92CF92DF92EF9284
:1034F000FF920F931F93CF93DF93CDB7DEB7229741
:103500000FB6F894DEBF0FBECDBF80918E0A81301A
:1035100009F04FC0669B4DC080E00E946516B82E32
:1035200078941A82198280E090E00E94731D90E2E4
:10353000E92EF12C00E010E0CC24DD2403C08FE163
:10354000E82EF12C89819A81C816D906C0F0C114E1
:10355000D10419F0C6010E94CB67CE0101960E94EA
:103560004A678C0189819A81892B19F0CC24DD244A
:1035700008C082E080938E0ACC24DD2412C0892BFF
:1035800041F0F80181918F010E945B1D0894C11CDC
:10359000D11C6699D4CF0894E108F108E114F10434
:1035A00089F60E94501DC6010E9468688B2D0E94FA
:1035B000651622960FB6F894DEBF0FBECDBFDF9121
:1035C000CF911F910F91FF90EF90DF90CF90BF9020
:1035D00008950F931F93CF93DF9380918E0A8130CC
:1035E00009F435C080E00E946516C8E4D2E0FE010F
:1035F00065917491E9EEF5E0E4918E2F0E94051734
:1036000000E010E011C0FE0165917491F801E751EE
:10361000FA4FE4918E2F0E940517C80164EF71E004
:103620000E94E098892B11F40E94CB1B0F5F1F4F63
:10363000229681E0053B180731F781E080938E0ADE
:1036400080E090E00E94741A81E00E94651680E09C
:1036500090E0DF91CF911F910F9108951F93CF9329
:10366000DF9380E090E00E94061A80E290E00E94E2
:103670004E1780E00E946516182F68E070E081EE1A
:1036800095E00E94981688E20E94B16A88E00E9444
:103690006D19EC01812F0E94651680918F0A90911F
:1036A000900A039731F480E8CF37D80711F4C0E0CF
:1036B000D0E0CE01DF91CF911F91089508958091C0
:1036C0006A008C7F80936A0040E050E06EE57BE109
:1036D00088E199E00E94B06F892B31F480916A00F3
:1036E000826080936A00EC9A80918100836080936D
:1036F0008100AD9A0FB6F8940F921092920A109230
:10370000910A0F900FBE0895EF92FF920F931F93AF
:10371000AB01BC01A89521E0E12CE8E0FE2E012DD3
:10372000112D01C02F5FD801C701022E04C0880FE0
:10373000991FAA1FBB1F0A94D2F737E0B695A79529
:10374000979587953A95D1F784179507A607B707F8
:1037500048F32093940A2A3018F029702093940A91
:103760002091940A23FF02C038E201C038E088E1CA
:1037700090E02770322B0FB6F894A89580936000E4
:103780000FBE3093600081E08093930A1F910F91E8
:10379000FF90EF900895A89508958091930A88234B
:1037A00019F08F5F8093930A88E10FB6F8948093A5
:1037B0006000109260000FBE08958091930A8230DD
:1037C000C0F081508093930A813099F42091940A3B
:1037D00023FF02C038E201C038E088E190E02770A2
:1037E000322B0FB6F894A895809360000FBE3093EB
:1037F000600008958091980A9091990A813091050E
:1038000089F08130910530F08230910521F10397E4
:10381000E9F52DC078993AC081E08093970A81E05C
:1038200090E020C0789912C08091970A8F5F8093B2
:10383000970A8E3159F581E08093960A82E090E0F4
:103840009093990A8093980A81E021C01092990A76
:103850001092980A1BC0789B19C081E08093970A48
:1038600083E090E09093990A8093980A0FC080912A
:10387000970A8F5F8093970A843141F41092960AD9
:103880001092990A1092980A80E001C082E099276C
:1038900008958091960A9927089580919A0A9091A7
:1038A0009B0A089508950F931F93CF93DF93CDB78D
:1038B000DEB72A970FB6F894DEBF0FBECDBF1092C9
:1038C000990A1092980A1092960A6CEA77E08E0193
:1038D0000F5F1F4FC8010E944198C8010E94936961
:1038E000892BB1F420E033E040E050E064E17DE179
:1038F000C8010E943D72892B59F48EE997E09F938D
:103900008F9380EE8F930E948D110F900F900F90E8
:103910002A960FB6F894DEBF0FBECDBFDF91CF91D0
:103920001F910F910895FF920F931F93CF93DF93F1
:10393000CDB7DEB72A970FB6F894DEBF0FBECDBF66
:103940008DE894E00E94256F892BB9F480E00E94F5
:103950006516F82E40E067E070E08BE894E00E9486
:10396000416F8C01892B51F540E067E070E08EEAF1
:1039700094E00E94416F8C0121C00E94352180E0BB
:103980000E946516F82EE0919E04F0919F043097F6
:1039900029F08BE894E01995892B59F4E091C10442
:1039A000F091C204309741F08EEA94E01995892B8A
:1039B00019F00FEF1FEF02C000E010E08F2D0E9402
:1039C000651601151105C1F48FEF97E09F938F9352
:1039D00086EE8F930E948D1160E070E0CE0101961B
:1039E0000E94F58A0F900F900F902FEF8F3F920754
:1039F00071F00E94CD8A0BC080ED97E09F938F936A
:103A000083EE8F930E948D110F900F900F90C8013D
:103A10002A960FB6F894DEBF0FBECDBFDF91CF91CF
:103A20001F910F91FF9008958091960A8093950AB7
:103A30008091960A8130B9F48091950A882349F5DE
:103A400082EC97E09F938F9386EE8F930E948D1167
:103A50000E94931C0F900F900F90892B29F780E103
:103A60000E94CA13E1CF8823A1F48091950A813086
:103A700081F485EB97E09F938F9386EE8F930E945E
:103A80008D118091960A8093950A0F900F900F9058
:103A9000CFCF64EF71E080E090E00E94C36BC8CFAD
:103AA000779A2E982D9A089580939C0A0895809174
:103AB0009C0A992708958EBD0DB407FEFDCF089589
:103AC0008FEF8EBD0DB407FEFDCF8EB599270895FB
:103AD0008EBD0DB407FEFDCF8EB599270895779A58
:103AE0002E982D9A08959C010097F9F480919C0AD4
:103AF000882321F481E08DBD81E504C0813021F46B
:103B00001DBC80E58CBD25C0823019F481E08DBDDF
:103B1000F8CF8CE098E09F938F938BE78F930E9470
:103B20008D110F900F900F9014C0019741F481E018
:103B30008DBD80E58CBD2D9A2E98779808951DBC7B
:103B400080E58CBD2130310520F02230310541F473
:103B500004C0779A2D9A2E9A0895779A2E982D98C8
:103B6000089580E090E0089580E090E0089580E07E
:103B700090E0089540E050E060E070E08DE99AE068
:103B80000E94AB6E0895CF93DF93CEEFDFEF0E94DC
:103B9000601D8F3F11F42197D1F79927DF91CF91C5
:103BA0000895CF93DF93CEEFDFEF0E94601D8E3F2D
:103BB00011F02197D1F79927DF91CF910895DF92E6
:103BC000EF92FF920F931F93D82E8B017A0182E020
:103BD00090E00E94731D8FEF0E945B1D8D2D80640D
:103BE0000E945B1D812F99270E945B1D802F0E94E0
:103BF0005B1D8F2D99270E945B1D8E2D0E945B1DE2
:103C000085E90E945B1D8FEF0E945B1D1F910F9144
:103C1000FF90EF90DF9008956F927F928F929F9226
:103C2000AF92BF92CF92DF92EF92FF920F931F93CA
:103C3000CF93DF935B0169017A01380188249924CD
:103C40003AC0A601542F4427550FC701B60127E0FB
:103C500096958795779567952A95D1F781E10E948A
:103C6000DF1D0E94D11D8E3F29F00E94501D81E072
:103C700090E026C08501C0E0D0E00E94601DF80100
:103C800081938F012196F2E0C030DF07B1F780E029
:103C900092E0A80EB91E8FEF0E945B1D8FEF0E946D
:103CA0005B1D0E94501D0894811C911C0894C11C2E
:103CB000D11CE11CF11C8614970419F680E090E0F9
:103CC000DF91CF911F910F91FF90EF90DF90CF90F8
:103CD000BF90AF909F908F907F906F9008958DE9E7
:103CE0009AE00E94586E08952F923F924F925F92F1
:103CF0006F927F928F929F92AF92BF92CF92DF92FC
:103D0000EF92FF920F931F93CF93DF93CDB7DEB760
:103D100028970FB6F894DEBF0FBECDBFF82E6B010B
:103D200039014A0118010E94BA1DFF2019F022E052
:103D300030E0A8C0C801AA27BB27860D971DA81D83
:103D4000B91D2091A20A3091A30A4091A40A509172
:103D5000A50A281739074A075B0728F483E090E093
:103D60009E838D8302C01E821D8280919F0A909146
:103D7000A00A97FD04C0E2E0F0E0FE83ED8396FD2B
:103D80007FC02D813E81232B09F092C0DC82CB8243
:103D900072C03FEF2316310409F010F4610103C033
:103DA000C12CA1E0DA2E4B805C80840173011A8261
:103DB000198253C0A701542F4427550FC801B701DA
:103DC000E7E09695879577956795EA95D1F788E12D
:103DD0000E94DF1D0E94C31D8F3F09F445C08EEF76
:103DE0000E945B1D520118861F82F50181915F01BF
:103DF0000E945B1D2F8138852F5F3F4F38872F83AF
:103E00002050324091F7E0E0F2E04E0E5F1E8FEF5F
:103E10000E945B1D8FEF0E945B1D8FEF0E945B1D58
:103E20005FEFA52EB52E0E94601D882339F40894FB
:103E3000A108B108A114B104B9F0F5CF0894E11CB0
:103E4000F11C011D111DAB2879F00E94501D298124
:103E50003A812F5F3F4F3A83298389819A818C155C
:103E60009D0509F0A7CF11C00E94501DE1E0F0E0D0
:103E7000FE83ED831DC02114310409F08ACF18C0E0
:103E800028E030E03E832D8313C0C601AA27BB275C
:103E9000680E791E8A1E9B1E2C183D08DC2CCC2433
:103EA000DD0C8B819C818C0D9D1D9C838B83E3CFCE
:103EB0000E946F1E8D819E8128960FB6F894DEBFFA
:103EC0000FBECDBFDF91CF911F910F91FF90EF906B
:103ED000DF90CF90BF90AF909F908F907F906F902A
:103EE0005F904F903F902F9008958F929F92AF9246
:103EF000BF92CF92DF92EF92FF920F931F93CF93D7
:103F0000DF93F82EEB0149015A0168010E94BA1DA6
:103F1000FF20F1F480919F0A9091A00A97FF18C0AA
:103F2000C801AA27BB27880D991DAA1DBB1D20917A
:103F3000A20A3091A30A4091A40A5091A50A281719
:103F400039074A075B0708F042C003E010E044C0AD
:103F500002E010E041C02FEFC216D10409F010F4C6
:103F6000E60102C0C0E0D1E08E01A5019401B701D5
:103F70008FE99AE00E940C1E8C01892B69F5CE0115
:103F8000AA27BB27880E991EAA1EBB1ECC1ADD0AC3
:103F90008091A60A9091A70A9C01C29FC001C39F6D
:103FA000900DD29F900D1124E80EF91EC114D1047A
:103FB00091F600E010E010C001E010E0A5019401CE
:103FC000BE018FE99AE00E940C1E8C0105C07E01A3
:103FD0000130110559F7F0CF0E946F1EC801DF9123
:103FE000CF911F910F91FF90EF90DF90CF90BF90F6
:103FF000AF909F908F900895EF92FF920F931F9331
:10400000182F0E94BA1D112321F0EE24FF248701EE
:1040100008C0E090A20AF090A30A0091A40A1091AF
:10402000A50A0E946F1EC801B7011F910F91FF9052
:10403000EF9008951F93CF93DF93182F0E94BA1D1E
:10404000112319F0C0E0D0E004C0C091A60AD091BD
:10405000A70A0E946F1ECE01DF91CF911F91089594
:10406000CF92DF92EF92FF920F931F93CF93DF9344
:10407000CDB7DEB760970FB6F894DEBF0FBECDBFE9
:104080006B010E94BA1D80919F0A9091A00A97FF30
:104090008AC040E050E060E070E089E00E94DF1DEF
:1040A0000E94D11D8E3F61F08AE198E09F938F932B
:1040B00083EF8F930E948D110F900F900F9073C01C
:1040C0008E010F5F1F4F0E94601DF80181938F01C9
:1040D000CE014196E817F907B1F78FEF0E945B1DFB
:1040E0008FEF0E945B1D0E94501DEE80FFE0EF22CB
:1040F00021E030E0C90102C0880F991FEA94E2F77D
:104100007C016F81772763707070762F6627770F39
:10411000770FE885FF27EE0FFF1FEE0FFF1F6E2BB7
:104120007F2B09851127EA85FF27E370F070DF01F7
:10413000AA0FBB1FEA2BFB2BAB85BB2786E016958E
:1041400007958A95E1F7602B712B6F5F7F4F88276A
:104150009927AA0FAB2FAA1FBB0BB195EA2BFB2BFC
:10416000329602C0220F331FEA95E2F74427552703
:104170000E94A1986093A20A7093A30A8093A40A54
:104180009093A50AF092A70AE092A60A0E946F1ED9
:1041900001E010E020E030E040E050E0B60180E0D7
:1041A0000E94751F04C00E946F1E81E090E060961F
:1041B0000FB6F894DEBF0FBECDBFDF91CF911F9138
:1041C0000F91FF90EF90DF90CF900895CF93DF9302
:1041D0007093A90A6093A80A5093AB0A4093AA0A65
:1041E00089E0EFE9FAE011928A95E9F71092A10AC5
:1041F0008DE99AE00E94586EC0E0D0E08FEF0E94F7
:104200005B1D2196CA30D105C9F740E050E060E05F
:1042100070E080E00E94DF1D0E94C31D813099F490
:10422000CFEFDFEF07C040E050E060E070E081E0FA
:104230000E94DF1D0E94601D882319F0219799F7C5
:1042400002C0CD2B29F40E94501D81E090E00AC0ED
:104250000E94501D80E090E89093A00A80939F0AEE
:1042600080E090E0DF91CF9108951092AD0A109216
:10427000AC0A0895EF92FF920F931F93CF93DF93B1
:10428000EC017A018B018B8180FD1AC08EEF9FEFCC
:10429000AFEFBFEFE80EF91E0A1F1B1F2A8133275D
:1042A00044275527C801B7010E94A198AB01BC0162
:1042B0008A8D9B8DAC8DBD8D480F591F6A1F7B1F4A
:1042C000CB01BA01DF91CF911F910F91FF90EF9039
:1042D00008958FEF9FEF08958FEF9FEF0895282F98
:1042E0008F3F11F420E006C0882321F099270E9417
:1042F0003099282F822F992787FD909508958F92C6
:104300009F92AF92BF92CF92DF92EF92FF920F9364
:104310001F93FC016A017B01838180FF07C0CB01F1
:10432000BA016F5F7F4F8F4F9F4F69C08081828836
:104330009388A488B5886091B00A7091B10A8130E1
:10434000A9F5A7019601A7E05695479537952795BA
:10435000AA95D1F7280D391D4A1D5B1D01E010E01B
:1043600081810E94751F8091B00A9091B10AF60177
:10437000EF77F070EE0FFF1FEE0FFF1FE80FF91F32
:1043800060817181828193819F706F3F2FEF7207EF
:104390002FEF82072FE0920771F1673F2FEF72072F
:1043A0002FEF82072FE0920751F525C055274F2D9B
:1043B0003E2D2D2D280D391D4A1D5B1D01E010E0FD
:1043C00081810E94751F8091B00A9091B10AF60117
:1043D000F070EE0FFF1FE80FF91F208131818FEF82
:1043E0002F3F380741F08FEF273F380721F0B90101
:1043F0008827992704C060E070E080E090E01F917A
:104400000F91FF90EF90DF90CF90BF90AF909F9073
:104410008F9008952F923F924F925F926F927F926A
:104420008F929F92AF92BF92CF92DF92EF92FF92C4
:104430000F931F93CF93DF93CDB7DEB76A970FB675
:10444000F894DEBF0FBECDBF988B8F877A8B698BB8
:104450005C8B4B8B18012901FE8AED8AD88ECF8A9E
:10446000D7011D921D921D921C921397DA010D9097
:104470000020E9F71197A41BB50BCD010C966DE058
:1044800070E00E94E098F62FF064F983F53E09F49D
:1044900096C18DE0689F900111243B832A832F33BE
:1044A00031050CF08CC17901BF2E1E86CC24DD2491
:1044B00080C1B201A1018F8598890E943A21688745
:1044C00079878A879B87EF85F8898281282F332710
:1044D0003D872C8731E0231631044104510479F4DF
:1044E0008081882361F482859385A485B58588873A
:1044F0009987AA87BB87268137813D872C87688467
:1045000079848A849B8442C16091B00A7091B10A17
:1045100001E010E0A4019301EF85F88981810E94F8
:10452000751F2091B00A3091B10A3F832E8380918C
:10453000B20A9091B30A9D838C833A8F298F9E850E
:10454000913019F4E98DFA8D1DC02F89388D232BF8
:1045500099F5A98DBA8D8C91853E71F1882361F111
:104560004BE050E069897A89CD010E945E98892BE1
:1045700019F5E989FA899385E98DFA8D838589236F
:104580008917D1F484899589AA27BB27AC013327E1
:104590002227828D938DAA27BB27282B392B4A2BC4
:1045A0005B2B848D958DA68DB78DED89FE898083DB
:1045B0009183A283B38307C1E98DFA8D83858F3000
:1045C00009F0D0C0A080AB1409F0CCC0B6FE0DC07D
:1045D000BFEBAB2EAB20AC81BD81AE0DBF1D1C92DD
:1045E0000894E108F108CC80DD80E98DFA8D868D94
:1045F000978D0E946F21F601EE0DFF1D80838701CC
:1046000001501040E98DFA8D848D958D0E946F21A7
:10461000F601E00FF11F808301501040E98DFA8D03
:10462000808D918D0E946F21F601E00FF11F808334
:1046300001501040E98DFA8D868997890E946F217B
:10464000F601E00FF11F808301501040E98DFA8DD3
:10465000848995890E946F21F601E00FF11F808304
:1046600001501040E98DFA8D828993890E946F2153
:10467000F601E00FF11F808301501040E98DFA8DA3
:10468000808991890E946F21F601E00FF11F8083DC
:1046900001501040E98DFA8D868597850E946F2123
:1046A000F601E00FF11F808301501040E98DFA8D73
:1046B000818592850E946F21F601E00FF11F8083B2
:1046C00001501040E98DFA8D878190850E946F21FD
:1046D000F601E00FF11F808301501040E98DFA8D43
:1046E000858196810E946F21F601E00FF11F808382
:1046F00001501040E98DFA8D838194810E946F21D1
:10470000F601E00FF11F808301501040E98DFA8D12
:10471000818192810E946F21F601E00FF11F808359
:10472000BA2CBA9429F078010894E108F1081AC06B
:10473000AB89BC890D900020E9F711972B893C8942
:10474000A21BB30BAD01B601C9010E945E98892B73
:1047500031F4EA80FB80B98031E03E8703C0EA8013
:10476000FB80B980898D9A8D80969A8F898F8E81F2
:104770009F8180509E4FA98DBA8DA817B90709F067
:10478000DECE0894611C711C811C911CC301E8855C
:10479000F9858E1B9F0B2C853D85821793070CF4A2
:1047A000B3CEB201A1018F8598890E947F211B01A0
:1047B0002C01211431044104510409F07ACE20E087
:1047C00030E040E050E0CA01B9016A960FB6F894B3
:1047D000DEBF0FBECDBFDF91CF911F910F91FF9034
:1047E000EF90DF90CF90BF90AF909F908F907F9091
:1047F0006F905F904F903F902F9008958AE19BE0DB
:104800000E94586E08958AE19BE00E94586E0895B8
:1048100040E050E060E070E08AE19BE00E94AB6E17
:1048200008952F923F924F925F926F927F928F9254
:104830009F92AF92BF92CF92DF92EF92FF920F932F
:104840001F93CF93DF93CDB7DEB728970FB6F894B9
:10485000DEBF0FBECDBF8C016B015E834D830E9416
:1048600008240115110509F4F6C0F8010481158129
:1048700018870F830115110509F4EDC06D817E8144
:104880006115710509F4E7C0F801E484F584068533
:1048900017852081318142815381E216F306040796
:1048A000150708F0D2C0CB01AA2797FDA095BA2F13
:1048B0008E0D9F1DA01FB11F281739074A075B07E0
:1048C00020F42E193F093E832D83EF81F885008C5B
:1048D000F18DE02DFC83EB83DA82C9822480358060
:1048E0004D805E80ABC0EF81F885608871888288DA
:1048F00093885101CC24DD244085518562857385E0
:104900008B819C810E943A217B018C01C401B301FF
:10491000A60195010E94F398442737FD4095542F36
:104920002E0D3F1D401F511F6091B00A7091B10ABA
:1049300001E010E0EB81FC8181810E94751F892BD1
:1049400009F079C0C401B301A60195010E94F39852
:104950006101421453040CF46201CB018C0D9D1DC6
:10496000281639061CF46101C61AD70A8091B00ACC
:104970009091B10A680F791FA60189819A810E94DE
:104980006B9876010027F7FC0095102FEF81F885D2
:1049900024853585468557852E0D3F1D401F511FA7
:1049A000248735874687578780899189A289B3896B
:1049B0008E0D9F1DA01FB11F808B918BA28BB38B7F
:1049C00080819181A281B381281739074A075B074B
:1049D00020F081E090E0978B868BEF81F88520892D
:1049E000318942895389EB81FC81868D978DA0A105
:1049F000B1A1281739074A075B07A0F0EF81F885B6
:104A000040855185628573858B819C810E947F21C1
:104A1000EF81F8856087718782879387108A118A72
:104A2000128A138A69817A816C0D7D1D7A8369836C
:104A30004C185D0803C08DEF9FEF09C0411451046D
:104A400009F051CF0D811E8108C08EEF9FEFEF81DD
:104A5000F885958B848B00E010E00E940324C80148
:104A600028960FB6F894DEBF0FBECDBFDF91CF9171
:104A70001F910F91FF90EF90DF90CF90BF90AF907C
:104A80009F908F907F906F905F904F903F902F906E
:104A90000895EF92FF920F931F93CF93DF93EC0152
:104AA0000E940824209749F0EC81FD81309729F07D
:104AB000E080F1800281138108C00FEFE02E0FEF3C
:104AC000F02E0FEF002F0FEF102F0E940324C801CC
:104AD000B701DF91CF911F910F91FF90EF90089553
:104AE000CF93DF93EC010E940824209719F4CFEFB5
:104AF000DFEF0BC08C819D81009711F00E945666FC
:104B0000CE010E945666C0E0D0E00E940324CE0190
:104B1000DF91CF9108950F931F938C010E94082479
:104B2000012B11F41092B60A0E9403241F910F91D9
:104B300008952F923F924F925F926F927F928F9241
:104B40009F92AF92BF92CF92DF92EF92FF920F931C
:104B50001F93CF93DF93CDB7DEB724970FB6F894AA
:104B6000DEBF0FBECDBF182F0E9408248091AE0A71
:104B70009091AF0A892B41F480E490E00E94E365B4
:104B80009093AF0A8093AE0A8091B20A9091B30AD3
:104B9000892B41F480E490E00E94E3659093B30A8E
:104BA0008093B20A8091B00A9091B10A892B59F48E
:104BB00080E092E00E94E3659093B10A8093B00A8E
:104BC000892B09F445C18091AE0A9091AF0A892BD7
:104BD00009F43EC18091B20A9091B30A892B09F47D
:104BE00037C182E2189FF0011124EC54F54F119265
:104BF0008A95E9F7E12EFF242701440C551CC701D3
:104C000035E0880F991F3A95E1F7480E591E24EBBD
:104C10003AE0420E531EF2011183812F0E941A20A6
:104C2000F20195838483812F0E94B11D019721F4A5
:104C3000F201838181608383812F0E94B41D0197DB
:104C400021F4F201838182608383F2018481958162
:104C50008050924019F001E010E0FCC0F201838125
:104C600081FF05C020E230E040E050E038C06091B4
:104C7000B00A7091B10A01E010E020E030E040E0BD
:104C800050E08E2D0E94751F8C01892B09F0E2C027
:104C9000E091B00AF091B10AE250FE4F808191811B
:104CA000EE5FF14085559A4A09F0D4C0E653FE4FB5
:104CB00080819181A281B381EA5CF1400097A105D6
:104CC000B10509F4C7C0EA53FE4F2081318142810A
:104CD0005381211531054105510509F4BBC060918F
:104CE000B00A7091B10A01E010E08E2D0E94751F8C
:104CF0002090B00A3090B10A4EEF51E0240E351EDC
:104D0000D1018D919C91E2E0FEEF2E0E3F1E855564
:104D10009A4A09F09DC0F1018585F2018283F10173
:104D2000268937892115310571F0C901AA27BB27CA
:104D300089839A83AB83BC83D2011C9281E090E08B
:104D4000A0E0B0E010C0F10124A135A146A157A117
:104D500029833A834B835C8381E0D2018C9384A5C1
:104D600095A5A6A5B7A5F20186879787A08BB18BDD
:104D7000F101638574858189928925E0880F991FE7
:104D80002A95E1F7860F971F01970E94CC983B0167
:104D900088249924E684F78400271127A48CB58CF5
:104DA000C68CD78CAE0CBF1CC01ED11EF201A28ACD
:104DB000B38AC48AD58A29813A814B815C81A20E4B
:104DC000B31EC41ED51EA68AB78AC08ED18EF1012D
:104DD00060897727882799270E94A198F101248D5F
:104DE000358D468D578DE20EF31E041F151FE60C00
:104DF000F71C081D191DE60EF71E081F191FF201EA
:104E0000E28EF38E048F158FF10185859927F201CB
:104E100024813581AC01429FC001439F900D529F78
:104E2000900D1124AA27BB27868F978FA0A3B1A32B
:104E3000668277828086918629813A814B815C8166
:104E4000A20EB31EC41ED51EA286B386C486D58606
:104E500000E010E00E940324C80124960FB6F894E5
:104E6000DEBF0FBECDBFDF91CF911F910F91FF909D
:104E7000EF90DF90CF90BF90AF909F908F907F90FA
:104E80006F905F904F903F902F9008952F923F9298
:104E90004F925F926F927F928F929F92AF92BF924A
:104EA000CF92DF92EF92FF920F931F93CF93DF93F6
:104EB000CDB7DEB72E970FB6F894DEBF0FBECDBFCD
:104EC000FC01892B09F4A1C2848180330CF49DC2BA
:104ED00082330CF490C2863409F097C28CC20E94CF
:104EE00008248091B80A9091B90A0E94E3659E87D0
:104EF0008D87892B09F489C23090B50A832D0E94D1
:104F0000FC1F2B013C0180EE9FEFAFEFBFEF480E7F
:104F1000591E6A1E7B1EE1EDF4E09F012C5F3F4F9E
:104F200080819181A281B38184159505A605B7057D
:104F300038F0D9018C919927282E882341F00CC094
:104F40002B5F3F4F3596B4E0233F3B0749F78D85F4
:104F50009E850E94566659C29927AA27BB27898336
:104F60009A83AB83BC83C301B20129813A814B810F
:104F70005C810E94F398DA01C90102E0880F991F51
:104F8000AA1FBB1F0A95D1F781509E4FAF4FBF4F4D
:104F900019E0B695A795979587951A95D1F78987C2
:104FA0009A87AB87BC874C015D01880C991CAA1CB1
:104FB000BB1C89819A81AB81BC81815A9F4FAF4FC5
:104FC000BF4F880E991EAA1EBB1E8F559040A04051
:104FD000B04089839A83AB83BC834091B80A5091D7
:104FE000B90A60E070E08D859E850E947498CC249B
:104FF000DD24760110C001E010E0A70196016D8567
:105000007E85832D0E94741E892B51F40894C11C47
:10501000D11CE11CF11CC814D904EA04FB0459F7A3
:1050200080E090E00E9463906D837E838F839887F9
:105030004091B80A5091B90A60E070E08D859E8574
:105040000E947498AD85BE85A254BE4F1D9281E02A
:105050008D938D931D928BE08D931D921C921296D1
:10506000EFE3AE2EB12CC12CD12CFD01A192B19257
:10507000C192D192DF014082518262827382AA5C26
:10508000B140BE87AD877EEFE72E71E0F72EEA0EC6
:10509000FB1E65E5862E6AEA962EF70191828082D4
:1050A00001E010E020E030E040E050E0BD01832D61
:1050B0000E94741E8C01892B09F005C14091B80A29
:1050C0005091B90A60E070E08D859E850E947498C9
:1050D0008BEEAD85BE858C9388E5FD01818380E9EB
:1050E00082830DE4038393E5948384E485831FE442
:1050F0001683978385E380878EE2818780E38287AA
:1051000080E092E094878387258680E290E097870D
:10511000868782E0808B128A118A148A138A88EF2C
:10512000858B178A168A8FE390E0918F808F8FEF9F
:1051300090E0938F828FED85FE85A48EB58EC68E0E
:10514000D78E40A251A262A273A289859A85AB85AF
:10515000BC8584A395A3A6A3B7A311A610A613A6E6
:1051600012A652E0A52EB12CC12CD12CED85FE85C6
:10517000A4A6B5A6C6A6D7A681E090E091AB80AB69
:1051800086E090E093AB82ABE05CFF4F10823296FA
:1051900089E28193FE87ED876D817E818F8198857D
:1051A000A30192010E94A198AD85BE856D937D9368
:1051B0008D939D938EE48D931D9390E29D938D939B
:1051C00021E42D930D9385E48D939D939D939D9361
:1051D0009D9386E48D932D9384E58D9383E38D9346
:1051E00082E38D939D939D939C93A955B040BE8778
:1051F000AD87F7019182808201E010E02FE330E07B
:1052000040E050E0BD01832D0E94741E8C01892B6B
:1052100009F059C001E010E025E430E040E050E042
:105220006D857E85832D0E94741E892B09F0E7C051
:105230004091B80A5091B90A60E070E08D859E8572
:105240000E94749881EA9FEFAFEFBFEF480E591E9E
:105250006A1E7B1E82E592E5A1E6B1E4ED85FE853E
:1052600080839183A283B383EC51FE4F82E792E760
:10527000A1E4B1E681939193A193B193FE87ED8769
:10528000C301B20129813A814B815C810E94F3986C
:10529000AD85BE852D933D934D935D93FD01A08219
:1052A000B182C282D382EC5EF140FE87ED87D701E6
:1052B0008D929C9220E430E040E050E0BF01832DCD
:1052C0000E94741E8C010115110509F086C04091E1
:1052D000B80A5091B90A60E070E08D859E850E9401
:1052E00074982D853E8588EF9FEFAFEFBFE0F90101
:1052F00081939193A193B1939F018FEF9FEFAFEFB4
:10530000BFE0ED85FE8584839583A683B783F9018D
:1053100084839583A683B78301E010E02FE530E016
:1053200040E050E06D857E85832D0E94741E8C01C7
:10533000892B09F052C0C984DA84EB84FC848FE5A0
:1053400090E0A0E0B0E0C80ED91EEA1EFB1E01E00E
:1053500010E0A70196016D857E85832D0E94741E45
:10536000892B09F04CC04091B80A5091B90A60E00D
:1053700070E08D859E850E94749895E4AD85BE850C
:105380009C9324E5FD01218388E48283938382E555
:1053900084838EE4858385E58683278380E2808706
:1053A0008187828788E08387158A148A138E128EFC
:1053B000ED85FE85148E158E168E178E89859A853D
:1053C000AB85BC85C80ED91EEA1EFB1EA70196013F
:1053D000BF01832D0E94741E8C018D859E850E94C5
:1053E00056660E940324012B81F4832D0E94992587
:1053F000009769F00AC06050704139F470CD8D8516
:105400009E850E9456660E9403248FEF9FEF2E9682
:105410000FB6F894DEBF0FBECDBFDF91CF911F91C5
:105420000F91FF90EF90DF90CF90BF90AF909F9043
:105430008F907F906F905F904F903F902F90089546
:105440000F931F93CF93DF938C0180E092E00E9433
:10545000E365EC01892B31F0802F0E949925CE0164
:105460000E945666DF91CF911F910F910895EF92A0
:10547000FF920F931F93CF93DF93FC018091AC0AAF
:105480009091AD0A0097A9F58281863409F03FC05A
:1054900083818134E1F584818435C9F584859585DE
:1054A0000797A9F537C04BE855E260E27AE280E061
:1054B00090E00E94E6208C01892B19F00EEF1FEF7F
:1054C00014C0B70180E090E00E943020C0E0D0E03E
:1054D0008C2F0E9499252196C330D105C9F781E010
:1054E00090E09093AD0A8093AC0AC7010E94566683
:1054F0001CC0019761F48281863449F483818D3424
:1055000031F48481803319F400E010E00EC00FEF15
:105510001FEF0BC00E94FE2380E092E00E94E36533
:105520007C01892B09F0BFCFEFCFC801DF91CF916C
:105530001F910F91FF90EF9008952F923F924F92FD
:105540005F926F927F928F929F92AF92BF92CF9213
:10555000DF92EF92FF920F931F93CF93DF93CDB71C
:10556000DEB7A6970FB6F894DEBF0FBECDBF9EA3E1
:105570008DA34B018091AC0A9091AD0A892B21F447
:105580008DA19EA10E94372A0E9408246090AE0A35
:105590007090AF0A8DA19EA1009709F422C1FC0171
:1055A000848180330CF41DC182330CF41DC1863418
:1055B00009F017C119C1F4018081882309F411C1D0
:1055C0008AE190E00E94E3655C018091C60A9091B7
:1055D000C70AA091C80AB091C90A0097A105B105F0
:1055E00009F41AC1A114B10409F4FBC0F4018081CB
:1055F0008E3209F4E7C08AE1F50111928A95E9F744
:105600002090C20A3090C30A4090C40A5090C50A44
:10561000F40180818F3209F006C102C1FFE3EF1669
:10562000F1040CF003C183010E0D1F1D992787FDA6
:1056300090950E943099F80180830894E11CF11C38
:105640000894811C911CF40180818F3209F4D2C02E
:105650008C3509F4CFC0882309F7CCC06EE270E026
:10566000C3010E948698009721F409301105D8F5EE
:105670000BC0DC011196FD0101900020E9F7319784
:10568000EA1BFB0B349778F58E010B5F1F4F80E20E
:10569000F80111928A95E9F748E050E060E270E085
:1056A000C8010E94749843E050E060E270E0CE01CF
:1056B0000D960E947498D801F301930104C08D9354
:1056C0002F5F3F4F319680818E3219F08823B9F7D2
:1056D0000DC0F901DE011D9601C08D9381813196C7
:1056E0008823D9F703C021E030E002C020E030E099
:1056F000F40180818F3209F448C08C3509F445C02B
:10570000882309F05FC080E2888B8091B70A80FD12
:105710008DC084EB882E8AE0982E69017E01089462
:10572000E11CF11C92018101A301BE016B5F7F4F5F
:10573000C4010E940A229B01AC016115710581051B
:10574000910509F473C089819A81AB81BC81F5010F
:1057500080839183A283B3832483358346835783D5
:1057600020873187428753871486158616861786C9
:10577000108A118A128A138A918E808E158A148A51
:10578000178A168A80E090E053C080E1888B809170
:10579000B70A80FD4BC069017E010894E11CF11C31
:1057A00092018101A301BE016B5F7F4F84EB9AE000
:1057B0000E940A221B012C016115710581059105CA
:1057C000A9F12EC0C5010E9456660BC086E090E08C
:1057D0000E94E3658C01009771F5C5010E94566631
:1057E00033C00FEF1FEF30C08091B60A882309F055
:1057F000E2CEF7CFE60CF71CF7011082F30101901F
:105800000020E9F78F0101501040061917090D30EB
:10581000110508F068CF22CFA114B10499F6E1CFA9
:105820000894811C911CEE24FF240DCF81E090E0B0
:10583000019761F6C7CFFC01118210828DA19EA154
:1058400093838283B582A4820E940324C801A69612
:105850000FB6F894DEBF0FBECDBFDF91CF911F9181
:105860000F91FF90EF90DF90CF90BF90AF909F90FF
:105870008F907F906F905F904F903F902F90089502
:105880008FEF9FEF08952F923F924F925F926F920A
:105890007F928F929F92AF92BF92CF92DF92EF92C0
:1058A000FF920F931F93CF93DF935C016B014A012B
:1058B00029013801170181E090E00E94731DC0E0CA
:1058C000D0E07601850109C0F80181918F010E9425
:1058D000681DF70181937F012196C815D905A4F3AE
:1058E000C0E0D0E07301820109C0F80181918F010D
:1058F0000E94681DF70181937F012196C215D3058F
:10590000A4F30E94501D80E090E0DF91CF911F91A1
:105910000F91FF90EF90DF90CF90BF90AF909F904E
:105920008F907F906F905F904F903F902F90089551
:10593000EF92FF920F931F93CF93DF93CDB7DEB714
:1059400022970FB6F894DEBF0FBECDBF87ED8983D7
:105950008FEF8A83EE24FF2400E010E020E030E0A7
:1059600042E050E0CE010196BC010E94432C892BFD
:1059700019F08FEF90E002C08A81992722960FB626
:10598000F894DEBF0FBECDBFDF91CF911F910F9175
:10599000FF90EF9008950F931F930E94982C0E9400
:1059A000982C082F60E070E020911C0B30911D0BAB
:1059B0000EC06F5F7F4F808580239185891739F4F2
:1059C0008AE0189F9001112421513B4F18C0162FD7
:1059D000462F5527FA01EE0FFF1FCA01A3E0880FDB
:1059E000991FAA95E1F7E80FF91FE151FB4F80815C
:1059F0009181A281B3810097A105B105D1F63093C1
:105A00001D0B20931C0BCA011F910F910895EF925B
:105A1000FF920F931F93CF93DF937B018C01EA01D9
:105A200019C0209731F461E070E080E090E00E94BE
:105A3000C36B0894E108F108010911098FEFE8161A
:105A40008FEFF8068FEF08078FEF180719F48FEF25
:105A50009FEF06C00E94982C87FFE3CF80E090E084
:105A6000DF91CF911F910F91FF90EF9008955F927A
:105A70006F927F928F929F92AF92BF92CF92DF925E
:105A8000EF92FF920F931F93CF93DF93582E4A010B
:105A90005B01E90138018701293031051CF08FEFE6
:105AA0009FEF23C0A90160E070E08EE19BE00E94BF
:105AB000749850921E0B81149104A104B10469F0F2
:105AC000C501AA27BB2780931F0BBB27AB2D9A2D9F
:105AD000892D8093200B8092210B76019301AE01DA
