:100000000C9477040C94E9040C94E9040C94E9042E
:100010000C94E9040C94BF310C94E9040C947B32E9
:100020000C94E9040C94E9040C94E9040C94E9049C
:100030000C94E9040C9467330C94E9040C94E904DF
:100040000C94E9040C94E9040C94E9040C94E9047C
:100050000C94E9040C94E9040C94E9040C94F13236
:100060000C94E9040C94DF3E0C94E9040C945A3F80
:100070000C94E9040C94E9040C94E9040C94E9044C
:100080000C94E9040C94E9040C94E9040C94E9043C
:100090000C94D43F0C94E9040C944F400C94653EAE
:1000A0000C94E9040C94E9040C94E9040C94E9041C
:1000B0000C94E9040C94E9040C94E9040C94E9040C
:1000C0000C94E9040C94E9040C94E904E2342B3513
:1000D00072359835AC35D435DC350136DF3423360E
:1000E0006A36703676367C36993682369936CF3611
:1000F000A436B9364B65792056616C7565202E2E75
:100100002E205B25645D005254432074696D652088
:100110005B253032643A253032643A253032645DF2
:100120000048656C6C6F20576F726C6400770075C7
:1001300061727430000A000A23446562756720000A
:100140000A23496E666F2020000A234E6F7469638C
:1001500020000A235761726E2020000A2345727224
:10016000202020000A23437269742020000A2341C2
:100170006C65727420000A23456D65726720003F2C
:100180003F203C444D4B3E200057443A20005653FC
:100190003A200056453A200055543A200055443A3A
:1001A000200055413A200053523A200053503A2043
:1001B0000053473A200053453A200053543A200058
:1001C00052543A200052433A2000504C3A200050FA
:1001D000413A20004D443A20004D4D3A20004D4513
:1001E0003A200053593A20004C473A20004C453AF7
:1001F00020004B423A2000494E3A200048543A2011
:1002000000464C3A200046413A200044503A200033
:10021000434D3A200043483A200041553A200030EF
:10022000803000170780B0173C06001750003F24AD
:10023000000600162012008F570000CE1012290071
:100240009900004D0080404C180600D796002855B4
:100250000D0000480D0600505B0930420080B001DF
:1002600080144240BC182840C71336423C003E036D
:10027000B81400031B1500C259D66F2400003603C2
:10028000981228D55700004D000028402BF3362443
:10029000004C80103E1438103E0A78133E0DB8030F
:1002A0003E05F806009555093015141B00D4FF03D0
:1002B00000CEFF01000A000024CE168AB524009269
:1002C000F200945261240002FE2400B24824004A45
:1002D0004501B6F33605D8F3360D98F0360A5800C6
:1002E000200000F0361418618013362400123E17E7
:1002F000B8123E1538053E14B82536240000000A11
:1003000080103E03B8944105B8113E2400113E0709
:10031000B8143E1278143E0DF8033E0EF806005154
:10032000000028D5240000240088B81200046405C9
:1003300004000024000028582194402400002402D6
:1003400021000024009864030856FE2400B64824C7
:1003500000D64D2400103A24C0F03224C056FE24AA
:1003600000B6482400D64D24008443834496638C11
:100370008800F4D540003D2480060091003F00C372
:10038000FE060053000131248060FE2400BE482494
:100390000034A6030C244324008442022C060011DE
:1003A000000028D824003124800600115000392490
:1003B000800600110000314C9884424C9000F48873
:1003C000400028452800002400F03C403809304116
:1003D000380930103800200000000088270930D08C
:1003E0001B002880280930811BF334CC1BF3360E08
:1003F000D8F4360DD8F4361258F1360798F1360590
:1004000018F036039805341490F3362400F23615AC
:100410001800200000F2361798AD80123E17B8126F
:100420003E1538053E14B81536240000000A801029
:100430003E0278103E04F8113E1078143E127813F4
:100440002980C9143E24C0132980C988404C180053
:10045000F405400000C018006424000000C01B0028
:10046000289530300010030028803F0138244000D8
:100470006424000000401A002855370600D05500BB
:1004800000037D84B84C1809300538093000008A13
:10049000FF24001D29007BB24824000000411806FB
:1004A0000010508A4044B8002900138840240000FE
:1004B00030CC1B14602400300051030028D53600D6
:1004C0000024000600110000312400300051030018
:1004D0003824000028803F01392440006424003083
:1004E00000D0030028553F0000037D0600D055844E
:1004F000B84C1809300538093000008AFF24001D67
:1005000029007BB24824008A40CC9B00004118009F
:1005100028553B060010509A68240000302400142F
:10052000602400300092030028853E0600910006FA
:10053000001100000052180600530080B800240685
:100540000091000438248030009203003B24000115
:100550003924400028803F013A244001382440805B
:10056000B8D31BF4361258F1361058F03604D8F0D0
:1005700036025805341490F3362400F2361518006C
:10058000200000F23617983000000000004578691E
:10059000740000000053EF6E00000000457869749D
:1005A00053EF6E4DEA6D5400000000070606060684
:1005B00006060606060606060606060606060606DB
:1005C00006060606060606060606060606060606CB
:1005D00006060606060606060606060606060606BB
:1005E00006060606070606060606060606060606AA
:1005F000060606060606060606060606060606069B
:100600000606060606060606060606060606060789
:10061000060606060606060606060606060606067A
:10062000060606060606060606060606060606066A
:10063000060606060606060606060606060606065A
:10064000060606060606060606060606060606064A
:10065000060606060606060606060606060606063A
:10066000060606060606060606060606060606062A
:10067000060606060606060606060606060606061A
:10068000060606060606060606060606060606060A
:1006900006060606060606060606060606060606FA
:1006A00006060606060606060706060606060606E9
:1006B00006060606060606060606060606060606DA
:1006C00006060606060606060606060606060606CA
:1006D00006060606060606060606060606060606BA
:1006E00006060606060606060606060606060606AA
:1006F000060606060606060606060606060606069A
:100700000606060606060606060606060606060689
:100710000606060606060606060606060606060679
:100720000606060606060606060606060606060669
:100730000606060606060606060606060606060659
:100740000606060606060606060606060606060649
:100750000606060606060606060606060606060639
:10076000546872656164206661696C656400436108
:1007700072645072657300436172642072656D6FBC
:10078000766564004361726420696E736572746596
:1007900064004572726F7220696E697469616C6978
:1007A00073696E672046696C652073797374656D33
:1007B00020616E6420436172642D64726976657293
:1007C0000043617264206D6F756E74656400696EBC
:1007D00076616C6964205370656564006572726F40
:1007E0007220647572696E6720435344207265619C
:1007F0006400000000000000000000000000000095
:1008000000000000000000000000000000000000E8
:1008100000000000000000000000000000000000D8
:1008200000000000000000000000000000000000C8
:1008300000000000000000000000000000000000B8
:1008400000000000000000000000000000000000A8
:100850000000000000000000000000000000000098
:100860000000000000000000000000000000000088
:100870000000000000000000000000000000000078
:100880000000000000000000000000000000000068
:100890000000000000000000000000000000000058
:1008A0000000000000000000000000000000000048
:1008B0000000000000000000000000000000000038
:1008C0000000000000000000000000000000000028
:1008D0000000000000000000000000000000000018
:1008E000000000000000000000000000000084E89C
:1008F00080937400479A3F9A469A3E9A81EE80937D
:1009000000C380E4809301C385B78F7785BF80E003
:1009100090E0359B05C0019641F0359BF8CFFBCFA9
:10092000019619F03599F3CFFBCF85B7806885BF65
:1009300047983F9846983E9887E08093C4008093FC
:10094000CC0011241FBECFEFD1E2DEBFCDBF13E03C
:10095000A0E0B2E0E8E5FFE800E00BBF02C00790CE
:100960000D92AA38B107D9F717E0AAE8B3E001C0A1
:100970001D92A431B107E1F78FEF9FE79EBF8DBFB6
:100980008FEF9FE7845197408158914040F06FEF7F
:100990007EE76451774084E197E00E944D260E94F3
:1009A000102F892B41F064EC72E08AEF96E00E94F0
:1009B00009470E94F72E20E831E040E050E064E46F
:1009C00075E28DEC92E00E943F300E9400000C9492
:1009D000AB470C94000087EF84B98CE08AB98BB1E7
:1009E0008C70836F8BB98EE88DB98EB18E788160F3
:1009F0008EB985B7806885BF85B7806885BF8EE072
:100A000080BB81B38E70816F81BB88E183BB089509
:100A10001F93CF93DF93CDB7DEB762970FB6F894ED
:100A2000DEBF0FBECDBF0E94DB0D84E60E943B2AD5
:100A30000E94EB040E947D0F0E941D060E94D105BA
:100A40000E94480881E291E09F938F9316EC1F93D8
:100A50000E9408070E940521CE0101960E942121D3
:100A60000F900F900F90892BD9F489819A819F93D1
:100A70008F938B819C819F938F938D819E819F9378
:100A80008F9387E091E09F938F931F930E940807B5
:100A90008DB79EB709960FB6F8949EBF0FBE8DBF57
:100AA0000E94D91E0E94610E0E946D0D0E94440991
:100AB0000E946E080E94CC0940E050E066E975E0B3
:100AC00084EE92E00E943A2F892B49F485B5846028
:100AD00085BDA89A80916E00816080936E0081E050
:100AE0000E947129789464E670E080E090E00E94B2
:100AF0004D2B0E942709182F99279F938F9384EFDE
:100B000090E09F938F9386EC8F930E9408070F903D
:100B10000F900F900F900F90183811F081E001C0E6
:100B200080E00E9488090E94D90DDDCF0E947608DE
:100B30000E94080E089580918A0390918B03089576
:100B400080918A0390918B03009731F00E94F540C9
:100B500010928B0310928A030895CF93DF93CDB741
:100B6000DEB724970FB6F894DEBF0FBECDBF698302
:100B70007A838B839C8380918A0390918B030E945C
:100B80004641AE014F5F5F4F63E171E00E948B40D1
:100B900024960FB6F894DEBF0FBECDBFDF91CF9184
:100BA0000895EF92FF920F931F93CF93DF93CDB7EA
:100BB000DEB72D970FB6F894DEBF0FBECDBF80E035
:100BC00092ECA1E0B0E08C839D83AE83BF8388E08C
:100BD000E82EF12CEC0EFD1E6FE271E0C7010E94C1
:100BE000BB466DE271E08E010F5F1F4FC8010E948E
:100BF000BB464091330350913403B801C7010E94B2
:100C0000A64190938B0380938A03009749F00E943A
:100C10004641AE014C5F5F4F61E071E00E948B4046
:100C20002D960FB6F894DEBF0FBECDBFDF91CF91EA
:100C30001F910F91FF90EF90089510928B031092E7
:100C40008A0340E060E070E080EF92E00E94CB2EEB
:100C5000089590918C03883010F480938C03892F31
:100C6000992708952F923F924F925F926F927F92B1
:100C70008F929F92AF92BF92CF92DF92EF92FF92AC
:100C80000F931F93CF93DF93CDB7DEB7CD54D040F2
:100C90000FB6F894DEBF0FBECDBF7C016B011A0109
:100CA000892B09F48EC094E0692E712C44245524BC
:100CB000AA24BB24A0E0B0E000E010E07EC0C501A3
:100CC0008F709070892B69F54DE450E060E270E020
:100CD0008E010F5F1F4FC8010E94EE469301220F45
:100CE000331F220F331F2450304040E050E0D80122
:100CF000F201022E02C0F695E7950A94E2F7EF7032
:100D0000F070E050FE4F80818D934F5F5F4F245015
:100D100030404615570561F7D301129683010C5CEC
:100D20001F4FF6019081E92FE295EF70FF27E05009
:100D3000FE4F50814D010894811C911CE92FFF2723
:100D4000EF70F070E050FE4F4081892F80528F3558
:100D500010F08EE201C0892F9E012F5F3F4FA20F3E
:100D6000B31F5C93F901E80DF91D4083F901E00F11
:100D7000F11F80830F5F1F4F0894A11CB11CC50198
:100D80008F709070892B19F0A214B30489F4F901C3
:100D9000E00FF11F1082B701C9010E943942B7016B
:100DA0008AE090E00E94114280E190E0480E591ED6
:100DB0000894C11CD11CD4011296A214B30409F0EA
:100DC0007ECFC35BDF4F0FB6F894DEBF0FBECDBF43
:100DD000DF91CF911F910F91FF90EF90DF90CF9017
:100DE000BF90AF909F908F907F906F905F904F904B
:100DF0003F902F90089560918D0370918E0361153F
:100E0000710529F0992787FD90950E941142089558
:100E10001F93CF93DF93CDB7DEB722970FB6F89429
:100E2000DEBF0FBECDBF198560918D0370918E031B
:100E30006115710509F410C1212F33272770307017
:100E400080918C039927821793070CF405C1812F99
:100E500087708330F1F0843028F48130A1F0823043
:100E6000A8F40EC08530D9F08530B0F08630D1F0CE
:100E7000873019F487E391E017C085E391E014C04F
:100E800086E791E011C08DE691E00EC084E691E026
:100E90000BC08BE591E008C082E591E005C089E4D4
:100EA00091E002C080E491E00E944A4260918D038B
:100EB00070918E03212F287F283709F4AAC0293783
:100EC00090F5283309F499C02933B0F4283109F496
:100ED0008EC0293138F4283009F486C0203109F059
:100EE00053C055C0283209F485C0203309F455C0D9
:100EF000203209F049C04EC0283509F484C0293594
:100F000048F4283409F47CC0203509F44CC020345E
:100F1000D9F546C0283609F479C0203709F449C00C
:100F2000203691F543C0283B09F47FC0293BA8F443
:100F3000283909F474C0293940F4283809F46CC000
:100F40002039E9F1203801F537C0283A09F46AC0A0
:100F5000203BD9F1203AC1F435C0283D09F46BC0DB
:100F6000293D40F4283C09F463C0203DA1F1203C18
:100F700059F42EC0283E29F0203F99F1203E21F45B
:100F80002DC089E891E059C08FE791E056C08AE111
:100F900092E053C085E192E050C080E192E04DC004
:100FA0008BE092E04AC086E092E047C081E092E0A8
:100FB00044C08CEF91E041C087EF91E03EC082EFEA
:100FC00091E03BC08DEE91E038C088EE91E035C0F5
:100FD00083EE91E032C08EED91E02FC089ED91E07B
:100FE0002CC084ED91E029C08FEC91E026C08AEC02
:100FF00091E023C085EC91E020C080EC91E01DC021
:101000008BEB91E01AC086EB91E017C081EB91E089
:1010100014C08CEA91E011C087EA91E00EC082EA28
:1010200091E00BC08DE991E008C088E991E005C02E
:1010300083E991E002C08EE891E00E944A42AE014D
:10104000445F5F4F5A8349836A857B8580918D0316
:1010500090918E030E945E4222960FB6F894DEBFF6
:101060000FBECDBFDF91CF911F91089580918D0369
:1010700090918E0310928E0310928D030E94354141
:1010800008950E949B0590938E0380938D0308958D
:1010900087E080938C030E9441080895833059F0C3
:1010A000843018F4882339F008C0853031F0853059
:1010B00040F0863091F48B9801C08B9A80938F0317
:1010C000089580918F03813021F48B9810928F03C3
:1010D00008958B9A81E080938F0308958B981092E6
:1010E0008F03089580918F0399270895A398000096
:1010F00000006FB1A39AA498000000004FB1A49A19
:101100005B98000000008FB15B9A5A9800000000C5
:101110002FB15A9A62956F707727407F5527642BBD
:10112000752B807F992734E0880F991F3A95E1F756
:10113000682B792B207F3327322F2227622B732BAA
:1011400070939303609392038FEF6F3B780709F4DA
:1011500058C08FEF603C7807F8F48BEF6F3F78074B
:1011600009F45EC08CEF6030780748F48FEE6F3F73
:10117000780709F45BC06F5F774F89F548C08EEF41
:101180006F3F780709F449C08FEF6F37780781F117
:101190006F5F7D4F21F547C08FEF673F780759F1AB
:1011A0008FEF683F780760F48FEF6F3D780791F11C
:1011B0008FEF6F3E780741F16F5C7F4F81F40CC079
:1011C0008FEF6D3F780789F08FEF6E3F7807B1F0B2
:1011D0006B5F7F4F21F406C08EE090E029C088E865
:1011E00090E026C081E090E023C082E090E020C043
:1011F00083E090E01DC084E090E01AC085E090E0BC
:1012000017C086E090E014C087E090E011C088E04D
:1012100090E00EC089E090E00BC08AE090E008C04A
:101220008BE090E005C08CE090E002C08DE090E0A3
:10123000809394030895E82F862F8150823030F4F4
:10124000E03120F4FF27E856FC4F60830895809139
:1012500094039927089580939403E0919003F0916B
:101260009103309739F48FEF9FEF90939103809320
:10127000900308958FEFEF3FF80729F0848195815F
:101280000196958384830895A39AA49A5B9A5A9AA7
:10129000109297038FEF9FEF9093930380939203A5
:1012A0000FB6F8940F9210929103109290030F9042
:1012B0000FBE8FEF80939403E8E9F3E082E081931F
:1012C00093E0E83AF907D9F7109296031092950344
:1012D00061E088E00E941B0961E08BE00E941B092D
:1012E00061E08AE00E941B0961E08CE00E941B091A
:1012F0000895AB01BC0180E993E00E94352E20E007
:1013000030E08F5F9F4F11F421E030E0C901089574
:10131000813011F4739A0895882309F4739808951D
:101320009AB19F70906F9AB99BB19F70607F962B16
:101330009BB9823011F48A9801C08A9A729A00008F
:10134000000072988A988AB18F708AB98BB18F70B9
:10135000806F8BB908950F931F93082F162F8A98CB
:10136000899A729A000000004F99FBCF72988A9870
:101370008998612F607F802F0E9490091295107FBD
:10138000612F802F0E9490091F910F910895682F5F
:1013900083E00E94AB0908951F938CE80E943B2ACA
:1013A00010E063E382E00E94900984E00E943B2AFF
:1013B0001F5F1330B1F762E282E00E94900981E082
:1013C0000E943B2A68E282E00E94AB0985E00E940D
:1013D0003B2A6CE082E00E94AB0985E00E943B2A38
:1013E00061E082E00E94AB0985E00E943B2A66E052
:1013F00082E00E94AB0960E882E00E94AB091F9185
:1014000008950FB6F8940F929DB3882311F0EE9AC9
:1014100001C0EE980F900FBE892F992726E0969570
:1014200087952A95E1F781709070089580E00E9479
:10143000010A982F8091A803813011F41092A8031B
:10144000892F0E94010A80E090E008958091A8030E
:10145000992708958091A9039091AA0308958091F6
:10146000A9039091AA0308950F931F93CF93DF933D
:10147000EC018B0180E090E00E94810F05C0FE012D
:1014800084910E94690F219601501040FFEF0F3F99
:101490001F07A9F70E945E0FDF91CF911F910F9157
:1014A00008951F9380E00E94010A182F64E070E005
:1014B0008DE895E00E94340A64E070E089E895E0E8
:1014C0000E94340A812F0E94010A80E090E01F915F
:1014D00008950F931F93CF93DF938C01EB0180E06E
:1014E00090E00E94810F05C0F80181918F010E9458
:1014F000690F2197FFEFCF3FDF07B1F70E945E0F23
:10150000DF91CF911F910F910895EF92FF920F936A
:101510001F93F82E8B010E94650FE82E80E00E9439
:10152000620F80E090E00E94810F2C9882E00E9480
:10153000690F8F2D0E94690F812F99270E94690FD3
:10154000802F0E94690F2C9A0E945E0F8E2D0E94A0
:10155000620F1F910F91FF90EF900895DF92EF922D
:10156000FF920F931F93082FE62E80E00E94010A3E
:10157000D82E1127102F0027FF240E291F29B8016C
:101580008BE00E94850A8D2D0E94010A80E090E088
:101590001F910F91FF90EF90DF900895FF920F93AE
:1015A0001F938C0180E00E94010AF82E1C60B80194
:1015B00080E00E94850A8F2D0E94010A80E090E061
:1015C0001F910F91FF9008951F93CF93DF93CDB795
:1015D000DEB721970FB6F894DEBF0FBECDBF89836B
:1015E00080E00E94010A182F80E290E00E94CE0A5B
:1015F00063E070E085E995E00E94340A61E070E004
:10160000CE0101960E94690A64E070E081E995E0EC
:101610000E94340A812F0E94010A80E090E0219606
:101620000FB6F894DEBF0FBECDBFDF91CF911F91F3
:101630000895282F332727703070C90153E0880F91
:10164000991F5A95E1F7820F931F885C0E94E40A64
:101650000895DF92EF92FF920F931F93CF93DF9342
:10166000CDB7DEB721970FB6F894DEBF0FBECDBF62
:1016700089837B0180E00E94010AD82E80E290E0FD
:101680000E94CE0A89818295807F885C898363E08D
:1016900070E080EA95E00E94340A61E070E0CE01DB
:1016A00001960E94690A08E915E064E070E0C8014B
:1016B0000E94340A8E2D0E943B2A64E070E08CE97F
:1016C00095E00E94340A64E070E0C8010E94340A88
:1016D0008D2D0E94010A80E090E021960FB6F894CB
:1016E000DEBF0FBECDBFDF91CF911F910F91FF9055
:1016F000EF90DF9008950F931F938C0180E00E947C
:10170000010A1092A803C80184600E94CE0A8AE0F0
:101710000E943B2A80E48CBB80E090E01F910F91F7
:101720000895DF92EF92FF920F931F93182F0E945C
:10173000650FD82E80E00E94620F80E090E00E944A
:10174000810F2C9883E00E94690F812F0E94690FFE
:101750000E946E0FE82EFF24FE2CEE240E946E0FD6
:10176000082F2C9A0E945E0F8D2D0E94620F112768
:10177000C701802B912B1F910F91FF90EF90DF906D
:101780000895FF920F931F9380E00E94010AF82EA4
:101790008BE00E94910B8C018F2D0E94010AC801E1
:1017A0001F910F91FF900895FF920F931F93182F91
:1017B00080E00E94010AF82E812F0E94910B8C017B
:1017C0008F2D0E94010AC8011F910F91FF9008956B
:1017D00089E00E94D40B9C018FEF213E380790F5E1
:1017E0008DE424353807A1F18DE42535380768F4F8
:1017F00081E424353807F9F08DE424333807D9F033
:1018000081E42434380709F516C087E52D363807FA
:10181000F9F087E52E36380728F487E52D343807A8
:10182000A1F409C086E72536380729F08FEF203E5E
:10183000380759F40DC08091A9039091AA0303972A
:1018400039F403C020EE3FEF03C080E090E008953C
:10185000C901089580E00E94010A2F982C9A2898C7
:10186000209A84E00E943B2A80E00E94620F10923E
:10187000A8032F9A84E00E943B2A81E00E94910BEA
:1018800074E0969587957A95E1F7877090709093BC
:10189000AA038093A903039719F460E070EE02C0D5
:1018A00060E078E983E00E94850A82E30E943B2A97
:1018B00080E090E00E94CE0A60E080E00E94AE0AE4
:1018C00082E30E943B2A8091A9039091AA03039787
:1018D000029710F482E001C081E00E94620F40E0B4
:1018E00050E062E87CE08EED92E00E943A2F66E0E4
:1018F00070E08EED92E00E94B82F80E48CBB80E017
:1019000090E00895BF92CF92DF92EF92FF920F93F3
:101910001F93CF93DF93CDB7DEB722970FB6F8941E
:10192000DEBF0FBECDBF8091A803813009F04FC04C
:10193000669B4DC080E00E94010AB82E78941A82FE
:10194000198280E090E00E94810FF0E2EF2EF12CEE
:1019500000E010E0CC24DD2403C0EFE1EE2EF12CFA
:1019600089819A81C816D906C0F0C114D10419F032
:10197000C6010E945527CE0101960E94D4268C01F3
:1019800089819A81892B19F0CC24DD2408C082E05A
:101990008093A803CC24DD2412C0892B41F0F801E8
:1019A00081918F010E94690F0894C11CD11C669916
:1019B000D4CF0894E108F108E114F10489F60E94FB
:1019C0005E0FC6010E94F2278B2D0E94010A22960B
:1019D0000FB6F894DEBF0FBECDBFDF91CF911F9140
:1019E0000F91FF90EF90DF90CF90BF9008950F93ED
:1019F0001F93CF93DF938091A803813009F435C002
:101A000080E00E94010ACFE1D2E0FE01659174916D
:101A1000EBEAF5E0E4918E2F0E94850A00E010E0E9
:101A200011C0FE0165917491F801E555FA4FE491FA
:101A30008E2F0E94850AC80164EF71E00E944F4713
:101A4000892B11F40E94D90D0F5F1F4F229681E060
:101A5000053B180731F781E08093A80380E090E010
:101A60000E94820C81E00E94010A80E090E0DF91F8
:101A7000CF911F910F9108951F93CF93DF9380E033
:101A800090E00E947B0B80E290E00E94CE0A80E012
:101A90000E94010A182F68E070E083EA95E00E9436
:101AA000340A88E20E943B2A88E00E94910BEC01F4
:101AB000812F0E94010A8091A9039091AA030397A4
:101AC00031F480E8CF37D80711F4C0E0D0E0CE0180
:101AD000DF91CF911F910895089580916A008C7FC6
:101AE00080936A0040E050E06CE67DE088ED92E093
:101AF0000E943A2F892B31F480916A008260809392
:101B00006A00EC9A80918100836080938100AD9A95
:101B10000FB6F8940F921092AC031092AB030F9093
:101B20000FBE0895EF92FF920F931F93AB01BC017C
:101B3000A89521E0E12CE8E0FE2E012D112D01C039
:101B40002F5FD801C701022E04C0880F991FAA1F5A
:101B5000BB1F0A94D2F737E0B695A795979587955E
:101B60003A95D1F784179507A607B70748F320934E
:101B7000AE032A3018F029702093AE032091AE03F3
:101B800023FF02C038E201C038E088E190E027700E
:101B9000322B0FB6F894A895809360000FBE309357
:101BA000600081E08093AD031F910F91FF90EF9053
:101BB0000895A89508958091AD03882319F08F5F4B
:101BC0008093AD0388E10FB6F89480936000109283
:101BD00060000FBE08958091AD038230C0F0815047
:101BE0008093AD03813099F42091AE0323FF02C0AE
:101BF00038E201C038E088E190E02770322B0FB660
:101C0000F894A895809360000FBE3093600008950B
:101C10008091B2039091B3038130910589F08130B6
:101C2000910530F08230910521F10397E9F52DC03F
:101C300078993AC081E08093B10381E090E020C0C0
:101C4000789912C08091B1038F5F8093B1038E3178
:101C500059F581E08093B00382E090E09093B30364
:101C60008093B20381E021C01092B3031092B203BB
:101C70001BC0789B19C081E08093B10383E090E0A2
:101C80009093B3038093B2030FC08091B1038F5F31
:101C90008093B103843141F41092B0031092B303E6
:101CA0001092B20380E001C082E0992708958091EC
:101CB000B003992708958091B4039091B5030895D6
:101CC00008950F931F93CF93DF93CDB7DEB72A9775
:101CD0000FB6F894DEBF0FBECDBF1092B3031092C3
:101CE000B2031092B0036EE677E08E010F5F1F4FD4
:101CF000C8010E94BB46C8010E941D29892BB1F46E
:101D000020E033E040E050E062E27FE0C8010E9462
:101D10003F30892B59F480E697E09F938F9380EEB4
:101D20008F930E9408070F900F900F902A960FB67E
:101D3000F894DEBF0FBECDBFDF91CF911F910F9101
:101D40000895FF920F931F93CF93DF93CDB7DEB724
:101D50002A970FB6F894DEBF0FBECDBF82E192E0A6
:101D60000E94AF2E892BB9F480E00E94010AF82E60
:101D700040E067E070E080E192E00E94CB2E8C01B1
:101D8000892B51F540E067E070E083E392E00E9428
:101D9000CB2E8C0121C00E94431380E00E94010AD7
:101DA000F82EE0912302F0912402309729F080E18F
:101DB00092E01995892B59F4E0914602F09147027F
:101DC000309741F083E392E01995892B19F00FEFDA
:101DD0001FEF02C000E010E08F2D0E94010A0115E4
:101DE0001105C1F481EC97E09F938F9386EE8F935A
:101DF0000E94080760E070E0CE0101960E949D40BD
:101E00000F900F900F902FEF8F3F920771F00E946D
:101E100075400BC082E997E09F938F9383EE8F9379
:101E20000E9408070F900F900F90C8012A960FB6D6
:101E3000F894DEBF0FBECDBFDF91CF911F910F9100
:101E4000FF9008958091B0038093AF038091B00319
:101E50008130B9F48091AF03882349F584E897E095
:101E60009F938F9386EE8F930E9408070E94A10E86
:101E70000F900F900F90892B29F780E10E942B097A
:101E8000E1CF8823A1F48091AF03813081F487E70B
:101E900097E09F938F9386EE8F930E94080780911F
:101EA000B0038093AF030F900F900F90CFCF64EFEC
:101EB00071E080E090E00E944D2BC8CF779A2E9879
:101EC0002D9A08958093B60308958091B6039927BB
:101ED00008958EBD0DB407FEFDCF08958FEF8EBD22
:101EE0000DB407FEFDCF8EB5992708958EBD0DB4B4
:101EF00007FEFDCF8EB599270895779A2E982D9AD3
:101F000008959C010097F9F48091B603882321F489
:101F100081E08DBD81E504C0813021F41DBC80E5E8
:101F20008CBD25C0823019F481E08DBDF8CF8EECD8
:101F300097E09F938F938BE78F930E9408070F90F2
:101F40000F900F9014C0019741F481E08DBD80E5A2
:101F50008CBD2D9A2E98779808951DBC80E58CBD78
:101F60002130310520F02230310541F404C0779A48
:101F70002D9A2E9A0895779A2E982D98089580E09C
:101F800090E0089580E090E0089580E090E008956A
:101F900040E050E060E070E087EB93E00E94352E77
:101FA0000895CF93DF93CEEFDFEF0E946E0F8F3F48
:101FB00011F42197D1F79927DF91CF910895CF930D
:101FC000DF93CEEFDFEF0E946E0F8E3F11F021976F
:101FD000D1F79927DF91CF910895DF92EF92FF9289
:101FE0000F931F93D82E8B017A0182E090E00E941C
:101FF000810F8FEF0E94690F8D2D80640E94690F01
:10200000812F99270E94690F802F0E94690F8F2DC1
:1020100099270E94690F8E2D0E94690F85E90E9401
:10202000690F8FEF0E94690F1F910F91FF90EF9042
:10203000DF9008956F927F928F929F92AF92BF929E
:10204000CF92DF92EF92FF920F931F93CF93DF9384
:102050005B0169017A013801882499243AC0A601FC
:10206000542F4427550FC701B60127E09695879551
:10207000779567952A95D1F781E10E94ED0F0E942F
:10208000DF0F8E3F29F00E945E0F81E090E026C0B6
:102090008501C0E0D0E00E946E0FF80181938F01AE
:1020A0002196F2E0C030DF07B1F780E092E0A80EA1
:1020B000B91E8FEF0E94690F8FEF0E94690F0E9477
:1020C0005E0F0894811C911C0894C11CD11CE11C5A
:1020D000F11C8614970419F680E090E0DF91CF910F
:1020E0001F910F91FF90EF90DF90CF90BF90AF9036
:1020F0009F908F907F906F90089587EB93E00E9460
:10210000E22D08952F923F924F925F926F927F92AD
:102110008F929F92AF92BF92CF92DF92EF92FF92F7
:102120000F931F93CF93DF93CDB7DEB728970FB6EA
:10213000F894DEBF0FBECDBFF82E6B0139014A0106
:1021400018010E94C80FFF2019F022E030E0A8C05B
:10215000C801AA27BB27860D971DA81DB91D209170
:10216000BC033091BD034091BE035091BF032817BB
:1021700039074A075B0728F483E090E09E838D834C
:1021800002C01E821D828091B9039091BA0397FD0F
:1021900004C0E2E0F0E0FE83ED8396FD7FC02D8178
:1021A0003E81232B09F092C0DC82CB8272C03FEFCC
:1021B0002316310409F010F4610103C0C12CA1E021
:1021C000DA2E4B805C80840173011A82198253C01D
:1021D000A701542F4427550FC801B701E7E0969592
:1021E000879577956795EA95D1F788E10E94ED0F7D
:1021F0000E94D10F8F3F09F445C08EEF0E94690FF6
:10220000520118861F82F50181915F010E94690FBA
:102210002F8138852F5F3F4F38872F8320503240E2
:1022200091F7E0E0F2E04E0E5F1E8FEF0E94690F23
:102230008FEF0E94690F8FEF0E94690F5FEFA52E4D
:10224000B52E0E946E0F882339F40894A108B108B6
:10225000A114B104B9F0F5CF0894E11CF11C011DE3
:10226000111DAB2879F00E945E0F29813A812F5F02
:102270003F4F3A83298389819A818C159D0509F006
:10228000A7CF11C00E945E0FE1E0F0E0FE83ED8376
:102290001DC02114310409F08ACF18C028E030E0B5
:1022A0003E832D8313C0C601AA27BB27680E791E63
:1022B0008A1E9B1E2C183D08DC2CCC24DD0C8B8147
:1022C0009C818C0D9D1D9C838B83E3CF0E947D1090
:1022D0008D819E8128960FB6F894DEBF0FBECDBFCC
:1022E000DF91CF911F910F91FF90EF90DF90CF90F2
:1022F000BF90AF909F908F907F906F905F904F9026
:102300003F902F9008958F929F92AF92BF92CF925D
:10231000DF92EF92FF920F931F93CF93DF93F82EEC
:10232000EB0149015A0168010E94C80FFF20F1F436
:102330008091B9039091BA0397FF18C0C801AA27EA
:10234000BB27880D991DAA1DBB1D2091BC03309190
:10235000BD034091BE035091BF03281739074A07B8
:102360005B0708F042C003E010E044C002E010E068
:1023700041C02FEFC216D10409F010F4E60102C0EB
:10238000C0E0D1E08E01A5019401B70189EB93E093
:102390000E941A108C01892B69F5CE01AA27BB2750
:1023A000880E991EAA1EBB1ECC1ADD0A8091C0039E
:1023B0009091C1039C01C29FC001C39F900DD29F09
:1023C000900D1124E80EF91EC114D10491F600E01D
:1023D00010E010C001E010E0A5019401BE0189EBFE
:1023E00093E00E941A108C0105C07E010130110596
:1023F00059F7F0CF0E947D10C801DF91CF911F9156
:102400000F91FF90EF90DF90CF90BF90AF909F9093
:102410008F900895EF92FF920F931F93182F0E94B1
:10242000C80F112321F0EE24FF24870108C0E0909B
:10243000BC03F090BD030091BE031091BF030E9446
:102440007D10C801B7011F910F91FF90EF90089583
:102450001F93CF93DF93182F0E94C80F112319F0F9
:10246000C0E0D0E004C0C091C003D091C1030E947D
:102470007D10CE01DF91CF911F910895CF92DF9211
:10248000EF92FF920F931F93CF93DF93CDB7DEB7F9
:1024900060970FB6F894DEBF0FBECDBF6B010E94F0
:1024A000C80F8091B9039091BA0397FF8AC040E0AA
:1024B00050E060E070E089E00E94ED0F0E94DF0FC5
:1024C0008E3F61F08CED97E09F938F9383EF8F9316
:1024D0000E9408070F900F900F9073C08E010F5F3E
:1024E0001F4F0E946E0FF80181938F01CE0141961C
:1024F000E817F907B1F78FEF0E94690F8FEF0E947D
:10250000690F0E945E0FEE80FFE0EF2221E030E0D5
:10251000C90102C0880F991FEA94E2F77C016F811C
:10252000772763707070762F6627770F770FE885AF
:10253000FF27EE0FFF1FEE0FFF1F6E2B7F2B09856E
:102540001127EA85FF27E370F070DF01AA0FBB1F98
:10255000EA2BFB2BAB85BB2786E0169507958A9562
:10256000E1F7602B712B6F5F7F4F88279927AA0FA8
:10257000AB2FAA1FBB0BB195EA2BFB2B329602C0E7
:10258000220F331FEA95E2F7442755270E94104790
:102590006093BC037093BD038093BE039093BF030D
:1025A000F092C103E092C0030E947D1001E010E0B0
:1025B00020E030E040E050E0B60180E00E9483116E
:1025C00004C00E947D1081E090E060960FB6F89400
:1025D000DEBF0FBECDBFDF91CF911F910F91FF9056
:1025E000EF90DF90CF900895CF93DF937093C30364
:1025F0006093C2035093C5034093C40389E0E9EBA1
:10260000F3E011928A95E9F71092BB0387EB93E010
:102610000E94E22DC0E0D0E08FEF0E94690F21966A
:10262000CA30D105C9F740E050E060E070E080E0DA
:102630000E94ED0F0E94D10F813099F4CFEFDFEFB0
:1026400007C040E050E060E070E081E00E94ED0FE4
:102650000E946E0F882319F0219799F702C0CD2BA5
:1026600029F40E945E0F81E090E00AC00E945E0F94
:1026700080E090E89093BA038093B90380E090E003
:10268000DF91CF9108951092C7031092C603089569
:10269000EF92FF920F931F93CF93DF93EC017A0198
:1026A0008B018B8180FD1AC08EEF9FEFAFEFBFEFE4
:1026B000E80EF91E0A1F1B1F2A81332744275527BE
:1026C000C801B7010E941047AB01BC018A8D9B8DE8
:1026D000AC8DBD8D480F591F6A1F7B1FCB01BA01FE
:1026E000DF91CF911F910F91FF90EF9008958FEFA1
:1026F0009FEF08958FEF9FEF0895282F8F3F11F4DC
:1027000020E006C0882321F099270E948447282FC3
:10271000822F992787FD909508958F929F92AF926F
:10272000BF92CF92DF92EF92FF920F931F93FC0123
:102730006A017B01838180FF07C0CB01BA016F5F13
:102740007F4F8F4F9F4F69C0808182889388A48874
:10275000B5886091CA037091CB038130A9F5A701B8
:102760009601A7E05695479537952795AA95D1F7F5
:10277000280D391D4A1D5B1D01E010E081810E947A
:1027800083118091CA039091CB03F601EF77F0702B
:10279000EE0FFF1FEE0FFF1FE80FF91F6081718121
:1027A000828193819F706F3F2FEF72072FEF820717
:1027B0002FE0920771F1673F2FEF72072FEF82072B
:1027C0002FE0920751F525C055274F2D3E2D2D2D79
:1027D000280D391D4A1D5B1D01E010E081810E941A
:1027E00083118091CA039091CB03F601F070EE0F34
:1027F000FF1FE80FF91F208131818FEF2F3F38072E
:1028000041F08FEF273F380721F0B901882799273A
:1028100004C060E070E080E090E01F910F91FF90B5
:10282000EF90DF90CF90BF90AF909F908F900895E2
:102830002F923F924F925F926F927F928F929F92D0
:10284000AF92BF92CF92DF92EF92FF920F931F93BE
:10285000CF93DF93CDB7DEB76A970FB6F894DEBF9C
:102860000FBECDBF988B8F877A8B698B5C8B4B8B20
:1028700018012901FE8AED8AD88ECF8AD7011D92D0
:102880001D921D921C921397DA010D900020E9F71A
:102890001197A41BB50BCD010C966DE070E00E9462
:1028A0004F47F62FF064F983F53E09F496C18DE0A9
:1028B000689F900111243B832A832F3331050CF04C
:1028C0008CC17901BF2E1E86CC24DD2480C1B201CB
:1028D000A1018F8598890E944813688779878A8724
:1028E0009B87EF85F8898281282F33273D872C87A6
:1028F00031E0231631044104510479F480818823A6
:1029000061F482859385A485B58588879987AA8790
:10291000BB87268137813D872C87688479848A84A8
:102920009B8442C16091CA037091CB0301E010E027
:10293000A4019301EF85F88981810E948311209180
:10294000CA033091CB033F832E838091CC039091B7
:10295000CD039D838C833A8F298F9E85913019F406
:10296000E98DFA8D1DC02F89388D232B99F5A98DFE
:10297000BA8D8C91853E71F1882361F14BE050E076
:1029800069897A89CD010E94D846892B19F5E98990
:10299000FA899385E98DFA8D838589238917D1F486
:1029A00084899589AA27BB27AC0133272227828DEA
:1029B000938DAA27BB27282B392B4A2B5B2B848D81
:1029C000958DA68DB78DED89FE8980839183A28335
:1029D000B38307C1E98DFA8D83858F3009F0D0C0AC
:1029E000A080AB1409F0CCC0B6FE0DC0BFEBAB2E7F
:1029F000AB20AC81BD81AE0DBF1D1C920894E108D7
:102A0000F108CC80DD80E98DFA8D868D978D0E944E
:102A10007D13F601EE0DFF1D8083870101501040EC
:102A2000E98DFA8D848D958D0E947D13F601E00F5E
:102A3000F11F808301501040E98DFA8D808D918DBA
:102A40000E947D13F601E00FF11F808301501040BA
:102A5000E98DFA8D868997890E947D13F601E00F32
:102A6000F11F808301501040E98DFA8D848995898A
:102A70000E947D13F601E00FF11F8083015010408A
:102A8000E98DFA8D828993890E947D13F601E00F0A
:102A9000F11F808301501040E98DFA8D8089918962
:102AA0000E947D13F601E00FF11F8083015010405A
:102AB000E98DFA8D868597850E947D13F601E00FDA
:102AC000F11F808301501040E98DFA8D8185928538
:102AD0000E947D13F601E00FF11F8083015010402A
:102AE000E98DFA8D878190850E947D13F601E00FB4
:102AF000F11F808301501040E98DFA8D8581968108
:102B00000E947D13F601E00FF11F808301501040F9
:102B1000E98DFA8D838194810E947D13F601E00F87
:102B2000F11F808301501040E98DFA8D81819281DF
:102B30000E947D13F601E00FF11F8083BA2CBA9436
:102B400029F078010894E108F1081AC0AB89BC8922
:102B50000D900020E9F711972B893C89A21BB30B3C
:102B6000AD01B601C9010E94D846892B31F4EA8033
:102B7000FB80B98031E03E8703C0EA80FB80B980EA
:102B8000898D9A8D80969A8F898F8E819F818050B2
:102B90009E4FA98DBA8DA817B90709F0DECE08940B
:102BA000611C711C811C911CC301E885F9858E1B79
:102BB0009F0B2C853D85821793070CF4B3CEB20191
:102BC000A1018F8598890E948D131B012C0121146E
:102BD00031044104510409F07ACE20E030E040E0B5
:102BE00050E0CA01B9016A960FB6F894DEBF0FBE75
:102BF000CDBFDF91CF911F910F91FF90EF90DF90AC
:102C0000CF90BF90AF909F908F907F906F905F908C
:102C10004F903F902F90089584E394E00E94E22D1E
:102C2000089584E394E00E94E22D089540E050E08E
:102C300060E070E084E394E00E94352E08952F92C6
:102C40003F924F925F926F927F928F929F92AF923C
:102C5000BF92CF92DF92EF92FF920F931F93CF9389
:102C6000DF93CDB7DEB728970FB6F894DEBF0FBE5F
:102C7000CDBF8C016B015E834D830E94161601153A
:102C8000110509F4F6C0F8010481158118870F8336
:102C90000115110509F4EDC06D817E816115710585
:102CA00009F4E7C0F801E484F584068517852081DE
:102CB000318142815381E216F3060407150708F0BB
:102CC000D2C0CB01AA2797FDA095BA2F8E0D9F1DCC
:102CD000A01FB11F281739074A075B0720F42E19D8
:102CE0003F093E832D83EF81F885008CF18DE02D27
:102CF000FC83EB83DA82C982248035804D805E803C
:102D0000ABC0EF81F8856088718882889388510113
:102D1000CC24DD2440855185628573858B819C811F
:102D20000E9448137B018C01C401B301A6019501E7
:102D30000E946247442737FD4095542F2E0D3F1DBA
:102D4000401F511F6091CA037091CB0301E010E056
:102D5000EB81FC8181810E948311892B09F079C06C
:102D6000C401B301A60195010E94624761014214AA
:102D700053040CF46201CB018C0D9D1D28163906FD
:102D80001CF46101C61AD70A8091CA039091CB0343
:102D9000680F791FA60189819A810E94E546760114
:102DA0000027F7FC0095102FEF81F88524853585E5
:102DB000468557852E0D3F1D401F511F248735879F
:102DC0004687578780899189A289B3898E0D9F1D77
:102DD000A01FB11F808B918BA28BB38B80819181BF
:102DE000A281B381281739074A075B0720F081E0E9
:102DF00090E0978B868BEF81F88520893189428915
:102E00005389EB81FC81868D978DA0A1B1A12817F4
:102E100039074A075B07A0F0EF81F88540855185A7
:102E2000628573858B819C810E948D13EF81F8856B
:102E30006087718782879387108A118A128A138A22
:102E400069817A816C0D7D1D7A8369834C185D08D8
:102E500003C08DEF9FEF09C04114510409F051CF19
:102E60000D811E8108C08EEF9FEFEF81F885958B55
:102E7000848B00E010E00E941116C80128960FB65E
:102E8000F894DEBF0FBECDBFDF91CF911F910F91A0
:102E9000FF90EF90DF90CF90BF90AF909F908F907A
:102EA0007F906F905F904F903F902F900895EF929A
:102EB000FF920F931F93CF93DF93EC010E9416169E
:102EC000209749F0EC81FD81309729F0E080F18076
:102ED0000281138108C00FEFE02E0FEFF02E0FEFED
:102EE000002F0FEF102F0E941116C801B701DF91BC
:102EF000CF911F910F91FF90EF900895CF93DF93A3
:102F0000EC010E941616209719F4CFEFDFEF0BC0EB
:102F10008C819D81009711F00E94E025CE010E94D6
:102F2000E025C0E0D0E00E941116CE01DF91CF91E4
:102F300008950F931F938C010E941616012B11F414
:102F40001092D0030E9411161F910F9108952F9295
:102F50003F924F925F926F927F928F929F92AF9229
:102F6000BF92CF92DF92EF92FF920F931F93CF9376
:102F7000DF93CDB7DEB724970FB6F894DEBF0FBE50
:102F8000CDBF182F0E9416168091C8039091C903D7
:102F9000892B41F480E490E00E946D259093C90351
:102FA0008093C8038091CC039091CD03892B41F489
:102FB00080E490E00E946D259093CD038093CC0334
:102FC0008091CA039091CB03892B59F480E092E061
:102FD0000E946D259093CB038093CA03892B09F43B
:102FE00045C18091C8039091C903892B09F43EC162
:102FF0008091CC039091CD03892B09F437C182E2F3
:10300000189FF0011124E253FC4F11928A95E9F7C1
:10301000E12EFF242701440C551CC70135E0880F21
:10302000991F3A95E1F7480E591E2EEC33E0420EF7
:10303000531EF2011183812F0E942812F201958301
:103040008483812F0E94BF0F019721F4F2018381B5
:1030500081608383812F0E94C20F019721F4F201C6
:10306000838182608383F2018481958180509240C4
:1030700019F001E010E0FCC0F201838181FF05C07E
:1030800020E230E040E050E038C06091CA03709127
:10309000CB0301E010E020E030E040E050E08E2D76
:1030A0000E9483118C01892B09F0E2C0E091CA03D0
:1030B000F091CB03E250FE4F80819181EE5FF140B1
:1030C00085559A4A09F0D4C0E653FE4F808191811C
:1030D000A281B381EA5CF1400097A105B10509F432
:1030E000C7C0EA53FE4F20813181428153812115AF
:1030F00031054105510509F4BBC06091CA037091C7
:10310000CB0301E010E08E2D0E9483112090CA03B2
:103110003090CB034EEF51E0240E351ED1018D913E
:103120009C91E2E0FEEF2E0E3F1E85559A4A09F073
:103130009DC0F1018585F2018283F10126893789DD
:103140002115310571F0C901AA27BB2789839A830C
:10315000AB83BC83D2011C9281E090E0A0E0B0E0A0
:1031600010C0F10124A135A146A157A129833A83BA
:103170004B835C8381E0D2018C9384A595A5A6A5A1
:10318000B7A5F20186879787A08BB18BF101638584
:1031900074858189928925E0880F991F2A95E1F726
:1031A000860F971F01970E943B473B018824992473
:1031B000E684F78400271127A48CB58CC68CD78CA5
:1031C000AE0CBF1CC01ED11EF201A28AB38AC48AF3
:1031D000D58A29813A814B815C81A20EB31EC41E1F
:1031E000D51EA68AB78AC08ED18EF1016089772755
:1031F000882799270E941047F101248D358D468D2F
:10320000578DE20EF31E041F151FE60CF71C081D58
:10321000191DE60EF71E081F191FF201E28EF38E2C
:10322000048F158FF10185859927F201248135815D
:10323000AC01429FC001439F900D529F900D1124FD
:10324000AA27BB27868F978FA0A3B1A36682778218
:103250008086918629813A814B815C81A20EB31EC2
:10326000C41ED51EA286B386C486D58600E010E0B3
:103270000E941116C80124960FB6F894DEBF0FBE47
:10328000CDBFDF91CF911F910F91FF90EF90DF9015
:10329000CF90BF90AF909F908F907F906F905F90F6
:1032A0004F903F902F9008952F923F924F925F92B0
:1032B0006F927F928F929F92AF92BF92CF92DF9246
:1032C000EF92FF920F931F93CF93DF93CDB7DEB7AB
:1032D0002E970FB6F894DEBF0FBECDBFFC01892B31
:1032E00009F4A1C2848180330CF49DC282330CF4B2
:1032F00090C2863409F097C28CC20E941616809143
:10330000D2039091D3030E946D259E878D87892BD0
:1033100009F489C23090CF03832D0E940A122B0139
:103320003C0180EE9FEFAFEFBFEF480E591E6A1EC3
:103330007B1EE6E5F2E09F012C5F3F4F808191818B
:10334000A281B38184159505A605B70538F0D9018A
:103350008C919927282E882341F00CC02B5F3F4F7A
:103360003596B2E028373B0749F78D859E850E9448
:10337000E02559C29927AA27BB2789839A83AB8363
:10338000BC83C301B20129813A814B815C810E94D7
:103390006247DA01C90102E0880F991FAA1FBB1F0B
:1033A0000A95D1F781509E4FAF4FBF4F19E0B695A8
:1033B000A795979587951A95D1F789879A87AB87AF
:1033C000BC874C015D01880C991CAA1CBB1C89811F
:1033D0009A81AB81BC81815A9F4FAF4FBF4F880EFE
:1033E000991EAA1EBB1E8F559040A040B0408983F5
:1033F0009A83AB83BC834091D2035091D30360E0A6
:1034000070E08D859E850E94EE46CC24DD247601F9
:1034100010C001E010E0A70196016D857E85832D27
:103420000E948210892B51F40894C11CD11CE11C0C
:10343000F11CC814D904EA04FB0459F780E090E0B9
:103440000E94B5426D837E838F8398874091D2031B
:103450005091D30360E070E08D859E850E94EE461A
:10346000AD85BE85A254BE4F1D9281E08D938D9394
:103470001D928BE08D931D921C921296EFE3AE2E5F
:10348000B12CC12CD12CFD01A192B192C192D1924B
:10349000DF014082518262827382AA5CB140BE87A2
:1034A000AD877EEFE72E71E0F72EEA0EFB1E65E595
:1034B000862E6AEA962EF7019182808201E010E062
:1034C00020E030E040E050E0BD01832D0E948210FA
:1034D0008C01892B09F005C14091D2035091D3038F
:1034E00060E070E08D859E850E94EE468BEEAD8596
:1034F000BE858C9388E5FD01818380E982830DE49C
:10350000038393E5948384E485831FE41683978380
:1035100085E380878EE2818780E3828780E092E086
:1035200094878387258680E290E09787868782E06C
:10353000808B128A118A148A138A88EF858B178AE6
:10354000168A8FE390E0918F808F8FEF90E0938FBA
:10355000828FED85FE85A48EB58EC68ED78E40A255
:1035600051A262A273A289859A85AB85BC8584A38A
:1035700095A3A6A3B7A311A610A613A612A652E060
:10358000A52EB12CC12CD12CED85FE85A4A6B5A607
:10359000C6A6D7A681E090E091AB80AB86E090E034
:1035A00093AB82ABE05CFF4F1082329689E281934D
:1035B000FE87ED876D817E818F819885A3019201C1
:1035C0000E941047AD85BE856D937D938D939D932D
:1035D0008EE48D931D9390E29D938D9321E42D9322
:1035E0000D9385E48D939D939D939D939D9386E488
:1035F0008D932D9384E58D9383E38D9382E38D9357
:103600009D939D939C93A955B040BE87AD87F701CC
:103610009182808201E010E02FE330E040E050E052
:10362000BD01832D0E9482108C01892B09F059C0A5
:1036300001E010E025E430E040E050E06D857E855B
:10364000832D0E948210892B09F0E7C04091D2039C
:103650005091D30360E070E08D859E850E94EE4618
:1036600081EA9FEFAFEFBFEF480E591E6A1E7B1E27
:1036700082E592E5A1E6B1E4ED85FE858083918344
:10368000A283B383EC51FE4F82E792E7A1E4B1E657
:1036900081939193A193B193FE87ED87C301B2010A
:1036A00029813A814B815C810E946247AD85BE854C
:1036B0002D933D934D935D93FD01A082B182C28213
:1036C000D382EC5EF140FE87ED87D7018D929C920C
:1036D00020E430E040E050E0BF01832D0E948210E2
:1036E0008C010115110509F086C04091D20350915B
:1036F000D30360E070E08D859E850E94EE462D85A7
:103700003E8588EF9FEFAFEFBFE0F9018193919382
:10371000A193B1939F018FEF9FEFAFEFBFE0ED85D6
:10372000FE8584839583A683B783F901848395837B
:10373000A683B78301E010E02FE530E040E050E0E1
:103740006D857E85832D0E9482108C01892B09F066
:1037500052C0C984DA84EB84FC848FE590E0A0E059
:10376000B0E0C80ED91EEA1EFB1E01E010E0A70162
:1037700096016D857E85832D0E948210892B09F02C
:103780004CC04091D2035091D30360E070E08D852E
:103790009E850E94EE4695E4AD85BE859C9324E50A
:1037A000FD01218388E48283938382E584838EE410
:1037B000858385E58683278380E28087818782876A
:1037C00088E08387158A148A138E128EED85FE8514
:1037D000148E158E168E178E89859A85AB85BC85BD
:1037E000C80ED91EEA1EFB1EA7019601BF01832D3C
:1037F0000E9482108C018D859E850E94E0250E948A
:103800001116012B81F4832D0E94A717009769F0F0
:103810000AC06050704139F470CD8D859E850E943C
:10382000E0250E9411168FEF9FEF2E960FB6F894A9
:10383000DEBF0FBECDBFDF91CF911F910F91FF90E3
:10384000EF90DF90CF90BF90AF909F908F907F9040
:103850006F905F904F903F902F9008950F931F931C
:10386000CF93DF938C0180E092E00E946D25EC0104
:10387000892B31F0802F0E94A717CE010E94E025EE
:10388000DF91CF911F910F910895EF92FF920F93C7
:103890001F93CF93DF93FC018091C6039091C703E0
:1038A0000097A9F58281863409F03FC08381813475
:1038B000E1F584818435C9F5848595850797A9F557
:1038C00037C049E957E16EE27CE180E090E00E9478
:1038D000F4128C01892B19F00EEF1FEF14C0B70101
:1038E00080E090E00E943E12C0E0D0E08C2F0E9469
:1038F000A7172196C330D105C9F781E090E09093D6
:10390000C7038093C603C7010E94E0251CC001972E
:1039100061F48281863449F483818D3431F4848169
:10392000803319F400E010E00EC00FEF1FEF0BC062
:103930000E940C1680E092E00E946D257C01892B8C
:1039400009F0BFCFEFCFC801DF91CF911F910F9149
:10395000FF90EF9008952F923F924F925F926F9257
:103960007F928F929F92AF92BF92CF92DF92EF920F
:10397000FF920F931F93CF93DF93CDB7DEB7A69738
:103980000FB6F894DEBF0FBECDBF9EA38DA34B0133
:103990008091C6039091C703892B21F48DA19EA12C
:1039A0000E94451C0E9416166090C8037090C903BF
:1039B0008DA19EA1009709F422C1FC01848180336E
:1039C0000CF41DC182330CF41DC1863409F017C1FB
:1039D00019C1F4018081882309F411C18AE190E0C2
:1039E0000E946D255C018091E0039091E103A0911C
:1039F000E203B091E3030097A105B10509F41AC1F0
:103A0000A114B10409F4FBC0F40180818E3209F4E1
:103A1000E7C08AE1F50111928A95E9F72090DC036D
:103A20003090DD034090DE035090DF03F40180818D
:103A30008F3209F006C102C1FFE3EF16F1040CF06A
:103A400003C183010E0D1F1D992787FD90950E94CC
:103A50008447F80180830894E11CF11C0894811CC0
:103A6000911CF40180818F3209F4D2C08C3509F4A5
:103A7000CFC0882309F7CCC06EE270E0C3010E947A
:103A8000F546009721F409301105D8F50BC0DC018B
:103A90001196FD0101900020E9F73197EA1BFB0B1D
:103AA000349778F58E010B5F1F4F80E2F801119279
:103AB0008A95E9F748E050E060E270E0C8010E94B2
:103AC000EE4643E050E060E270E0CE010D960E94C9
:103AD000EE46D801F301930104C08D932F5F3F4F51
:103AE000319680818E3219F08823B9F70DC0F90123
:103AF000DE011D9601C08D93818131968823D9F70F
:103B000003C021E030E002C020E030E0F401808119
:103B10008F3209F448C08C3509F445C0882309F078
:103B20005FC080E2888B8091D10380FD8DC08EECD8
:103B3000882E83E0982E69017E010894E11CF11C17
:103B400092018101A301BE016B5F7F4FC4010E94FE
:103B500018149B01AC01611571058105910509F4EB
:103B600073C089819A81AB81BC81F5018083918387
:103B7000A283B38324833583468357832087318789
:103B8000428753871486158616861786108A118AEF
:103B9000128A138A918E808E158A148A178A168A41
:103BA00080E090E053C080E1888B8091D10380FD5C
:103BB0004BC069017E010894E11CF11C9201810156
:103BC000A301BE016B5F7F4F8EEC93E00E9418143F
:103BD0001B012C016115710581059105A9F12EC00C
:103BE000C5010E94E0250BC086E090E00E946D2593
:103BF0008C01009771F5C5010E94E02533C00FEFDD
:103C00001FEF30C08091D003882309F0E2CEF7CFB8
:103C1000E60CF71CF7011082F30101900020E9F790
:103C20008F0101501040061917090D30110508F0D9
:103C300068CF22CFA114B10499F6E1CF0894811C7A
:103C4000911CEE24FF240DCF81E090E0019761F6F6
:103C5000C7CFFC01118210828DA19EA19383828324
:103C6000B582A4820E941116C801A6960FB6F894D8
:103C7000DEBF0FBECDBFDF91CF911F910F91FF909F
:103C8000EF90DF90CF90BF90AF909F908F907F90FC
:103C90006F905F904F903F902F9008958FEF9FEF20
:103CA00008952F923F924F925F926F927F928F92E0
:103CB0009F92AF92BF92CF92DF92EF92FF920F93BB
:103CC0001F93CF93DF935C016B014A0129013801F7
:103CD000170181E090E00E94810FC0E0D0E0760102
:103CE000850109C0F80181918F010E94760FF701CB
:103CF00081937F012196C815D905A4F3C0E0D0E0D7
:103D00007301820109C0F80181918F010E94760F31
:103D1000F70181937F012196C215D305A4F30E9478
:103D20005E0F80E090E0DF91CF911F910F91FF90A7
:103D3000EF90DF90CF90BF90AF909F908F907F904B
:103D40006F905F904F903F902F900895EF92FF9269
:103D50000F931F93CF93DF93CDB7DEB722970FB6A4
:103D6000F894DEBF0FBECDBF87ED89838FEF8A83C6
:103D7000EE24FF2400E010E020E030E042E050E0DC
:103D8000CE010196BC010E94511E892B19F08FEFC4
:103D900090E002C08A81992722960FB6F894DEBF80
:103DA0000FBECDBFDF91CF911F910F91FF90EF908C
:103DB00008950F931F930E94A61E0E94A61E082F0F
:103DC00060E070E020913604309137040EC06F5FE0
:103DD0007F4F808580239185891739F48AE0189F69
:103DE000900111242C583D4F18C0162F462F5527EF
:103DF000FA01EE0FFF1FCA01A3E0880F991FAA95D1
:103E0000E1F7E80FF91FEC58FD4F80819181A28105
:103E1000B3810097A105B105D1F630933704209303
:103E20003604CA011F910F910895EF92FF920F93EC
:103E30001F93CF93DF937B018C01EA0119C0209778
:103E400031F461E070E080E090E00E944D2B089436
:103E5000E108F108010911098FEFE8168FEFF80664
:103E60008FEF08078FEF180719F48FEF9FEF06C049
:103E70000E94A61E87FFE3CF80E090E0DF91CF9104
:103E80001F910F91FF90EF9008955F926F927F9234
:103E90008F929F92AF92BF92CF92DF92EF92FF925A
:103EA0000F931F93CF93DF93582E4A015B01E901D3
:103EB00038018701293031051CF08FEF9FEF23C0B7
:103EC000A90160E070E088E394E00E94EE46509221
:103ED000380481149104A104B10469F0C501AA2732
:103EE000BB2780933904BB27AB2D9A2D892D809356
:103EF0003A0480923B0476019301AE0168E374E0DA
:103F0000CB010E94511EDF91CF911F910F91FF9025
:103F1000EF90DF90CF90BF90AF909F908F907F9069
:103F20006F905F9008958F929F92AF92BF92CF92C1
:103F3000DF92EF92FF920F931F93CF93DF934B018A
:103F40005C018A016901C9010E94DA42EC01009713
:103F500019F40FEF1FEF36C07C0124E030E040E0A1
:103F600050E060E070E084E80E94451F892B29F54D
:103F7000E0913604F0913704068004C0880C991C47
:103F8000AA1CBB1C0A94D2F7CC24DD24EE24FF2407
:103F900000E010E024E030E0B501A40183E80E94D5
:103FA000451F892B51F441E050E068EE73E080E05A
:103FB00090E00E94151F8C0102C00FEF1FEFCE0191
:103FC0000E94D742C801DF91CF911F910F91FF90BE
:103FD000EF90DF90CF90BF90AF909F908F9008951B
:103FE000CF92DF92EF92FF920F931F93E0913604EE
:103FF000F0913704068004C0660F771F881F991F51
:104000000A94D2F769017A018A0128E030E0AB0115
:10401000BC0188EE0E94451F1F910F91FF90EF9009
:10402000DF90CF900895CF92DF92EF92FF920F939F
:104030001F93AA27BB27CC24DD24EE24FF2400E015
:1040400010E024E030E0AC01BD0181E80E94451F92
:104050001F910F91FF90EF90DF90CF9008956095A2
:104060007095809590952091400430914104409145
:104070004204509143042623372348235923209395
:10408000400430934104409342045093430480E041
:1040900090E00895AF92BF92CF92DF92EF92FF929D
:1040A0000F931F93CF93DF93CDB7DEB722970FB651
:1040B000F894DEBF0FBECDBF9B015A01492F552793
:1040C00049838A83CC24DD247601850142E050E0D7
:1040D000BE016F5F7F4F87E50E94413D8A159B05BA
:1040E00019F480E090E002C08FEF9FEF22960FB6A8
:1040F000F894DEBF0FBECDBFDF91CF911F910F911E
:10410000FF90EF90DF90CF90BF90AF900895AF9267
:10411000BF92CF92DF92EF92FF920F931F93CF93B4
:10412000DF93CDB7DEB722970FB6F894DEBF0FBE90
:10413000CDBF9B015A0119828A83CC24DD247601EC
:104140008A0142E050E0BE016F5F7F4F8FE60E9420
:10415000413D8A159B0519F480E090E002C08FEF85
:104160009FEF22960FB6F894DEBF0FBECDBFDF9152
:10417000CF911F910F91FF90EF90DF90CF90BF9064
:10418000AF9008950F931F93CF93DF93CDB7DEB712
:1041900021970FB6F894DEBF0FBECDBF8C0141E072
:1041A00050E0BE016F5F7F4F8FE30E948720892B15
:1041B000E9F489819927AA27BB27209140043091EF
:1041C00041044091420450914304822B932BA42B31
:1041D000B52B8093400490934104A0934204B09384
:1041E0004304F80180839183A283B38380914004C8
:1041F0009091410421960FB6F894DEBF0FBECDBF5B
:10420000DF91CF911F910F910895CF93DF93CDB799
:10421000DEB724970FB6F894DEBF0FBECDBF80E0A7
:104220000E943D3C009721F4CE0101960E94C220DD
:1042300024960FB6F894DEBF0FBECDBFDF91CF91AD
:104240000895EF92FF920F931F93CF93DF93CDB713
:10425000DEB728970FB6F894DEBF0FBECDBF8C0136
:1042600048E050E0BE016F5F7F4F80E30E948720EF
:104270007C01892B09F073C02981822F82958F7070
:104280006AE0869FC00111242F70820F911DD80112
:104290008D939C932A81822F82958F70869FC00177
:1042A00011242F70820F911DF801938382832B813B
:1042B0003327C9018F739070B4E095958795BA95AF
:1042C000E1F7AC01A3E0440F551FAA95E1F7880F71
:1042D000991F840F951F2F703070820F931F958345
:1042E00084832C81822F82958F70869FC001112438
:1042F0002F70820F911D978386832D81822F829547
:104300008F70869FC00111242F70820F911D01971D
:10431000918780878E81282F22952F70269FA0015C
:10432000112499278F7090708C599F4F480F591FF7
:10433000538742872885822F82958F70869FC00180
:1043400011242F70820F911D4A9724F04C595F4F12
:10435000538742878F819927F80195878487C70102
:1043600028960FB6F894DEBF0FBECDBFDF91CF9178
:104370001F910F91FF90EF900895AF92BF92CF924F
:10438000DF92EF92FF920F931F93CF93DF93CDB7FE
:10439000DEB723970FB6F894DEBF0FBECDBF1982EC
:1043A0002FE32A835E010894A11CB11C892BA1F084
:1043B00082E08B83CC24DD24760100E010E020E055
:1043C00030E043E050E0B5018FE60E94413D0097A8
:1043D00089F486E08B8306C01B82CC24DD24760121
:1043E00000E010E020E030E043E050E0B5018FE66F
:1043F0000E94413D23960FB6F894DEBF0FBECDBF9D
:10440000DF91CF911F910F91FF90EF90DF90CF90B0
:10441000BF90AF900895AF92BF92CF92DF92EF928C
:10442000FF920F931F93CF93DF93CDB7DEB7219702
:104430000FB6F894DEBF0FBECDBF13E1A12EB12C95
:104440000FC061E070E080E090E00E944D2B089486
:10445000A108B108A114B10419F48FEF9FEF14C0A3
:10446000CC24DD24760101E010E09E012F5F3F4F58
:1044700040E050E060E070E087E50E94413D8F5FE2
:104480009F4FF9F280E090E021960FB6F894DEBFDE
:104490000FBECDBFDF91CF911F910F91FF90EF9095
:1044A000DF90CF90BF90AF9008952F923F924F92A0
:1044B0005F926F927F928F929F92AF92BF92CF92B4
:1044C000DF92EF92FF920F931F93CF93DF933C0104
:1044D0004A012B0100E010E046C0C3018F739070C9
:1044E00020E430E0281B390B54012815390508F465
:1044F000590182E0282E312C2A0C3B1CC1010E945C
:10450000DA42EC01892BA1F1872D992788836982F2
:10451000A501B201CE0102960E94E54681E090E03D
:104520000E94BD218C01892B31F5CC24DD2476013C
:1045300000E010E020E030E0A101BE0187E50E942C
:10454000413D8C01CE010E94D74201151105B1F405
:104550000E940B228C01892B89F48A189B086A0C13
:104560007B1C4A0C5B1C8114910409F0B6CF06C079
:104570000FEF1FEF03C0CE010E94D74280E090E012
:104580000E94BD21C801DF91CF911F910F91FF9033
:10459000EF90DF90CF90BF90AF909F908F907F90E3
:1045A0006F905F904F903F902F9008958F929F92C1
:1045B000AF92BF92CF92DF92EF92FF920F931F9331
:1045C000CF93DF934C015B01EA0181E090E00E9410
:1045D000BD218C01892BC1F4CC24DD24760100E0BF
:1045E00010E020E030E0AE01B5018FE60E94413DD1
:1045F0008C01892B29F4892819F00E940B228C0147
:1046000080E090E00E94BD21C801DF91CF911F9111
:104610000F91FF90EF90DF90CF90BF90AF909F9061
:104620008F900895EF92FF920F931F93CF93DF9394
:10463000CDB7DEB72A970FB6F894DEBF0FBECDBF59
:104640008B017A012AE0FE01319611922A95E9F751
:1046500023E0880F991F2A95E1F78A836115710578
:1046600009F47AC040FF12C0FB0140815181842FC0
:104670006AE00E942F47282F2295207FCA016AE016
:1046800070E00E944F47280F20682B83E1FE12C084
:10469000F80142815381842F6AE00E942F47282F1E
:1046A0002295207FCA016AE070E00E944F47280FE0
:1046B00020682C83E2FE12C0F80144815581842FCA
:1046C0006AE00E942F47282F2295207FCA016AE0C6
:1046D00070E00E944F47280F20682D83E3FE12C030
:1046E000F80146815781842F6AE00E942F47282FC6
:1046F0002295207FCA016AE070E00E944F47280F90
:1047000020682E83E4FE14C0F80140855185842F73
:104710008F5F6AE00E942F47282F2295207FCA01D1
:1047200001966AE070E00E944F47280F20682F83AF
:10473000E7FE12C0F80144855585842F6AE00E9487
:104740002F47282F2295207FCA016AE070E00E943F
:104750004F47280F206829874AE050E0BE016F5F6D
:104760007F4F81E090E00E94D6222A960FB6F894FF
:10477000DEBF0FBECDBFDF91CF911F910F91FF9094
:10478000EF900895EF92FF920F931F93CF93DF93D3
:10479000CDB7DEB728970FB6F894DEBF0FBECDBFFA
:1047A0007B018A01FA011182108292E1FB011192D0
:1047B0009A95E9F748E050E0BE016F5F7F4F880FA0
:1047C000880F880F0E948720BC01892B09F09FC0A9
:1047D000298127FF20C0F801808191818160918328
:1047E00080833327C9018F779070F4E09595879582
:1047F000FA95E1F7AC01E3E0440F551FEA95E1F7C4
:10480000880F991F840F951F2F703070820F931F90
:10481000F701918380833A8137FF13C0F8018081CB
:104820009181826091838083832F82958F702AE0AB
:10483000829FC00111243F70830F911DF701938364
:1048400082832B8127FF20C0F801808191818460C1
:10485000918380833327C9018F779070A4E0959569
:104860008795AA95E1F7AC01F3E0440F551FFA953F
:10487000E1F7880F991F840F951F2F703070820FFA
:10488000931FF701958384833C8137FF13C0F801A0
:1048900080819181886091838083832F82958F703E
:1048A0002AE0829FC00111243F70830F911DF70100
:1048B000978386833D8137FF14C0F8018081918101
:1048C000806191838083832F82958F702AE0829FFD
:1048D000C00111243F70830F911D0197F70191874B
:1048E00080873F8137FF13C0F80180819181806804
:1048F00091838083832F82958F702AE0829FC001ED
:1049000011243F70830F911DF70195878487CB0198
:1049100028960FB6F894DEBF0FBECDBFDF91CF91C2
:104920001F910F91FF90EF9008950F931F93CF93D6
:10493000DF93CDB7DEB72A970FB6F894DEBF0FBE70
:10494000CDBF8C018AE0FE01319611928A95E9F77C
:104950000115110509F481C080E38A83F8014081C3
:104960005181842F6AE00E942F47282F2295207FB3
:10497000CA016AE070E00E944F47280F2B834281F2
:104980005381842F6AE00E942F47282F2295207F91
:10499000CA016AE070E00E944F47280F2C834481CF
:1049A0005581842F6AE00E942F47282F2295207F6F
:1049B000CA016AE070E00E944F47280F20682D83EB
:1049C00046815781842F6AE00E942F47282F229525
:1049D000207FCA016AE070E00E944F47280F2E83B3
:1049E00040855185842F8F5F6AE00E942F47282FD2
:1049F0002295207FCA0101966AE070E00E944F472D
:104A0000280F2F8342855385443651059CF0842F0F
:104A100084566AE00E942F47282F2295207FCA01E2
:104A2000845690406AE070E00E944F47280F288724
:104A300080E20FC0842F6AE00E942F47282F229522
:104A4000207FCA016AE070E00E944F47280F288744
:104A500089E18A87F801848589874AE050E0BE01B0
:104A60006F5F7F4F80E090E00E94D6222A960FB6BB
:104A7000F894DEBF0FBECDBFDF91CF911F910F9194
:104A800008958093D70208950E94CB2C20E033E054
:104A900040E050E068E075E082ED92E00E943F3037
:104AA0008EEF0E9471290E94F5290E943C292091D5
:104AB000D7022F3FC1F393B783B7817F822B83BF88
:104AC00083B7816083BF889583B78E7F83BF83B7A9
:104AD000817F9E70892B83BFE6CF0F931F93CF9367
:104AE000DF9300914504109146048017910730F040
:104AF00080E090E060C0EF01DB012FC0AC014A5FB5
:104B00005F4F4430510510F444E050E0E091E3067B
:104B1000F091E40663EE76E0C0E0D0E0A0E0B0E023
:104B200017C0208131812417350760F0241735071D
:104B300011F3209729F0888199812817390710F4FB
:104B4000EF01DB01BF016E5F7F4F0280F381E02D3B
:104B5000309739F7CE01209771F128813981CA0148
:104B60000A966A817B818217930770F4FE01E40F35
:104B7000F51F241B350B3183208373836283598394
:104B80004883ED93FC9302C06D937C93E881F98197
:104B90000E1B1F0B1093460400934504EC0FFD1FE2
:104BA00034978FEE9EEBADEABEED80839183A283B6
:104BB000B383CE010296DF91CF911F910F9108959B
:104BC000CF93DF93DC0112976D917C911197E09167
:104BD000E306F091E406C3EED6E03AC0408151818D
:104BE000CF01840F951F8A179B07C1F49A01260FE6
:104BF000371F3183208382819381DF01A20FB31F8E
:104C0000A817B90791F58D919C911197280F391F1D
:104C100031832083ED018A819B8125C0AE17BF07B8
:104C200078F4B983A8832D913C911197CD01820F1F
:104C3000931F8E179F0779F0ED01FB83EA8315C060
:104C4000A817B90728F1EF0122960280F381E02D21
:104C5000309721F617C0240F351F11963C932E93E1
:104C600082819381FD019383828380914504909199
:104C70004604860F971F909346048093450480E076
:104C800090E008C0FD0113821282B983A883EDCFA2
:104C90008FEF9FEFDF91CF910895FC0161937193A6
:104CA000CF010E94E025089580914504909146042B
:104CB00008950F931F93CF93DF938C010E946D256E
:104CC000EC01009729F0A80160E070E00E94EE4638
:104CD000CE01DF91CF911F910F91089580915004E3
:104CE00090915104909355048093540490935804E8
:104CF00080935704109256041092590422E0209396
:104D0000FFFF21E02093470410924C0410924D04C1
:104D100010924E0410924F04089580E090E8909312
:104D200051048093500480E090EC9093530480935E
:104D3000520480E090E8A7E0B0E0809348049093AC
:104D40004904A0934A04B0934B040E946E26089530
:104D5000FC0180914704882389F490915604809146
:104D60005904981759F420915404309155048091B6
:104D70005704909158048217930740F4809152048D
:104D8000909153042091540430915504821B930B4D
:104D900091838083809156048E5F8093FFFF809182
:104DA0005404909155040895FC0180914704882390
:104DB00019F01182108227C09091560480915904F5
:104DC000981759F420915704309158048091540455
:104DD000909155042817390768F0809152049091FA
:104DE00053042091570430915804821B930B9183F4
:104DF000808309C0821B930B91838083892B19F4D4
:104E000081E080934704809159048E5F8093FFFF77
:104E100080915704909158040895009709F440C078
:104E20006091540470915504680F791F7093550474
:104E300060935404109247049C01442755278091A5
:104E40004C0490914D04A0914E04B0914F04820FF8
:104E5000931FA41FB51F80934C0490934D04A093FF
:104E60004E04B0934F0480915204909153046817FC
:104E70007907B1F4809150049091510490935504B6
:104E800080935404809156048F5F809356048E3132
:104E900014F010925604809156048E5F8093FFFFA9
:104EA00080915404909155040895009709F452C0DC
:104EB0006091570470915804680F791F70935804DB
:104EC000609357049C014427552780914C0490918E
:104ED0004D04A0914E04B0914F04821B930BA40B80
:104EE000B50B80934C0490934D04A0934E04B09363
:104EF0004F04809152049091530468177907B1F4DC
:104F000080915004909151049093580480935704D9
:104F1000809159048F5F809359048E3114F0109260
:104F20005904809159048E5F8093FFFF20915704AC
:104F300030915804809154049091550428173907F2
:104F400049F49091590480915604981719F481E01E
:104F500080934704809157049091580408950097D6
:104F6000D9F16091540470915504680F791F7093C2
:104F70005504609354049C014427552780914C04A8
:104F800090914D04A0914E04B0914F04820F931F55
:104F9000A41FB51F80934C0490934D04A0934E041E
:104FA000B0934F041092470480915204909153049F
:104FB0006817790789F48091500490915104909377
:104FC000550480935404809156048F5F8093560457
:104FD0008E3114F010925604809159048E5F8093A4
:104FE000FFFF0895009709F44DC060915704709138
:104FF0005804680F791F70935804609357049C01FC
:105000004427552780914C0490914D04A0914E0463
:10501000B0914F04821B930BA40BB50B80934C04EF
:1050200090934D04A0934E04B0934F04809152048A
:10503000909153046817790789F4809150049091F6
:1050400051049093580480935704809159048F5FC2
:10505000809359048E3114F0109259042091570412
:1050600030915804809154049091550428173907C1
:1050700049F49091590480915604981719F481E0ED
:1050800080934704809156048E5F8093FFFF0895BC
:10509000609148047091490480914A0490914B04B6
:1050A00020914C0430914D0440914E0450914F0496
:1050B000621B730B840B950B089560914C047091E7
:1050C0004D0480914E0490914F04089580914C04BA
:1050D00090914D04A0914E04B0914F0480509044A3
:1050E000A040B04080934C0490934D04A0934E0494
:1050F000B0934F04809159048F5F809359048E318F
:1051000014F010925904809159048E5F8093FFFF30
:105110000895CF93DF93DC019B01EC01788F6F8BB7
:105120001D821C820FB6F8940F92EB01E881F98181
:105130008FEFEF3FF80749F4ED018C819D810196D7
:105140009D838C83E0E0F0E015C0309799F00F90DC
:105150000FBEED019A8908C09F012E5F3F4F02806C
:10516000F381E02D309719F082899817A8F70FB6D0
:10517000F8940F92ED01FB83EA83F901B183A083D8
:10518000EA81FB81309771F084819581892B51F000
:105190008C819D8124813581820F931F9D838C8317
:1051A000158214820F900FBEDF91CF910895CF9397
:1051B000DF939C01DB010FB6F8940F92ED91FC9107
:1051C00011970F900FBE8FEFEF3FF80731F527C013
:1051D00082819381E217F307E9F40FB6F8940F92F6
:1051E00011969C938E9384819581892B59F0A2818D
:1051F000B381109729F084819581ED019D838C8383
:10520000158214820F900FBEF90113821282108E44
:10521000178A05C0DF011296FC013097C9F6DF91AD
:10522000CF910895FB01168A158A82E0878767EE81
:1052300076E0CF010E94892808950F931F93CF93A2
:10524000DF938C01C091E506D091E6060CC0B80151
:10525000CE0106960E940047892B11F4CE0107C0AB
:105260000990D881C02D209791F780E090E0DF91E0
:10527000CF911F910F910895E091EB06F091EC060C
:10528000309741F0838994890E94E0251092EC06C2
:105290001092EB060895CF93DF93C091E506D0916D
:1052A000E6060E943C292091E9063091EA06E5EEE7
:1052B000F6E00AC088819981C217D30719F4918357
:1052C000808304C0FE01EC012097A1F78091E906DC
:1052D0009091EA069093EC068093EB06DF91CF91D4
:1052E00008950F931F93182FE091E906F091EA06B5
:1052F000028967EE76E0CF010E94D728E091E906A7
:10530000F091EA06128B1F3F49F067EE76E080913C
:10531000E9069091EA060E94892802C00E944B2962
:10532000E091E906F091EA068091E7069091E8069F
:10533000E817F90719F481E0878709C082E08787B9
:105340000FB6F8940F920E9400300F900FBE802F7E
:1053500099271F910F9108958FEF0E947129089549
:10536000CF93DF93C091E506D091E60620C00FB63B
:10537000F8940F928C819D810F900FBE892BA1F024
:10538000EF89F88D0FB6F8940F928C819D8101976B
:105390009D838C830F900FBE808191818F5F9F4F83
:1053A00019F0CF010E94532D0990D881C02D20976C
:1053B000F1F60E943F2CE091E906F091EA06809117
:1053C000E7069091E806E817F90761F087858130D4
:1053D00011F482E087870FB6F8940F920E94003094
:1053E0000F900FBEDF91CF910895E091E906F09103
:1053F000EA0682819381892B69F067EE76E0CF011E
:105400000E94D72867EE76E08091E9069091EA063F
:105410000E9489280E94B02908958091F3069091F6
:10542000F406A091F506B091F6060196A11DB11DF6
:105430008093F3069093F406A093F506B093F606D6
:1054400008959B01AC016091ED067091EE0680918C
:10545000EF069091F0060E94104728EE33E040E0FE
:1054600050E00E94624701C000002150310941090B
:105470005109D0F708959927AA27BB27BC01CD0170
:1054800028EE33E040E050E00E9410470E94212ABD
:105490000895CF93DF93EC011B821A82E091F1060D
:1054A000F091F2061AC0288539854A855B8580858A
:1054B0009185A285B385281739074A075B0780F0D5
:1054C000281B390B4A0B5B0B288739874A875B8778
:1054D000FB83EA830190F081E02D309721F718C01B
:1054E000821B930BA40BB50B80879187A287B38790
:1054F000F983E883D383C283EA81FB81309719F073
:10550000D183C08308C0D093F206C093F10603C0D4
:1055100019821882F1CFDF91CF910895CF93DF9355
:10552000FC011482158216821782158614868085E6
:105530009185A285B3850097A105B10561F1A2818E
:10554000B38180819181109719F08D939C9304C051
:105550009093F2068093F106C081D1812097A1F04B
:10556000828193819B838A8388859985AA85BB855F
:105570002085318542855385820F931FA41FB51F57
:1055800088879987AA87BB8710861186128613861B
:10559000CF010E94492ADF91CF9108950FB6F89468
:1055A0000F926091F3067091F4068091F506909148
:1055B000F6060F900FBE0895AF92BF92CF92DF9282
:1055C000EF92FF920F93CF93DF936B017C01EA017F
:1055D000590180E190E00E946D25FC01892B81F149
:1055E0000FB6F8940F928091F3069091F406A09173
:1055F000F506B091F6060F900FBE8C0D9D1DAE1DE9
:10560000BF1D20915A0430915B0440915C0450917D
:105610005D04821B930BA40BB50B80879187A28737
:10562000B38700FF05C0148215821682178204C05A
:10563000C482D582E682F782D587C487B786A686DC
:10564000CF01DF91CF910F91FF90EF90DF90CF903E
:10565000BF90AF9008950F93CF93DF930E94DC2A01
:10566000EC01009711F00E94492ACE01DF91CF9101
:105670000F910895CF92DF92EF92FF920F936A01FC
:1056800079010E9411319701A6010E942B2B0F91E5
:10569000FF90EF90DF90CF900895AF92BF92CF929E
:1056A000DF92EF92FF920F93CF93DF935B016C0138
:1056B0006115710581059105D1F1C7EED6E0BE01F6
:1056C0008091E9069091EA060E94D728E091E906C8
:1056D000F091EA0683E08787E090E906F090EA0619
:1056E00001E0970142E159E2C601B5010E943A2B5F
:1056F000F701968B858B892B19F00E94B02919C070
:10570000E091E906F091EA06D08FC78B8091E70619
:105710009091E8069383828381E087878091E906F0
:105720009091EA069093E8068093E70602C00E94F3
:10573000F529DF91CF910F91FF90EF90DF90CF90FF
:10574000BF90AF9008952F923F924F925F926F92C9
:105750007F928F929F92AF92BF92CF92DF92EF9201
:10576000FF920F931F93CF93DF93CDB7DEB72497AC
:105770000FB6F894DEBF0FBECDBF0FB6F8940F92F0
:10578000A090F306B090F406C090F506D090F6060F
:105790000F900FBE0E94E7309B01AC01C601B5011E
:1057A0000E94624739014A010E94E7301B012C0127
:1057B0000E94E73069837A838B839C83C401B301A1
:1057C00028EE33E040E050E00E9410477B018C015E
:1057D000C401B301A20191010E941047A61AB70AA1
:1057E000C80AD90AC601B50128EE33E040E050E00E
:1057F0000E94104729813A814B815C810E94624757
:10580000E20EF31E041F151FC801B70124960FB640
:10581000F894DEBF0FBECDBFDF91CF911F910F91E6
:10582000FF90EF90DF90CF90BF90AF909F908F90C0
:105830007F906F905F904F903F902F900895EF92E0
:10584000FF920F931F930FB6F8940F92E090F30618
:10585000F090F4060091F5061091F6060F900FBE39
:105860000E94E7309B01AC01C801B7010E9462476A
:10587000CA01B9011F910F91FF90EF900895EF9227
:10588000FF920F931F93CF93DF930FB6F8940F926D
:105890002091F3063091F4064091F5065091F606FA
:1058A0000F900FBE80915A0490915B04A0915C040C
:1058B000B0915D0479018A01E81AF90A0A0B1B0B01
:1058C00020935A0430935B0440935C0450935D042E
:1058D0004FC088859985AA85BB85E816F9060A0711
:1058E0001B07A0F48E199F09A00BB10B888799871D
:1058F000AA87BB870097A105B10521F0EE24FF24FC
:10590000870136C0EE24FF24870108C0E81AF90A8F
:105910000A0B1B0B188619861A861B86EC85FD85DB
:10592000309721F06E857F85CE011995E091F106C3
:10593000F091F2060190F081E02DF093F206E093F1
:10594000F106309711F0138212828C819D81AE8115
:10595000BF8188879987AA87BB870097A105B10572
:1059600021F4CE010E94E02503C0CE010E94492A05
:10597000C091F106D091F206209731F0E114F104C4
:105980000105110509F0A5CFDF91CF911F910F916E
:10599000FF90EF9008958DE09AE20E94EC308091A4
:1059A00070008260809370000FB6F8940F9220917F
:1059B000F3063091F4064091F5065091F6060F90EB
:1059C0000FBE0FB6F8940F928091F3069091F406F3
:1059D000A091F506B091F6060F900FBE2817390773
:1059E0004A075B0771F30FB6F8940F922091F30604
:1059F0003091F4064091F5065091F6060F900FBED7
:105A000013C08091ED069091EE06A091EF06B09143
:105A1000F0060196A11DB11D8093ED069093EE0650
:105A2000A093EF06B093F0060FB6F8940F92809112
:105A3000F3069091F406A091F506B091F6060F904A
:105A40000FBE281739074A075B07D9F26091ED06A8
:105A50007091EE068091EF069091F00627E630E017
:105A600040E050E00E9410476093ED067093EE0610
:105A70008093EF069093F0066091ED067091EE062C
:105A80008091EF069091F0062AE130E040E050E08E
:105A90000E9462472093ED063093EE064093EF0696
:105AA0005093F0060895CF93DF93DC010FB6F8947E
:105AB0000F92CD91DC9111970F900FBE8FEFCF3FDA
:105AC000D80709F43AC0209771F10FB6F8940F92F5
:105AD000EA81FB811196FC93EE938C819D81892B49
