:100000000C94F7040C9469050C9469050C9469052B
:100010000C9469050C9447380C9469050C940339C9
:100020000C9469050C9469050C9469050C94690598
:100030000C9469050C94EF390C9469050C946905CE
:100040000C9469050C9469050C9469050C94690578
:100050000C9469050C9469050C9469050C94793924
:100060000C9469050C9467450C9469050C94E24561
:100070000C9469050C9469050C9469050C94690548
:100080000C9469050C9469050C9469050C94690538
:100090000C945C460C9469050C94D7460C94ED4482
:1000A0000C9469050C9469050C9469050C94690518
:1000B0000C9469050C9469050C9469050C94690508
:1000C0000C9469050C9469050C9469056A3BB33B73
:1000D000FA3B203C343C5C3C643C893C673BAB3C99
:1000E000F23CF83CFE3C043D213D0A3D213D573D9C
:1000F0002C3D413D5254432074696D65205B253091
:1001000032643A253032643A253032645D0052540C
:10011000432074696D65205B253032643A253032A6
:10012000643A253032645D0056616C7565206F66F7
:10013000206669727374537461727475703A202505
:10014000640056616C7565206F662074696D655A30
:100150006F6E652066726F6D205352414D3A2025B7
:10016000640074696D655A6F6E6520777269747486
:10017000656E20746F205352414D2077697468205A
:1001800076616C756520256400466972737420730E
:100190007461727475702C2077616974696E672060
:1001A000666F722074696D655A6F6E6520696E7036
:1001B00075740056616C7565206F66206669727390
:1001C00074537461727475703A20256400534E4FF5
:1001D0004F5A4500536E6F6F7A6554696D652025DF
:1001E000640077007561727430000A000A23446568
:1001F00062756720000A23496E666F2020000A237B
:100200004E6F74696320000A235761726E202000CC
:100210000A23457272202020000A23437269742049
:1002200020000A23416C65727420000A23456D6525
:10023000726720003F3F203C444D4B3E2000574416
:100240003A200056533A200056453A200055543A79
:10025000200055443A200055413A200053523A209C
:100260000053503A200053473A200053453A2000AB
:1002700053543A200052543A200052433A2000503E
:100280004C3A200050413A20004D443A20004D4D58
:100290003A20004D453A200053593A20004C473A45
:1002A00020004C453A20004B423A2000494E3A206B
:1002B0000048543A2000464C3A200046413A20007B
:1002C00044503A2000434D3A200043483A20004130
:1002D000553A2000456E64206F66207365636F6E2B
:1002E00064206C696E652064657465637465640080
:1002F000456E64206F66207469746C652064657453
:1003000065637465640030803000170780B0173C67
:1003100006001750003F24000600162012008F57D9
:100320000000CE101229009900004D0080404C18AA
:100330000600D7960028550D0000480D0600505BBA
:100340000930420080B00180144240BC182840C7E8
:100350001336423C003E03B81400031B1500C2597B
:10036000D66F2400003603981228D55700004D00A0
:100370000028402BF33624004C80103E1438103EE9
:100380000A78133E0DB8033E05F80600955509306E
:1003900015141B00D4FF0300CEFF01000A00002447
:1003A000CE168AB5240092F200945261240002FE17
:1003B0002400B24824004A4501B6F33605D8F33686
:1003C0000D98F0360A5800200000F03614186180AD
:1003D00013362400123E17B8123E1538053E14B8E5
:1003E0002536240000000A80103E03B8944105B869
:1003F000113E2400113E07B8143E1278143E0DF849
:10040000033E0EF8060051000028D5240000240009
:1004100088B8120004640504000024000028582154
:100420009440240000240221000024009864030862
:1004300056FE2400B6482400D64D2400103A24C0AD
:10044000F03224C056FE2400B6482400D64D2400C5
:100450008443834496638C8800F4D540003D248017
:10046000060091003F00C3FE0600530001312480C6
:1004700060FE2400BE48240034A6030C244324005C
:100480008442022C060011000028D8240031248068
:1004900006001150003924800600110000314C98EC
:1004A00084424C9000F48840002845280000240035
:1004B000F03C403809304138093010380020000045
:1004C000000088270930D01B002880280930811BB4
:1004D000F334CC1BF3360ED8F4360DD8F43612585C
:1004E000F1360798F1360518F03603980534149064
:1004F000F3362400F236151800200000F236179863
:10050000AD80123E17B8123E1538053E14B81536A8
:10051000240000000A80103E0278103E04F8113ECC
:100520001078143E1278132980C9143E24C0132970
:1005300080C988404C1800F405400000C0180064D1
:1005400024000000C01B0028953030001003002854
:10055000803F01382440006424000000401A002835
:1005600055370600D0550000037D84B84C1809307B
:100570000538093000008AFF24001D29007BB2489D
:10058000240000004118060010508A4044B8002999
:100590000013884024000030CC1B1460240030007D
:1005A00051030028D5360000240006001100003158
:1005B000240030005103003824000028803F013916
:1005C0002440006424003000D0030028553F000080
:1005D000037D0600D05584B84C1809300538093021
:1005E00000008AFF24001D29007BB24824008A40B5
:1005F000CC9B000041180028553B060010509A681B
:1006000024000030240014602400300092030028ED
:10061000853E0600910006001100000052180600F9
:10062000530080B800240600910004382480300074
:100630009203003B2400013924400028803F013A06
:1006400024400138244080B8D31BF4361258F136C8
:100650001058F03604D8F036025805341490F336AA
:100660002400F236151800200000F23617983000EA
:1006700000000000457869740000000053EF6E0030
:100680000000004578697453EF6E4DEA6D54000028
:100690000000070606060606060606060606060605
:1006A00006060606060606060606060606060606EA
:1006B00006060606060606060606060606060606DA
:1006C00006060606060606060606060706060606C9
:1006D00006060606060606060606060606060606BA
:1006E00006060606060606060606060606060606AA
:1006F0000606060606060706060606060606060699
:100700000606060606060606060606060606060689
:100710000606060606060606060606060606060679
:100720000606060606060606060606060606060669
:100730000606060606060606060606060606060659
:100740000606060606060606060606060606060649
:100750000606060606060606060606060606060639
:100760000606060606060606060606060606060629
:100770000606060606060606060606060606060619
:100780000606060606060606060606060606060708
:1007900006060606060606060606060606060606F9
:1007A00006060606060606060606060606060606E9
:1007B00006060606060606060606060606060606D9
:1007C00006060606060606060606060606060606C9
:1007D00006060606060606060606060606060606B9
:1007E00006060606060606060606060606060606A9
:1007F0000606060606060606060606060606060699
:100800000606060606060606060606060606060688
:100810000606060606060606060606060606060678
:100820000606060606060606060606060606060668
:100830000606060606060606060606060606060658
:10084000060606060606065468726561642066613F
:10085000696C656400436172645072657300436142
:1008600072642072656D6F76656400436172642006
:10087000696E736572746564004572726F72206987
:100880006E697469616C6973696E672046696C652D
:100890002073797374656D20616E642043617264A6
:1008A0002D6472697665720043617264206D6F75A4
:1008B0006E74656400696E76616C6964205370655E
:1008C0006564006572726F7220647572696E67206C
:1008D0004353442072656164000000000000000082
:1008E0000000000000000000000000000000000008
:1008F00000000000000000000000000000000000F8
:1009000000000000000000000000000000000000E7
:1009100000000000000000000000000000000000D7
:1009200000000000000000000000000000000000C7
:1009300000000000000000000000000000000000B7
:1009400000000000000000000000000000000000A7
:100950000000000000000000000000000000000097
:100960000000000000000000000000000000000087
:100970000000000000000000000000000000000077
:100980000000000000000000000000000000000067
:100990000000000000000000000000000000000057
:1009A0000000000000000000000000000000000047
:1009B0000000000000000000000000000000000037
:1009C0000000000000000000000000000000000027
:1009D0000000000000000000000000000000000017
:1009E000000000000000000000000000000084E89B
:1009F00080937400479A3F9A469A3E9A81EE80937C
:100A000000C380E4809301C385B78F7785BF80E002
:100A100090E0359B05C0019641F0359BF8CFFBCFA8
:100A2000019619F03599F3CFFBCF85B7806885BF64
:100A300047983F9846983E9887E08093C4008093FB
:100A4000CC0011241FBECFEFD1E2DEBFCDBF14E03A
:100A5000A0E0B2E0E6E1FDE900E00BBF02C00790D4
:100A60000D92A036B107D9F718E0A0E6B4E001C0B6
:100A70001D92AE30B107E1F78FEF9FE79EBF8DBFAC
:100A80008FEF9FE78E5098408158914040F06FEF74
:100A90007EE76E5078408EE098E00E94D52C0E9450
:100AA0009835892B41F069E973E084EF97E00E9463
:100AB000E84D0E947F3520E831E040E050E06CECEA
:100AC0007BE282EA93E00E94C7360E9400000C9409
:100AD0008A4E0C94000087EF84B98CE08AB98BB100
:100AE0008C70836F8BB98EE88DB98EB18E788160F2
:100AF0008EB985B7806885BF85B7806885BF8EE071
:100B000080BB81B38E70816F81BB88E183BB089508
:100B10000E94AD0C0E941D1408950F931F93CF9354
:100B2000DF93CDB7DEB764970FB6F894DEBF0FBE84
:100B3000CDBF89E897E00E943627892B09F042C093
:100B40008091890790918A079F938F9380918B075B
:100B500090918C079F938F9380918D0790918E0732
:100B60009F938F938EE091E09F938F9386EC8F936A
:100B70000E943F0B8091890790918A079F938F93E2
:100B800080918B0790918C079F938F9380918D0715
:100B900090918E079F938F9380E092E09F938F9325
:100BA0008E010F5F1F4F1F930F930E941F49C801B3
:100BB0000E94A40E8DB79EB743960FB6F8949EBFC1
:100BC0000FBE8DBF64960FB6F894DEBF0FBECDBFCB
:100BD000DF91CF911F910F9108950F931F93CF93A2
:100BE000DF93CDB7DEB764970FB6F894DEBF0FBEC4
:100BF000CDBF89E897E00E943627109286071092B1
:100C0000850720E034E040E050E067EE78E08FE0D8
:100C100092E00E94C73681E00E94C90D0E949A0EA0
:100C200082E292E00E94750E0E948D0542C064E649
:100C300070E080E090E00E94D5310E94700E8091BB
:100C40008107909182078130910571F08230910582
:100C5000A1F0892B71F580918D0790918E079F935C
:100C60008F9384E392E011C080918B0790918C0761
:100C70009F938F9384E492E008C0809189079091BC
:100C80008A079F938F9386E592E09F938F938E01BF
:100C90000F5F1F4F1F930F930E941F49C8010E94AF
:100CA0004B0E8DB79EB706960FB6F8949EBF0FBE3B
:100CB0008DBF8091850790918607019709F0B7CF86
:100CC0000E94CB0E80E00E94C90D89E897E00E9447
:100CD0001D2B64960FB6F894DEBF0FBECDBFDF911B
:100CE000CF911F910F910895EF92FF921F93CF9391
:100CF000DF93CDB7DEB766970FB6F894DEBF0FBEB1
:100D0000CDBF0E94CB0E22E030E0AE014F5F5F4FBF
:100D100060E070E080E090E00E94052689819A8181
:100D20009F938F9383EB91E09F938F9316EC1F9388
:100D30000E943F0B0F900F900F900F900F908981A2
:100D40009A81019709F4AFC089E891E09F938F934E
:100D50001F930E943F0B81E00E94C90D88E692E03C
:100D60000E94750E109288071092870710928407D0
:100D70001092830720E034E040E050E06CE979E035
:100D800085E792E00E94C7360F900F900F902FC01A
:100D900064E670E080E090E00E94D53180918707A2
:100DA000909188079E012D5F3F4F4FEF8F3F940733
:100DB00031F02CF09F938F9386E892E004C09F93CC
:100DC0008F938FE892E09F938F933F932F930E948E
:100DD0001F498DB79EB706960FB6F8949EBF0FBEFB
:100DE0008DBFCE0103960E944B0E0E94EE13E09041
:100DF0008307F090840791E0E916F10449F680E05A
:100E00000E94C90D22E030E047E857E062E070E060
:100E100080E090E00E94A825809187079091880744
:100E20009F938F9382E691E09F938F9316EC1F938D
:100E30000E943F0B22E030E047E857E062E070E0BC
:100E400080E090E00E9405268091870790918807B6
:100E50009F938F9382E491E09F938F931F930E94BF
:100E60003F0BFA82E98222E030E0AE014F5F5F4F34
:100E700060E070E080E090E00E94A82589819A817E
:100E80009F938F9388E291E09F938F931F930E948B
:100E90003F0B0E94CB0E8DB79EB70F960FB6F894FE
:100EA0009EBF0FBE8DBF66960FB6F894DEBF0FBE15
:100EB000CDBFDF91CF911F91FF90EF900895CF9319
:100EC000DF930E94F01384E60E94C3300E946B05FA
:100ED0000E9492150E94540A0E94080A0E947F0CE8
:100EE0000E9476140E9482130E94950D0E94A50C08
:100EF0000E94D20E0E943F1240E050E068E875E088
:100F000089EB93E00E94C235892B49F485B5846052
:100F100085BDA89A80916E00816080936E00789460
:100F200080E090E00E9428260E94EE24029711F4AF
:100F30000E9474060E941A2789E897E00E943627CB
:100F4000892B91F58091890790918A079F938F93C0
:100F500080918B0790918C079F938F9380918D0741
:100F600090918E079F938F9384EF90E09F938F9340
:100F700086EC8F930E943F0B8CE090E090938E075D
:100F800080938D0784E190E090938C0780938B078A
:100F900089E897E00E941D2B8DB79EB709960FB682
:100FA000F8949EBF0FBE8DBF0E94ED0581E00E94A8
:100FB000F92F20E034E040E050E061E078E087E99C
:100FC00092E00E94C736C0E0D0E064EF71E080E0BC
:100FD00090E00E94D5310E94780D883831F081E090
:100FE0000E94C90DC1E0D0E007C02196C431D105EF
:100FF0001CF080E00E94C90D0E948D050E94EE1336
:10100000E4CF20918B0730918C0784E690E0289FF5
:101010007001299FF00C389FF00C112420918D074E
:1010200030918E0788EE93E0AC01249FC001259F8C
:10103000900D349F900D11242091890730918A07DB
:10104000820F931FE80EF91E8091A602682F0E945E
:10105000A61080918B0790918C0734E6A32EB12CBB
:101060008A9DE0018B9DD00D9A9DD00D1124809119
:101070008D0790918E0728EEC22E23E0D22E9C0180
:101080002C9DC0012D9D900D3C9D900D1124209113
:10109000890730918A07820F931FC80FD91F0E94BA
:1010A000780D182F80919B0790919C07AE01481BEB
:1010B000590B5F934F9384ED91E09F938F9306ECD0
:1010C0000F930E943F0B0F900F900F900F900F9077
:1010D000143009F043C08091A7029091A8020197B3
:1010E000E9F580918B0790918C078A9DA0018B9DDB
:1010F000500D9A9D500D112480918D0790918E076F
:101100009C012C9DC0012D9D900D3C9D900D1124A6
:101110002091890730918A07820F931F480F591F2A
:1011200050939C0740939B0782E090E09093A80225
:101130008093A7028DEC91E09F938F930F930E9471
:101140003F0B8091A6020F900F900F90882331F0F3
:1011500085508093A602682F0E94A6108091A70256
:101160009091A8028230910589F480919B0790911B
:101170009C07AE01481B590B493C51055CF081E0CE
:1011800090E09093A8028093A70202C0019711F407
:101190000E947711CE19DF09C15DD7400CF459CFF9
:1011A0000E94343056CF64EF71E080E090E00E94FE
:1011B000D53183E00E94850CF6CF64EF71E080E0CA
:1011C00090E00E94D53182E00E94850CF6CF10920B
:1011D0008207109281076CE271E080E090E00E944B
:1011E000D53164EF71E080E090E00E94BA0D019784
:1011F00091F30E94780D8830B1F58091810790912C
:1012000082078130910599F082309105F1F0892BA8
:1012100011F780918D0790918E07873191052CF001
:1012200010928E0710928D07D6CF019634C0809110
:101230008B0790918C078B3391052CF010928C07C3
:1012400010928B07C8CF019636C080918907909184
:101250008A078B3391052CF010928A071092890728
:10126000BACF019638C08B30E9F580918107909113
:10127000820781309105B1F08230910519F1892BF7
:1012800009F0A9CF80918D0790918E071816190645
:101290003CF087E190E090938E0780938D079BCF81
:1012A0000197F9CF80918B0790918C07181619063A
:1012B0003CF08BE390E090938C0780938B078BCF6F
:1012C0000197F9CF8091890790918A07181619061E
:1012D0003CF08BE390E090938A07809389077BCF63
:1012E0000197F9CF8A3061F480918107909182074C
:1012F000181619061CF082E090E00DC001970BC093
:101300008C3071F480918107909182078230910531
:101310000CF05DCF019690938207809381075BCF9D
:10132000893009F058CF81E090E090938607809350
:1013300085070E9434304FCF68EC70E080E090E089
:101340000E94D53164EF71E080E090E00E94BA0D18
:10135000019791F30E94780D883049F480918707B6
:10136000909188078E3091053CF701960BC08B3029
:1013700071F480918707909188072FEF853F92073E
:10138000DCF201979093880780938707D5CF893047
:1013900099F681E090E090938407809383070E9400
:1013A0003430CACF80916004909161040895809197
:1013B000600490916104009731F00E947D47109283
:1013C0006104109260040895CF93DF93CDB7DEB728
:1013D00024970FB6F894DEBF0FBECDBF69837A8322
:1013E0008B839C8380916004909161040E94CE471E
:1013F000AE014F5F5F4F63E171E00E941347249697
:101400000FB6F894DEBF0FBECDBFDF91CF91089528
:10141000EF92FF920F931F93CF93DF93CDB7DEB779
:101420002D970FB6F894DEBF0FBECDBF80E092ECD3
:10143000A1E0B0E08C839D83AE83BF8388E0E82E7B
:10144000F12CEC0EFD1E64EE71E0C7010E949A4D76
:1014500062EE71E08E010F5F1F4FC8010E949A4D2E
:101460004091080450910904B801C7010E942E4818
:101470009093610480936004009749F00E94CE47E6
:10148000AE014C5F5F4F61E071E00E9413472D9603
:101490000FB6F894DEBF0FBECDBFDF91CF911F9185
:1014A0000F91FF90EF9008951092610410926004E4
:1014B00040E060E070E085EC93E00E9453350895D1
:1014C00090916204883010F480936204892F9927E8
:1014D00008952F923F924F925F926F927F928F92D8
:1014E0009F92AF92BF92CF92DF92EF92FF920F93B3
:1014F0001F93CF93DF93CDB7DEB7CD54D0400FB657
:10150000F894DEBF0FBECDBF7C016B011A01892BA1
:1015100009F48EC094E0692E712C44245524AA2429
:10152000BB24A0E0B0E000E010E07EC0C5018F70F9
:101530009070892B69F54DE450E060E270E08E0117
:101540000F5F1F4FC8010E94CD4D9301220F331F23
:10155000220F331F2450304040E050E0D801F20108
:10156000022E02C0F695E7950A94E2F7EF70F0704C
:10157000E755FD4F80818D934F5F5F4F2450304082
:101580004615570561F7D301129683010C5C1F4F76
:10159000F6019081E92FE295EF70FF27E755FD4FA7
:1015A00050814D010894811C911CE92FFF27EF7099
:1015B000F070E755FD4F4081892F80528F3510F034
:1015C0008EE201C0892F9E012F5F3F4FA20FB31FF4
:1015D0005C93F901E80DF91D4083F901E00FF11F5B
:1015E00080830F5F1F4F0894A11CB11CC5018F7031
:1015F0009070892B19F0A214B30489F4F901E00F5B
:10160000F11F1082B701C9010E94C148B7018AE0E9
:1016100090E00E94994880E190E0480E591E08949D
:10162000C11CD11CD4011296A214B30409F07ECFC0
:10163000C35BDF4F0FB6F894DEBF0FBECDBFDF91A7
:10164000CF911F910F91FF90EF90DF90CF90BF90BF
:10165000AF909F908F907F906F905F904F903F9052
:101660002F90089560916304709164046115710571
:1016700029F0992787FD90950E94994808951F9316
:10168000CF93DF93CDB7DEB722970FB6F894DEBFC6
:101690000FBECDBF1985609163047091640461151C
:1016A000710509F410C1212F332727703070809104
:1016B00062049927821793070CF405C1812F877064
:1016C0008330F1F0843028F48130A1F08230A8F426
:1016D0000EC08530D9F08530B0F08630D1F087303B
:1016E00019F48CEE91E017C08AEE91E014C08BE201
:1016F00092E011C082E292E00EC089E192E00BC05C
:1017000080E192E008C087E092E005C08EEF91E0B2
:1017100002C085EF91E00E94D2486091630470910D
:101720006404212F287F283709F4AAC0293790F5AF
:10173000283309F499C02933B0F4283109F48EC054
:10174000293138F4283009F486C0203109F053C01B
:1017500055C0283209F485C0203309F455C0203221
:1017600009F049C04EC0283509F484C0293548F431
:10177000283409F47CC0203509F44CC02034D9F554
:1017800046C0283609F479C0203709F449C020360C
:1017900091F543C0283B09F47FC0293BA8F42839C0
:1017A00009F474C0293940F4283809F46CC0203990
:1017B000E9F1203801F537C0283A09F46AC0203B26
:1017C000D9F1203AC1F435C0283D09F46BC0293D58
:1017D00040F4283C09F463C0203DA1F1203C59F4B9
:1017E0002EC0283E29F0203F99F1203E21F42DC043
:1017F0008EE392E059C084E392E056C08FEC92E011
:1018000053C08AEC92E050C085EC92E04DC080EC71
:1018100092E04AC08BEB92E047C086EB92E044C076
:1018200081EB92E041C08CEA92E03EC087EA92E010
:101830003BC082EA92E038C08DE992E035C088E989
:1018400092E032C083E992E02FC08EE892E02CC093
:1018500089E892E029C084E892E026C08FE792E010
:1018600023C08AE792E020C085E792E01DC080E7B0
:1018700092E01AC08BE692E017C086E692E014C0B0
:1018800081E692E011C08CE592E00EC087E592E01F
:101890000BC082E592E008C08DE492E005C088E4C8
:1018A00092E002C083E492E00E94D248AE01445F1D
:1018B0005F4F5A8349836A857B8580916304909149
:1018C00064040E94E64822960FB6F894DEBF0FBE6D
:1018D000CDBFDF91CF911F910895809163049091C6
:1018E000640410926404109263040E94BD4708953A
:1018F0000E94D2099093640480936304089587E062
:10190000809362040E94780C0895833059F08430EB
:1019100018F4882339F008C0853031F0853040F064
:10192000863091F48B9801C08B9A8093650408955A
:1019300080916504813021F48B981092650408959C
:101940008B9A81E08093650408958B9810926504CA
:1019500008958091650499270895A39800000000D8
:101960006FB1A39AA498000000004FB1A49A5B98AD
:10197000000000008FB15B9A5A98000000002FB160
:101980005A9A62956F707727407F5527642B752B85
:10199000807F992734E0880F991F3A95E1F7682BEB
:1019A000792B207F3327322F2227622B732B7093C2
:1019B0006904609368048FEF6F3B780709F453C0A4
:1019C0008FEF603C780708F58BEF6F3F780709F4DD
:1019D00059C08CEF6030780750F48FEE6F3F780776
:1019E00009F456C06F5F774F09F055C042C08EEFC3
:1019F0006F3F780709F443C08FEF6F37780751F1D5
:101A00006F5F7D4F09F047C040C08FEF673F780799
:101A100021F18FEF683F780760F48FEF6F3D780713
:101A200059F18FEF6F3E780709F16F5C7F4F99F5A1
:101A300047C08FEF6D3F780751F08FEF6E3F78070B
:101A400079F06B5F7F4F39F581E090E03BC082E039
:101A500090E038C083E090E035C084E090E032C090
:101A600085E090E02FC086E090E02CC087E090E019
:101A700029C088E090E026C089E090E023C08AE099
:101A800090E020C08BE090E01DC08CE090E01AC098
:101A90008DE090E017C088E880936A0408958FEF86
:101AA0009FEF909367048093660408958FEFEF3F54
:101AB000F80789F084819581019695838483089540
:101AC0008EE090E080936A04E0916604F0916704F0
:101AD000309761F7E4CF0895E82F862F8150823048
:101AE00030F4E03120F4FF27E259FB4F6083089582
:101AF00080916A049927089580936A04E0916604AE
:101B0000F0916704309739F48FEF9FEF909367045B
:101B10008093660408958FEFEF3FF80729F08481E2
:101B200095810196958384830895A39AA49A5B9ADC
:101B30005A9A10926D048FEF9FEF909369048093EF
:101B400068040FB6F8940F9210926704109266041E
:101B50000F900FBE8FEF80936A04EEE6F4E082E010
:101B6000819394E0EE37F907D9F710926C04109244
:101B70006B040895AB01BC0186E694E00E94BD347D
:101B800020E030E08F5F9F4F11F421E030E0C90189
:101B90000895813011F4739A0895882309F4739895
:101BA00008959AB19F70906F9AB99BB19F70607FB2
:101BB000962B9BB9823011F48A9801C08A9A729A46
:101BC0000000000072988A988AB18F708AB98BB130
:101BD0008F70806F8BB908950F931F93082F162F66
:101BE0008A98899A729A000000004F99FBCF7298E8
:101BF0008A988998612F607F802F0E94D10D12955D
:101C0000107F612F802F0E94D10D1F910F91089599
:101C1000682F83E00E94EC0D08951F93162F682F04
:101C200082E00E94EC0D612F83E00E94EC0D1F9179
:101C300008950F931F93CF93DF938C01EC0169916B
:101C400080E80E940D0E095F1F4F8991882329F0BB
:101C50000E94080EC017D107C1F7DF91CF911F91E5
:101C60000F9108950F931F93CF93DF938C01EC0195
:101C7000699180EC0E940D0E005F1F4F89918823AF
:101C800029F00E94080EC017D107C1F7DF91CF914C
:101C90001F910F910895CF93DF93EC0190938104EE
:101CA000809380048091840490918504892B79F439
:101CB00081E00E94F92F20E034E0AE0167E07FE090
:101CC00089EB92E00E94C73680E00E94F92F81E004
:101CD00090E09093850480938404DF91CF910895E0
:101CE0008EEB92E00E944B0E0895CF93DF93EC01B0
:101CF00090937F0480937E0480918204909183046A
:101D0000892B79F481E00E94F92F20E034E0AE01C4
:101D100060E87FE08FEC92E00E94C73680E00E948E
:101D2000F92F81E090E09093830480938204DF9107
:101D3000CF91089584ED92E00E94750E08950E945F
:101D4000700E0E949A0E0895EF92FF920F931F93C8
:101D5000CF93DF938C01EC01699188E80E940D0E0E
:101D600081E0E82EF12C06C089910E94080E0894AB
:101D7000E11CF11CF80101900020E9F73197E01B0C
:101D8000F10BEE16FF0680F3DF91CF911F910F91BB
:101D9000FF90EF9008958CED92E00E94A40E0E94B7
:101DA0009F0E08951F938CE80E94C33010E063E3F8
:101DB00082E00E94D10D84E00E94C3301F5F133087
:101DC000B1F762E282E00E94D10D81E00E94C3304F
:101DD00068E282E00E94EC0D85E00E94C3306CE076
:101DE00082E00E94EC0D85E00E94C33061E082E059
:101DF0000E94EC0D85E00E94C33066E082E00E9404
:101E0000EC0D60E882E00E94EC0D1F910895CF93E5
:101E1000DF93CDB7DEB760970FB6F894DEBF0FBE85
:101E2000CDBF00E010E0809184049091850401977B
:101E300041F482E090E0909385048093840400E074
:101E400010E0A0918004B0918104FD010190002078
:101E5000E9F73197EA1BFB0B709720F4CD010E9444
:101E6000320E47C00130110531F460ED77E080E0BB
:101E700090E00E94D531FE01319680E1DF011D9294
:101E80008A95E9F7A0918004B0918104A00FB11F59
:101E90009E012F5E3F4F02C08D918193E217F307A1
:101EA000D9F7CE0101960E94320E0F5F1F4FE091CD
:101EB0008004F0918104E00FF11F8785882399F455
:101EC00084ED92E09F938F9386E48F930E943F0B63
:101ED00060ED77E080E090E00E94D53100E010E016
:101EE0000F900F900F9064E873E080E090E00E9404
:101EF000D53164E670E080E090E00E94D53193CF68
:101F0000CF93DF93CDB7DEB727970FB6F894DEBF38
:101F10000FBECDBF00E010E0809182049091830459
:101F2000019741F482E090E09093830480938204CF
:101F300000E010E0A0917E04B0917F04FD010190CB
:101F40000020E9F73197EA1BFB0B379720F4CD010E
:101F50000E94190E47C00130110531F468EE73E09C
:101F600080E090E00E94D531FE01319687E0DF01EC
:101F70001D928A95E9F7A0917E04B0917F04A00F8D
:101F8000B11F9E01285F3F4F02C08D918193E217E0
:101F9000F307D9F7CE0101960E94190E0F5F1F4F6C
:101FA000E0917E04F0917F04E00FF11F8681882389
:101FB00099F480EF92E09F938F9386E48F930E9431
:101FC0003F0B68EE73E080E090E00E94D53100E0C6
:101FD00010E00F900F900F9064E873E080E090E0C5
:101FE0000E94D53164E670E080E090E00E94D53137
:101FF00093CF0FB6F8940F929DB3882311F0EE9A09
:1020000001C0EE980F900FBE892F992726E0969574
:1020100087952A95E1F781709070089580E00E947D
:10202000F90F982F80918604813011F41092860464
:10203000892F0E94F90F80E090E008958091860436
:10204000992708958091870490918804089580913C
:1020500087049091880408950F931F93CF93DF9383
:10206000EC018B0180E090E00E94961505C0FE0116
:1020700084910E947E15219601501040FFEF0F3F82
:102080001F07A9F70E947315DF91CF911F910F9140
:1020900008951F9380E00E94F90F182F64E070E00C
:1020A00084E796E00E942C1064E070E080E796E000
:1020B0000E942C10812F0E94F90F80E090E01F9168
:1020C00008950F931F93CF93DF938C01EB0180E072
:1020D00090E00E94961505C0F80181918F010E9441
:1020E0007E152197FFEFCF3FDF07B1F70E947315F1
:1020F000DF91CF911F910F910895EF92FF920F936F
:102100001F93F82E8B010E947A15E82E80E00E9422
:10211000771580E090E00E9496152C9882E00E944E
:102120007E158F2D0E947E15812F99270E947E1586
:10213000802F0E947E152C9A0E9473158E2D0E946E
:1021400077151F910F91FF90EF900895DF92EF9216
:10215000FF920F931F93082FE62E80E00E94F90F45
:10216000D82E1127102F0027FF240E291F29B80170
:102170008BE00E947D108D2D0E94F90F80E090E091
:102180001F910F91FF90EF90DF900895FF920F93B2
:102190001F938C0180E00E94F90FF82E1C60B8019B
:1021A00080E00E947D108F2D0E94F90F80E090E06A
:1021B0001F910F91FF9008951F93CF93DF93CDB799
:1021C000DEB721970FB6F894DEBF0FBECDBF89836F
:1021D00080E00E94F90F182F80E290E00E94C61064
:1021E00063E070E08CE796E00E942C1061E070E004
:1021F000CE0101960E94611064E070E088E796E0ED
:102200000E942C10812F0E94F90F80E090E021960F
:102210000FB6F894DEBF0FBECDBFDF91CF911F91F7
:102220000895282F332727703070C90153E0880F95
:10223000991F5A95E1F7820F931F885C0E94DC106A
:102240000895BF92CF92DF92EF92FF920F931F9368
:10225000CF93DF93CDB7DEB721970FB6F894DEBFEB
:102260000FBECDBF89837B0180E00E94F90FB82E9D
:1022700080E290E00E94C61063E070E087E896E09C
:102280000E942C1061E070E0CE0101960E94611066
:102290006FE7C62E66E0D62E64E070E0C6010E94AD
:1022A0002C1000271127C801B7010E94D53164E026
:1022B00070E083E896E00E942C1064E070E0C601B4
:1022C0000E942C108B2D0E94F90F80E090E0219647
:1022D0000FB6F894DEBF0FBECDBFDF91CF911F9137
:1022E0000F91FF90EF90DF90CF90BF90089568EC32
:1022F00070E084E60E94211164E670E080E090E0E6
:102300000E94D53168EC70E084E60E94211164EFF0
:1023100071E080E090E00E94D53180E090E0089587
:10232000DF92EF92FF920F931F93182F0E947A155E
:10233000D82E80E00E94771580E090E00E949615EC
:102340002C9883E00E947E15812F0E947E150E94AA
:102350008315E82EFF24FE2CEE240E948315082FFF
:102360002C9A0E9473158D2D0E9477151127C70195
:10237000802B912B1F910F91FF90EF90DF9008958C
:10238000FF920F931F9380E00E94F90FF82E8BE0CD
:102390000E9490118C018F2D0E94F90FC8011F918E
:1023A0000F91FF900895FF920F931F93182F80E0D5
:1023B0000E94F90FF82E812F0E9490118C018F2D11
:1023C0000E94F90FC8011F910F91FF90089589E0B5
:1023D0000E94D3119C018FEF213E380790F58DE4C8
:1023E00024353807A1F18DE42535380768F481E4F8
:1023F00024353807F9F08DE424333807D9F081E427
:102400002434380709F516C087E52D363807F9F06A
:1024100087E52E36380728F487E52D343807A1F4F0
:1024200009C086E72536380729F08FEF203E3807A8
:1024300059F40DC08091870490918804039739F472
:1024400003C020EE3FEF03C080E090E00895C90193
:1024500008950F931F938C0180E00E94F90F109252
:102460008604C80184600E94C6108AE00E94C330BE
:1024700080E48CBB80E090E01F910F91089580E094
:102480000E94F90F2F982C9A2898209A84E00E9495
:10249000C33080E00E947715109286042F9A84E062
:1024A0000E94C33081E00E949011E4E096958795E8
:1024B000EA95E1F787709070909388048093870481
:1024C000039719F460E070EE02C060E078E983E001
:1024D0000E947D1082E30E94C33080E090E00E9461
:1024E000C61060E080E00E94A61082E30E94C33024
:1024F00080918704909188040397029710F482E0FA
:1025000001C081E00E94771540E050E067E972E188
:1025100083EB93E00E94C23566E070E083EB93E0CA
:102520000E94403680E48CBB80E090E00895BF922A
:10253000CF92DF92EF92FF920F931F93CF93DF938F
:10254000CDB7DEB722970FB6F894DEBF0FBECDBF72
:1025500080918604813009F04FC0669B4DC080E0B9
:102560000E94F90FB82E78941A82198280E090E0C8
:102570000E949615A0E2EA2EF12C00E010E0CC2497
:10258000DD2403C0FFE1EF2EF12C89819A81C8166A
:10259000D906C0F0C114D10419F0C6010E94DD2D86
:1025A000CE0101960E945C2D8C0189819A81892B34
:1025B00019F0CC24DD2408C082E080938604CC246A
:1025C000DD2412C0892B41F0F80181918F010E9416
:1025D0007E150894C11CD11C6699D4CF0894E108DB
:1025E000F108E114F10489F60E947315C6010E94F6
:1025F0007A2E8B2D0E94F90F22960FB6F894DEBF2B
:102600000FBECDBFDF91CF911F910F91FF90EF9043
:10261000DF90CF90BF9008950F931F93CF93DF93D8
:1026200080918604813009F435C080E00E94F90F62
:10263000C6E0D3E0FE0165917491E2E9F6E0E49131
:102640008E2F0E947D1000E010E011C0FE01659108
:102650007491F801EE56F94FE4918E2F0E947D108F
:10266000C80164EF71E00E942E4E892B11F40E9484
:10267000EE130F5F1F4F229681E0053B180731F7DD
:1026800081E08093860480E090E00E94971281E0D0
:102690000E94F90F80E090E0DF91CF911F910F91A0
:1026A00008951F93CF93DF9380E090E00E9429125A
:1026B00080E290E00E94C61080E00E94F90F182F7F
:1026C00068E070E08AE896E00E942C1088E20E94A0
:1026D000C33088E00E949011EC01812F0E94F90F15
:1026E0008091870490918804039731F480E8CF3774
:1026F000D80711F4C0E0D0E0CE01DF91CF911F9157
:102700000895089580916A008C7F80936A0040E06C
:1027100050E061E873E18DEA93E00E94C235892BB5
:1027200031F480916A00826080936A00EC9A809113
:102730008100836080938100AD9A0FB6F8940F9268
:1027400010928A04109289040F900FBE0895EF92A0
:10275000FF920F931F93AB01BC01A89521E0E12CE0
:10276000E8E0FE2E012D112D01C02F5FD801C70119
:10277000022E04C0880F991FAA1FBB1F0A94D2F70C
:1027800037E0B695A795979587953A95D1F7841731
:102790009507A607B70748F320938C042A3018F052
:1027A000297020938C0420918C0423FF02C038E20E
:1027B00001C038E088E190E02770322B0FB6F89422
:1027C000A895809360000FBE3093600081E08093F5
:1027D0008B041F910F91FF90EF900895A895089595
:1027E00080918B04882319F08F5F80938B0488E19C
:1027F0000FB6F89480936000109260000FBE0895A9
:1028000080918B048230C0F0815080938B048130A2
:1028100099F420918C0423FF02C038E201C038E013
:1028200088E190E02770322B0FB6F894A89580933A
:1028300060000FBE309360000895809190049091E5
:1028400091048130910589F08130910530F082301A
:10285000910521F10397E9F52DC078993AC081E0FF
:1028600080938F0481E090E020C0789912C080911D
:102870008F048F5F80938F048E3159F581E08093B0
:102880008E0482E090E0909391048093900481E024
:1028900021C010929104109290041BC0789B19C023
:1028A00081E080938F0483E090E090939104809383
:1028B00090040FC080918F048F5F80938F048431C8
:1028C00041F410928E04109291041092900480E0D2
:1028D00001C082E09927089580918E049927089578
:1028E0008091920490919304089508950F931F93FB
:1028F000CF93DF93CDB7DEB72A970FB6F894DEBF3C
:102900000FBECDBF109291041092900410928E04CD
:1029100065E578E08E010F5F1F4FC8010E949A4D58
:10292000C8010E94A52F892BB1F420E033E040E0DC
:1029300050E067E375E1C8010E94C736892B59F45E
:1029400087E498E09F938F9380EE8F930E943F0BD4
:102950000F900F900F902A960FB6F894DEBF0FBE1F
:10296000CDBFDF91CF911F910F910895FF920F93EB
:102970001F93CF93DF93CDB7DEB72A970FB6F894A6
:10298000DEBF0FBECDBF87EE92E00E943735892BA8
:10299000B9F480E00E94F90FF82E40E067E070E0A3
:1029A00085EE92E00E9453358C01892B51F540E071
:1029B00067E070E088E093E00E9453358C0121C00D
:1029C0000E94581980E00E94F90FF82EE091F80259
:1029D000F091F902309729F085EE92E01995892B54
:1029E00059F4E0911B03F0911C03309741F088E00B
:1029F00093E01995892B19F00FEF1FEF02C000E04B
:102A000010E08F2D0E94F90F01151105C1F488EA1D
:102A100098E09F938F9386EE8F930E943F0B60E028
:102A200070E0CE0101960E9425470F900F900F9005
:102A30002FEF8F3F920771F00E94FD460BC089E790
:102A400098E09F938F9383EE8F930E943F0B0F909C
:102A50000F900F90C8012A960FB6F894DEBF0FBEF4
:102A6000CDBFDF91CF911F910F91FF90089580917D
:102A70008E0480938D0480918E048130B9F480910E
:102A80008D04882349F58BE698E09F938F9386EE1B
:102A90008F930E943F0B0E94B6140F900F900F90DF
:102AA000892B29F780E10E947C0DE1CF8823A1F4D6
:102AB00080918D04813081F48EE598E09F938F930F
:102AC00086EE8F930E943F0B80918E0480938D043D
:102AD0000F900F900F90CFCF64EF71E080E090E007
:102AE0000E94D531C8CF779A2E982D9A0895809359
:102AF0009404089580919404992708958EBD0DB48F
:102B000007FEFDCF08958FEF8EBD0DB407FEFDCFFC
:102B10008EB5992708958EBD0DB407FEFDCF8EB5F5
:102B200099270895779A2E982D9A08959C010097D9
:102B3000F9F480919404882321F481E08DBD81E52E
:102B400004C0813021F41DBC80E58CBD25C08230DD
:102B500019F481E08DBDF8CF85EB98E09F938F93BA
:102B60008BE78F930E943F0B0F900F900F9014C034
:102B7000019741F481E08DBD80E58CBD2D9A2E98A2
:102B8000779808951DBC80E58CBD2130310520F07B
:102B90002230310541F404C0779A2D9A2E9A089577
:102BA000779A2E982D98089580E090E0089580E01F
:102BB00090E0089580E090E0089540E050E060E00B
:102BC00070E085E994E00E94BD340895CF93DF93CF
:102BD000CEEFDFEF0E9483158F3F11F42197D1F7DD
:102BE0009927DF91CF910895CF93DF93CEEFDFEF59
:102BF0000E9483158E3F11F02197D1F79927DF911D
:102C0000CF910895DF92EF92FF920F931F93D82EEA
:102C10008B017A0182E090E00E9496158FEF0E946E
:102C20007E158D2D80640E947E15812F99270E942C
:102C30007E15802F0E947E158F2D99270E947E156C
:102C40008E2D0E947E1585E90E947E158FEF0E94D1
:102C50007E151F910F91FF90EF90DF9008956F9276
:102C60007F928F929F92AF92BF92CF92DF92EF921C
:102C7000FF920F931F93CF93DF935B0169017A015A
:102C80003801882499243AC0A601542F4427550FAF
:102C9000C701B60127E096958795779567952A95A0
:102CA000D1F781E10E9402160E94F4158E3F29F0AF
:102CB0000E94731581E090E026C08501C0E0D0E05D
:102CC0000E948315F80181938F012196F2E0C030B4
:102CD000DF07B1F780E092E0A80EB91E8FEF0E94E7
:102CE0007E158FEF0E947E150E9473150894811C3B
:102CF000911C0894C11CD11CE11CF11C8614970482
:102D000019F680E090E0DF91CF911F910F91FF9035
:102D1000EF90DF90CF90BF90AF909F908F907F907B
:102D20006F90089585E994E00E946A3408952F9287
:102D30003F924F925F926F927F928F929F92AF924B
:102D4000BF92CF92DF92EF92FF920F931F93CF9398
:102D5000DF93CDB7DEB728970FB6F894DEBF0FBE6E
:102D6000CDBFF82E6B0139014A0118010E94DD1513
:102D7000FF2019F022E030E0A8C0C801AA27BB2735
:102D8000860D971DA81DB91D20919A0430919B04B2
:102D900040919C0450919D04281739074A075B070E
:102DA00028F483E090E09E838D8302C01E821D8202
:102DB000809197049091980497FD04C0E2E0F0E0C0
:102DC000FE83ED8396FD7FC02D813E81232B09F08C
:102DD00092C0DC82CB8272C03FEF2316310409F02F
:102DE00010F4610103C0C12CA1E0DA2E4B805C809D
:102DF000840173011A82198253C0A701542F4427FA
:102E0000550FC801B701E7E09695879577956795C7
:102E1000EA95D1F788E10E9402160E94E6158F3FDD
:102E200009F445C08EEF0E947E15520118861F825C
:102E3000F50181915F010E947E152F8138852F5FFA
:102E40003F4F38872F832050324091F7E0E0F2E087
:102E50004E0E5F1E8FEF0E947E158FEF0E947E1533
:102E60008FEF0E947E155FEFA52EB52E0E94831571
:102E7000882339F40894A108B108A114B104B9F069
:102E8000F5CF0894E11CF11C011D111DAB2879F050
:102E90000E94731529813A812F5F3F4F3A8329831E
:102EA00089819A818C159D0509F0A7CF11C00E94D8
:102EB0007315E1E0F0E0FE83ED831DC021143104C1
:102EC00009F08ACF18C028E030E03E832D8313C07C
:102ED000C601AA27BB27680E791E8A1E9B1E2C18C6
:102EE0003D08DC2CCC24DD0C8B819C818C0D9D1D40
:102EF0009C838B83E3CF0E9492168D819E812896BE
:102F00000FB6F894DEBF0FBECDBFDF91CF911F91FA
:102F10000F91FF90EF90DF90CF90BF90AF909F9078
:102F20008F907F906F905F904F903F902F9008957B
:102F30008F929F92AF92BF92CF92DF92EF92FF92C9
:102F40000F931F93CF93DF93F82EEB0149015A01A2
:102F500068010E94DD15FF20F1F4809197049091A3
:102F6000980497FF18C0C801AA27BB27880D991D90
:102F7000AA1DBB1D20919A0430919B0440919C0492
:102F800050919D04281739074A075B0708F042C093
:102F900003E010E044C002E010E041C02FEFC21691
:102FA000D10409F010F4E60102C0C0E0D1E08E01C6
:102FB000A5019401B70187E994E00E942F168C01C6
:102FC000892B69F5CE01AA27BB27880E991EAA1E58
:102FD000BB1ECC1ADD0A80919E0490919F049C0137
:102FE000C29FC001C39F900DD29F900D1124E80E87
:102FF000F91EC114D10491F600E010E010C001E008
:1030000010E0A5019401BE0187E994E00E942F160B
:103010008C0105C07E010130110559F7F0CF0E94E7
:103020009216C801DF91CF911F910F91FF90EF9001
:10303000DF90CF90BF90AF909F908F900895EF92C8
:10304000FF920F931F93182F0E94DD15112321F07B
:10305000EE24FF24870108C0E0909A04F0909B04BE
:1030600000919C0410919D040E949216C801B70122
:103070001F910F91FF90EF9008951F93CF93DF93CF
:10308000182F0E94DD15112319F0C0E0D0E004C014
:10309000C0919E04D0919F040E949216CE01DF91B0
:1030A000CF911F910895CF92DF92EF92FF920F93ED
:1030B0001F93CF93DF93CDB7DEB760970FB6F89429
:1030C000DEBF0FBECDBF6B010E94DD15809197045E
:1030D0009091980497FF8AC040E050E060E070E073
:1030E00089E00E9402160E94F4158E3F61F083EC85
:1030F00098E09F938F9383EF8F930E943F0B0F90E5
:103100000F900F9073C08E010F5F1F4F0E948315A9
:10311000F80181938F01CE014196E817F907B1F7C5
:103120008FEF0E947E158FEF0E947E150E9473150F
:10313000EE80FFE0EF2221E030E0C90102C0880FFD
:10314000991FEA94E2F77C016F81772763707070B2
:10315000762F6627770F770FE885FF27EE0FFF1F83
:10316000EE0FFF1F6E2B7F2B09851127EA85FF27A6
:10317000E370F070DF01AA0FBB1FEA2BFB2BAB85BE
:10318000BB2786E0169507958A95E1F7602B712B92
:103190006F5F7F4F88279927AA0FAB2FAA1FBB0B02
:1031A000B195EA2BFB2B329602C0220F331FEA9512
:1031B000E2F7442755270E94EF4D60939A047093DD
:1031C0009B0480939C0490939D04F0929F04E09252
:1031D0009E040E94921601E010E020E030E040E002
:1031E00050E0B60180E00E94981704C00E94921639
:1031F00081E090E060960FB6F894DEBF0FBECDBFC1
:10320000DF91CF911F910F91FF90EF90DF90CF90C2
:103210000895CF93DF937093A1046093A00450931B
:10322000A3044093A20489E0E7E9F4E011928A95AF
:10323000E9F71092990485E994E00E946A34C0E0AD
:10324000D0E08FEF0E947E152196CA30D105C9F7D4
:1032500040E050E060E070E080E00E9402160E94D2
:10326000E615813099F4CFEFDFEF07C040E050E082
:1032700060E070E081E00E9402160E9483158823BE
:1032800019F0219799F702C0CD2B29F40E947315EC
:1032900081E090E00AC00E94731580E090E890936E
:1032A00098048093970480E090E0DF91CF91089597
:1032B0001092A5041092A4040895EF92FF920F9328
:1032C0001F93CF93DF93EC017A018B018B8180FDFB
:1032D0001AC08EEF9FEFAFEFBFEFE80EF91E0A1F87
:1032E0001B1F2A81332744275527C801B7010E9495
:1032F000EF4DAB01BC018A8D9B8DAC8DBD8D480F10
:10330000591F6A1F7B1FCB01BA01DF91CF911F911B
:103310000F91FF90EF9008958FEF9FEF08958FEF3B
:103320009FEF0895282F8F3F11F420E006C08823D7
:1033300021F099270E94634E282F822F992787FD1D
:10334000909508958F929F92AF92BF92CF92DF9205
:10335000EF92FF920F931F93FC016A017B0183811F
:1033600080FF07C0CB01BA016F5F7F4F8F4F9F4F28
:1033700069C0808182889388A488B5886091A804F8
:103380007091A9048130A9F5A7019601A7E056958F
:10339000479537952795AA95D1F7280D391D4A1DD0
:1033A0005B1D01E010E081810E9498178091A804C4
:1033B0009091A904F601EF77F070EE0FFF1FEE0F6A
:1033C000FF1FE80FF91F60817181828193819F70D7
:1033D0006F3F2FEF72072FEF82072FE0920771F1F7
:1033E000673F2FEF72072FEF82072FE0920751F50B
:1033F00025C055274F2D3E2D2D2D280D391D4A1D39
:103400005B1D01E010E081810E9498178091A80463
:103410009091A904F601F070EE0FFF1FE80FF91F5D
:10342000208131818FEF2F3F380741F08FEF273F09
:10343000380721F0B9018827992704C060E070E0BF
:1034400080E090E01F910F91FF90EF90DF90CF9080
:10345000BF90AF909F908F9008952F923F924F9280
:103460005F926F927F928F929F92AF92BF92CF9214
:10347000DF92EF92FF920F931F93CF93DF93CDB71D
:10348000DEB76A970FB6F894DEBF0FBECDBF988B3C
:103490008F877A8B698B5C8B4B8B18012901FE8A95
:1034A000ED8AD88ECF8AD7011D921D921D921C9253
:1034B0001397DA010D900020E9F71197A41BB50BC3
:1034C000CD010C966DE070E00E942E4EF62FF06458
:1034D000F983F53E09F496C18DE0689F90011124AF
:1034E0003B832A832F3331050CF08CC17901BF2E29
:1034F0001E86CC24DD2480C1B201A1018F8598896C
:103500000E945D19688779878A879B87EF85F8898C
:103510008281282F33273D872C8731E02316310401
:103520004104510479F48081882361F48285938574
:10353000A485B58588879987AA87BB872681378127
:103540003D872C87688479848A849B8442C16091FA
:10355000A8047091A90401E010E0A4019301EF8593
:10356000F88981810E9498172091A8043091A904BC
:103570003F832E838091AA049091AB049D838C831A
:103580003A8F298F9E85913019F4E98DFA8D1DC0EF
:103590002F89388D232B99F5A98DBA8D8C91853E75
:1035A00071F1882361F14BE050E069897A89CD019E
:1035B0000E94B74D892B19F5E989FA899385E98D20
:1035C000FA8D838589238917D1F484899589AA275F
:1035D000BB27AC0133272227828D938DAA27BB27D7
:1035E000282B392B4A2B5B2B848D958DA68DB78D7F
:1035F000ED89FE8980839183A283B38307C1E98D1E
:10360000FA8D83858F3009F0D0C0A080AB1409F00B
:10361000CCC0B6FE0DC0BFEBAB2EAB20AC81BD81E4
:10362000AE0DBF1D1C920894E108F108CC80DD802E
:10363000E98DFA8D868D978D0E949219F601EE0D17
:10364000FF1D8083870101501040E98DFA8D848D24
:10365000958D0E949219F601E00FF11F80830150B1
:103660001040E98DFA8D808D918D0E949219F6019E
:10367000E00FF11F808301501040E98DFA8D86899B
:1036800097890E949219F601E00FF11F8083015083
:103690001040E98DFA8D848995890E949219F6016E
:1036A000E00FF11F808301501040E98DFA8D82896F
:1036B00093890E949219F601E00FF11F8083015057
:1036C0001040E98DFA8D808991890E949219F60146
:1036D000E00FF11F808301501040E98DFA8D86853F
:1036E00097850E949219F601E00FF11F8083015027
:1036F0001040E98DFA8D818592850E949219F6011C
:10370000E00FF11F808301501040E98DFA8D878111
:1037100090850E949219F601E00FF11F80830150FD
:103720001040E98DFA8D858196810E949219F601EB
:10373000E00FF11F808301501040E98DFA8D8381E5
:1037400094810E949219F601E00FF11F80830150CD
:103750001040E98DFA8D818192810E949219F601C3
:10376000E00FF11F8083BA2CBA9429F078010894F5
:10377000E108F1081AC0AB89BC890D900020E9F777
:1037800011972B893C89A21BB30BAD01B601C9016E
:103790000E94B74D892B31F4EA80FB80B98031E07B
:1037A0003E8703C0EA80FB80B980898D9A8D809620
:1037B0009A8F898F8E819F8180509E4FA98DBA8D5F
:1037C000A817B90709F0DECE0894611C711C811C92
:1037D000911CC301E885F9858E1B9F0B2C853D85C7
:1037E000821793070CF4B3CEB201A1018F8598899B
:1037F0000E94A2191B012C0121143104410451041F
:1038000009F07ACE20E030E040E050E0CA01B90192
:103810006A960FB6F894DEBF0FBECDBFDF91CF9191
:103820001F910F91FF90EF90DF90CF90BF90AF90DE
:103830009F908F907F906F905F904F903F902F90D0
:10384000089582E195E00E946A34089582E195E04E
:103850000E946A34089540E050E060E070E082E148
:1038600095E00E94BD3408952F923F924F925F924F
:103870006F927F928F929F92AF92BF92CF92DF9280
:10388000EF92FF920F931F93CF93DF93CDB7DEB7E5
:1038900028970FB6F894DEBF0FBECDBF8C016B0129
:1038A0005E834D830E942B1C0115110509F4F6C09F
:1038B000F8010481158118870F830115110509F49A
:1038C000EDC06D817E816115710509F4E7C0F801D5
:1038D000E484F584068517852081318142815381F6
:1038E000E216F3060407150708F0D2C0CB01AA2799
:1038F00097FDA095BA2F8E0D9F1DA01FB11F2817F1
:1039000039074A075B0720F42E193F093E832D83B0
:10391000EF81F885008CF18DE02DFC83EB83DA825A
:10392000C982248035804D805E80ABC0EF81F885F0
:1039300060887188828893885101CC24DD24408579
:103940005185628573858B819C810E945D197B0105
:103950008C01C401B301A60195010E94414E442788
:1039600037FD4095542F2E0D3F1D401F511F609174
:10397000A8047091A90401E010E0EB81FC81818131
:103980000E949817892B09F079C0C401B301A601E0
:1039900095010E94414E6101421453040CF46201EE
:1039A000CB018C0D9D1D281639061CF46101C61A29
:1039B000D70A8091A8049091A904680F791FA601E5
:1039C00089819A810E94C44D76010027F7FC0095F9
:1039D000102FEF81F88524853585468557852E0D76
:1039E0003F1D401F511F2487358746875787808991
:1039F0009189A289B3898E0D9F1DA01FB11F808B55
:103A0000918BA28BB38B80819181A281B381281786
:103A100039074A075B0720F081E090E0978B868B9F
:103A2000EF81F8852089318942895389EB81FC81B6
:103A3000868D978DA0A1B1A1281739074A075B078A
:103A4000A0F0EF81F88540855185628573858B8173
:103A50009C810E94A219EF81F88560877187828717
:103A60009387108A118A128A138A69817A816C0D70
:103A70007D1D7A8369834C185D0803C08DEF9FEF2D
:103A800009C04114510409F051CF0D811E8108C0B5
:103A90008EEF9FEFEF81F885958B848B00E010E02F
:103AA0000E94261CC80128960FB6F894DEBF0FBEF0
:103AB000CDBFDF91CF911F910F91FF90EF90DF90DD
:103AC000CF90BF90AF909F908F907F906F905F90BE
:103AD0004F903F902F900895EF92FF920F931F9376
:103AE000CF93DF93EC010E942B1C209749F0EC81CF
:103AF000FD81309729F0E080F1800281138108C0B8
:103B00000FEFE02E0FEFF02E0FEF002F0FEF102F23
:103B10000E94261CC801B701DF91CF911F910F9120
:103B2000FF90EF900895CF93DF93EC010E942B1C40
:103B3000209719F4CFEFDFEF0BC08C819D810097A8
:103B400011F00E94682CCE010E94682CC0E0D0E0E9
:103B50000E94261CCE01DF91CF9108950F931F93F1
:103B60008C010E942B1C012B11F41092AE040E94B8
:103B7000261C1F910F9108952F923F924F925F92B2
:103B80006F927F928F929F92AF92BF92CF92DF926D
:103B9000EF92FF920F931F93CF93DF93CDB7DEB7D2
:103BA00024970FB6F894DEBF0FBECDBF182F0E942A
:103BB0002B1C8091A6049091A704892B41F480E4EA
:103BC00090E00E94F52B9093A7048093A604809127
:103BD000AA049091AB04892B41F480E490E00E9408
:103BE000F52B9093AB048093AA048091A804909144
:103BF000A904892B59F480E092E00E94F52B909360
:103C0000A9048093A804892B09F445C18091A604D6
:103C10009091A704892B09F43EC18091AA04909148
:103C2000AB04892B09F437C182E2189FF0011124FB
:103C3000E455FB4F11928A95E9F7E12EFF24270105
:103C4000440C551CC70135E0880F991F3A95E1F7E0
:103C5000480E591E2CEA34E0420E531EF201118325
:103C6000812F0E943D18F20195838483812F0E9449
:103C7000D415019721F4F201838181608383812F20
:103C80000E94D715019721F4F2018381826083831A
:103C9000F201848195818050924019F001E010E09A
:103CA000FCC0F201838181FF05C020E230E040E0EA
:103CB00050E038C06091A8047091A90401E010E0C0
:103CC00020E030E040E050E08E2D0E9498178C01FB
:103CD000892B09F0E2C0E091A804F091A904E25018
:103CE000FE4F80819181EE5FF14085559A4A09F03F
:103CF000D4C0E653FE4F80819181A281B381EA5CFA
:103D0000F1400097A105B10509F4C7C0EA53FE4F81
:103D100020813181428153812115310541055105B1
:103D200009F4BBC06091A8047091A90401E010E0FF
:103D30008E2D0E9498172090A8043090A9044EEF71
:103D400051E0240E351ED1018D919C91E2E0FEEFF1
:103D50002E0E3F1E85559A4A09F09DC0F1018585BA
:103D6000F2018283F101268937892115310571F02D
:103D7000C901AA27BB2789839A83AB83BC83D2015D
:103D80001C9281E090E0A0E0B0E010C0F10124A11D
:103D900035A146A157A129833A834B835C8381E0F7
:103DA000D2018C9384A595A5A6A5B7A5F201868717
:103DB0009787A08BB18BF101638574858189928986
:103DC00025E0880F991F2A95E1F7860F971F019725
:103DD0000E941A4E3B0188249924E684F784002728
:103DE0001127A48CB58CC68CD78CAE0CBF1CC01E02
:103DF000D11EF201A28AB38AC48AD58A29813A8166
:103E00004B815C81A20EB31EC41ED51EA68AB78A42
:103E1000C08ED18EF10160897727882799270E946B
:103E2000EF4DF101248D358D468D578DE20EF31E39
:103E3000041F151FE60CF71C081D191DE60EF71EC2
:103E4000081F191FF201E28EF38E048F158FF10106
:103E500085859927F20124813581AC01429FC001FB
:103E6000439F900D529F900D1124AA27BB27868F48
:103E7000978FA0A3B1A366827782808691862981DD
:103E80003A814B815C81A20EB31EC41ED51EA28650
:103E9000B386C486D58600E010E00E94261CC801C7
:103EA00024960FB6F894DEBF0FBECDBFDF91CF9141
:103EB0001F910F91FF90EF90DF90CF90BF90AF9048
:103EC0009F908F907F906F905F904F903F902F903A
:103ED00008952F923F924F925F926F927F928F92AE
:103EE0009F92AF92BF92CF92DF92EF92FF920F9389
:103EF0001F93CF93DF93CDB7DEB72E970FB6F8940D
:103F0000DEBF0FBECDBFFC01892B09F4A1C28481A5
:103F100080330CF49DC282330CF490C2863409F0D5
:103F200097C28CC20E942B1C8091B0049091B10466
:103F30000E94F52B9E878D87892B09F489C23090CA
:103F4000AD04832D0E941F182B013C0180EE9FEFD2
:103F5000AFEFBFEF480E591E6A1E7B1EEBE2F3E087
:103F60009F012C5F3F4F80819181A281B381841595
:103F70009505A605B70538F0D9018C919927282E0B
:103F8000882341F00CC02B5F3F4F3596B3E02D34B2
:103F90003B0749F78D859E850E94682C59C2992759
:103FA000AA27BB2789839A83AB83BC83C301B20151
:103FB00029813A814B815C810E94414EDA01C9011D
:103FC00002E0880F991FAA1FBB1F0A95D1F78150E5
:103FD0009E4FAF4FBF4F19E0B695A7959795879520
:103FE0001A95D1F789879A87AB87BC874C015D0109
:103FF000880C991CAA1CBB1C89819A81AB81BC814D
:10400000815A9F4FAF4FBF4F880E991EAA1EBB1EED
:104010008F559040A040B04089839A83AB83BC8386
:104020004091B0045091B10460E070E08D859E85B0
:104030000E94CD4DCC24DD24760110C001E010E0BB
:10404000A70196016D857E85832D0E949716892B89
:1040500051F40894C11CD11CE11CF11CC814D904F2
:10406000EA04FB0459F780E090E00E9494496D83D4
:104070007E838F8398874091B0045091B10460E0B3
:1040800070E08D859E850E94CD4DAD85BE85A25484
:10409000BE4F1D9281E08D938D931D928BE08D9389
:1040A0001D921C921296EFE3AE2EB12CC12CD12C96
:1040B000FD01A192B192C192D192DF014082518261
:1040C00062827382AA5CB140BE87AD877EEFE72E25
:1040D00071E0F72EEA0EFB1E65E5862E6AEA962E43
:1040E000F7019182808201E010E020E030E040E0C2
:1040F00050E0BD01832D0E9497168C01892B09F099
:1041000005C14091B0045091B10460E070E08D852C
:104110009E850E94CD4D8BEEAD85BE858C9388E546
:10412000FD01818380E982830DE4038393E5948319
:1041300084E485831FE41683978385E380878EE27A
:10414000818780E3828780E092E094878387258659
:1041500080E290E09787868782E0808B128A118ABE
:10416000148A138A88EF858B178A168A8FE390E06A
:10417000918F808F8FEF90E0938F828FED85FE85FA
:10418000A48EB58EC68ED78E40A251A262A273A213
:1041900089859A85AB85BC8584A395A3A6A3B7A37F
:1041A00011A610A613A612A652E0A52EB12CC12C62
:1041B000D12CED85FE85A4A6B5A6C6A6D7A681E01E
:1041C00090E091AB80AB86E090E093AB82ABE05C9B
:1041D000FF4F1082329689E28193FE87ED876D81D1
:1041E0007E818F819885A30192010E94EF4DAD855C
:1041F000BE856D937D938D939D938EE48D931D93DA
:1042000090E29D938D9321E42D930D9385E48D93FE
:104210009D939D939D939D9386E48D932D9384E52B
:104220008D9383E38D9382E38D939D939D939C93D4
:10423000A955B040BE87AD87F7019182808201E029
:1042400010E02FE330E040E050E0BD01832D0E94FC
:1042500097168C01892B09F059C001E010E025E484
:1042600030E040E050E06D857E85832D0E949716FA
:10427000892B09F0E7C04091B0045091B10460E08F
:1042800070E08D859E850E94CD4D81EA9FEFAFEF56
:10429000BFEF480E591E6A1E7B1E82E592E5A1E61D
:1042A000B1E4ED85FE8580839183A283B383EC51D5
:1042B000FE4F82E792E7A1E4B1E681939193A19347
:1042C000B193FE87ED87C301B20129813A814B8109
:1042D0005C810E94414EAD85BE852D933D934D93EB
:1042E0005D93FD01A082B182C282D382EC5EF14077
:1042F000FE87ED87D7018D929C9220E430E040E06C
:1043000050E0BF01832D0E9497168C010115110505
:1043100009F086C04091B0045091B10460E070E0B3
:104320008D859E850E94CD4D2D853E8588EF9FEF22
:10433000AFEFBFE0F90181939193A193B1939F01F6
:104340008FEF9FEFAFEFBFE0ED85FE858483958310
:10435000A683B783F90184839583A683B78301E09D
:1043600010E02FE530E040E050E06D857E85832D44
:104370000E9497168C01892B09F052C0C984DA84F7
:10438000EB84FC848FE590E0A0E0B0E0C80ED91E7D
:10439000EA1EFB1E01E010E0A70196016D857E85F7
:1043A000832D0E949716892B09F04CC04091B004D0
:1043B0005091B10460E070E08D859E850E94CD4DE6
:1043C00095E4AD85BE859C9324E5FD01218388E4B9
:1043D0008283938382E584838EE4858385E5868367
:1043E000278380E280878187828788E08387158A98
:1043F000148A138E128EED85FE85148E158E168E00
:10440000178E89859A85AB85BC85C80ED91EEA1E94
:10441000FB1EA7019601BF01832D0E9497168C01F8
:104420008D859E850E94682C0E94261C012B81F49C
:10443000832D0E94BC1D009769F00AC06050704136
:1044400039F470CD8D859E850E94682C0E94261CB3
:104450008FEF9FEF2E960FB6F894DEBF0FBECDBF45
:10446000DF91CF911F910F91FF90EF90DF90CF9050
:10447000BF90AF909F908F907F906F905F904F9084
:104480003F902F9008950F931F93CF93DF938C014C
:1044900080E092E00E94F52BEC01892B31F0802F17
:1044A0000E94BC1DCE010E94682CDF91CF911F910C
:1044B0000F910895EF92FF920F931F93CF93DF9385
:1044C000FC018091A4049091A5040097A9F5828134
:1044D000863409F03FC083818134E1F584818435DD
:1044E000C9F5848595850797A9F537C04EEA5DE142
:1044F00063E472E280E090E00E9409198C01892B4C
:1045000019F00EEF1FEF14C0B70180E090E00E9499
:104510005318C0E0D0E08C2F0E94BC1D2196C33000
:10452000D105C9F781E090E09093A5048093A4049D
:10453000C7010E94682C1CC0019761F482818634F7
:1045400049F483818D3431F48481803319F400E09F
:1045500010E00EC00FEF1FEF0BC00E94211C80E087
:1045600092E00E94F52B7C01892B09F0BFCFEFCFA1
:10457000C801DF91CF911F910F91FF90EF900895A7
:104580002F923F924F925F926F927F928F929F9263
:10459000AF92BF92CF92DF92EF92FF920F931F9351
:1045A000CF93DF93CDB7DEB7A6970FB6F894DEBFF3
:1045B0000FBECDBF9EA38DA34B018091A40490910B
:1045C000A504892B21F48DA19EA10E945A220E944C
:1045D0002B1C6090A6047090A7048DA19EA100974B
:1045E00009F422C1FC01848180330CF41DC18233A3
:1045F0000CF41DC1863409F017C119C1F401808182
:10460000882309F411C18AE190E00E94F52B5C0136
:104610008091BE049091BF04A091C004B091C104E8
:104620000097A105B10509F41AC1A114B10409F458
:10463000FBC0F40180818E3209F4E7C08AE1F50104
:1046400011928A95E9F72090BA043090BB0440900B
:10465000BC045090BD04F40180818F3209F006C182
:1046600002C1FFE3EF16F1040CF003C183010E0D4C
:104670001F1D992787FD90950E94634EF801808346
:104680000894E11CF11C0894811C911CF4018081A8
:104690008F3209F4D2C08C3509F4CFC0882309F7D2
:1046A000CCC06EE270E0C3010E94D44D009721F4AB
:1046B00009301105D8F50BC0DC011196FD01019000
:1046C0000020E9F73197EA1BFB0B349778F58E0150
:1046D0000B5F1F4F80E2F80111928A95E9F748E0DD
:1046E00050E060E270E0C8010E94CD4D43E050E030
:1046F00060E270E0CE010D960E94CD4DD801F3012D
:10470000930104C08D932F5F3F4F319680818E328D
:1047100019F08823B9F70DC0F901DE011D9601C01B
:104720008D93818131968823D9F703C021E030E051
:1047300002C020E030E0F40180818F3209F448C0EB
:104740008C3509F445C0882309F05FC080E2888B6E
:104750008091AF0480FD8DC08CEA882E84E0982E75
:1047600069017E010894E11CF11C92018101A30101
:10477000BE016B5F7F4FC4010E942D1A9B01AC01EB
:10478000611571058105910509F473C089819A81CC
:10479000AB81BC81F50180839183A283B3832483A1
:1047A0003583468357832087318742875387148612
:1047B000158616861786108A118A128A138A918E98
:1047C000808E158A148A178A168A80E090E053C07A
:1047D00080E1888B8091AF0480FD4BC069017E0130
:1047E0000894E11CF11C92018101A301BE016B5FE1
:1047F0007F4F8CEA94E00E942D1A1B012C01611559
:10480000710581059105A9F12EC0C5010E94682C92
:104810000BC086E090E00E94F52B8C01009771F5AB
:10482000C5010E94682C33C00FEF1FEF30C080918C
:10483000AE04882309F0E2CEF7CFE60CF71CF701AF
:104840001082F30101900020E9F78F010150104020
:10485000061917090D30110508F068CF22CFA114F1
:10486000B10499F6E1CF0894811C911CEE24FF2439
:104870000DCF81E090E0019761F6C7CFFC01118276
:1048800010828DA19EA193838283B582A4820E940F
:10489000261CC801A6960FB6F894DEBF0FBECDBF8A
:1048A000DF91CF911F910F91FF90EF90DF90CF900C
:1048B000BF90AF909F908F907F906F905F904F9040
:1048C0003F902F9008958FEF9FEF08952F923F9282
:1048D0004F925F926F927F928F929F92AF92BF9210
:1048E000CF92DF92EF92FF920F931F93CF93DF93BC
:1048F0005C016B014A0129013801170181E090E058
:104900000E949615C0E0D0E07601850109C0F8014B
:1049100081918F010E948B15F70181937F01219670
:10492000C815D905A4F3C0E0D0E07301820109C025
:10493000F80181918F010E948B15F70181937F010E
:104940002196C215D305A4F30E94731580E090E070
:10495000DF91CF911F910F91FF90EF90DF90CF905B
:10496000BF90AF909F908F907F906F905F904F908F
:104970003F902F900895EF92FF920F931F93CF9344
:10498000DF93CDB7DEB722970FB6F894DEBF0FBE28
:10499000CDBF87ED89838FEF8A83EE24FF2400E06B
:1049A00010E020E030E042E050E0CE010196BC0192
:1049B0000E946624892B19F08FEF90E002C08A8153
:1049C000992722960FB6F894DEBF0FBECDBFDF91B8
:1049D000CF911F910F91FF90EF9008950F931F9328
:1049E0000E94BB240E94BB24082F60E070E020914D
:1049F0001405309115050EC06F5F7F4F80858023B1
:104A00009185891739F48AE0189F90011124275B5A
:104A10003C4F18C0162F462F5527FA01EE0FFF1FE7
:104A2000CA01A3E0880F991FAA95E1F7E80FF91FC3
:104A3000E75BFC4F80819181A281B3810097A10542
:104A4000B105D1F63093150520931405CA011F91C5
:104A50000F910895EF92FF920F931F93CF93DF93DF
:104A60007B018C01EA0119C0209731F461E070E00C
:104A700080E090E00E94D5310894E108F108010936
:104A800011098FEFE8168FEFF8068FEF08078FEF09
:104A9000180719F48FEF9FEF06C00E94BB2487FF11
:104AA000E3CF80E090E0DF91CF911F910F91FF90D5
:104AB000EF9008955F926F927F928F929F92AF9244
:104AC000BF92CF92DF92EF92FF920F931F93CF93FB
:104AD000DF93582E4A015B01E90138018701293033
:104AE00031051CF08FEF9FEF23C0A90160E070E05B
:104AF00086E195E00E94CD4D5092160581149104F7
:104B0000A104B10469F0C501AA27BB27809317054A
:104B1000BB27AB2D9A2D892D8093180580921905FE
:104B200076019301AE0166E175E0CB010E94662437
:104B3000DF91CF911F910F91FF90EF90DF90CF9079
:104B4000BF90AF909F908F907F906F905F900895EF
:104B50008F929F92AF92BF92CF92DF92EF92FF928D
:104B60000F931F93CF93DF934B015C018A0169017F
:104B7000C9010E94B949EC01009719F40FEF1FEF2A
:104B800036C07C0124E030E040E050E060E070E0BE
:104B900084E80E945A25892B29F5E0911405F091AB
:104BA0001505068004C0880C991CAA1CBB1C0A941D
:104BB000D2F7CC24DD24EE24FF2400E010E024E032
:104BC00030E0B501A40183E80E945A25892B51F4F5
:104BD00041E050E068EE73E080E090E00E942A251A
:104BE0008C0102C00FEF1FEFCE010E94B649C80131
:104BF000DF91CF911F910F91FF90EF90DF90CF90B9
:104C0000BF90AF909F908F900895CF92DF92EF92D8
:104C1000FF920F931F93E0911405F0911505068004
:104C200004C0660F771F881F991F0A94D2F7690185
:104C30007A018A0128E030E0AB01BC0188EE0E94D5
:104C40005A251F910F91FF90EF90DF90CF9008951C
:104C5000CF92DF92EF92FF920F931F93AA27BB2769
:104C6000CC24DD24EE24FF2400E010E024E030E03A
:104C7000AC01BD0181E80E945A251F910F91FF9060
:104C8000EF90DF90CF900895609570958095909506
:104C900020911E0530911F0540912005509121055E
:104CA000262337234823592320931E0530931F05BD
:104CB000409320055093210580E090E00895AF9245
:104CC000BF92CF92DF92EF92FF920F931F93CF93F9
:104CD000DF93CDB7DEB722970FB6F894DEBF0FBED5
:104CE000CDBF9B015A01492F552749838A83CC2484
:104CF000DD247601850142E050E0BE016F5F7F4F09
:104D000087E50E94C9438A159B0519F480E090E06D
:104D100002C08FEF9FEF22960FB6F894DEBF0FBE52
:104D2000CDBFDF91CF911F910F91FF90EF90DF905A
:104D3000CF90BF90AF900895AF92BF92CF92DF9285
:104D4000EF92FF920F931F93CF93DF93CDB7DEB710
:104D500022970FB6F894DEBF0FBECDBF9B015A015C
:104D600019828A83CC24DD2476018A0142E050E056
:104D7000BE016F5F7F4F8FE60E94C9438A159B0576
:104D800019F480E090E002C08FEF9FEF22960FB6FB
:104D9000F894DEBF0FBECDBFDF91CF911F910F9171
:104DA000FF90EF90DF90CF90BF90AF9008950F935A
:104DB0001F93CF93DF93CDB7DEB721970FB6F8944B
:104DC000DEBF0FBECDBF8C0141E050E0BE016F5F82
:104DD0007F4F8FE30E949C26892BE9F489819927D4
:104DE000AA27BB2720911E0530911F054091200561
:104DF00050912105822B932BA42BB52B80931E055C
:104E000090931F05A0932005B0932105F80180839E
:104E10009183A283B38380911E0590911F052196F3
:104E20000FB6F894DEBF0FBECDBFDF91CF911F91BB
:104E30000F910895CF93DF93CDB7DEB724970FB6C8
:104E4000F894DEBF0FBECDBF80E00E94C542009740
:104E500021F4CE0101960E94D72624960FB6F8942D
:104E6000DEBF0FBECDBFDF91CF910895EF92FF92CD
:104E70000F931F93CF93DF93CDB7DEB728970FB66D
:104E8000F894DEBF0FBECDBF8C0148E050E0BE01FC
:104E90006F5F7F4F80E30E949C267C01892B09F085
:104EA00073C02981822F82958F706AE0869FC0012E
:104EB00011242F70820F911DD8018D939C932A810C
:104EC000822F82958F70869FC00111242F70820FD0
:104ED000911DF801938382832B813327C9018F733E
:104EE0009070B4E095958795BA95E1F7AC01A3E091
:104EF000440F551FAA95E1F7880F991F840F951F3E
:104F00002F703070820F931F958384832C81822FA2
:104F100082958F70869FC00111242F70820F911D82
:104F2000978386832D81822F82958F70869FC00103
:104F300011242F70820F911D0197918780878E8198
:104F4000282F22952F70269FA001112499278F705A
:104F500090708C599F4F480F591F5387428728855F
:104F6000822F82958F70869FC00111242F70820F2F
:104F7000911D4A9724F04C595F4F538742878F8188
:104F80009927F80195878487C70128960FB6F8946A
:104F9000DEBF0FBECDBFDF91CF911F910F91FF906C
:104FA000EF900895AF92BF92CF92DF92EF92FF926F
:104FB0000F931F93CF93DF93CDB7DEB723970FB631
:104FC000F894DEBF0FBECDBF19822FE32A835E01A6
:104FD0000894A11CB11C892BA1F082E08B83CC2406
:104FE000DD24760100E010E020E030E043E050E016
:104FF000B5018FE60E94C943009789F486E08B8350
:1050000006C01B82CC24DD24760100E010E020E005
:1050100030E043E050E0B5018FE60E94C94323969B
:105020000FB6F894DEBF0FBECDBFDF91CF911F91B9
:105030000F91FF90EF90DF90CF90BF90AF900895C9
:10504000AF92BF92CF92DF92EF92FF920F931F9396
:10505000CF93DF93CDB7DEB721970FB6F894DEBFBD
:105060000FBECDBF13E1A12EB12C0FC061E070E0E7
:1050700080E090E00E94D5310894A108B108A11405
:10508000B10419F48FEF9FEF14C0CC24DD24760116
:1050900001E010E09E012F5F3F4F40E050E060E0F4
:1050A00070E087E50E94C9438F5F9F4FF9F280E06F
:1050B00090E021960FB6F894DEBF0FBECDBFDF9112
:1050C000CF911F910F91FF90EF90DF90CF90BF9005
:1050D000AF9008952F923F924F925F926F927F927E
:1050E0008F929F92AF92BF92CF92DF92EF92FF92F8
:1050F0000F931F93CF93DF933C014A012B0100E0F4
:1051000010E046C0C3018F73907020E430E0281B8C
:10511000390B54012815390508F4590182E0282E6D
:10512000312C2A0C3B1CC1010E94B949EC01892B8E
:10513000A1F1872D992788836982A501B201CE014B
:1051400002960E94C44D81E090E00E94D2278C011B
:10515000892B31F5CC24DD24760100E010E020E03D
:1051600030E0A101BE0187E50E94C9438C01CE0158
:105170000E94B64901151105B1F40E9420288C0146
:10518000892B89F48A189B086A0C7B1C4A0C5B1CCF
:105190008114910409F0B6CF06C00FEF1FEF03C0D2
:1051A000CE010E94B64980E090E00E94D227C8015B
:1051B000DF91CF911F910F91FF90EF90DF90CF90F3
:1051C000BF90AF909F908F907F906F905F904F9027
:1051D0003F902F9008958F929F92AF92BF92CF925F
:1051E000DF92EF92FF920F931F93CF93DF934C01C7
:1051F0005B01EA0181E090E00E94D2278C01892BBB
:10520000C1F4CC24DD24760100E010E020E030E0A1
:10521000AE01B5018FE60E94C9438C01892B29F4A8
:10522000892819F00E9420288C0180E090E00E94DB
:10523000D227C801DF91CF911F910F91FF90EF907E
:10524000DF90CF90BF90AF909F908F900895EF9296
:10525000FF920F931F93CF93DF93CDB7DEB72A97BB
:105260000FB6F894DEBF0FBECDBF8B017A012AE0E6
:10527000FE01319611922A95E9F723E0880F991FD4
:105280002A95E1F78A836115710509F47AC040FF18
:1052900012C0FB0140815181842F6AE00E940E4EB2
:1052A000282F2295207FCA016AE070E00E942E4ECE
:1052B000280F20682B83E1FE12C0F8014281538140
:1052C000842F6AE00E940E4E282F2295207FCA016B
:1052D0006AE070E00E942E4E280F20682C83E2FEC8
:1052E00012C0F80144815581842F6AE00E940E4E5D
:1052F000282F2295207FCA016AE070E00E942E4E7E
:10530000280F20682D83E3FE12C0F80146815781E3
:10531000842F6AE00E940E4E282F2295207FCA011A
:105320006AE070E00E942E4E280F20682E83E4FE73
:1053300014C0F80140855185842F8F5F6AE00E9478
:105340000E4E282F2295207FCA0101966AE070E058
:105350000E942E4E280F20682F83E7FE12C0F8010E
:1053600044855585842F6AE00E940E4E282F229591
:10537000207FCA016AE070E00E942E4E280F20684C
:1053800029874AE050E0BE016F5F7F4F81E090E0E7
:105390000E94EB282A960FB6F894DEBF0FBECDBF51
:1053A000DF91CF911F910F91FF90EF9008950F9390
:1053B0001F93CF93DF93CDB7DEB762970FB6F89404
:1053C000DEBF0FBECDBF1A8309833C832B835E8370
:1053D0004D8378876F839A8789874FE150E0BE01BC
:1053E0006F5F7F4F81E090E00E94272962960FB6A1
:1053F000F894DEBF0FBECDBFDF91CF911F910F910B
:105400000895CF93DF93CDB7DEB762970FB6F894C8
:10541000DEBF0FBECDBF9E838D837C836B835A839B
:10542000498347E050E0BE016F5F7F4F80E090E02E
:105430000E94272962960FB6F894DEBF0FBECDBF3B
:10544000DF91CF910895EF92FF920F931F93CF9327
:10545000DF93CDB7DEB728970FB6F894DEBF0FBE47
:10546000CDBF7B018A01FA011182108292E1FB011A
:1054700011929A95E9F748E050E0BE016F5F7F4FC7
:10548000880F880F880F0E949C26BC01892B09F089
:10549000C6C0298127FF20C0F801808191818160E9
:1054A000918380833327C9018F779070F4E09595BD
:1054B0008795FA95E1F7AC01E3E0440F551FEA95B3
:1054C000E1F7880F991F840F951F2F703070820F9E
:1054D000931FF701918380832A8127FF20C0F80161
:1054E000808191818260918380833327C9018F7786
:1054F0009070A4E095958795AA95E1F7AC01F3E04B
:10550000440F551FFA95E1F7880F991F840F951FD7
:105510002F703070820F931FF701938382832B814A
:1055200027FF20C0F801808191818460918380836E
:105530003327C9018F77907044E0959587954A95F8
:10554000E1F7AC01B3E0440F551FBA95E1F7880FBE
:10555000991F840F951F2F703070820F931FF701D2
:10556000958384832C8127FF20C0F801808191815D
:105570008860918380833327C9018F779070F4E02E
:1055800095958795FA95E1F7AC01E3E0440F551F37
:10559000EA95E1F7880F991F840F951F2F703070DF
:1055A000820F931FF701978386832D8127FF21C0E8
:1055B000F801808191818061918380833327C901C3
:1055C0008F779070A4E095958795AA95E1F7AC0147
:1055D000F3E0440F551FFA95E1F7880F991F840FE8
:1055E000951F2F703070820F931F0197F7019187DD
:1055F00080873F8137FF13C0F801808191818068E7
:1056000091838083832F82958F702AE0829FC001CF
:1056100011243F70830F911DF70195878487CB017B
:1056200028960FB6F894DEBF0FBECDBFDF91CF91A5
:105630001F910F91FF90EF9008950F931F93CF93B9
:10564000DF93CDB7DEB72A970FB6F894DEBF0FBE53
:10565000CDBF8C018AE0FE01319611928A95E9F75F
:105660000115110509F481C080E38A83F8014081A6
:105670005181842F6AE00E940E4E282F2295207FB0
:10568000CA016AE070E00E942E4E280F2B834281EF
:105690005381842F6AE00E940E4E282F2295207F8E
:1056A000CA016AE070E00E942E4E280F2C834481CC
:1056B0005581842F6AE00E940E4E282F2295207F6C
:1056C000CA016AE070E00E942E4E280F20682D83E8
:1056D00046815781842F6AE00E940E4E282F229522
:1056E000207FCA016AE070E00E942E4E280F2E83B0
:1056F00040855185842F8F5F6AE00E940E4E282FCF
:105700002295207FCA0101966AE070E00E942E4E29
:10571000280F2F8342855385443651059CF0842FF2
:1057200084566AE00E940E4E282F2295207FCA01DF
:10573000845690406AE070E00E942E4E280F288721
:1057400080E20FC0842F6AE00E940E4E282F22951F
:10575000207FCA016AE070E00E942E4E280F288741
:1057600089E18A87F801848589874AE050E0BE0193
:105770006F5F7F4F80E090E00E94EB282A960FB683
:10578000F894DEBF0FBECDBFDF91CF911F910F9177
:1057900008958093AC0308950E94533320E033E0D2
:1057A00040E050E06FE577E087EA93E00E94C7367B
:1057B0008EEF0E94F92F0E947D300E94C42F20910D
:1057C000AC032F3FC1F393B783B7817F822B83BF95
:1057D00083B7816083BF889583B78E7F83BF83B78C
:1057E000817F9E70892B83BFE6CF0F931F93CF934A
:1057F000DF9300912305109124058017910730F065
:1058000080E090E060C0EF01DB012FC0AC014A5F97
:105810005F4F4430510510F444E050E0E091DD0763
:10582000F091DE076DED77E0C0E0D0E0A0E0B0E001
:1058300017C0208131812417350760F02417350700
:1058400011F3209729F0888199812817390710F4DE
:10585000EF01DB01BF016E5F7F4F0280F381E02D1E
:10586000309739F7CE01209771F128813981CA012B
:105870000A966A817B818217930770F4FE01E40F18
:10588000F51F241B350B3183208373836283598377
:105890004883ED93FC9302C06D937C93E881F9817A
:1058A0000E1B1F0B1093240500932305EC0FFD1F07
:1058B00034978FEE9EEBADEABEED80839183A28399
:1058C000B383CE010296DF91CF911F910F9108957E
:1058D000CF93DF93DC0112976D917C911197E0914A
:1058E000DD07F091DE07CDEDD7E03AC04081518170
:1058F000CF01840F951F8A179B07C1F49A01260FC9
:10590000371F3183208382819381DF01A20FB31F70
:10591000A817B90791F58D919C911197280F391F00
:1059200031832083ED018A819B8125C0AE17BF079B
:1059300078F4B983A8832D913C911197CD01820F02
:10594000931F8E179F0779F0ED01FB83EA8315C043
:10595000A817B90728F1EF0122960280F381E02D04
:10596000309721F617C0240F351F11963C932E93C4
:1059700082819381FD01938382838091230590919D
:105980002405860F971F909324058093230580E0BC
:1059900090E008C0FD0113821282B983A883EDCF85
:1059A0008FEF9FEFDF91CF910895FC016193719389
:1059B000CF010E94682C08958091230590912405C1
:1059C00008950F931F93CF93DF938C010E94F52BC3
:1059D000EC01009729F0A80160E070E00E94CD4D35
:1059E000CE01DF91CF911F910F91089580912E05E7
:1059F00090912F059093330580933205909336054F
:105A000080933505109234051092370522E02093DB
:105A1000FFFF21E02093250510922A0510922B0507
:105A200010922C0510922D05089580E090E8909337
:105A30002F0580932E0580E090EC909331058093A4
:105A4000300580E090E8A7E0B0E0809326059093D1
:105A50002705A0932805B09329050E94F62C0895E8
:105A6000FC0180912505882389F49091340580916B
:105A70003705981759F420913205309133058091FC
:105A80003505909136058217930740F480913005D3
:105A9000909131052091320530913305821B930B93
:105AA00091838083809134058E5F8093FFFF809186
:105AB0003205909133050895FC01809125058823D6
:105AC00019F01182108227C090913405809137051A
:105AD000981759F42091350530913605809132059B
