:100000000C946E040C94E0040C94E0040C94E00452
:100010000C94E0040C9421310C94E0040C94DD3138
:100020000C94E0040C94E0040C94E0040C94E004C0
:100030000C94E0040C94C9320C94E0040C94E00499
:100040000C94E0040C94E0040C94E0040C94E004A0
:100050000C94E0040C94E0040C94E0040C945332EF
:100060000C94E0040C94413E0C94E0040C94BC3ECF
:100070000C94E0040C94E0040C94E0040C94E00470
:100080000C94E0040C94E0040C94E0040C94E00460
:100090000C94363F0C94E0040C94B13F0C94C73D93
:1000A0000C94E0040C94E0040C94E0040C94E00440
:1000B0000C94E0040C94E0040C94E0040C94E00430
:1000C0000C94E0040C94E0040C94E00444348D346B
:1000D000D434FA340E3536353E3563354134853502
:1000E000CC35D235D835DE35FB35E435FB35313608
:1000F00006361B365254432074696D65205B2530EB
:1001000032643A253032643A253032645D00486505
:100110006C6C6F20576F726C64007700756172743D
:1001200030000A000A23446562756720000A2349EB
:100130006E666F2020000A234E6F74696320000AE8
:10014000235761726E2020000A23457272202020FE
:10015000000A23437269742020000A23416C6572EF
:100160007420000A23456D65726720003F3F203CE4
:10017000444D4B3E200057443A200056533A20004D
:1001800056453A200055543A200055443A2000552F
:10019000413A200053523A200053503A200053472E
:1001A0003A200053453A200053543A200052543A22
:1001B000200052433A2000504C3A200050413A204F
:1001C000004D443A20004D4D3A20004D453A200064
:1001D00053593A20004C473A20004C453A20004BF6
:1001E000423A2000494E3A200048543A2000464CFA
:1001F0003A200046413A200044503A2000434D3A0C
:10020000200043483A200041553A20003080300019
:10021000170780B0173C06001750003F2400060067
:10022000162012008F570000CE10122900990000EE
:100230004D0080404C180600D7960028550D000050
:10024000480D0600505B0930420080B00180144226
:1002500040BC182840C71336423C003E03B8140087
:10026000031B1500C259D66F2400003603981228CC
:10027000D55700004D000028402BF33624004C8059
:10028000103E1438103E0A78133E0DB8033E05F8B0
:1002900006009555093015141B00D4FF0300CEFF4E
:1002A00001000A000024CE168AB5240092F20094C0
:1002B0005261240002FE2400B24824004A4501B6DF
:1002C000F33605D8F3360D98F0360A5800200000B2
:1002D000F0361418618013362400123E17B8123E0F
:1002E0001538053E14B82536240000000A80103E5B
:1002F00003B8944105B8113E2400113E07B8143EDE
:100300001278143E0DF8033E0EF806005100002846
:10031000D5240000240088B81200046405040000FD
:1003200024000028582194402400002402210000C9
:1003300024009864030856FE2400B6482400D64DD5
:100340002400103A24C0F03224C056FE2400B648DF
:100350002400D64D24008443834496638C8800F4A3
:10036000D540003D2480060091003F00C3FE0600FA
:1003700053000131248060FE2400BE48240034A6CE
:10038000030C244324008442022C060011000028A0
:10039000D824003124800600115000392480060042
:1003A000110000314C9884424C9000F488400028A1
:1003B000452800002400F03C40380930413809301D
:1003C000103800200000000088270930D01B0028CA
:1003D00080280930811BF334CC1BF3360ED8F43659
:1003E0000DD8F4361258F1360798F1360518F03664
:1003F000039805341490F3362400F23615180020C3
:100400000000F2361798AD80123E17B8123E15382C
:10041000053E14B81536240000000A80103E02780C
:10042000103E04F8113E1078143E1278132980C94A
:10043000143E24C0132980C988404C1800F405409C
:100440000000C018006424000000C01B0028953084
:10045000300010030028803F01382440006424004D
:100460000000401A002855370600D0550000037DD3
:1004700084B84C1809300538093000008AFF240080
:100480001D29007BB24824000000411806001050CE
:100490008A4044B800290013884024000030CC1B57
:1004A00014602400300051030028D53600002400D9
:1004B00006001100003124003000510300382400F0
:1004C0000028803F01392440006424003000D0031C
:1004D0000028553F0000037D0600D05584B84C1815
:1004E00009300538093000008AFF24001D29007BEF
:1004F000B24824008A40CC9B000041180028553B9C
:10050000060010509A682400003024001460240073
:10051000300092030028853E06009100060011007D
:10052000000052180600530080B800240600910015
:100530000438248030009203003B24000139244019
:100540000028803F013A24400138244080B8D31B62
:10055000F4361258F1361058F03604D8F0360258F6
:1005600005341490F3362400F236151800200000EC
:10057000F2361798300000000000457869740000DA
:10058000000053EF6E000000004578697453EF6E71
:100590004DEA6D5400000000070606060606060632
:1005A00006060606060606060606060606060606EB
:1005B00006060606060606060606060606060606DB
:1005C00006060606060606060606060606060606CB
:1005D00006070606060606060606060606060606BA
:1005E00006060606060606060606060606060606AB
:1005F000060606060606060606060606070606069A
:10060000060606060606060606060606060606068A
:10061000060606060606060606060606060606067A
:10062000060606060606060606060606060606066A
:10063000060606060606060606060606060606065A
:10064000060606060606060606060606060606064A
:10065000060606060606060606060606060606063A
:10066000060606060606060606060606060606062A
:10067000060606060606060606060606060606061A
:10068000060606060606060606060606060606060A
:1006900006060606060706060606060606060606F9
:1006A00006060606060606060606060606060606EA
:1006B00006060606060606060606060606060606DA
:1006C00006060606060606060606060606060606CA
:1006D00006060606060606060606060606060606BA
:1006E00006060606060606060606060606060606AA
:1006F000060606060606060606060606060606069A
:100700000606060606060606060606060606060689
:100710000606060606060606060606060606060679
:100720000606060606060606060606060606060669
:100730000606060606060606060606060606060659
:10074000060606060606060606060606065468722D
:10075000656164206661696C656400436172645020
:1007600072657300436172642072656D6F766564B3
:10077000004361726420696E73657274656400453C
:1007800072726F7220696E697469616C6973696EE7
:10079000672046696C652073797374656D20616E9E
:1007A0006420436172642D647269766572004361EE
:1007B0007264206D6F756E74656400696E76616C2D
:1007C0006964205370656564006572726F7220649D
:1007D0007572696E6720435344207265616400003E
:1007E0000000000000000000000000000000000009
:1007F00000000000000000000000000000000000F9
:1008000000000000000000000000000000000000E8
:1008100000000000000000000000000000000000D8
:1008200000000000000000000000000000000000C8
:1008300000000000000000000000000000000000B8
:1008400000000000000000000000000000000000A8
:100850000000000000000000000000000000000098
:100860000000000000000000000000000000000088
:100870000000000000000000000000000000000078
:100880000000000000000000000000000000000068
:100890000000000000000000000000000000000058
:1008A0000000000000000000000000000000000048
:1008B0000000000000000000000000000000000038
:1008C0000000000000000000000000000000000028
:1008D00000000000000000000000000084E8809399
:1008E0007400479A3F9A469A3E9A81EE809300C3DD
:1008F00080E4809301C385B78F7785BF80E090E067
:10090000359B05C0019641F0359BF8CFFBCF019692
:1009100019F03599F3CFFBCF85B7806885BF47982D
:100920003F9846983E9887E08093C4008093CC001F
:1009300011241FBECFEFD1E2DEBFCDBF13E0A0E098
:10094000B2E0ECE1FEE800E00BBF02C007900D92C0
:10095000AA38B107D9F717E0AAE8B3E001C01D92A1
:10096000A431B107E1F78FEF9FE79EBF8DBF8FEFF7
:100970009FE7845197408158914040F06FEF7EE7A8
:100980006451774084E197E00E94AF250E94722E67
:10099000892B41F064EC72E08AEF96E00E946B468E
:1009A0000E94592E20E831E040E050E066EA74E20F
:1009B0008DEC92E00E94A12F0E9400000C940D4744
:1009C0000C94000087EF84B98CE08AB98BB18C70ED
:1009D000836F8BB98EE88DB98EB18E7881608EB9B8
:1009E00085B7806885BF85B7806885BF8EE080BB8E
:1009F00081B38E70816F81BB88E183BB08951F93A3
:100A0000CF93DF93CDB7DEB762970FB6F894DEBF12
:100A10000FBECDBF0E943D0D84E60E949D290E941D
:100A2000E2040E94DF0E0E9454080E942E090E94D8
:100A300003060E94B7050E942E088EE091E09F9366
:100A40008F9316EC1F930E94EE060E94C30D0E9426
:100A50006720CE0101960E9483200F900F900F9087
:100A6000892BD9F489819A819F938F938B819C8163
:100A70009F938F938D819E819F938F9384EF90E0BE
:100A80009F938F931F930E94EE068DB79EB7099692
:100A90000FB6F8949EBF0FBE8DBF0E943B1E0E94F2
:100AA000CF0C0E94B60840E050E06CE775E084EEA1
:100AB00092E00E949C2E892B49F485B5846085BD07
:100AC000A89A80916E00816080936E0081E00E9400
:100AD000D328789464E670E080E090E00E94AF2A2A
:100AE0000E9499088F3F11F081E001C080E00E94D0
:100AF000EA080E943B0DEECF0E945C080E946A0D3E
:100B0000089580918A0390918B03089580918A03C0
:100B100090918B03009731F00E94574010928B0305
:100B200010928A030895CF93DF93CDB7DEB7249751
:100B30000FB6F894DEBF0FBECDBF69837A838B8377
:100B40009C8380918A0390918B030E94A840AE0100
:100B50004F5F5F4F63E171E00E94ED3F24960FB657
:100B6000F894DEBF0FBECDBFDF91CF910895EF9215
:100B7000FF920F931F93CF93DF93CDB7DEB72D97DF
:100B80000FB6F894DEBF0FBECDBF80E092ECA1E0BF
:100B9000B0E08C839D83AE83BF8388E0E82EF12C88
:100BA000EC0EFD1E6CE171E0C7010E941D466AE17A
:100BB00071E08E010F5F1F4FC8010E941D464091DA
:100BC000330350913403B801C7010E940841909348
:100BD0008B0380938A03009749F00E94A840AE01DE
:100BE0004C5F5F4F61E071E00E94ED3F2D960FB6C4
:100BF000F894DEBF0FBECDBFDF91CF911F910F9153
:100C0000FF90EF90089510928B0310928A0340E0BA
:100C100060E070E080EF92E00E942D2E08959091A8
:100C20008C03883010F480938C03892F99270895C2
:100C30002F923F924F925F926F927F928F929F92EC
:100C4000AF92BF92CF92DF92EF92FF920F931F93DA
:100C5000CF93DF93CDB7DEB7CD54D0400FB6F89425
:100C6000DEBF0FBECDBF7C016B011A01892B09F4D9
:100C70008EC094E0692E712C44245524AA24BB24F0
:100C8000A0E0B0E000E010E07EC0C5018F70907081
:100C9000892B69F54DE450E060E270E08E010F5F52
:100CA0001F4FC8010E9450469301220F331F220F8D
:100CB000331F2450304040E050E0D801F201022EB2
:100CC00002C0F695E7950A94E2F7EF70F070E050F5
:100CD000FE4F80818D934F5F5F4F2450304046150B
:100CE000570561F7D301129683010C5C1F4FF60183
:100CF0009081E92FE295EF70FF27E050FE4F508181
:100D00004D010894811C911CE92FFF27EF70F070B2
:100D1000E050FE4F4081892F80528F3510F08EE2D7
:100D200001C0892F9E012F5F3F4FA20FB31F5C931D
:100D3000F901E80DF91D4083F901E00FF11F8083EF
:100D40000F5F1F4F0894A11CB11CC5018F709070DC
:100D5000892B19F0A214B30489F4F901E00FF11FF3
:100D60001082B701C9010E949B41B7018AE090E05F
:100D70000E94734180E190E0480E591E0894C11C06
:100D8000D11CD4011296A214B30409F07ECFC35B28
:100D9000DF4F0FB6F894DEBF0FBECDBFDF91CF910E
:100DA0001F910F91FF90EF90DF90CF90BF90AF9089
:100DB0009F908F907F906F905F904F903F902F907B
:100DC000089560918D0370918E036115710529F06E
:100DD000992787FD90950E94734108951F93CF93A3
:100DE000DF93CDB7DEB722970FB6F894DEBF0FBE04
:100DF000CDBF198560918D0370918E0361157105CA
:100E000009F410C1212F33272770307080918C0393
:100E10009927821793070CF405C1812F87708330BF
:100E2000F1F0843028F48130A1F08230A8F40EC0B3
:100E30008530D9F08530B0F08630D1F0873019F4A4
:100E400084E291E017C082E291E014C083E691E071
:100E500011C08AE591E00EC081E591E00BC088E405
:100E600091E008C08FE391E005C086E391E002C005
:100E70008DE291E00E94AC4160918D0370918E03F0
:100E8000212F287F283709F4AAC0293790F5283365
:100E900009F499C02933B0F4283109F48EC02931FE
:100EA00038F4283009F486C0203109F053C055C009
:100EB000283209F485C0203309F455C0203209F0E6
:100EC00049C04EC0283509F484C0293548F4283477
:100ED00009F47CC0203509F44CC02034D9F546C053
:100EE000283609F479C0203709F449C0203691F535
:100EF00043C0283B09F47FC0293BA8F4283909F4F2
:100F000074C0293940F4283809F46CC02039E9F15B
:100F1000203801F537C0283A09F46AC0203BD9F1DE
:100F2000203AC1F435C0283D09F46BC0293D40F496
:100F3000283C09F463C0203DA1F1203C59F42EC0A7
:100F4000283E29F0203F99F1203E21F42DC086E76C
:100F500091E059C08CE691E056C087E092E053C022
:100F600082E092E050C08DEF91E04DC088EF91E0BB
:100F70004AC083EF91E047C08EEE91E044C089EE15
:100F800091E041C084EE91E03EC08FED91E03BC026
:100F90008AED91E038C085ED91E035C080ED91E0BB
:100FA00032C08BEC91E02FC086EC91E02CC081EC3C
:100FB00091E029C08CEB91E026C087EB91E023C043
:100FC00082EB91E020C08DEA91E01DC088EA91E0BB
:100FD0001AC083EA91E017C08EE991E014C089E954
:100FE00091E011C084E991E00EC08FE891E00BC060
:100FF0008AE891E008C085E891E005C080E891E0CA
:1010000002C08BE791E00E94AC41AE01445F5F4FAC
:101010005A8349836A857B8580918D0390918E03E5
:101020000E94C04122960FB6F894DEBF0FBECDBF1E
:10103000DF91CF911F91089580918D0390918E0340
:1010400010928E0310928D030E94974008950E9483
:10105000810590938E0380938D03089587E080939C
:101060008C030E9427080895833059F0843018F4C7
:10107000882339F008C0853031F0853040F0863063
:1010800091F48B9801C08B9A80938F03089580917F
:101090008F03813021F48B9810928F0308958B9ADF
:1010A00081E080938F0308958B9810928F030895A9
:1010B00080918F0399270895A398000000004FB1F5
:1010C000A39AA498000000006FB1A49A5B98000056
:1010D00000008FB15B9A5A98000000002FB15A9A15
:1010E00042954F705527607F7727462B572B807F7F
:1010F000992734E0880F991F3A95E1F7482B592B2F
:10110000207F3327322F2227422B532B50939303D8
:1011100040939203409394030895E82F862F8150C3
:10112000823030F4E03120F4FF27E856FC4F608332
:101130000895809194039927089580939403E091F2
:101140009003F0919103309739F48FEF9FEF9093D4
:1011500091038093900308958FEFEF3FF80729F0F4
:10116000848195810196958384830895A39AA49A96
:101170005B9A5A9A109297038FEF9FEF9093930385
:10118000809392030FB6F8940F92109291031092ED
:1011900090030F900FBE8FEF80939403E8E9F3E084
:1011A00082E0819393E0E83AF907D9F71092960329
:1011B000109295030895AB01BC0180E993E00E9471
:1011C000972D20E030E08F5F9F4F11F421E030E059
:1011D000C9010895813011F4739A0895882309F4A0
:1011E000739808959AB19F70906F9AB99BB19F7050
:1011F000607F962B9BB9823011F48A9801C08A9A3D
:10120000729A0000000072988A988AB18F708AB929
:101210008BB18F70806F8BB908950F931F93082F38
:10122000162F8A98899A729A000000004F99FBCF76
:1012300072988A988998612F607F802F0E94F208A7
:101240001295107F612F802F0E94F2081F910F913D
:101250000895682F83E00E940D0908951F938CE87C
:101260000E949D2910E063E382E00E94F20884E07E
:101270000E949D291F5F1330B1F762E282E00E9455
:10128000F20881E00E949D2968E282E00E940D0937
:1012900085E00E949D296CE082E00E940D0985E0B6
:1012A0000E949D2961E082E00E940D0985E00E9474
:1012B0009D2966E082E00E940D0960E882E00E94BC
:1012C0000D091F9108950FB6F8940F929DB38823CE
:1012D00011F0EE9A01C0EE980F900FBE892F99275A
:1012E00026E0969587952A95E1F78170907008958C
:1012F00080E00E946309982F8091A803813011F447
:101300001092A803892F0E94630980E090E008955D
:101310008091A803992708958091A9039091AA0329
:1013200008958091A9039091AA0308950F931F93A4
:10133000CF93DF93EC018B0180E090E00E94E30EFD
:1013400005C0FE0184910E94CB0E219601501040F1
:10135000FFEF0F3F1F07A9F70E94C00EDF91CF914B
:101360001F910F9108951F9380E00E946309182F29
:1013700064E070E08AE795E00E94960964E070E01E
:1013800086E795E00E949609812F0E94630980E01C
:1013900090E01F9108950F931F93CF93DF938C01DB
:1013A000EB0180E090E00E94E30E05C0F80181911E
:1013B0008F010E94CB0E2197FFEFCF3FDF07B1F7E0
:1013C0000E94C00EDF91CF911F910F910895EF926F
:1013D000FF920F931F93F82E8B010E94C70EE82EE9
:1013E00080E00E94C40E80E090E00E94E30E2C9802
:1013F00082E00E94CB0E8F2D0E94CB0E812F992769
:101400000E94CB0E802F0E94CB0E2C9A0E94C00E01
:101410008E2D0E94C40E1F910F91FF90EF900895A2
:10142000DF92EF92FF920F931F93082FE62E80E03A
:101430000E946309D82E1127102F0027FF240E29A0
:101440001F29B8018BE00E94E7098D2D0E946309D6
:1014500080E090E01F910F91FF90EF90DF90089552
:10146000FF920F931F938C0180E00E946309F82E76
:101470001C60B80180E00E94E7098F2D0E9463097B
:1014800080E090E01F910F91FF9008951F93CF93FC
:10149000DF93CDB7DEB721970FB6F894DEBF0FBE4E
:1014A000CDBF898380E00E946309182F80E290E01D
:1014B0000E94300A63E070E082E895E00E9496099D
:1014C00061E070E0CE0101960E94CB0964E070E01B
:1014D0008EE795E00E949609812F0E94630980E0C3
:1014E00090E021960FB6F894DEBF0FBECDBFDF911E
:1014F000CF911F910895282F332727703070C9018D
:1015000053E0880F991F5A95E1F7820F931F885C6B
:101510000E94460A0895DF92EF92FF920F931F9365
:10152000CF93DF93CDB7DEB721970FB6F894DEBF28
:101530000FBECDBF89837B0180E00E946309D82E56
:1015400080E290E00E94300A89818295807F885CE9
:10155000898363E070E08DE895E00E94960961E080
:1015600070E0CE0101960E94CB0905E815E064E029
:1015700070E0C8010E9496098E2D0E949D2964E0AA
:1015800070E089E895E00E94960964E070E0C80187
:101590000E9496098D2D0E94630980E090E02196BB
:1015A0000FB6F894DEBF0FBECDBFDF91CF911F9174
:1015B0000F91FF90EF90DF9008950F931F938C0190
:1015C00080E00E9463091092A803C80184600E9411
:1015D000300A8AE00E949D2980E48CBB80E090E084
:1015E0001F910F910895DF92EF92FF920F931F9337
:1015F000182F0E94C70ED82E80E00E94C40E80E0F3
:1016000090E00E94E30E2C9883E00E94CB0E812F85
:101610000E94CB0E0E94D00EE82EFF24FE2CEE245A
:101620000E94D00E082F2C9A0E94C00E8D2D0E9471
:10163000C40E1127C701802B912B1F910F91FF9092
:10164000EF90DF900895FF920F931F9380E00E9428
:101650006309F82E8BE00E94F30A8C018F2D0E9403
:101660006309C8011F910F91FF900895FF920F9396
:101670001F93182F80E00E946309F82E812F0E948B
:10168000F30A8C018F2D0E946309C8011F910F91ED
:10169000FF90089589E00E94360B9C018FEF213E58
:1016A000380790F58DE424353807A1F18DE4253510
:1016B000380768F481E424353807F9F08DE42433E1
:1016C0003807D9F081E42434380709F516C087E5D6
:1016D0002D363807F9F087E52E36380728F487E5E8
:1016E0002D343807A1F409C086E72536380729F0DC
:1016F0008FEF203E380759F40DC08091A9039091D7
:10170000AA03039739F403C020EE3FEF03C080E043
:1017100090E00895C901089580E00E9463092F9820
:101720002C9A2898209A84E00E949D2980E00E94AB
:10173000C40E1092A8032F9A84E00E949D2981E094
:101740000E94F30A74E0969587957A95E1F7877081
:1017500090709093AA038093A903039719F460E013
:1017600070EE02C060E078E983E00E94E70982E35E
:101770000E949D2980E090E00E94300A60E080E0B5
:101780000E94100A82E30E949D298091A9039091F2
:10179000AA030397029710F482E001C081E00E943F
:1017A000C40E40E050E064EE7BE08EED92E00E94DB
:1017B0009C2E66E070E08EED92E00E941A2F80E48D
:1017C0008CBB80E090E00895BF92CF92DF92EF92C1
:1017D000FF920F931F93CF93DF93CDB7DEB722977E
:1017E0000FB6F894DEBF0FBECDBF8091A803813045
:1017F00009F04FC0669B4DC080E00E946309B82E7F
:1018000078941A82198280E090E00E94E30EF0E260
:10181000EF2EF12C00E010E0CC24DD2403C0EFE13A
:10182000EE2EF12C89819A81C816D906C0F0C11418
:10183000D10419F0C6010E94B726CE0101960E947C
:1018400036268C0189819A81892B19F0CC24DD24DC
:1018500008C082E08093A803CC24DD2412C0892B29
:1018600041F0F80181918F010E94CB0E0894C11CB8
:10187000D11C6699D4CF0894E108F108E114F10471
:1018800089F60E94C00EC6010E9454278B2D0E942B
:10189000630922960FB6F894DEBF0FBECDBFDF916D
:1018A000CF911F910F91FF90EF90DF90CF90BF905D
:1018B00008950F931F93CF93DF938091A8038130F6
:1018C00009F435C080E00E946309CCE0D2E0FE015B
:1018D00065917491E8E9F5E0E4918E2F0E94E709A3
:1018E00000E010E011C0FE0165917491F801E85626
:1018F000FA4FE4918E2F0E94E709C80164EF71E06E
:101900000E94B146892B11F40E943B0D0F5F1F4FBF
:10191000229681E0053B180731F781E08093A80308
:1019200080E090E00E94E40B81E00E94630980E087
:1019300090E0DF91CF911F910F9108951F93CF9366
:10194000DF9380E090E00E94DD0A80E290E00E9458
:10195000300A80E00E946309182F68E070E080E997
:1019600095E00E94960988E20E949D2988E00E94E5
:10197000F30AEC01812F0E9463098091A9039091E1
:10198000AA03039731F480E8CF37D80711F4C0E0F9
:10199000D0E0CE01DF91CF911F91089508958091FD
:1019A0006A008C7F80936A0040E050E06EEC7CE03F
:1019B00088ED92E00E949C2E892B31F480916A0080
:1019C000826080936A00EC9A8091810083608093AA
:1019D0008100AD9A0FB6F8940F921092AC0310925A
:1019E000AB030F900FBE0895EF92FF920F931F93DA
:1019F000AB01BC01A89521E0E12CE8E0FE2E012D11
:101A0000112D01C02F5FD801C701022E04C0880F1D
:101A1000991FAA1FBB1F0A94D2F737E0B695A79566
:101A2000979587953A95D1F784179507A607B70735
:101A300048F32093AE032A3018F029702093AE03A8
:101A40002091AE0323FF02C038E201C038E088E1F4
:101A500090E02770322B0FB6F894A8958093600021
:101A60000FBE3093600081E08093AD031F910F9112
:101A7000FF90EF900895A89508958091AD03882375
:101A800019F08F5F8093AD0388E10FB6F8948093CF
:101A90006000109260000FBE08958091AD03823007
:101AA000C0F081508093AD03813099F42091AE0352
:101AB00023FF02C038E201C038E088E190E02770DF
:101AC000322B0FB6F894A895809360000FBE309328
:101AD000600008958091B2039091B3038130910525
:101AE00089F08130910530F08230910521F1039722
:101AF000E9F52DC078993AC081E08093B10381E087
:101B000090E020C0789912C08091B1038F5F8093DC
:101B1000B1038E3159F581E08093B00382E090E00B
:101B20009093B3038093B20381E021C01092B3037A
:101B30001092B2031BC0789B19C081E08093B1035F
:101B400083E090E09093B3038093B2030FC0809141
:101B5000B1038F5F8093B103843141F41092B003DD
:101B60001092B3031092B20380E001C082E0992783
:101B700008958091B003992708958091B4039091BE
:101B8000B503089508950F931F93CF93DF93CDB7B7
:101B9000DEB72A970FB6F894DEBF0FBECDBF109206
:101BA000B3031092B2031092B0036BE577E08E019D
:101BB0000F5F1F4FC8010E941D46C8010E947F2869
:101BC000892BB1F420E033E040E050E064E87EE0AF
:101BD000C8010E94A12F892B59F48DE497E09F93AF
:101BE0008F9380EE8F930E94EE060F900F900F90D0
:101BF0002A960FB6F894DEBF0FBECDBFDF91CF910E
:101C00001F910F910895FF920F931F93CF93DF932E
:101C1000CDB7DEB72A970FB6F894DEBF0FBECDBFA3
:101C200082E192E00E94112E892BB9F480E00E949B
:101C30006309F82E40E067E070E080E192E00E94E6
:101C40002D2E8C01892B51F540E067E070E083E395
:101C500092E00E942D2E8C0121C00E94A51280E0EE
:101C60000E946309F82EE0912302F091240230973C
:101C700029F080E192E01995892B59F4E091460210
:101C8000F0914702309741F083E392E01995892B58
:101C900019F00FEF1FEF02C000E010E08F2D0E943F
:101CA000630901151105C1F48EEA97E09F938F93A4
:101CB00086EE8F930E94EE0660E070E0CE01019602
:101CC0000E94FF3F0F900F900F902FEF8F3F9207D2
:101CD00071F00E94D73F0BC08FE797E09F938F93DF
:101CE00083EE8F930E94EE060F900F900F90C80125
:101CF0002A960FB6F894DEBF0FBECDBFDF91CF910D
:101D00001F910F91FF9008958091B0038093AF03CE
:101D10008091B0038130B9F48091AF03882349F5F5
:101D200081E797E09F938F9386EE8F930E94EE0654
:101D30000E94030E0F900F900F90892B29F780E1DE
:101D40000E949D08E1CF8823A1F48091AF038130E8
:101D500081F484E697E09F938F9386EE8F930E94A1
:101D6000EE068091B0038093AF030F900F900F9019
:101D7000CFCF64EF71E080E090E00E94AF2AC8CF3F
:101D8000779A2E982D9A08958093B603089580919E
:101D9000B603992708958EBD0DB407FEFDCF0895B3
:101DA0008FEF8EBD0DB407FEFDCF8EB59927089538
:101DB0008EBD0DB407FEFDCF8EB599270895779A95
:101DC0002E982D9A08959C010097F9F48091B603FE
:101DD000882321F481E08DBD81E504C0813021F4A8
:101DE0001DBC80E58CBD25C0823019F481E08DBD1D
:101DF000F8CF8BEB97E09F938F938BE78F930E94A5
:101E0000EE060F900F900F9014C0019741F481E0FF
:101E10008DBD80E58CBD2D9A2E98779808951DBCB8
:101E200080E58CBD2130310520F02230310541F4B0
:101E300004C0779A2D9A2E9A0895779A2E982D9805
:101E4000089580E090E0089580E090E0089580E0BB
:101E500090E0089540E050E060E070E087EB93E0B0
:101E60000E94972D0895CF93DF93CEEFDFEF0E946E
:101E7000D00E8F3F11F42197D1F79927DF91CF91A1
:101E80000895CF93DF93CEEFDFEF0E94D00E8E3F09
:101E900011F02197D1F79927DF91CF910895DF9223
:101EA000EF92FF920F931F93D82E8B017A0182E05D
:101EB00090E00E94E30E8FEF0E94CB0E8D2D806488
:101EC0000E94CB0E812F99270E94CB0E802F0E945B
:101ED000CB0E8F2D99270E94CB0E8E2D0E94CB0EFC
:101EE00085E90E94CB0E8FEF0E94CB0E1F910F91C0
:101EF000FF90EF90DF9008956F927F928F929F9264
:101F0000AF92BF92CF92DF92EF92FF920F931F9307
:101F1000CF93DF935B0169017A013801882499240A
:101F20003AC0A601542F4427550FC701B60127E038
:101F300096958795779567952A95D1F781E10E94C7
:101F40004F0F0E94410F8E3F29F00E94C00E81E08A
:101F500090E026C08501C0E0D0E00E94D00EF801DC
:101F600081938F012196F2E0C030DF07B1F780E066
:101F700092E0A80EB91E8FEF0E94CB0E8FEF0E9449
:101F8000CB0E0E94C00E0894811C911C0894C11CA9
:101F9000D11CE11CF11C8614970419F680E090E036
:101FA000DF91CF911F910F91FF90EF90DF90CF9035
:101FB000BF90AF909F908F907F906F90089587EB28
:101FC00093E00E94442D08952F923F924F925F928A
:101FD0006F927F928F929F92AF92BF92CF92DF9239
:101FE000EF92FF920F931F93CF93DF93CDB7DEB79E
:101FF00028970FB6F894DEBF0FBECDBFF82E6B0149
:1020000039014A0118010E942A0FFF2019F022E02D
:1020100030E0A8C0C801AA27BB27860D971DA81DC0
:10202000B91D2091BC033091BD034091BE03509176
:10203000BF03281739074A075B0728F483E090E0BD
:102040009E838D8302C01E821D828091B903909170
:10205000BA0397FD04C0E2E0F0E0FE83ED8396FD55
:102060007FC02D813E81232B09F092C0DC82CB8280
:1020700072C03FEF2316310409F010F4610103C070
:10208000C12CA1E0DA2E4B805C80840173011A829E
:10209000198253C0A701542F4427550FC801B70117
:1020A000E7E09695879577956795EA95D1F788E16A
:1020B0000E944F0F0E94330F8F3F09F445C08EEFEF
:1020C0000E94CB0E520118861F82F50181915F019B
:1020D0000E94CB0E2F8138852F5F3F4F38872F838B
:1020E0002050324091F7E0E0F2E04E0E5F1E8FEF9D
:1020F0000E94CB0E8FEF0E94CB0E8FEF0E94CB0E73
:102100005FEFA52EB52E0E94D00E882339F40894D7
:10211000A108B108A114B104B9F0F5CF0894E11CED
:10212000F11C011D111DAB2879F00E94C00E298100
:102130003A812F5F3F4F3A83298389819A818C1599
:102140009D0509F0A7CF11C00E94C00EE1E0F0E0AC
:10215000FE83ED831DC02114310409F08ACF18C01D
:1021600028E030E03E832D8313C0C601AA27BB2799
:10217000680E791E8A1E9B1E2C183D08DC2CCC2470
:10218000DD0C8B819C818C0D9D1D9C838B83E3CF0B
:102190000E94DF0F8D819E8128960FB6F894DEBFD6
:1021A0000FBECDBFDF91CF911F910F91FF90EF90A8
:1021B000DF90CF90BF90AF909F908F907F906F9067
:1021C0005F904F903F902F9008958F929F92AF9283
:1021D000BF92CF92DF92EF92FF920F931F93CF9314
:1021E000DF93F82EEB0149015A0168010E942A0F82
:1021F000FF20F1F48091B9039091BA0397FF18C0C2
:10220000C801AA27BB27880D991DAA1DBB1D2091B7
:10221000BC033091BD034091BE035091BF0328170A
:1022200039074A075B0708F042C003E010E044C0EA
:1022300002E010E041C02FEFC216D10409F010F403
:10224000E60102C0C0E0D1E08E01A5019401B70112
:1022500089EB93E00E947C0F8C01892B69F5CE01FC
:10226000AA27BB27880E991EAA1EBB1ECC1ADD0A00
:102270008091C0039091C1039C01C29FC001C39F84
:10228000900DD29F900D1124E80EF91EC114D104B7
:1022900091F600E010E010C001E010E0A50194010B
:1022A000BE0189EB93E00E947C0F8C0105C07E018A
:1022B0000130110559F7F0CF0E94DF0FC801DF91FF
:1022C000CF911F910F91FF90EF90DF90CF90BF9033
:1022D000AF909F908F900895EF92FF920F931F936E
:1022E000182F0E942A0F112321F0EE24FF248701CA
:1022F00008C0E090BC03F090BD030091BE031091B4
:10230000BF030E94DF0FC801B7011F910F91FF901B
:10231000EF9008951F93CF93DF93182F0E942A0FF9
:10232000112319F0C0E0D0E004C0C091C003D091E7
:10233000C1030E94DF0FCE01DF91CF911F9108955D
:10234000CF92DF92EF92FF920F931F93CF93DF9381
:10235000CDB7DEB760970FB6F894DEBF0FBECDBF26
:102360006B010E942A0F8091B9039091BA0397FFE5
:102370008AC040E050E060E070E089E00E944F0FCA
:102380000E94410F8E3F61F089EC97E09F938F93FD
:1023900083EF8F930E94EE060F900F900F9073C003
:1023A0008E010F5F1F4F0E94D00EF80181938F01A5
:1023B000CE014196E817F907B1F78FEF0E94CB0ED7
:1023C0008FEF0E94CB0E0E94C00EEE80FFE0EF2246
:1023D00021E030E0C90102C0880F991FEA94E2F7BA
:1023E0007C016F81772763707070762F6627770F77
:1023F000770FE885FF27EE0FFF1FEE0FFF1F6E2BF5
:102400007F2B09851127EA85FF27E370F070DF0134
:10241000AA0FBB1FEA2BFB2BAB85BB2786E01695CB
:1024200007958A95E1F7602B712B6F5F7F4F8827A7
:102430009927AA0FAB2FAA1FBB0BB195EA2BFB2B39
:10244000329602C0220F331FEA95E2F74427552740
:102450000E9472466093BC037093BD038093BE03D9
:102460009093BF03F092C103E092C0030E94DF0F7C
:1024700001E010E020E030E040E050E0B60180E014
:102480000E94E51004C00E94DF0F81E090E060969A
:102490000FB6F894DEBF0FBECDBFDF91CF911F9175
:1024A0000F91FF90EF90DF90CF900895CF93DF933F
:1024B0007093C3036093C2035093C5034093C40356
:1024C00089E0E9EBF3E011928A95E9F71092BB03FA
:1024D00087EB93E00E94442DC0E0D0E08FEF0E9494
:1024E000CB0E2196CA30D105C9F740E050E060E03C
:1024F00070E080E00E944F0F0E94330F813099F40A
:10250000CFEFDFEF07C040E050E060E070E081E037
:102510000E944F0F0E94D00E882319F0219799F73F
:1025200002C0CD2B29F40E94C00E81E090E00AC0C9
:102530000E94C00E80E090E89093BA038093B903A4
:1025400080E090E0DF91CF9108951092C703109240
:10255000C6030895EF92FF920F931F93CF93DF93DB
:10256000EC017A018B018B8180FD1AC08EEF9FEF09
:10257000AFEFBFEFE80EF91E0A1F1B1F2A8133279A
:1025800044275527C801B7010E947246AB01BC0120
:102590008A8D9B8DAC8DBD8D480F591F6A1F7B1F87
:1025A000CB01BA01DF91CF911F910F91FF90EF9076
:1025B00008958FEF9FEF08958FEF9FEF0895282FD5
:1025C0008F3F11F420E006C0882321F099270E9454
:1025D000E646282F822F992787FD909508958F92A0
:1025E0009F92AF92BF92CF92DF92EF92FF920F93A2
:1025F0001F93FC016A017B01838180FF07C0CB012F
:10260000BA016F5F7F4F8F4F9F4F69C08081828873
:102610009388A488B5886091CA037091CB038130F8
:10262000A9F5A7019601A7E05695479537952795F7
:10263000AA95D1F7280D391D4A1D5B1D01E010E058
:1026400081810E94E5108091CA039091CB03F6012D
:10265000EF77F070EE0FFF1FEE0FFF1FE80FF91F6F
:1026600060817181828193819F706F3F2FEF72072C
:102670002FEF82072FE0920771F1673F2FEF72076C
:102680002FEF82072FE0920751F525C055274F2DD8
:102690003E2D2D2D280D391D4A1D5B1D01E010E03A
:1026A00081810E94E5108091CA039091CB03F601CD
:1026B000F070EE0FFF1FE80FF91F208131818FEFBF
:1026C0002F3F380741F08FEF273F380721F0B9013E
:1026D0008827992704C060E070E080E090E01F91B7
:1026E0000F91FF90EF90DF90CF90BF90AF909F90B1
:1026F0008F9008952F923F924F925F926F927F92A8
:102700008F929F92AF92BF92CF92DF92EF92FF9201
:102710000F931F93CF93DF93CDB7DEB76A970FB6B2
:10272000F894DEBF0FBECDBF988B8F877A8B698BF5
:102730005C8B4B8B18012901FE8AED8AD88ECF8ADB
:10274000D7011D921D921D921C921397DA010D90D4
:102750000020E9F71197A41BB50BCD010C966DE095
:1027600070E00E94B146F62FF064F983F53E09F45B
:1027700096C18DE0689F900111243B832A832F33FB
:1027800031050CF08CC17901BF2E1E86CC24DD24CE
:1027900080C1B201A1018F8598890E94AA12688721
:1027A00079878A879B87EF85F8898281282F33274D
:1027B0003D872C8731E0231631044104510479F41C
:1027C0008081882361F482859385A485B585888777
:1027D0009987AA87BB87268137813D872C876884A4
:1027E00079848A849B8442C16091CA037091CB032F
:1027F00001E010E0A4019301EF85F88981810E9436
:10280000E5102091CA033091CB033F832E83809142
:10281000CC039091CD039D838C833A8F298F9E8525
:10282000913019F4E98DFA8D1DC02F89388D232B35
:1028300099F5A98DBA8D8C91853E71F1882361F14E
:102840004BE050E069897A89CD010E943A46892B94
:1028500019F5E989FA899385E98DFA8D83858923AC
:102860008917D1F484899589AA27BB27AC0133271E
:102870002227828D938DAA27BB27282B392B4A2B01
:102880005B2B848D958DA68DB78DED89FE89808318
:102890009183A283B38307C1E98DFA8D83858F303D
:1028A00009F0D0C0A080AB1409F0CCC0B6FE0DC0BA
:1028B000BFEBAB2EAB20AC81BD81AE0DBF1D1C921A
:1028C0000894E108F108CC80DD80E98DFA8D868DD1
:1028D000978D0E94DF12F601EE0DFF1D80838701A8
:1028E00001501040E98DFA8D848D958D0E94DF1284
:1028F000F601E00FF11F808301501040E98DFA8D41
:10290000808D918D0E94DF12F601E00FF11F808310
:1029100001501040E98DFA8D868997890E94DF1257
:10292000F601E00FF11F808301501040E98DFA8D10
:10293000848995890E94DF12F601E00FF11F8083E0
:1029400001501040E98DFA8D828993890E94DF122F
:10295000F601E00FF11F808301501040E98DFA8DE0
:10296000808991890E94DF12F601E00FF11F8083B8
:1029700001501040E98DFA8D868597850E94DF12FF
:10298000F601E00FF11F808301501040E98DFA8DB0
:10299000818592850E94DF12F601E00FF11F80838E
:1029A00001501040E98DFA8D878190850E94DF12D9
:1029B000F601E00FF11F808301501040E98DFA8D80
:1029C000858196810E94DF12F601E00FF11F80835E
:1029D00001501040E98DFA8D838194810E94DF12AD
:1029E000F601E00FF11F808301501040E98DFA8D50
:1029F000818192810E94DF12F601E00FF11F808336
:102A0000BA2CBA9429F078010894E108F1081AC0A8
:102A1000AB89BC890D900020E9F711972B893C897F
:102A2000A21BB30BAD01B601C9010E943A46892B26
:102A300031F4EA80FB80B98031E03E8703C0EA8050
:102A4000FB80B980898D9A8D80969A8F898F8E812F
:102A50009F8180509E4FA98DBA8DA817B90709F0A4
:102A6000DECE0894611C711C811C911CC301E88599
:102A7000F9858E1B9F0B2C853D85821793070CF4DF
:102A8000B3CEB201A1018F8598890E94EF121B017C
:102A90002C01211431044104510409F07ACE20E0C4
:102AA00030E040E050E0CA01B9016A960FB6F894F0
:102AB000DEBF0FBECDBFDF91CF911F910F91FF9071
:102AC000EF90DF90CF90BF90AF909F908F907F90CE
:102AD0006F905F904F903F902F90089584E394E023
:102AE0000E94442D089584E394E00E94442D0895AB
:102AF00040E050E060E070E084E394E00E94972DB5
:102B000008952F923F924F925F926F927F928F9291
:102B10009F92AF92BF92CF92DF92EF92FF920F936C
:102B20001F93CF93DF93CDB7DEB728970FB6F894F6
:102B3000DEBF0FBECDBF8C016B015E834D830E9453
:102B400078150115110509F4F6C0F8010481158105
:102B500018870F830115110509F4EDC06D817E8181
:102B60006115710509F4E7C0F801E484F584068570
:102B700017852081318142815381E216F3060407D3
:102B8000150708F0D2C0CB01AA2797FDA095BA2F50
:102B90008E0D9F1DA01FB11F281739074A075B071D
:102BA00020F42E193F093E832D83EF81F885008C98
:102BB000F18DE02DFC83EB83DA82C982248035809D
:102BC0004D805E80ABC0EF81F88560887188828817
:102BD00093885101CC24DD2440855185628573851D
:102BE0008B819C810E94AA127B018C01C401B301DC
:102BF000A60195010E94C446442737FD4095542FF5
:102C00002E0D3F1D401F511F6091CA037091CB03D1
:102C100001E010E0EB81FC8181810E94E510892BAD
:102C200009F079C0C401B301A60195010E94C44610
:102C30006101421453040CF46201CB018C0D9D1D03
:102C4000281639061CF46101C61AD70A8091CA03F6
:102C50009091CB03680F791FA60189819A810E9408
:102C6000474676010027F7FC0095102FEF81F88585
:102C700024853585468557852E0D3F1D401F511FE4
:102C8000248735874687578780899189A289B389A8
:102C90008E0D9F1DA01FB11F808B918BA28BB38BBC
:102CA00080819181A281B381281739074A075B0788
:102CB00020F081E090E0978B868BEF81F88520896A
:102CC000318942895389EB81FC81868D978DA0A142
:102CD000B1A1281739074A075B07A0F0EF81F885F3
:102CE00040855185628573858B819C810E94EF129E
:102CF000EF81F8856087718782879387108A118AB0
:102D0000128A138A69817A816C0D7D1D7A836983A9
:102D10004C185D0803C08DEF9FEF09C041145104AA
:102D200009F051CF0D811E8108C08EEF9FEFEF811A
:102D3000F885958B848B00E010E00E947315C80124
:102D400028960FB6F894DEBF0FBECDBFDF91CF91AE
:102D50001F910F91FF90EF90DF90CF90BF90AF90B9
:102D60009F908F907F906F905F904F903F902F90AB
:102D70000895EF92FF920F931F93CF93DF93EC018F
:102D80000E947815209749F0EC81FD81309729F059
:102D9000E080F1800281138108C00FEFE02E0FEF79
:102DA000F02E0FEF002F0FEF102F0E947315C801A8
:102DB000B701DF91CF911F910F91FF90EF90089590
:102DC000CF93DF93EC010E947815209719F4CFEF91
:102DD000DFEF0BC08C819D81009711F00E9442258E
:102DE000CE010E944225C0E0D0E00E947315CE01C2
:102DF000DF91CF9108950F931F938C010E94781556
:102E0000012B11F41092D0030E9473151F910F91A2
:102E100008952F923F924F925F926F927F928F927E
:102E20009F92AF92BF92CF92DF92EF92FF920F9359
:102E30001F93CF93DF93CDB7DEB724970FB6F894E7
:102E4000DEBF0FBECDBF182F0E9478158091C8033A
:102E50009091C903892B41F480E490E00E94CF2433
:102E60009093C9038093C8038091CC039091CD03C4
:102E7000892B41F480E490E00E94CF249093CD030D
:102E80008093CC038091CA039091CB03892B59F492
:102E900080E092E00E94CF249093CB038093CA03FA
:102EA000892B09F445C18091C8039091C903892BEE
:102EB00009F43EC18091CC039091CD03892B09F494
:102EC00037C182E2189FF0011124E253FC4F1192A6
:102ED0008A95E9F7E12EFF242701440C551CC70110
:102EE00035E0880F991F3A95E1F7480E591E2EECF0
:102EF00033E0420E531EF2011183812F0E948A118A
:102F0000F20195838483812F0E94210F019721F480
:102F1000F201838181608383812F0E94240F0197B6
:102F200021F4F201838182608383F201848195819F
:102F30008050924019F001E010E0FCC0F201838162
:102F400081FF05C020E230E040E050E038C06091F1
:102F5000CA037091CB0301E010E020E030E040E0D4
:102F600050E08E2D0E94E5108C01892B09F0E2C003
:102F7000E091CA03F091CB03E250FE4F8081918132
:102F8000EE5FF14085559A4A09F0D4C0E653FE4FF2
:102F900080819181A281B381EA5CF1400097A10513
:102FA000B10509F4C7C0EA53FE4F20813181428147
:102FB0005381211531054105510509F4BBC06091CC
:102FC000CA037091CB0301E010E08E2D0E94E51042
:102FD0002090CA033090CB034EEF51E0240E351EF3
:102FE000D1018D919C91E2E0FEEF2E0E3F1E8555A2
:102FF0009A4A09F09DC0F1018585F2018283F101B1
:10300000268937892115310571F0C901AA27BB2707
:1030100089839A83AB83BC83D2011C9281E090E0C8
:10302000A0E0B0E010C0F10124A135A146A157A154
:1030300029833A834B835C8381E0D2018C9384A5FE
:1030400095A5A6A5B7A5F20186879787A08BB18B1A
:10305000F101638574858189928925E0880F991F24
:103060002A95E1F7860F971F01970E949D463B0125
:1030700088249924E684F78400271127A48CB58C32
:10308000C68CD78CAE0CBF1CC01ED11EF201A28A0A
:10309000B38AC48AD58A29813A814B815C81A20E88
:1030A000B31EC41ED51EA68AB78AC08ED18EF1016A
:1030B00060897727882799270E947246F101248D1D
:1030C000358D468D578DE20EF31E041F151FE60C3D
:1030D000F71C081D191DE60EF71E081F191FF20127
:1030E000E28EF38E048F158FF10185859927F20109
:1030F00024813581AC01429FC001439F900D529FB6
:10310000900D1124AA27BB27868F978FA0A3B1A368
:10311000668277828086918629813A814B815C81A3
:10312000A20EB31EC41ED51EA286B386C486D58643
:1031300000E010E00E947315C80124960FB6F894C1
:10314000DEBF0FBECDBFDF91CF911F910F91FF90DA
:10315000EF90DF90CF90BF90AF909F908F907F9037
:103160006F905F904F903F902F9008952F923F92D5
:103170004F925F926F927F928F929F92AF92BF9287
:10318000CF92DF92EF92FF920F931F93CF93DF9333
:10319000CDB7DEB72E970FB6F894DEBF0FBECDBF0A
:1031A000FC01892B09F4A1C2848180330CF49DC2F7
:1031B00082330CF490C2863409F097C28CC20E940C
:1031C00078158091D2039091D3030E94CF249E87DB
:1031D0008D87892B09F489C23090CF03832D0E94FB
:1031E0006C112B013C0180EE9FEFAFEFBFEF480E5B
:1031F000591E6A1E7B1EE6E5F2E09F012C5F3F4FE1
:1032000080819181A281B38184159505A605B705BA
:1032100038F0D9018C919927282E882341F00CC0D1
:103220002B5F3F4F3596B2E028373B0749F78D8536
:103230009E850E94422559C29927AA27BB278983C8
:103240009A83AB83BC83C301B20129813A814B814C
:103250005C810E94C446DA01C90102E0880F991F0F
:10326000AA1FBB1F0A95D1F781509E4FAF4FBF4F8A
:1032700019E0B695A795979587951A95D1F78987FF
:103280009A87AB87BC874C015D01880C991CAA1CEE
:10329000BB1C89819A81AB81BC81815A9F4FAF4F02
:1032A000BF4F880E991EAA1EBB1E8F559040A0408E
:1032B000B04089839A83AB83BC834091D203509101
:1032C000D30360E070E08D859E850E945046CC243B
:1032D000DD24760110C001E010E0A70196016D85A4
:1032E0007E85832D0E94E40F892B51F40894C11C24
:1032F000D11CE11CF11CC814D904EA04FB0459F7E1
:1033000080E090E00E9417426D837E838F839887D0
:103310004091D2035091D30360E070E08D859E858B
:103320000E945046AD85BE85A254BE4F1D9281E0DD
:103330008D938D931D928BE08D931D921C9212960E
:10334000EFE3AE2EB12CC12CD12CFD01A192B19294
:10335000C192D192DF014082518262827382AA5C63
:10336000B140BE87AD877EEFE72E71E0F72EEA0E03
:10337000FB1E65E5862E6AEA962EF7019182808211
:1033800001E010E020E030E040E050E0BD01832D9E
:103390000E94E40F8C01892B09F005C14091D203F2
:1033A0005091D30360E070E08D859E850E94504669
:1033B0008BEEAD85BE858C9388E5FD01818380E928
:1033C00082830DE4038393E5948384E485831FE47F
:1033D0001683978385E380878EE2818780E38287E7
:1033E00080E092E094878387258680E290E097874B
:1033F000868782E0808B128A118A148A138A88EF6A
:10340000858B178A168A8FE390E0918F808F8FEFDC
:1034100090E0938F828FED85FE85A48EB58EC68E4B
:10342000D78E40A251A262A273A289859A85AB85EC
:10343000BC8584A395A3A6A3B7A311A610A613A623
:1034400012A652E0A52EB12CC12CD12CED85FE8503
:10345000A4A6B5A6C6A6D7A681E090E091AB80ABA6
:1034600086E090E093AB82ABE05CFF4F1082329637
:1034700089E28193FE87ED876D817E818F819885BA
:10348000A30192010E947246AD85BE856D937D9326
:103490008D939D938EE48D931D9390E29D938D93D8
:1034A00021E42D930D9385E48D939D939D939D939E
:1034B0009D9386E48D932D9384E58D9383E38D9383
:1034C00082E38D939D939D939C93A955B040BE87B5
:1034D000AD87F7019182808201E010E02FE330E0B8
:1034E00040E050E0BD01832D0E94E40F8C01892B48
:1034F00009F059C001E010E025E430E040E050E080
:103500006D857E85832D0E94E40F892B09F0E7C02D
:103510004091D2035091D30360E070E08D859E8589
:103520000E94504681EA9FEFAFEFBFEF480E591E51
:103530006A1E7B1E82E592E5A1E6B1E4ED85FE857B
:1035400080839183A283B383EC51FE4F82E792E79D
:10355000A1E4B1E681939193A193B193FE87ED87A6
:10356000C301B20129813A814B815C810E94C4462A
:10357000AD85BE852D933D934D935D93FD01A08256
:10358000B182C282D382EC5EF140FE87ED87D70123
:103590008D929C9220E430E040E050E0BF01832D0A
:1035A0000E94E40F8C010115110509F086C04091BD
:1035B000D2035091D30360E070E08D859E850E9418
:1035C00050462D853E8588EF9FEFAFEFBFE0F901B4
:1035D00081939193A193B1939F018FEF9FEFAFEFF1
:1035E000BFE0ED85FE8584839583A683B783F901CB
:1035F00084839583A683B78301E010E02FE530E054
:1036000040E050E06D857E85832D0E94E40F8C01A3
:10361000892B09F052C0C984DA84EB84FC848FE5DD
:1036200090E0A0E0B0E0C80ED91EEA1EFB1E01E04B
:1036300010E0A70196016D857E85832D0E94E40F21
:10364000892B09F04CC04091D2035091D30360E024
:1036500070E08D859E850E94504695E4AD85BE85BF
:103660009C9324E5FD01218388E48283938382E592
:1036700084838EE4858385E58683278380E2808743
:103680008187828788E08387158A148A138E128E39
:10369000ED85FE85148E158E168E178E89859A857A
:1036A000AB85BC85C80ED91EEA1EFB1EA70196017C
:1036B000BF01832D0E94E40F8C018D859E850E94A1
:1036C00042250E947315012B81F4832D0E94091756
:1036D000009769F00AC06050704139F470CD8D8553
:1036E0009E850E9442250E9473158FEF9FEF2E96B4
:1036F0000FB6F894DEBF0FBECDBFDF91CF911F9103
:103700000F91FF90EF90DF90CF90BF90AF909F9080
:103710008F907F906F905F904F903F902F90089583
:103720000F931F93CF93DF938C0180E092E00E9470
:10373000CF24EC01892B31F0802F0E940917CE0194
:103740000E944225DF91CF911F910F910895EF9232
:10375000FF920F931F93CF93DF93FC018091C603D9
:103760009091C7030097A9F58281863409F03FC084
:1037700083818134E1F584818435C9F5848595851B
:103780000797A9F537C04BEF56E160E97BE180E090
:1037900090E00E9456128C01892B19F00EEF1FEF5A
:1037A00014C0B70180E090E00E94A011C0E0D0E01A
:1037B0008C2F0E9409172196C330D105C9F781E0EB
:1037C00090E09093C7038093C603C7010E944225EF
:1037D0001CC0019761F48281863449F483818D3461
:1037E00031F48481803319F400E010E00EC00FEF53
:1037F0001FEF0BC00E946E1580E092E00E94CF2464
:103800007C01892B09F0BFCFEFCFC801DF91CF91A9
:103810001F910F91FF90EF9008952F923F924F923A
:103820005F926F927F928F929F92AF92BF92CF9250
:10383000DF92EF92FF920F931F93CF93DF93CDB759
:10384000DEB7A6970FB6F894DEBF0FBECDBF9EA31E
:103850008DA34B018091C6039091C703892B21F45E
:103860008DA19EA10E94A71B0E9478156090C8039D
:103870007090C9038DA19EA1009709F422C1FC019B
:10388000848180330CF41DC182330CF41DC1863455
:1038900009F017C119C1F4018081882309F411C10D
:1038A0008AE190E00E94CF245C018091E003909136
:1038B000E103A091E203B091E3030097A105B105F4
:1038C00009F41AC1A114B10409F4FBC0F401808108
:1038D0008E3209F4E7C08AE1F50111928A95E9F781
:1038E0002090DC033090DD034090DE035090DF0336
:1038F000F40180818F3209F006C102C1FFE3EF16A7
:10390000F1040CF003C183010E0D1F1D992787FDE3
:1039100090950E94E646F80180830894E11CF11C12
:103920000894811C911CF40180818F3209F4D2C06B
:103930008C3509F4CFC0882309F7CCC06EE270E063
:10394000C3010E945746009721F409301105D8F5AC
:103950000BC0DC011196FD0101900020E9F73197C1
:10396000EA1BFB0B349778F58E010B5F1F4F80E24B
:10397000F80111928A95E9F748E050E060E270E0C2
:10398000C8010E94504643E050E060E270E0CE0182
:103990000D960E945046D801F301930104C08D9307
:1039A0002F5F3F4F319680818E3219F08823B9F70F
:1039B0000DC0F901DE011D9601C08D938181319604
:1039C0008823D9F703C021E030E002C020E030E0D6
:1039D000F40180818F3209F448C08C3509F445C068
:1039E000882309F05FC080E2888B8091D10380FD3D
:1039F0008DC08EEC882E83E0982E69017E0108949C
:103A0000E11CF11C92018101A301BE016B5F7F4F9C
:103A1000C4010E947A139B01AC01611571058105F7
:103A2000910509F473C089819A81AB81BC81F5014C
:103A300080839183A283B383248335834683578312
:103A40002087318742875387148615861686178606
:103A5000108A118A128A138A918E808E158A148A8E
:103A6000178A168A80E090E053C080E1888B8091AD
:103A7000D10380FD4BC069017E010894E11CF11C5B
:103A800092018101A301BE016B5F7F4F8EEC93E039
:103A90000E947A131B012C016115710581059105A6
:103AA000A9F12EC0C5010E9442250BC086E090E01E
:103AB0000E94CF248C01009771F5C5010E94422518
:103AC00033C00FEF1FEF30C08091D003882309F07F
:103AD000E2CEF7CFE60CF71CF7011082F30101905C
:103AE0000020E9F78F0101501040061917090D3029
:103AF000110508F068CF22CFA114B10499F6E1CFE7
:103B00000894811C911CEE24FF240DCF81E090E0ED
:103B1000019761F6C7CFFC01118210828DA19EA191
:103B200093838283B582A4820E947315C801A696EE
:103B30000FB6F894DEBF0FBECDBFDF91CF911F91BE
:103B40000F91FF90EF90DF90CF90BF90AF909F903C
:103B50008F907F906F905F904F903F902F9008953F
:103B60008FEF9FEF08952F923F924F925F926F9247
:103B70007F928F929F92AF92BF92CF92DF92EF92FD
:103B8000FF920F931F93CF93DF935C016B014A0168
:103B900029013801170181E090E00E94E30EC0E0A6
:103BA000D0E07601850109C0F80181918F010E9462
:103BB000D80EF70181937F012196C815D905A4F38A
:103BC000C0E0D0E07301820109C0F80181918F014A
:103BD0000E94D80EF70181937F012196C215D3056B
:103BE000A4F30E94C00E80E090E0DF91CF911F917E
:103BF0000F91FF90EF90DF90CF90BF90AF909F908C
:103C00008F907F906F905F904F903F902F9008958E
:103C1000EF92FF920F931F93CF93DF93CDB7DEB751
:103C200022970FB6F894DEBF0FBECDBF87ED898314
:103C30008FEF8A83EE24FF2400E010E020E030E0E4
:103C400042E050E0CE010196BC010E94B31D892BD9
:103C500019F08FEF90E002C08A81992722960FB663
:103C6000F894DEBF0FBECDBFDF91CF911F910F91B2
:103C7000FF90EF9008950F931F930E94081E0E94DB
:103C8000081E082F60E070E0209136043091370460
:103C90000EC06F5F7F4F808580239185891739F42F
:103CA0008AE0189F900111242C583D4F18C0162F00
:103CB000462F5527FA01EE0FFF1FCA01A3E0880F18
:103CC000991FAA95E1F7E80FF91FEC58FD4F808185
:103CD0009181A281B3810097A105B105D1F63093FE
:103CE000370420933604CA011F910F910895EF9273
:103CF000FF920F931F93CF93DF937B018C01EA0117
:103D000019C0209731F461E070E080E090E00E94FB
:103D1000AF2A0894E108F108010911098FEFE816AC
:103D20008FEFF8068FEF08078FEF180719F48FEF62
:103D30009FEF06C00E94081E87FFE3CF80E090E05F
:103D4000DF91CF911F910F91FF90EF9008955F92B7
:103D50006F927F928F929F92AF92BF92CF92DF929B
:103D6000EF92FF920F931F93CF93DF93582E4A0148
:103D70005B01E90138018701293031051CF08FEF23
:103D80009FEF23C0A90160E070E088E394E00E9407
:103D900050465092380481149104A104B10469F092
:103DA000C501AA27BB2780933904BB27AB2D9A2DC9
:103DB000892D80933A0480923B0476019301AE01F1
:103DC00068E374E0CB010E94B31DDF91CF911F9196
:103DD0000F91FF90EF90DF90CF90BF90AF909F90AA
:103DE0008F907F906F905F9008958F929F92AF9287
:103DF000BF92CF92DF92EF92FF920F931F93CF93D8
:103E0000DF934B015C018A016901C9010E943C42B8
:103E1000EC01009719F40FEF1FEF36C07C0124E08E
:103E200030E040E050E060E070E084E80E94A71ECF
:103E3000892B29F5E0913604F0913704068004C0FF
:103E4000880C991CAA1CBB1C0A94D2F7CC24DD2434
:103E5000EE24FF2400E010E024E030E0B501A401EE
:103E600083E80E94A71E892B51F441E050E068EEE0
:103E700073E080E090E00E94771E8C0102C00FEF9B
:103E80001FEFCE010E943942C801DF91CF911F91EF
:103E90000F91FF90EF90DF90CF90BF90AF909F90E9
:103EA0008F900895CF92DF92EF92FF920F931F931E
:103EB000E0913604F0913704068004C0660F771F46
:103EC000881F991F0A94D2F769017A018A0128E0B4
:103ED00030E0AB01BC0188EE0E94A71E1F910F913C
:103EE000FF90EF90DF90CF900895CF92DF92EF9206
:103EF000FF920F931F93AA27BB27CC24DD24EE2427
:103F0000FF2400E010E024E030E0AC01BD0181E8D6
:103F10000E94A71E1F910F91FF90EF90DF90CF900E
:103F2000089560957095809590952091400430910A
:103F300041044091420450914304262337234823EF
:103F400059232093400430934104409342045093FA
:103F5000430480E090E00895AF92BF92CF92DF9249
:103F6000EF92FF920F931F93CF93DF93CDB7DEB7FE
:103F700022970FB6F894DEBF0FBECDBF9B015A014A
:103F8000492F552749838A83CC24DD247601850176
:103F900042E050E0BE016F5F7F4F87E50E94A33C87
:103FA0008A159B0519F480E090E002C08FEF9FEF27
:103FB00022960FB6F894DEBF0FBECDBFDF91CF9132
:103FC0001F910F91FF90EF90DF90CF90BF90AF9037
:103FD0000895AF92BF92CF92DF92EF92FF920F932C
:103FE0001F93CF93DF93CDB7DEB722970FB6F89428
:103FF000DEBF0FBECDBF9B015A0119828A83CC243C
:10400000DD2476018A0142E050E0BE016F5F7F4F00
:104010008FE60E94A33C8A159B0519F480E090E08E
:1040200002C08FEF9FEF22960FB6F894DEBF0FBE4F
:10403000CDBFDF91CF911F910F91FF90EF90DF9057
:10404000CF90BF90AF9008950F931F93CF93DF93BE
:10405000CDB7DEB721970FB6F894DEBF0FBECDBF48
:104060008C0141E050E0BE016F5F7F4F8FE30E9403
:10407000E91F892BE9F489819927AA27BB27209179
:104080004004309141044091420450914304822BFA
:10409000932BA42BB52B8093400490934104A093C1
:1040A0004204B0934304F80180839183A283B383D5
:1040B000809140049091410421960FB6F894DEBFA0
:1040C0000FBECDBFDF91CF911F910F910895CF9378
:1040D000DF93CDB7DEB724970FB6F894DEBF0FBEDF
:1040E000CDBF80E00E949F3B009721F4CE01019656
:1040F0000E94242024960FB6F894DEBF0FBECDBFD9
:10410000DF91CF910895EF92FF920F931F93CF937A
:10411000DF93CDB7DEB728970FB6F894DEBF0FBE9A
:10412000CDBF8C0148E050E0BE016F5F7F4F80E360
:104130000E94E91F7C01892B09F073C02981822F1D
:1041400082958F706AE0869FC00111242F70820FC4
:10415000911DD8018D939C932A81822F82958F7017
:10416000869FC00111242F70820F911DF801938347
:1041700082832B813327C9018F739070B4E09595AA
:104180008795BA95E1F7AC01A3E0440F551FAA95B6
:10419000E1F7880F991F840F951F2F703070820FE1
:1041A000931F958384832C81822F82958F70869FA5
:1041B000C00111242F70820F911D978386832D815A
:1041C000822F82958F70869FC00111242F70820FDD
:1041D000911D0197918780878E81282F22952F70BE
:1041E000269FA001112499278F7090708C599F4FA2
:1041F000480F591F538742872885822F82958F70D9
:10420000869FC00111242F70820F911D4A9724F0C0
:104210004C595F4F538742878F819927F8019587C3
:104220008487C70128960FB6F894DEBF0FBECDBFB6
:10423000DF91CF911F910F91FF90EF900895AF9272
:10424000BF92CF92DF92EF92FF920F931F93CF9383
:10425000DF93CDB7DEB723970FB6F894DEBF0FBE5E
:10426000CDBF19822FE32A835E010894A11CB11CE3
:10427000892BA1F082E08B83CC24DD24760100E041
:1042800010E020E030E043E050E0B5018FE60E940E
:10429000A33C009789F486E08B8306C01B82CC2464
:1042A000DD24760100E010E020E030E043E050E063
:1042B000B5018FE60E94A33C23960FB6F894DEBFAB
:1042C0000FBECDBFDF91CF911F910F91FF90EF9067
:1042D000DF90CF90BF90AF900895AF92BF92CF92F2
:1042E000DF92EF92FF920F931F93CF93DF93CDB79F
:1042F000DEB721970FB6F894DEBF0FBECDBF13E136
:10430000A12EB12C0FC061E070E080E090E00E942F
:10431000AF2A0894A108B108A114B10419F48FEFD1
:104320009FEF14C0CC24DD24760101E010E09E0153
:104330002F5F3F4F40E050E060E070E087E50E9473
:10434000A33C8F5F9F4FF9F280E090E021960FB67B
:10435000F894DEBF0FBECDBFDF91CF911F910F91BB
:10436000FF90EF90DF90CF90BF90AF9008952F9285
:104370003F924F925F926F927F928F929F92AF92F5
:10438000BF92CF92DF92EF92FF920F931F93CF9342
:10439000DF933C014A012B0100E010E046C0C3015D
:1043A0008F73907020E430E0281B390B54012815DE
:1043B000390508F4590182E0282E312C2A0C3B1CC7
:1043C000C1010E943C42EC01892BA1F1872D992764
:1043D00088836982A501B201CE0102960E944746F8
:1043E00081E090E00E941F218C01892B31F5CC24C3
:1043F000DD24760100E010E020E030E0A101BE0104
:1044000087E50E94A33C8C01CE010E943942011530
:104410001105B1F40E946D218C01892B89F48A1851
:104420009B086A0C7B1C4A0C5B1C8114910409F0EC
:10443000B6CF06C00FEF1FEF03C0CE010E94394276
:1044400080E090E00E941F21C801DF91CF911F9171
:104450000F91FF90EF90DF90CF90BF90AF909F9023
:104460008F907F906F905F904F903F902F90089526
:104470008F929F92AF92BF92CF92DF92EF92FF9274
:104480000F931F93CF93DF934C015B01EA0181E00F
:1044900090E00E941F218C01892BC1F4CC24DD24E3
:1044A000760100E010E020E030E0AE01B5018FE6DB
:1044B0000E94A33C8C01892B29F4892819F00E94C1
:1044C0006D218C0180E090E00E941F21C801DF91E6
:1044D000CF911F910F91FF90EF90DF90CF90BF9001
:1044E000AF909F908F900895EF92FF920F931F933C
:1044F000CF93DF93CDB7DEB72A970FB6F894DEBF20
:104500000FBECDBF8B017A012AE0FE0131961192D8
:104510002A95E9F723E0880F991F2A95E1F78A8306
:104520006115710509F47AC040FF12C0FB0140819A
:104530005181842F6AE00E949146282F2295207F86
:10454000CA016AE070E00E94B146280F20682B8300
:10455000E1FE12C0F80142815381842F6AE00E947B
:104560009146282F2295207FCA016AE070E00E94C0
:10457000B146280F20682C83E2FE12C0F801448166
:104580005581842F6AE00E949146282F2295207F32
:10459000CA016AE070E00E94B146280F20682D83AE
:1045A000E3FE12C0F80146815781842F6AE00E9421
:1045B0009146282F2295207FCA016AE070E00E9470
:1045C000B146280F20682E83E4FE14C0F801408510
:1045D0005185842F8F5F6AE00E949146282F229593
:1045E000207FCA0101966AE070E00E94B146280F60
:1045F00020682F83E7FE12C0F80144855585842F7B
:104600006AE00E949146282F2295207FCA016AE025
:1046100070E00E94B146280F206829874AE050E0E8
:10462000BE016F5F7F4F81E090E00E9438222A96A2
:104630000FB6F894DEBF0FBECDBFDF91CF911F91B3
:104640000F91FF90EF900895EF92FF920F931F93B9
:10465000CF93DF93CDB7DEB728970FB6F894DEBFC0
:104660000FBECDBF7B018A01FA011182108292E157
:10467000FB0111929A95E9F748E050E0BE016F5FA7
:104680007F4F880F880F880F0E94E91FBC01892B7C
:1046900009F09FC0298127FF20C0F8018081918106
:1046A0008160918380833327C9018F779070F4E014
:1046B00095958795FA95E1F7AC01E3E0440F551F16
:1046C000EA95E1F7880F991F840F951F2F703070BE
:1046D000820F931FF701918380833A8137FF13C0C4
:1046E000F80180819181826091838083832F8295FC
:1046F0008F702AE0829FC00111243F70830F911DAB
:10470000F701938382832B8127FF20C0F8018081EA
:1047100091818460918380833327C9018F77907062
:10472000A4E095958795AA95E1F7AC01F3E0440FD5
:10473000551FFA95E1F7880F991F840F951F2F7069
:104740003070820F931FF701958384833C8137FF7C
:1047500013C0F80180819181886091838083832FC9
:1047600082958F702AE0829FC00111243F70830FD1
:10477000911DF701978386833D8137FF14C0F801AF
:1047800080819181806191838083832F82958F7056
:104790002AE0829FC00111243F70830F911D019771
:1047A000F701918780873F8137FF13C0F80180812F
:1047B0009181806891838083832F82958F702AE016
:1047C000829FC00111243F70830F911DF7019587CF
:1047D0008487CB0128960FB6F894DEBF0FBECDBFFD
:1047E000DF91CF911F910F91FF90EF9008950F935C
:1047F0001F93CF93DF93CDB7DEB72A970FB6F89408
:10480000DEBF0FBECDBF8C018AE0FE013196119252
:104810008A95E9F70115110509F481C080E38A83BF
:10482000F80140815181842F6AE00E949146282F2F
:104830002295207FCA016AE070E00E94B146280FED
:104840002B8342815381842F6AE00E949146282F56
:104850002295207FCA016AE070E00E94B146280FCD
:104860002C8344815581842F6AE00E949146282F31
:104870002295207FCA016AE070E00E94B146280FAD
:1048800020682D8346815781842F6AE00E949146DB
:10489000282F2295207FCA016AE070E00E94B1466D
:1048A000280F2E8340855185842F8F5F6AE00E94F8
:1048B0009146282F2295207FCA0101966AE070E078
:1048C0000E94B146280F2F834285538544365105F7
:1048D0009CF0842F84566AE00E949146282F2295EE
:1048E000207FCA01845690406AE070E00E94B14681
:1048F000280F288780E20FC0842F6AE00E9491462B
:10490000282F2295207FCA016AE070E00E94B146FC
:10491000280F288789E18A87F801848589874AE0FA
:1049200050E0BE016F5F7F4F80E090E00E94382230
:104930002A960FB6F894DEBF0FBECDBFDF91CF91A0
:104940001F910F9108958093D70208950E942D2CF6
:1049500020E033E040E050E06FEF74E082ED92E061
:104960000E94A12F8EEF0E94D3280E9457290E94F7
:104970009E282091D7022F3FC1F393B783B7817F41
:10498000822B83BF83B7816083BF889583B78E7F77
:1049900083BF83B7817F9E70892B83BFE6CF0F9340
:1049A0001F93CF93DF930091450410914604801725
:1049B000910730F080E090E060C0EF01DB012FC094
:1049C000AC014A5F5F4F4430510510F444E050E0C1
:1049D000E091E306F091E40663EE76E0C0E0D0E01B
:1049E000A0E0B0E017C0208131812417350760F0C6
:1049F0002417350711F3209729F08881998128170A
:104A0000390710F4EF01DB01BF016E5F7F4F0280B9
:104A1000F381E02D309739F7CE01209771F128818D
:104A20003981CA010A966A817B818217930770F4E3
:104A3000FE01E40FF51F241B350B318320837383A4
:104A4000628359834883ED93FC9302C06D937C93FA
:104A5000E881F9810E1B1F0B109346040093450457
:104A6000EC0FFD1F34978FEE9EEBADEABEED808319
:104A70009183A283B383CE010296DF91CF911F91E0
:104A80000F910895CF93DF93DC0112976D917C9184
:104A90001197E091E306F091E406C3EED6E03AC048
:104AA00040815181CF01840F951F8A179B07C1F464
:104AB0009A01260F371F3183208382819381DF0182
:104AC000A20FB31FA817B90791F58D919C9111976B
:104AD000280F391F31832083ED018A819B8125C0F6
:104AE000AE17BF0778F4B983A8832D913C91119735
:104AF000CD01820F931F8E179F0779F0ED01FB8385
:104B0000EA8315C0A817B90728F1EF0122960280A1
:104B1000F381E02D309721F617C0240F351F119631
:104B20003C932E9382819381FD01938382838091B4
:104B3000450490914604860F971F909346048093F6
:104B4000450480E090E008C0FD0113821282B98321
:104B5000A883EDCF8FEF9FEFDF91CF910895FC01F8
:104B600061937193CF010E9442250895809145047D
:104B70009091460408950F931F93CF93DF938C0178
:104B80000E94CF24EC01009729F0A80160E070E0BA
:104B90000E945046CE01DF91CF911F910F91089551
:104BA0008091500490915104909355048093540443
:104BB000909358048093570410925604109259040D
:104BC00022E02093FFFF21E02093470410924C0441
:104BD00010924D0410924E0410924F04089580E0FC
:104BE00090E8909351048093500480E090EC90936F
:104BF00053048093520480E090E8A7E0B0E08093F3
:104C0000480490934904A0934A04B0934B040E9433
:104C1000D0250895FC0180914704882389F4909160
:104C2000560480915904981759F4209154043091F6
:104C3000550480915704909158048217930740F4CB
:104C40008091520490915304209154043091550462
:104C5000821B930B91838083809156048E5F809397
:104C6000FFFF80915404909155040895FC018091B8
:104C70004704882319F01182108227C090915604AE
:104C800080915904981759F4209157043091580491
:104C900080915404909155042817390768F0809149
:104CA0005204909153042091570430915804821B70
:104CB000930B9183808309C0821B930B9183808324
:104CC000892B19F481E080934704809159048E5F09
:104CD0008093FFFF809157049091580408950097A6
:104CE00009F440C06091540470915504680F791F15
:104CF0007093550460935404109247049C01442718
:104D0000552780914C0490914D04A0914E04B09190
:104D10004F04820F931FA41FB51F80934C049093E0
:104D20004D04A0934E04B0934F048091520490918F
:104D3000530468177907B1F480915004909151049D
:104D40009093550480935404809156048F5F809310
:104D500056048E3114F010925604809156048E5FE2
:104D60008093FFFF8091540490915504089500971B
:104D700009F452C06091570470915804680F791F6C
:104D800070935804609357049C01442755278091E1
:104D90004C0490914D04A0914E04B0914F04821B9D
:104DA000930BA40BB50B80934C0490934D04A093EC
:104DB0004E04B0934F0480915204909153046817AD
:104DC0007907B1F480915004909151049093580464
:104DD00080935704809159048F5F809359048E31DA
:104DE00014F010925904809159048E5F8093FFFF54
:104DF00020915704309158048091540490915504A7
:104E00002817390749F4909159048091560498174E
:104E100019F481E0809347048091570490915804DD
:104E200008950097D9F16091540470915504680F6A
:104E3000791F70935504609354049C0144275527AF
:104E400080914C0490914D04A0914E04B0914F0478
:104E5000820F931FA41FB51F80934C0490934D04A1
:104E6000A0934E04B0934F041092470480915204D3
:104E7000909153046817790789F4809150049091B8
:104E800051049093550480935404809156048F5F8D
:104E9000809356048E3114F0109256048091590478
:104EA0008E5F8093FFFF0895009709F44DC06091D5
:104EB000570470915804680F791F709358046093D9
:104EC00057049C014427552780914C0490914D0430
:104ED000A0914E04B0914F04821B930BA40BB50B11
:104EE00080934C0490934D04A0934E04B0934F04D0
:104EF00080915204909153046817790789F4809146
:104F000050049091510490935804809357048091D9
:104F100059048F5F809359048E3114F01092590414
:104F20002091570430915804809154049091550475
:104F30002817390749F4909159048091560498171D
:104F400019F481E080934704809156048E5F80932A
:104F5000FFFF0895609148047091490480914A04CC
:104F600090914B0420914C0430914D0440914E049B
:104F700050914F04621B730B840B950B0895609145
:104F80004C0470914D0480914E0490914F0408950B
:104F900080914C0490914D04A0914E04B0914F0427
:104FA00080509044A040B04080934C0490934D04B6
:104FB000A0934E04B0934F04809159048F5F809367
:104FC00059048E3114F010925904809159048E5F67
:104FD0008093FFFF0895CF93DF93DC019B01EC01E9
:104FE000788F6F8B1D821C820FB6F8940F92EB01A5
:104FF000E881F9818FEFEF3FF80749F4ED018C81EB
:105000009D8101969D838C83E0E0F0E015C0309790
:1050100099F00F900FBEED019A8908C09F012E5F95
:105020003F4F0280F381E02D309719F08289981765
:10503000A8F70FB6F8940F92ED01FB83EA83F9010C
:10504000B183A083EA81FB81309771F084819581DF
:10505000892B51F08C819D8124813581820F931F92
:105060009D838C83158214820F900FBEDF91CF91A8
:105070000895CF93DF939C01DB010FB6F8940F9254
:10508000ED91FC9111970F900FBE8FEFEF3FF80756
:1050900031F527C082819381E217F307E9F40FB657
:1050A000F8940F9211969C938E9384819581892B0D
:1050B00059F0A281B381109729F084819581ED0187
:1050C0009D838C83158214820F900FBEF901138289
:1050D0001282108E178A05C0DF011296FC013097EC
:1050E000C9F6DF91CF910895FB01168A158A82E0F7
:1050F000878767EE76E0CF010E94EB2708950F9334
:105100001F93CF93DF938C01C091E506D091E60603
:105110000CC0B801CE0106960E946246892B11F49C
:10512000CE0107C00990D881C02D209791F780E06B
:1051300090E0DF91CF911F910F910895E091EB06E0
:10514000F091EC06309741F0838994890E944225C2
:105150001092EC061092EB060895CF93DF93C09166
:10516000E506D091E6060E949E282091E90630913E
:10517000EA06E5EEF6E00AC088819981C217D307F6
:1051800019F49183808304C0FE01EC012097A1F7FC
:105190008091E9069091EA069093EC068093EB06E5
:1051A000DF91CF9108950F931F93182FE091E90697
:1051B000F091EA06028967EE76E0CF010E94392875
:1051C000E091E906F091EA06128B1F3F49F067EE85
:1051D00076E08091E9069091EA060E94EB2702C0F2
:1051E0000E94AD28E091E906F091EA068091E70679
:1051F0009091E806E817F90719F481E0878709C05C
:1052000082E087870FB6F8940F920E94622F0F906A
:105210000FBE802F99271F910F9108958FEF0E9445
:10522000D3280895CF93DF93C091E506D091E60689
:1052300020C00FB6F8940F928C819D810F900FBE05
:10524000892BA1F0EF89F88D0FB6F8940F928C811D
:105250009D8101979D838C830F900FBE80819181EA
:105260008F5F9F4F19F0CF010E94B52C0990D88114
:10527000C02D2097F1F60E94A12BE091E906F09154
:10528000EA068091E7069091E806E817F90761F0D1
:105290008785813011F482E087870FB6F8940F92EA
:1052A0000E94622F0F900FBEDF91CF910895E09181
:1052B000E906F091EA0682819381892B69F067EE15
:1052C00076E0CF010E94392867EE76E08091E9060A
:1052D0009091EA060E94EB270E941229089580917E
:1052E000F3069091F406A091F506B091F6060196AA
:1052F000A11DB11D8093F3069093F406A093F506CB
:10530000B093F60608959B01AC016091ED06709193
:10531000EE068091EF069091F0060E94724628EE0C
:1053200033E040E050E00E94C44601C0000021503C
:10533000310941095109D0F708959927AA27BB27B8
:10534000BC01CD0128EE33E040E050E00E947246FF
:105350000E9483290895CF93DF93EC011B821A8268
:10536000E091F106F091F2061AC0288539854A8548
:105370005B8580859185A285B385281739074A0703
:105380005B0780F0281B390B4A0B5B0B288739879A
:105390004A875B87FB83EA830190F081E02D309799
:1053A00021F718C0821B930BA40BB50B8087918744
:1053B000A287B387F983E883D383C283EA81FB8121
:1053C000309719F0D183C08308C0D093F206C09300
:1053D000F10603C019821882F1CFDF91CF910895B1
:1053E000CF93DF93FC0114821582168217821586F3
:1053F000148680859185A285B3850097A105B105A6
:1054000061F1A281B38180819181109719F08D9310
:105410009C9304C09093F2068093F106C081D181E1
:105420002097A1F0828193819B838A8388859985C7
:10543000AA85BB852085318542855385820F931FC0
:10544000A41FB51F88879987AA87BB8710861186F6
:1054500012861386CF010E94AB29DF91CF91089568
:105460000FB6F8940F926091F3067091F406809154
:10547000F5069091F6060F900FBE0895AF92BF9279
:10548000CF92DF92EF92FF920F93CF93DF936B0156
:105490007C01EA01590180E190E00E94CF24FC01E7
:1054A000892B81F10FB6F8940F928091F3069091B9
:1054B000F406A091F506B091F6060F900FBE8C0D84
:1054C0009D1DAE1DBF1D20915A0430915B0440917B
:1054D0005C0450915D04821B930BA40BB50B808779
:1054E0009187A287B38700FF05C0148215821682B8
:1054F000178204C0C482D582E682F782D587C4872A
:10550000B786A686CF01DF91CF910F91FF90EF90E4
:10551000DF90CF90BF90AF9008950F93CF93DF931C
:105520000E943E2AEC01009711F00E94AB29CE01A7
:10553000DF91CF910F910895CF92DF92EF92FF927A
:105540000F936A0179010E9473309701A6010E94AE
:105550008D2A0F91FF90EF90DF90CF900895AF923A
:10556000BF92CF92DF92EF92FF920F93CF93DF9390
:105570005B016C016115710581059105D1F1C7EEE3
:10558000D6E0BE018091E9069091EA060E94392892
:10559000E091E906F091EA0683E08787E090E9066A
:1055A000F090EA0601E0970144E758E2C601B50130
:1055B0000E949C2AF701968B858B892B19F00E94FB
:1055C000122919C0E091E906F091EA06D08FC78B45
:1055D0008091E7069091E8069383828381E0878734
:1055E0008091E9069091EA069093E8068093E70699
:1055F00002C00E945729DF91CF910F91FF90EF9049
:10560000DF90CF90BF90AF9008952F923F924F922E
:105610005F926F927F928F929F92AF92BF92CF9242
:10562000DF92EF92FF920F931F93CF93DF93CDB74B
:10563000DEB724970FB6F894DEBF0FBECDBF0FB60E
:10564000F8940F92A090F306B090F406C090F5067F
:10565000D090F6060F900FBE0E9449309B01AC011E
:10566000C601B5010E94C44639014A010E94493071
:105670001B012C010E94493069837A838B839C83B0
:10568000C401B30128EE33E040E050E00E947246CE
:105690007B018C01C401B301A20191010E947246F9
:1056A000A61AB70AC80AD90AC601B50128EE33E01E
:1056B00040E050E00E94724629813A814B815C8132
:1056C0000E94C446E20EF31E041F151FC801B70155
:1056D00024960FB6F894DEBF0FBECDBFDF91CF91F9
:1056E0001F910F91FF90EF90DF90CF90BF90AF9000
:1056F0009F908F907F906F905F904F903F902F90F2
:105700000895EF92FF920F931F930FB6F8940F92A4
:10571000E090F306F090F4060091F5061091F6067D
:105720000F900FBE0E9449309B01AC01C801B70128
:105730000E94C446CA01B9011F910F91FF90EF90DA
:105740000895EF92FF920F931F93CF93DF930FB6BD
:10575000F8940F922091F3063091F4064091F506EB
:105760005091F6060F900FBE80915A0490915B0401
:10577000A0915C04B0915D0479018A01E81AF90AEC
:105780000A0B1B0B20935A0430935B0440935C0478
:1057900050935D044FC088859985AA85BB85E8161E
:1057A000F9060A071B07A0F48E199F09A00BB10B7D
:1057B00088879987AA87BB870097A105B10521F043
:1057C000EE24FF24870136C0EE24FF24870108C0A1
:1057D000E81AF90A0A0B1B0B188619861A861B860B
:1057E000EC85FD85309721F06E857F85CE0119957A
:1057F000E091F106F091F2060190F081E02DF09336
:10580000F206E093F106309711F0138212828C8138
:105810009D81AE81BF8188879987AA87BB870097C2
:10582000A105B10521F4CE010E94422503C0CE019D
:105830000E94AB29C091F106D091F206209731F079
:10584000E114F1040105110509F0A5CFDF91CF9115
:105850001F910F91FF90EF9008958FE699E20E94BB
:105860004E30809170008260809370000FB6F89483
:105870000F922091F3063091F4064091F506509175
:10588000F6060F900FBE0FB6F8940F928091F306B4
:105890009091F406A091F506B091F6060F900FBE18
:1058A000281739074A075B0771F30FB6F8940F9270
:1058B0002091F3063091F4064091F5065091F606DA
:1058C0000F900FBE13C08091ED069091EE06A0914F
:1058D000EF06B091F0060196A11DB11D8093ED0673
:1058E0009093EE06A093EF06B093F0060FB6F894EF
:1058F0000F928091F3069091F406A091F506B09175
:10590000F6060F900FBE281739074A075B07D9F232
:105910006091ED067091EE068091EF069091F00691
:1059200027E630E040E050E00E9472466093ED06CA
:105930007093EE068093EF069093F0066091ED066B
:105940007091EE068091EF069091F0062AE130E02A
:1059500040E050E00E94C4462093ED063093EE06EE
:105960004093EF065093F0060895CF93DF93DC0148
:105970000FB6F8940F92CD91DC9111970F900FBE56
:105980008FEFCF3FD80709F43AC0209771F10FB6D7
:10599000F8940F92EA81FB811196FC93EE938C812F
:1059A0009D81892B71F0309729F08C819D819583A1
:1059B000848305C08FEF9FEF11969C938E931D8279
:1059C0001C820F900FBE8D899E89009721F00E9446
:1059D000F0291E8A1D8A82E08F8767EE76E0CE016D
:1059E0000E94EB2781E090E00CC00FB6F8940F9274
:1059F0008FEF9FEF11969C938E930F900FBE80E0D8
:105A000090E0DF91CF9108950F931F93CF93DF9391
:105A1000EC010FB6F8940F92888199810F900FBE18
:105A20002FEF8F3F920741F40FB6F8940F9219822F
:105A300018820F900FBE02C0892B19F400E010E00D
:105A400012C000E010E0CE010E94B52C080F191F13
:105A50000FB6F8940F92888199810F900FBE01972D
:105A60008E5F9F4F80F3C801DF91CF911F910F91FF
:105A700008950F931F930E94042D8C010E945729B3
:105A8000C8011F910F9108950F931F930E94B52C89
:105A90008C010E945729C8011F910F910895CF933F
:105AA000DF93AC01DB010FB6F8940F92CD91DC913E
:105AB00011970F900FBE8FEFCF3FD80799F534C0E5
:105AC0008D899E892A813B818417950741F50FB600
:105AD000F8940F9211963C932E938C819D81892B83
