:100000000C9472040C94E4040C94E4040C94E40442
:100010000C94E4040C9446320C94E4040C940233E3
:100020000C94E4040C94E4040C94E4040C94E404B0
:100030000C94E4040C94EE330C94E4040C94E40467
:100040000C94E4040C94E4040C94E4040C94E40490
:100050000C94E4040C94E4040C94E4040C947833BD
:100060000C94E4040C94663F0C94E4040C94E13F7B
:100070000C94E4040C94E4040C94E4040C94E40460
:100080000C94E4040C94E4040C94E4040C94E40450
:100090000C945B400C94E4040C94D6400C94EC3E1D
:1000A0000C94E4040C94E4040C94E4040C94E40430
:1000B0000C94E4040C94E4040C94E4040C94E40420
:1000C0000C94E4040C94E4040C94E4046935B23513
:1000D000F9351F3633365B36633688366635AA36D1
:1000E000F136F736FD3603372037093720375637D4
:1000F0002B3740375254432074696D65205B25309F
:1001000032643A253032643A253032645D00486505
:100110006C6C6F20576F726C64007700756172743D
:1001200030000A000A23446562756720000A2349EB
:100130006E666F2020000A234E6F74696320000AE8
:10014000235761726E2020000A23457272202020FE
:10015000000A23437269742020000A23416C6572EF
:100160007420000A23456D65726720003F3F203CE4
:10017000444D4B3E200057443A200056533A20004D
:1001800056453A200055543A200055443A2000552F
:10019000413A200053523A200053503A200053472E
:1001A0003A200053453A200053543A200052543A22
:1001B000200052433A2000504C3A200050413A204F
:1001C000004D443A20004D4D3A20004D453A200064
:1001D00053593A20004C473A20004C453A20004BF6
:1001E000423A2000494E3A200048543A2000464CFA
:1001F0003A200046413A200044503A2000434D3A0C
:10020000200043483A200041553A20003080300019
:10021000170780B0173C06001750003F2400060067
:10022000162012008F570000CE10122900990000EE
:100230004D0080404C180600D7960028550D000050
:10024000480D0600505B0930420080B00180144226
:1002500040BC182840C71336423C003E03B8140087
:10026000031B1500C259D66F2400003603981228CC
:10027000D55700004D000028402BF33624004C8059
:10028000103E1438103E0A78133E0DB8033E05F8B0
:1002900006009555093015141B00D4FF0300CEFF4E
:1002A00001000A000024CE168AB5240092F20094C0
:1002B0005261240002FE2400B24824004A4501B6DF
:1002C000F33605D8F3360D98F0360A5800200000B2
:1002D000F0361418618013362400123E17B8123E0F
:1002E0001538053E14B82536240000000A80103E5B
:1002F00003B8944105B8113E2400113E07B8143EDE
:100300001278143E0DF8033E0EF806005100002846
:10031000D5240000240088B81200046405040000FD
:1003200024000028582194402400002402210000C9
:1003300024009864030856FE2400B6482400D64DD5
:100340002400103A24C0F03224C056FE2400B648DF
:100350002400D64D24008443834496638C8800F4A3
:10036000D540003D2480060091003F00C3FE0600FA
:1003700053000131248060FE2400BE48240034A6CE
:10038000030C244324008442022C060011000028A0
:10039000D824003124800600115000392480060042
:1003A000110000314C9884424C9000F488400028A1
:1003B000452800002400F03C40380930413809301D
:1003C000103800200000000088270930D01B0028CA
:1003D00080280930811BF334CC1BF3360ED8F43659
:1003E0000DD8F4361258F1360798F1360518F03664
:1003F000039805341490F3362400F23615180020C3
:100400000000F2361798AD80123E17B8123E15382C
:10041000053E14B81536240000000A80103E02780C
:10042000103E04F8113E1078143E1278132980C94A
:10043000143E24C0132980C988404C1800F405409C
:100440000000C018006424000000C01B0028953084
:10045000300010030028803F01382440006424004D
:100460000000401A002855370600D0550000037DD3
:1004700084B84C1809300538093000008AFF240080
:100480001D29007BB24824000000411806001050CE
:100490008A4044B800290013884024000030CC1B57
:1004A00014602400300051030028D53600002400D9
:1004B00006001100003124003000510300382400F0
:1004C0000028803F01392440006424003000D0031C
:1004D0000028553F0000037D0600D05584B84C1815
:1004E00009300538093000008AFF24001D29007BEF
:1004F000B24824008A40CC9B000041180028553B9C
:10050000060010509A682400003024001460240073
:10051000300092030028853E06009100060011007D
:10052000000052180600530080B800240600910015
:100530000438248030009203003B24000139244019
:100540000028803F013A24400138244080B8D31B62
:10055000F4361258F1361058F03604D8F0360258F6
:1005600005341490F3362400F236151800200000EC
:10057000F2361798300000000000457869740000DA
:10058000000053EF6E000000004578697453EF6E71
:100590004DEA6D5400000000070606060606060632
:1005A00006060606060606060606060606060606EB
:1005B00006060606060606060606060606060606DB
:1005C00006060606060606060606060606060606CB
:1005D00006070606060606060606060606060606BA
:1005E00006060606060606060606060606060606AB
:1005F000060606060606060606060606070606069A
:10060000060606060606060606060606060606068A
:10061000060606060606060606060606060606067A
:10062000060606060606060606060606060606066A
:10063000060606060606060606060606060606065A
:10064000060606060606060606060606060606064A
:10065000060606060606060606060606060606063A
:10066000060606060606060606060606060606062A
:10067000060606060606060606060606060606061A
:10068000060606060606060606060606060606060A
:1006900006060606060706060606060606060606F9
:1006A00006060606060606060606060606060606EA
:1006B00006060606060606060606060606060606DA
:1006C00006060606060606060606060606060606CA
:1006D00006060606060606060606060606060606BA
:1006E00006060606060606060606060606060606AA
:1006F000060606060606060606060606060606069A
:100700000606060606060606060606060606060689
:100710000606060606060606060606060606060679
:100720000606060606060606060606060606060669
:100730000606060606060606060606060606060659
:10074000060606060606060606060606065468722D
:10075000656164206661696C656400436172645020
:1007600072657300436172642072656D6F766564B3
:10077000004361726420696E73657274656400453C
:1007800072726F7220696E697469616C6973696EE7
:10079000672046696C652073797374656D20616E9E
:1007A0006420436172642D647269766572004361EE
:1007B0007264206D6F756E74656400696E76616C2D
:1007C0006964205370656564006572726F7220649D
:1007D0007572696E6720435344207265616400003E
:1007E0000000000000000000000000000000000009
:1007F00000000000000000000000000000000000F9
:1008000000000000000000000000000000000000E8
:1008100000000000000000000000000000000000D8
:1008200000000000000000000000000000000000C8
:1008300000000000000000000000000000000000B8
:1008400000000000000000000000000000000000A8
:100850000000000000000000000000000000000098
:100860000000000000000000000000000000000088
:100870000000000000000000000000000000000078
:100880000000000000000000000000000000000068
:100890000000000000000000000000000000000058
:1008A0000000000000000000000000000000000048
:1008B0000000000000000000000000000000000038
:1008C0000000000000000000000000000000000028
:1008D0000000000000000000000000000000000018
:1008E0000000000084E880937400479A3F9A469A7B
:1008F0003E9A81EE809300C380E4809301C385B764
:100900008F7785BF80E090E0359B05C0019641F070
:10091000359BF8CFFBCF019619F03599F3CFFBCF7C
:1009200085B7806885BF47983F9846983E9887E08E
:100930008093C4008093CC0011241FBECFEFD1E27E
:10094000DEBFCDBF13E0A0E0B2E0E6E6F0E900E0F4
:100950000BBF02C007900D92A03AB107D9F717E07C
:10096000A0EAB3E001C01D92AA32B107E1F78FEF10
:100970009FE79EBF8DBF8FEF9FE78A5297408158B8
:10098000914040F06FEF7EE76A5277408AE297E04D
:100990000E94D4260E94972F892B41F069ED72E0C6
:1009A00080E197E00E9490470E947E2F20E831E08E
:1009B00040E050E06BEC75E282EE92E00E94C630BF
:1009C0000E9400000C9432480C94000087EF84B918
:1009D0008CE08AB98BB18C70836F8BB98EE88DB93E
:1009E0008EB18E7881608EB985B7806885BF85B7F6
:1009F000806885BF8EE080BB81B38E70816F81BBC4
:100A000088E183BB08951F93CF93DF93CDB7DEB703
:100A100062970FB6F894DEBF0FBECDBF0E94620E84
:100A200084E60E94C22A0E94E6040E9404100E94EA
:100A300028060E94DC050E9453088EE091E09F93F7
:100A40008F9316EC1F930E9413070E948C21CE01F6
:100A500001960E94A8210F900F900F90892BD9F436
:100A600089819A819F938F938B819C819F938F9390
:100A70008D819E819F938F9384EF90E09F938F93BE
:100A80001F930E9413078DB79EB709960FB6F8946F
:100A90009EBF0FBE8DBF0E94601F0E94E80E0E9485
:100AA000F40D0E944F090E9479080E94530A40E009
:100AB00050E06DE875E089EF92E00E94C12F892B2C
:100AC00049F485B5846085BDA89A80916E008160E7
:100AD00080936E0081E00E94F82920E034E040E03D
:100AE00050E06CE975E080E092E00E94C63020E0C2
:100AF00034E040E050E062E975E086E092E00E9478
:100B0000C630789464EF71E080E090E00E94D42BCE
:100B10008CE092E00E94E309F5CF0E9481080E94D8
:100B20008F0E089564EF71E080E090E00E94D42B76
:100B300083E00E945908F6CF64EF71E080E090E016
:100B40000E94D42B82E00E945908F6CF8091A00326
:100B50009091A10308958091A0039091A103009723
:100B600031F00E947C411092A1031092A0030895DD
:100B7000CF93DF93CDB7DEB724970FB6F894DEBFDF
:100B80000FBECDBF69837A838B839C838091A00342
:100B90009091A1030E94CD41AE014F5F5F4F63E191
:100BA00071E00E94124124960FB6F894DEBF0FBE8A
:100BB000CDBFDF91CF910895EF92FF920F931F93D6
:100BC000CF93DF93CDB7DEB72D970FB6F894DEBF86
:100BD0000FBECDBF80E092ECA1E0B0E08C839D839E
:100BE000AE83BF8388E0E82EF12CEC0EFD1E6CE195
:100BF00071E0C7010E9442476AE171E08E010F5F18
:100C00001F4FC8010E944247409148035091490339
:100C1000B801C7010E942D429093A1038093A003C5
:100C2000009749F00E94CD41AE014C5F5F4F61E0FB
:100C300071E00E9412412D960FB6F894DEBF0FBEF0
:100C4000CDBFDF91CF911F910F91FF90EF9008954D
:100C50001092A1031092A00340E060E070E085E0F4
:100C600093E00E94522F08959091A203883010F4CF
:100C70008093A203892F992708952F923F924F9234
:100C80005F926F927F928F929F92AF92BF92CF921C
:100C9000DF92EF92FF920F931F93CF93DF93CDB725
:100CA000DEB7CD54D0400FB6F894DEBF0FBECDBF37
:100CB0007C016B011A01892B09F48EC094E0692E26
:100CC000712C44245524AA24BB24A0E0B0E000E009
:100CD00010E07EC0C5018F709070892B69F54DE4DE
:100CE00050E060E270E08E010F5F1F4FC8010E946C
:100CF00075479301220F331F220F331F24503040BA
:100D000040E050E0D801F201022E02C0F695E795CE
:100D10000A94E2F7EF70F070EB5EFD4F80818D93E7
:100D20004F5F5F4F245030404615570561F7D301A0
:100D3000129683010C5C1F4FF6019081E92FE2951A
:100D4000EF70FF27EB5EFD4F50814D010894811C31
:100D5000911CE92FFF27EF70F070EB5EFD4F408193
:100D6000892F80528F3510F08EE201C0892F9E01AD
:100D70002F5F3F4FA20FB31F5C93F901E80DF91DE0
:100D80004083F901E00FF11F80830F5F1F4F08942C
:100D9000A11CB11CC5018F709070892B19F0A21491
:100DA000B30489F4F901E00FF11F1082B701C90102
:100DB0000E94C042B7018AE090E00E94984280E120
:100DC00090E0480E591E0894C11CD11CD401129603
:100DD000A214B30409F07ECFC35BDF4F0FB6F894C3
:100DE000DEBF0FBECDBFDF91CF911F910F91FF905E
:100DF000EF90DF90CF90BF90AF909F908F907F90BB
:100E00006F905F904F903F902F9008956091A30353
:100E10007091A4036115710529F0992787FD9095BC
:100E20000E94984208951F93CF93DF93CDB7DEB70A
:100E300022970FB6F894DEBF0FBECDBF1985609123
:100E4000A3037091A4036115710509F410C1212F4A
:100E50003327277030708091A20399278217930758
:100E60000CF405C1812F87708330F1F0843028F4B1
:100E70008130A1F08230A8F40EC08530D9F08530E1
:100E8000B0F08630D1F0873019F484E291E017C0D9
:100E900082E291E014C083E691E011C08AE591E01E
:100EA0000EC081E591E00BC088E491E008C08FE3BB
:100EB00091E005C086E391E002C08DE291E00E94DE
:100EC000D1426091A3037091A403212F287F28377A
:100ED00009F4AAC0293790F5283309F499C02933B9
:100EE000B0F4283109F48EC0293138F4283009F4DF
:100EF00086C0203109F053C055C0283209F485C09E
:100F0000203309F455C0203209F049C04EC02835BD
:100F100009F484C0293548F4283409F47CC020350C
:100F200009F44CC02034D9F546C0283609F479C0FC
:100F3000203709F449C0203691F543C0283B09F415
:100F40007FC0293BA8F4283909F474C0293940F43A
:100F5000283809F46CC02039E9F1203801F537C090
:100F6000283A09F46AC0203BD9F1203AC1F435C0CF
:100F7000283D09F46BC0293D40F4283C09F463C0C6
:100F8000203DA1F1203C59F42EC0283E29F0203FFD
:100F900099F1203E21F42DC086E791E059C08CE6FE
:100FA00091E056C087E092E053C082E092E050C0EA
:100FB0008DEF91E04DC088EF91E04AC083EF91E062
:100FC00047C08EEE91E044C089EE91E041C084EECE
:100FD00091E03EC08FED91E03BC08AED91E038C0DA
:100FE00085ED91E035C080ED91E032C08BEC91E071
:100FF0002FC086EC91E02CC081EC91E029C08CEBF5
:1010000091E026C087EB91E023C082EB91E020C005
:101010008DEA91E01DC088EA91E01AC083EA91E070
:1010200017C08EE991E014C089E991E011C084E90C
:1010300091E00EC08FE891E00BC08AE891E008C013
:1010400085E891E005C080E891E002C08BE791E07F
:101050000E94D142AE01445F5F4F5A8349836A8543
:101060007B858091A3039091A4030E94E542229680
:101070000FB6F894DEBF0FBECDBFDF91CF911F91A9
:1010800008958091A3039091A4031092A403109259
:10109000A3030E94BC4108950E94A6059093A40357
:1010A0008093A303089587E08093A2030E944C08D5
:1010B0000895833059F0843018F4882339F008C03B
:1010C000853031F0853040F0863091F48B9801C046
:1010D0008B9A8093A50308958091A503813021F414
:1010E0008B981092A50308958B9A81E08093A503B5
:1010F00008958B981092A50308958091A5039927D0
:101100000895A398000000006FB1A39AA49800006E
:1011100000004FB1A49A5B98000000008FB15B9A69
:101120005A98000000002FB15A9A62956F70772785
:10113000407F5527642B752B807F992734E0880FDB
:10114000991F3A95E1F7682B792B207F3327322FAF
:101150002227622B732B7093A9036093A8038FEF50
:101160006F3B780709F458C08FEF603C7807F8F4BC
:101170008BEF6F3F780709F45EC08CEF6030780723
:1011800048F48FEE6F3F780709F45BC06F5F774FCD
:1011900089F548C08EEF6F3F780709F449C08FEF9B
:1011A0006F37780781F16F5F7D4F21F547C08FEF73
:1011B000673F780759F18FEF683F780760F48FEF4A
:1011C0006F3D780791F18FEF6F3E780741F16F5CCB
:1011D0007F4F81F40CC08FEF6D3F780789F08FEF60
:1011E0006E3F7807B1F06B5F7F4F21F406C08EE051
:1011F00090E029C088E890E026C081E090E023C01C
:1012000082E090E020C083E090E01DC084E090E0A8
:101210001AC085E090E017C086E090E014C087E037
:1012200090E011C088E090E00EC089E090E00BC033
:101230008AE090E008C08BE090E005C08CE090E090
:1012400002C08DE090E08093AA030895E82F862FD6
:101250008150823030F4E03120F4FF27E255FC4F1A
:10126000608308958091AA03992708958093AA0323
:10127000E091A603F091A703309739F48FEF9FEF29
:101280009093A7038093A60308958FEFEF3FF8078D
:1012900029F0848195810196958384830895A39A8A
:1012A000A49A5B9A5A9A1092AD038FEF9FEF909396
:1012B000A9038093A8030FB6F8940F921092A70386
:1012C0001092A6030F900FBE8FEF8093AA03EEEA51
:1012D000F3E082E0819393E0EE3BF907D9F71092B7
:1012E000AC031092AB0361E088E00E94260961E044
:1012F0008BE00E94260961E08AE00E94260961E0F5
:101300008CE00E9426090895AB01BC0186EA93E0B7
:101310000E94BC2E20E030E08F5F9F4F11F421E04F
:1013200030E0C9010895813011F4739A089588233B
:1013300009F4739808959AB19F70906F9AB99BB110
:101340009F70607F962B9BB9823011F48A9801C000
:101350008A9A729A0000000072988A988AB18F70F7
:101360008AB98BB18F70806F8BB908950F931F93DB
:10137000082F162F8A98899A729A000000004F99B8
:10138000FBCF72988A988998612F607F802F0E9486
:101390009B091295107F612F802F0E949B091F913E
:1013A0000F910895682F83E00E94B60908951F9356
:1013B000162F682F82E00E94B609612F83E00E94F9
:1013C000B6091F910895CF92DF92EF92FF920F938B
:1013D0001F93CF93DF93CDB7DEB721970FB6F89465
:1013E000DEBF0FBECDBF8C0181E00E949309CC24EB
:1013F000DD2478013EC083E0C816D10441F1E4E069
:10140000CE16D10464F4F1E0CF16D104E1F082E00D
:10141000C816D104D4F4C114D10499F01FC0E5E07A
:10142000CE16D104C1F0F5E0CF16D10494F086E0D9
:10143000C816D10491F0E7E0CE16D10479F49FE804
:101440000DC098E80BC099E809C09AE807C09BE86E
:1014500005C09CE803C09DE801C09EE8F7016191CA
:101460007F01892F99830E94D7090894C11CD11C40
:101470009981F80101900020E9F73197E01BF10B09
:10148000CE16DF0608F4B7CF21960FB6F894DEBF6C
:101490000FBECDBFDF91CF911F910F91FF90EF90C5
:1014A000DF90CF9008951F938CE80E94C22A10E02D
:1014B00063E382E00E949B0984E00E94C22A1F5FCE
:1014C0001330B1F762E282E00E949B0981E00E9442
:1014D000C22A68E282E00E94B60985E00E94C22A20
:1014E0006CE082E00E94B60985E00E94C22A61E0B9
:1014F00082E00E94B60985E00E94C22A66E082E08E
:101500000E94B60960E882E00E94B6091F91089522
:101510000FB6F8940F929DB3882311F0EE9A01C094
:10152000EE980F900FBE892F992726E09695879504
:101530002A95E1F781709070089580E00E94880AF2
:10154000982F8091BE03813011F41092BE03892F31
:101550000E94880A80E090E008958091BE03992758
:1015600008958091BF039091C00308958091BF03B7
:101570009091C00308950F931F93CF93DF93EC01D5
:101580008B0180E090E00E94081005C0FE0184916C
:101590000E94F00F219601501040FFEF0F3F1F07F0
:1015A000A9F70E94E50FDF91CF911F910F91089548
:1015B0001F9380E00E94880A182F64E070E08AE799
:1015C00095E00E94BB0A64E070E086E795E00E9427
:1015D000BB0A812F0E94880A80E090E01F91089545
:1015E0000F931F93CF93DF938C01EB0180E090E08A
:1015F0000E94081005C0F80181918F010E94F00F30
:101600002197FFEFCF3FDF07B1F70E94E50FDF9192
:10161000CF911F910F910895EF92FF920F931F9317
:10162000F82E8B010E94EC0FE82E80E00E94E90F5B
:1016300080E090E00E9408102C9882E00E94F00F59
:101640008F2D0E94F00F812F99270E94F00F802F7D
:101650000E94F00F2C9A0E94E50F8E2D0E94E90F38
:101660001F910F91FF90EF900895DF92EF92FF92FC
:101670000F931F93082FE62E80E00E94880AD82E31
:101680001127102F0027FF240E291F29B8018BE0F6
:101690000E940C0B8D2D0E94880A80E090E01F9123
:1016A0000F91FF90EF90DF900895FF920F931F939B
:1016B0008C0180E00E94880AF82E1C60B80180E04E
:1016C0000E940C0B8F2D0E94880A80E090E01F91F1
:1016D0000F91FF9008951F93CF93DF93CDB7DEB79F
:1016E00021970FB6F894DEBF0FBECDBF898380E08F
:1016F0000E94880A182F80E290E00E94550B63E058
:1017000070E082E895E00E94BB0A61E070E0CE01E3
:1017100001960E94F00A64E070E08EE795E00E9476
:10172000BB0A812F0E94880A80E090E021960FB6C4
:10173000F894DEBF0FBECDBFDF91CF911F9108950A
:10174000282F332727703070C90153E0880F991F65
:101750005A95E1F7820F931F885C0E946B0B0895E6
:10176000DF92EF92FF920F931F93CF93DF93CDB74A
:10177000DEB721970FB6F894DEBF0FBECDBF8983C9
:101780007B0180E00E94880AD82E80E290E00E94CF
:10179000550B89818295807F885C898363E070E046
:1017A0008DE895E00E94BB0A61E070E0CE010196F1
:1017B0000E94F00A05E815E064E070E0C8010E94AC
:1017C000BB0A8E2D0E94C22A64E070E089E895E091
:1017D0000E94BB0A64E070E0C8010E94BB0A8D2D24
:1017E0000E94880A80E090E021960FB6F894DEBF50
:1017F0000FBECDBFDF91CF911F910F91FF90EF9062
:10180000DF9008950F931F938C0180E00E94880A57
:101810001092BE03C80184600E94550B8AE00E94AA
:10182000C22A80E48CBB80E090E01F910F91089564
:10183000DF92EF92FF920F931F93182F0E94EC0FED
:10184000D82E80E00E94E90F80E090E00E9408100E
:101850002C9883E00E94F00F812F0E94F00F0E94CD
:10186000F50FE82EFF24FE2CEE240E94F50F082F22
:101870002C9A0E94E50F8D2D0E94E90F1127C701B8
:10188000802B912B1F910F91FF90EF90DF90089587
:10189000FF920F931F9380E00E94880AF82E8BE03E
:1018A0000E94180C8C018F2D0E94880AC8011F917C
:1018B0000F91FF900895FF920F931F93182F80E0D0
:1018C0000E94880AF82E812F0E94180C8C018F2DFF
:1018D0000E94880AC8011F910F91FF90089589E026
:1018E0000E945B0C9C018FEF213E380790F58DE440
:1018F00024353807A1F18DE42535380768F481E4F3
:1019000024353807F9F08DE424333807D9F081E421
:101910002434380709F516C087E52D363807F9F065
:1019200087E52E36380728F487E52D343807A1F4EB
:1019300009C086E72536380729F08FEF203E3807A3
:1019400059F40DC08091BF039091C003039739F4FF
:1019500003C020EE3FEF03C080E090E00895C9018E
:10196000089580E00E94880A2F982C9A2898209A3F
:1019700084E00E94C22A80E00E94E90F1092BE0318
:101980002F9A84E00E94C22A81E00E94180C74E021
:10199000969587957A95E1F7877090709093C0033C
:1019A0008093BF03039719F460E070EE02C060E01B
:1019B00078E983E00E940C0B82E30E94C22A80E057
:1019C00090E00E94550B60E080E00E94350B82E3BE
:1019D0000E94C22A8091BF039091C003039702978F
:1019E00010F482E001C081E00E94E90F40E050E085
:1019F00069E07DE083EF92E00E94C12F66E070E035
:101A000083EF92E00E943F3080E48CBB80E090E066
:101A10000895BF92CF92DF92EF92FF920F931F93A0
:101A2000CF93DF93CDB7DEB722970FB6F894DEBF22
:101A30000FBECDBF8091BE03813009F04FC0669BC1
:101A40004DC080E00E94880AB82E78941A821982CC
:101A500080E090E00E940810F0E2EF2EF12C00E010
:101A600010E0CC24DD2403C0EFE1EE2EF12C8981BF
:101A70009A81C816D906C0F0C114D10419F0C60164
:101A80000E94DC27CE0101960E945B278C01898190
:101A90009A81892B19F0CC24DD2408C082E0809340
:101AA000BE03CC24DD2412C0892B41F0F8018191C2
:101AB0008F010E94F00F0894C11CD11C6699D4CFED
:101AC0000894E108F108E114F10489F60E94E50F99
:101AD000C6010E9479288B2D0E94880A22960FB693
:101AE000F894DEBF0FBECDBFDF91CF911F910F9154
:101AF000FF90EF90DF90CF90BF9008950F931F93CA
:101B0000CF93DF938091BE03813009F435C080E02C
:101B10000E94880ACCE0D2E0FE0165917491E8E968
:101B2000F5E0E4918E2F0E940C0B00E010E011C054
:101B3000FE0165917491F801E856FA4FE4918E2FF9
:101B40000E940C0BC80164EF71E00E94D647892BFC
:101B500011F40E94600E0F5F1F4F229681E0053B3B
:101B6000180731F781E08093BE0380E090E00E9487
:101B7000090D81E00E94880A80E090E0DF91CF911A
:101B80001F910F9108951F93CF93DF9380E090E012
:101B90000E94020C80E290E00E94550B80E00E94BF
:101BA000880A182F68E070E080E995E00E94BB0A7F
:101BB00088E20E94C22A88E00E94180CEC01812F62
:101BC0000E94880A8091BF039091C003039731F46B
:101BD00080E8CF37D80711F4C0E0D0E0CE01DF9124
:101BE000CF911F910895089580916A008C7F809312
:101BF0006A0040E050E063EF7DE08DEE92E00E94ED
:101C0000C12F892B31F480916A00826080936A0031
:101C1000EC9A80918100836080938100AD9A0FB629
:101C2000F8940F921092C2031092C1030F900FBE4E
:101C30000895EF92FF920F931F93AB01BC01A895FB
:101C400021E0E12CE8E0FE2E012D112D01C02F5FD7
:101C5000D801C701022E04C0880F991FAA1FBB1FFD
:101C60000A94D2F737E0B695A795979587953A9558
:101C7000D1F784179507A607B70748F32093C40345
:101C80002A3018F029702093C4032091C40323FF45
:101C900002C038E201C038E088E190E02770322BC2
:101CA0000FB6F894A895809360000FBE3093600043
:101CB00081E08093C3031F910F91FF90EF900895EF
:101CC000A89508958091C303882319F08F5F8093AE
:101CD000C30388E10FB6F89480936000109260000F
:101CE0000FBE08958091C3038230C0F0815080936D
:101CF000C303813099F42091C40323FF02C038E26A
:101D000001C038E088E190E02770322B0FB6F894DC
:101D1000A895809360000FBE309360000895809175
:101D2000C8039091C9038130910589F081309105F4
:101D300030F08230910521F10397E9F52DC07899B3
:101D40003AC081E08093C70381E090E020C0789999
:101D500012C08091C7038F5F8093C7038E3159F5FE
:101D600081E08093C60382E090E09093C903809362
:101D7000C80381E021C01092C9031092C8031BC0A0
:101D8000789B19C081E08093C70383E090E0909333
:101D9000C9038093C8030FC08091C7038F5F8093EE
:101DA000C703843141F41092C6031092C903109204
:101DB000C80380E001C082E0992708958091C6039E
:101DC000992708958091CA039091CB0308950895AF
:101DD0000F931F93CF93DF93CDB7DEB72A970FB63C
:101DE000F894DEBF0FBECDBF1092C9031092C80396
:101DF0001092C6036BE577E08E010F5F1F4FC8019D
:101E00000E944247C8010E94A429892BB1F420E016
:101E100033E040E050E069EA7FE0C8010E94C6304C
:101E2000892B59F48DE497E09F938F9380EE8F93E5
:101E30000E9413070F900F900F902A960FB6F894F8
:101E4000DEBF0FBECDBFDF91CF911F910F910895DF
:101E5000FF920F931F93CF93DF93CDB7DEB72A97EF
:101E60000FB6F894DEBF0FBECDBF87E292E00E94AE
:101E7000362F892BB9F480E00E94880AF82E40E0C2
:101E800067E070E085E292E00E94522F8C01892B7E
:101E900051F540E067E070E088E492E00E94522F44
:101EA0008C0121C00E94CA1380E00E94880AF82E8B
:101EB000E0913802F0913902309729F085E292E002
:101EC0001995892B59F4E0915B02F0915C023097EF
:101ED00041F088E492E01995892B19F00FEF1FEF7C
:101EE00002C000E010E08F2D0E94880A0115110544
:101EF000C1F48EEA97E09F938F9386EE8F930E94B2
:101F0000130760E070E0CE0101960E9424410F901B
:101F10000F900F902FEF8F3F920771F00E94FC40BF
:101F20000BC08FE797E09F938F9383EE8F930E9470
:101F300013070F900F900F90C8012A960FB6F894D0
:101F4000DEBF0FBECDBFDF91CF911F910F91FF90EC
:101F500008958091C6038093C5038091C6038130A4
:101F6000B9F48091C503882349F581E797E09F93F1
:101F70008F9386EE8F930E9413070E94280F0F9075
:101F80000F900F90892B29F780E10E943609E1CF4D
:101F90008823A1F48091C503813081F484E697E021
:101FA0009F938F9386EE8F930E9413078091C603B1
:101FB0008093C5030F900F900F90CFCF64EF71E027
:101FC00080E090E00E94D42BC8CF779A2E982D9A6B
:101FD00008958093CC0308958091CC0399270895A8
:101FE0008EBD0DB407FEFDCF08958FEF8EBD0DB4ED
:101FF00007FEFDCF8EB5992708958EBD0DB407FE5F
:10200000FDCF8EB599270895779A2E982D9A089529
:102010009C010097F9F48091CC03882321F481E09E
:102020008DBD81E504C0813021F41DBC80E58CBDEF
:1020300025C0823019F481E08DBDF8CF8BEB97E09D
:102040009F938F938BE78F930E9413070F900F90AE
:102050000F9014C0019741F481E08DBD80E58CBDE7
:102060002D9A2E98779808951DBC80E58CBD21305F
:10207000310520F02230310541F404C0779A2D9AC1
:102080002E9A0895779A2E982D98089580E090E0E2
:10209000089580E090E0089580E090E0089540E0A9
:1020A00050E060E070E08DEC93E00E94BC2E08955B
:1020B000CF93DF93CEEFDFEF0E94F50F8F3F11F448
:1020C0002197D1F79927DF91CF910895CF93DF938F
:1020D000CEEFDFEF0E94F50F8E3F11F02197D1F781
:1020E0009927DF91CF910895DF92EF92FF920F939E
:1020F0001F93D82E8B017A0182E090E00E94081095
:102100008FEF0E94F00F8D2D80640E94F00F812FC1
:1021100099270E94F00F802F0E94F00F8F2D992792
:102120000E94F00F8E2D0E94F00F85E90E94F00FA3
:102130008FEF0E94F00F1F910F91FF90EF90DF90B3
:1021400008956F927F928F929F92AF92BF92CF929B
:10215000DF92EF92FF920F931F93CF93DF935B0178
:1021600069017A013801882499243AC0A601542FC4
:102170004427550FC701B60127E0969587957795B7
:1021800067952A95D1F781E10E9474100E9466102C
:102190008E3F29F00E94E50F81E090E026C0850186
:1021A000C0E0D0E00E94F50FF80181938F012196E5
:1021B000F2E0C030DF07B1F780E092E0A80EB91E70
:1021C0008FEF0E94F00F8FEF0E94F00F0E94E50F3B
:1021D0000894811C911C0894C11CD11CE11CF11CA9
:1021E0008614970419F680E090E0DF91CF911F915B
:1021F0000F91FF90EF90DF90CF90BF90AF909F90A6
:102200008F907F906F9008958DEC93E00E94692EDF
:1022100008952F923F924F925F926F927F928F928A
:102220009F92AF92BF92CF92DF92EF92FF920F9365
:102230001F93CF93DF93CDB7DEB728970FB6F894EF
:10224000DEBF0FBECDBFF82E6B0139014A01180168
:102250000E944F10FF2019F022E030E0A8C0C80112
:10226000AA27BB27860D971DA81DB91D2091D20353
:102270003091D3034091D4035091D50328173907E7
:102280004A075B0728F483E090E09E838D8302C0B9
:102290001E821D828091CF039091D00397FD04C0D0
:1022A000E2E0F0E0FE83ED8396FD7FC02D813E816C
:1022B000232B09F092C0DC82CB8272C03FEF231641
:1022C000310409F010F4610103C0C12CA1E0DA2E41
:1022D0004B805C80840173011A82198253C0A7016C
:1022E000542F4427550FC801B701E7E0969587950D
:1022F00077956795EA95D1F788E10E9474100E945E
:1023000058108F3F09F445C08EEF0E94F00F520124
:1023100018861F82F50181915F010E94F00F2F81C5
:1023200038852F5F3F4F38872F832050324091F7F9
:10233000E0E0F2E04E0E5F1E8FEF0E94F00F8FEF95
:102340000E94F00F8FEF0E94F00F5FEFA52EB52EC9
:102350000E94F50F882339F40894A108B108A1144C
:10236000B104B9F0F5CF0894E11CF11C011D111D59
:10237000AB2879F00E94E50F29813A812F5F3F4F0A
:102380003A83298389819A818C159D0509F0A7CF0D
:1023900011C00E94E50FE1E0F0E0FE83ED831DC077
:1023A0002114310409F08ACF18C028E030E03E83C0
:1023B0002D8313C0C601AA27BB27680E791E8A1E6B
:1023C0009B1E2C183D08DC2CCC24DD0C8B819C81C1
:1023D0008C0D9D1D9C838B83E3CF0E9404118D8106
:1023E0009E8128960FB6F894DEBF0FBECDBFDF9159
:1023F000CF911F910F91FF90EF90DF90CF90BF9002
:10240000AF909F908F907F906F905F904F903F9094
:102410002F9008958F929F92AF92BF92CF92DF92AA
:10242000EF92FF920F931F93CF93DF93F82EEB0160
:1024300049015A0168010E944F10FF20F1F4809178
:10244000CF039091D00397FF18C0C801AA27BB27DC
:10245000880D991DAA1DBB1D2091D2033091D30375
:102460004091D4035091D503281739074A075B07D9
:1024700008F042C003E010E044C002E010E041C0B8
:102480002FEFC216D10409F010F4E60102C0C0E03B
:10249000D1E08E01A5019401B7018FEC93E00E9479
:1024A000A1108C01892B69F5CE01AA27BB27880EC4
:1024B000991EAA1EBB1ECC1ADD0A8091D6039091EC
:1024C000D7039C01C29FC001C39F900DD29F900D66
:1024D0001124E80EF91EC114D10491F600E010E0B9
:1024E00010C001E010E0A5019401BE018FEC93E063
:1024F0000E94A1108C0105C07E010130110559F721
:10250000F0CF0E940411C801DF91CF911F910F916C
:10251000FF90EF90DF90CF90BF90AF909F908F9003
:102520000895EF92FF920F931F93182F0E944F1060
:10253000112321F0EE24FF24870108C0E090D2038C
:10254000F090D3030091D4031091D5030E9404119D
:10255000C801B7011F910F91FF90EF9008951F934D
:10256000CF93DF93182F0E944F10112319F0C0E072
:10257000D0E004C0C091D603D091D7030E940411CB
:10258000CE01DF91CF911F910895CF92DF92EF920C
:10259000FF920F931F93CF93DF93CDB7DEB7609772
:1025A0000FB6F894DEBF0FBECDBF6B010E944F1077
:1025B0008091CF039091D00397FF8AC040E050E014
:1025C00060E070E089E00E9474100E9466108E3F07
:1025D00061F089EC97E09F938F9383EF8F930E9434
:1025E00013070F900F900F9073C08E010F5F1F4F56
:1025F0000E94F50FF80181938F01CE014196E817F3
:10260000F907B1F78FEF0E94F00F8FEF0E94F00FE4
:102610000E94E50FEE80FFE0EF2221E030E0C901EB
:1026200002C0880F991FEA94E2F77C016F81772737
:1026300063707070762F6627770F770FE885FF2716
:10264000EE0FFF1FEE0FFF1F6E2B7F2B098511274B
:10265000EA85FF27E370F070DF01AA0FBB1FEA2BAA
:10266000FB2BAB85BB2786E0169507958A95E1F78E
:10267000602B712B6F5F7F4F88279927AA0FAB2F95
:10268000AA1FBB0BB195EA2BFB2B329602C0220F7F
:10269000331FEA95E2F7442755270E949747609336
:1026A000D2037093D3038093D4039093D503F09215
:1026B000D703E092D6030E94041101E010E020E06D
:1026C00030E040E050E0B60180E00E940A1204C011
:1026D0000E94041181E090E060960FB6F894DEBF8E
:1026E0000FBECDBFDF91CF911F910F91FF90EF9063
:1026F000DF90CF900895CF93DF937093D9036093C9
:10270000D8035093DB034093DA0389E0EFECF3E066
:1027100011928A95E9F71092D1038DEC93E00E9413
:10272000692EC0E0D0E08FEF0E94F00F2196CA30F2
:10273000D105C9F740E050E060E070E080E00E9421
:1027400074100E945810813099F4CFEFDFEF07C06A
:1027500040E050E060E070E081E00E9474100E9470
:10276000F50F882319F0219799F702C0CD2B29F492
:102770000E94E50F81E090E00AC00E94E50F80E032
:1027800090E89093D0038093CF0380E090E0DF91B6
:10279000CF9108951092DD031092DC030895EF921B
:1027A000FF920F931F93CF93DF93EC017A018B017C
:1027B0008B8180FD1AC08EEF9FEFAFEFBFEFE80E69
:1027C000F91E0A1F1B1F2A81332744275527C801DA
:1027D000B7010E949747AB01BC018A8D9B8DAC8DE0
:1027E000BD8D480F591F6A1F7B1FCB01BA01DF91B6
:1027F000CF911F910F91FF90EF9008958FEF9FEF72
:1028000008958FEF9FEF0895282F8F3F11F420E058
:1028100006C0882321F099270E940B48282F822F79
:10282000992787FD909508958F929F92AF92BF92BE
:10283000CF92DF92EF92FF920F931F93FC016A01F8
:102840007B01838180FF07C0CB01BA016F5F7F4F9F
:102850008F4F9F4F69C0808182889388A488B588F4
:102860006091E0037091E1038130A9F5A701960121
:10287000A7E05695479537952795AA95D1F7280D46
:10288000391D4A1D5B1D01E010E081810E940A1282
:102890008091E0039091E103F601EF77F070EE0F85
:1028A000FF1FEE0FFF1FE80FF91F6081718182810A
:1028B00093819F706F3F2FEF72072FEF82072FE0FA
:1028C000920771F1673F2FEF72072FEF82072FE01A
:1028D000920751F525C055274F2D3E2D2D2D280D42
:1028E000391D4A1D5B1D01E010E081810E940A1222
:1028F0008091E0039091E103F601F070EE0FFF1F6D
:10290000E80FF91F208131818FEF2F3F380741F009
:102910008FEF273F380721F0B9018827992704C096
:1029200060E070E080E090E01F910F91FF90EF90E9
:10293000DF90CF90BF90AF909F908F9008952F928F
:102940003F924F925F926F927F928F929F92AF923F
:10295000BF92CF92DF92EF92FF920F931F93CF938C
:10296000DF93CDB7DEB76A970FB6F894DEBF0FBE20
:10297000CDBF988B8F877A8B698B5C8B4B8B1801C3
:102980002901FE8AED8AD88ECF8AD7011D921D9229
:102990001D921C921397DA010D900020E9F7119710
:1029A000A41BB50BCD010C966DE070E00E94D647DC
:1029B000F62FF064F983F53E09F496C18DE0689F27
:1029C000900111243B832A832F3331050CF08CC1F5
:1029D0007901BF2E1E86CC24DD2480C1B201A10165
:1029E0008F8598890E94CF13688779878A879B870C
:1029F000EF85F8898281282F33273D872C8731E0A6
:102A0000231631044104510479F48081882361F450
:102A100082859385A485B58588879987AA87BB8792
:102A2000268137813D872C87688479848A849B84BA
:102A300042C16091E0037091E10301E010E0A40164
:102A40009301EF85F88981810E940A122091E003A9
:102A50003091E1033F832E838091E2039091E30361
:102A60009D838C833A8F298F9E85913019F4E98D4F
:102A7000FA8D1DC02F89388D232B99F5A98DBA8D1C
:102A80008C91853E71F1882361F14BE050E06989BA
:102A90007A89CD010E945F47892B19F5E989FA8966
:102AA0009385E98DFA8D838589238917D1F48489EB
:102AB0009589AA27BB27AC0133272227828D938DC6
:102AC000AA27BB27282B392B4A2B5B2B848D958D6E
:102AD000A68DB78DED89FE8980839183A283B38310
:102AE00007C1E98DFA8D83858F3009F0D0C0A080B1
:102AF000AB1409F0CCC0B6FE0DC0BFEBAB2EAB20C3
:102B0000AC81BD81AE0DBF1D1C920894E108F10897
:102B1000CC80DD80E98DFA8D868D978D0E9404141E
:102B2000F601EE0DFF1D8083870101501040E98DF5
:102B3000FA8D848D958D0E940414F601E00FF11F2B
:102B4000808301501040E98DFA8D808D918D0E9417
:102B50000414F601E00FF11F808301501040E98D4D
:102B6000FA8D868997890E940414F601E00FF11FFF
:102B7000808301501040E98DFA8D848995890E94E7
:102B80000414F601E00FF11F808301501040E98D1D
:102B9000FA8D828993890E940414F601E00FF11FD7
:102BA000808301501040E98DFA8D808991890E94BF
:102BB0000414F601E00FF11F808301501040E98DED
:102BC000FA8D868597850E940414F601E00FF11FA7
:102BD000808301501040E98DFA8D818592850E9495
:102BE0000414F601E00FF11F808301501040E98DBD
:102BF000FA8D878190850E940414F601E00FF11F81
:102C0000808301501040E98DFA8D858196810E9464
:102C10000414F601E00FF11F808301501040E98D8C
:102C2000FA8D838194810E940414F601E00FF11F54
:102C3000808301501040E98DFA8D818192810E943C
:102C40000414F601E00FF11F8083BA2CBA9429F026
:102C500078010894E108F1081AC0AB89BC890D908D
:102C60000020E9F711972B893C89A21BB30BAD011A
:102C7000B601C9010E945F47892B31F4EA80FB80CD
:102C8000B98031E03E8703C0EA80FB80B980898D3E
:102C90009A8D80969A8F898F8E819F8180509E4FCA
:102CA000A98DBA8DA817B90709F0DECE0894611C6A
:102CB000711C811C911CC301E885F9858E1B9F0B3B
:102CC0002C853D85821793070CF4B3CEB201A10188
:102CD0008F8598890E9414141B012C012114310442
:102CE0004104510409F07ACE20E030E040E050E0A9
:102CF000CA01B9016A960FB6F894DEBF0FBECDBF08
:102D0000DF91CF911F910F91FF90EF90DF90CF90C7
:102D1000BF90AF909F908F907F906F905F904F90FB
:102D20003F902F9008958AE494E00E94692E0895C0
:102D30008AE494E00E94692E089540E050E060E04B
:102D400070E08AE494E00E94BC2E08952F923F9296
:102D50004F925F926F927F928F929F92AF92BF92AB
:102D6000CF92DF92EF92FF920F931F93CF93DF9357
:102D7000CDB7DEB728970FB6F894DEBF0FBECDBF34
:102D80008C016B015E834D830E949D160115110518
:102D900009F4F6C0F8010481158118870F83011525
:102DA000110509F4EDC06D817E816115710509F48D
:102DB000E7C0F801E484F584068517852081318118
:102DC00042815381E216F3060407150708F0D2C0CA
:102DD000CB01AA2797FDA095BA2F8E0D9F1DA01F8E
:102DE000B11F281739074A075B0720F42E193F093E
:102DF0003E832D83EF81F885008CF18DE02DFC83DF
:102E0000EB83DA82C982248035804D805E80ABC03E
:102E1000EF81F88560887188828893885101CC247D
:102E2000DD2440855185628573858B819C810E945C
:102E3000CF137B018C01C401B301A60195010E944F
:102E4000E947442737FD4095542F2E0D3F1D401F65
:102E5000511F6091E0037091E10301E010E0EB810C
:102E6000FC8181810E940A12892B09F079C0C4017A
:102E7000B301A60195010E94E94761014214530480
:102E80000CF46201CB018C0D9D1D281639061CF433
:102E90006101C61AD70A8091E0039091E103680F9F
:102EA000791FA60189819A810E946C4776010027CB
:102EB000F7FC0095102FEF81F88524853585468530
:102EC00057852E0D3F1D401F511F2487358746878C
:102ED000578780899189A289B3898E0D9F1DA01F74
:102EE000B11F808B918BA28BB38B80819181A2814A
:102EF000B381281739074A075B0720F081E090E08B
:102F0000978B868BEF81F885208931894289538997
:102F1000EB81FC81868D978DA0A1B1A1281739077F
:102F20004A075B07A0F0EF81F885408551856285EF
:102F300073858B819C810E941414EF81F8856087D2
:102F4000718782879387108A118A128A138A69810E
:102F50007A816C0D7D1D7A8369834C185D0803C0EE
:102F60008DEF9FEF09C04114510409F051CF0D813D
:102F70001E8108C08EEF9FEFEF81F885958B848BC3
:102F800000E010E00E949816C80128960FB6F89449
:102F9000DEBF0FBECDBFDF91CF911F910F91FF908C
:102FA000EF90DF90CF90BF90AF909F908F907F90E9
:102FB0006F905F904F903F902F900895EF92FF9207
:102FC0000F931F93CF93DF93EC010E949D162097E0
:102FD00049F0EC81FD81309729F0E080F180028199
:102FE000138108C00FEFE02E0FEFF02E0FEF002F30
:102FF0000FEF102F0E949816C801B701DF91CF91F3
:103000001F910F91FF90EF900895CF93DF93EC0104
:103010000E949D16209719F4CFEFDFEF0BC08C8133
:103020009D81009711F00E946726CE010E946726BD
:10303000C0E0D0E00E949816CE01DF91CF910895B4
:103040000F931F938C010E949D16012B11F4109277
:10305000E6030E9498161F910F9108952F923F92B8
:103060004F925F926F927F928F929F92AF92BF9298
:10307000CF92DF92EF92FF920F931F93CF93DF9344
:10308000CDB7DEB724970FB6F894DEBF0FBECDBF25
:10309000182F0E949D168091DE039091DF03892BEB
:1030A00041F480E490E00E94F4259093DF03809344
:1030B000DE038091E2039091E303892B41F480E4E5
:1030C00090E00E94F4259093E3038093E2038091C3
:1030D000E0039091E103892B59F480E092E00E9493
:1030E000F4259093E1038093E003892B09F445C113
:1030F0008091DE039091DF03892B09F43EC180911A
:10310000E2039091E303892B09F437C182E2189F0F
:10311000F0011124EC51FC4F11928A95E9F7E12E50
:10312000FF242701440C551CC70135E0880F991F67
:103130003A95E1F7480E591E24EE33E0420E531E35
:10314000F2011183812F0E94AF12F20195838483D3
:10315000812F0E944610019721F4F2018381816042
:103160008383812F0E944910019721F4F20183810A
:1031700082608383F201848195818050924019F0AE
:1031800001E010E0FCC0F201838181FF05C020E274
:1031900030E040E050E038C06091E0037091E1031E
:1031A00001E010E020E030E040E050E08E2D0E9491
:1031B0000A128C01892B09F0E2C0E091E003F09142
:1031C000E103E250FE4F80819181EE5FF140855531
:1031D0009A4A09F0D4C0E653FE4F80819181A281C2
:1031E000B381EA5CF1400097A105B10509F4C7C0BD
:1031F000EA53FE4F208131814281538121153105EF
:103200004105510509F4BBC06091E0037091E103F1
:1032100001E010E08E2D0E940A122090E003309011
:10322000E1034EEF51E0240E351ED1018D919C91AA
:10323000E2E0FEEF2E0E3F1E85559A4A09F09DC032
:10324000F1018585F2018283F101268937892115F3
:10325000310571F0C901AA27BB2789839A83AB8303
:10326000BC83D2011C9281E090E0A0E0B0E010C0ED
:10327000F10124A135A146A157A129833A834B83AB
:103280005C8381E0D2018C9384A595A5A6A5B7A502
:10329000F20186879787A08BB18BF10163857485D6
:1032A0008189928925E0880F991F2A95E1F7860F79
:1032B000971F01970E94C2473B0188249924E68406
:1032C000F78400271127A48CB58CC68CD78CAE0C44
:1032D000BF1CC01ED11EF201A28AB38AC48AD58A3D
:1032E00029813A814B815C81A20EB31EC41ED51E7A
:1032F000A68AB78AC08ED18EF10160897727882788
:1033000099270E949747F101248D358D468D578D61
:10331000E20EF31E041F151FE60CF71C081D191DF5
:10332000E60EF71E081F191FF201E28EF38E048FBE
:10333000158FF10185859927F20124813581AC0132
:10334000429FC001439F900D529F900D1124AA27C8
:10335000BB27868F978FA0A3B1A3668277828086D2
:10336000918629813A814B815C81A20EB31EC41ED5
:10337000D51EA286B386C486D58600E010E00E94E2
:103380009816C80124960FB6F894DEBF0FBECDBFC5
:10339000DF91CF911F910F91FF90EF90DF90CF9031
:1033A000BF90AF909F908F907F906F905F904F9065
:1033B0003F902F9008952F923F924F925F926F927D
:1033C0007F928F929F92AF92BF92CF92DF92EF92B5
:1033D000FF920F931F93CF93DF93CDB7DEB72E9756
:1033E0000FB6F894DEBF0FBECDBFFC01892B09F4E8
:1033F000A1C2848180330CF49DC282330CF490C24C
:10340000863409F097C28CC20E949D168091E80311
:103410009091E9030E94F4259E878D87892B09F4FA
:1034200089C23090E503832D0E9491122B013C014B
:1034300080EE9FEFAFEFBFEF480E591E6A1E7B1E56
:10344000EBE6F2E09F012C5F3F4F80819181A281EA
:10345000B38184159505A605B70538F0D9018C917F
:103460009927282E882341F00CC02B5F3F4F3596BB
:10347000B2E02D383B0749F78D859E850E9467266F
:1034800059C29927AA27BB2789839A83AB83BC8318
:10349000C301B20129813A814B815C810E94E947D5
:1034A000DA01C90102E0880F991FAA1FBB1F0A9504
:1034B000D1F781509E4FAF4FBF4F19E0B695A795FA
:1034C000979587951A95D1F789879A87AB87BC8797
:1034D0004C015D01880C991CAA1CBB1C89819A8136
:1034E000AB81BC81815A9F4FAF4FBF4F880E991E51
:1034F000AA1EBB1E8F559040A040B04089839A837E
:10350000AB83BC834091E8035091E90360E070E035
:103510008D859E850E947547CC24DD24760110C0E0
:1035200001E010E0A70196016D857E85832D0E9444
:103530000911892B51F40894C11CD11CE11CF11C08
:10354000C814D904EA04FB0459F780E090E00E9413
:103550003C436D837E838F8398874091E80350912D
:10356000E90360E070E08D859E850E947547AD851A
:10357000BE85A254BE4F1D9281E08D938D931D9206
:103580008BE08D931D921C921296EFE3AE2EB12C20
:10359000C12CD12CFD01A192B192C192D192DF0137
:1035A0004082518262827382AA5CB140BE87AD873D
:1035B0007EEFE72E71E0F72EEA0EFB1E65E5862E04
:1035C0006AEA962EF7019182808201E010E020E005
:1035D00030E040E050E0BD01832D0E9409118C01D4
:1035E000892B09F005C14091E8035091E90360E09F
:1035F00070E08D859E850E9475478BEEAD85BE85FA
:103600008C9388E5FD01818380E982830DE4038347
:1036100093E5948384E485831FE41683978385E38D
:1036200080878EE2818780E3828780E092E09487C2
:103630008387258680E290E09787868782E0808B6B
:10364000128A118A148A138A88EF858B178A168A40
:103650008FE390E0918F808F8FEF90E0938F828F38
:10366000ED85FE85A48EB58EC68ED78E40A251A262
:1036700062A273A289859A85AB85BC8584A395A334
:10368000A6A3B7A311A610A613A612A652E0A52EB4
:10369000B12CC12CD12CED85FE85A4A6B5A6C6A65D
:1036A000D7A681E090E091AB80AB86E090E093AB51
:1036B00082ABE05CFF4F1082329689E28193FE87F5
:1036C000ED876D817E818F819885A30192010E9493
:1036D0009747AD85BE856D937D938D939D938EE4C5
:1036E0008D931D9390E29D938D9321E42D930D93E3
:1036F00085E48D939D939D939D939D9386E48D93F7
:103700002D9384E58D9383E38D9382E38D939D9335
:103710009D939C93A955B040BE87AD87F7019182D8
:10372000808201E010E02FE330E040E050E0BD0196
:10373000832D0E9409118C01892B09F059C001E0E9
:1037400010E025E430E040E050E06D857E85832D7B
:103750000E940911892B09F0E7C04091E8035091BC
:10376000E90360E070E08D859E850E94754781EADF
:103770009FEFAFEFBFEF480E591E6A1E7B1E82E51A
:1037800092E5A1E6B1E4ED85FE8580839183A28375
:10379000B383EC51FE4F82E792E7A1E4B1E6819357
:1037A0009193A193B193FE87ED87C301B201298163
:1037B0003A814B815C810E94E947AD85BE852D939E
:1037C0003D934D935D93FD01A082B182C282D3826D
:1037D000EC5EF140FE87ED87D7018D929C9220E44C
:1037E00030E040E050E0BF01832D0E9409118C01C0
:1037F0000115110509F086C04091E8035091E903D5
:1038000060E070E08D859E850E9475472D853E8520
:1038100088EF9FEFAFEFBFE0F90181939193A19300
:10382000B1939F018FEF9FEFAFEFBFE0ED85FE8576
:1038300084839583A683B783F90184839583A683C4
:10384000B78301E010E02FE530E040E050E06D8507
:103850007E85832D0E9409118C01892B09F052C0AD
:10386000C984DA84EB84FC848FE590E0A0E0B0E0CA
:10387000C80ED91EEA1EFB1E01E010E0A70196014A
:103880006D857E85832D0E940911892B09F04CC01E
:103890004091E8035091E90360E070E08D859E85DA
:1038A0000E94754795E4AD85BE859C9324E5FD0196
:1038B000218388E48283938382E584838EE48583F5
:1038C00085E58683278380E280878187828788E0F9
:1038D0008387158A148A138E128EED85FE85148EC9
:1038E000158E168E178E89859A85AB85BC85C80E78
:1038F000D91EEA1EFB1EA7019601BF01832D0E945F
:1039000009118C018D859E850E9467260E9498165C
:10391000012B81F4832D0E942E18009769F00AC0B4
:103920006050704139F470CD8D859E850E94672668
:103930000E9498168FEF9FEF2E960FB6F894DEBF79
:103940000FBECDBFDF91CF911F910F91FF90EF90F0
:10395000DF90CF90BF90AF909F908F907F906F90AF
:103960005F904F903F902F9008950F931F93CF93A8
:10397000DF938C0180E092E00E94F425EC01892B1A
:1039800031F0802F0E942E18CE010E946726DF9111
:10399000CF911F910F910895EF92FF920F931F9374
:1039A000CF93DF93FC018091DC039091DD030097BE
:1039B000A9F58281863409F03FC083818134E1F525
:1039C00084818435C9F5848595850797A9F537C025
:1039D00040E258E165EB7CE180E090E00E947B13DF
:1039E0008C01892B19F00EEF1FEF14C0B70180E096
:1039F00090E00E94C512C0E0D0E08C2F0E942E18EB
:103A00002196C330D105C9F781E090E09093DD03A2
:103A10008093DC03C7010E9467261CC0019761F4F4
:103A20008281863449F483818D3431F484818033FA
:103A300019F400E010E00EC00FEF1FEF0BC00E9462
:103A4000931680E092E00E94F4257C01892B09F016
:103A5000BFCFEFCFC801DF91CF911F910F91FF90A2
:103A6000EF9008952F923F924F925F926F927F92C4
:103A70008F929F92AF92BF92CF92DF92EF92FF927E
:103A80000F931F93CF93DF93CDB7DEB7A6970FB6F3
:103A9000F894DEBF0FBECDBF9EA38DA34B018091D6
:103AA000DC039091DD03892B21F48DA19EA10E945E
:103AB000CC1C0E949D166090DE037090DF038DA1E8
:103AC0009EA1009709F422C1FC01848180330CF48B
:103AD0001DC182330CF41DC1863409F017C119C110
:103AE000F4018081882309F411C18AE190E00E94E9
:103AF000F4255C018091F6039091F703A091F803FF
:103B0000B091F9030097A105B10509F41AC1A114F8
:103B1000B10409F4FBC0F40180818E3209F4E7C0DE
:103B20008AE1F50111928A95E9F72090F20330902D
:103B3000F3034090F4035090F503F40180818F3239
:103B400009F006C102C1FFE3EF16F1040CF003C156
:103B500083010E0D1F1D992787FD90950E940B482C
:103B6000F80180830894E11CF11C0894811C911CCD
:103B7000F40180818F3209F4D2C08C3509F4CFC0B2
:103B8000882309F7CCC06EE270E0C3010E947C4735
:103B9000009721F409301105D8F50BC0DC0111960E
:103BA000FD0101900020E9F73197EA1BFB0B3497E8
:103BB00078F58E010B5F1F4F80E2F80111928A9514
:103BC000E9F748E050E060E270E0C8010E94754704
:103BD00043E050E060E270E0CE010D960E94754730
:103BE000D801F301930104C08D932F5F3F4F3196AD
:103BF00080818E3219F08823B9F70DC0F901DE01FA
:103C00001D9601C08D93818131968823D9F703C019
:103C100021E030E002C020E030E0F40180818F320A
:103C200009F448C08C3509F445C0882309F05FC009
:103C300080E2888B8091E70380FD8DC084EE882E22
:103C400083E0982E69017E010894E11CF11C920129
:103C50008101A301BE016B5F7F4FC4010E949F14CD
:103C60009B01AC01611571058105910509F473C0D3
:103C700089819A81AB81BC81F50180839183A28384
:103C8000B3832483358346835783208731874287D4
:103C900053871486158616861786108A118A128A0B
:103CA000138A918E808E158A148A178A168A80E06C
:103CB00090E053C080E1888B8091E70380FD4BC08A
:103CC00069017E010894E11CF11C92018101A301AC
:103CD000BE016B5F7F4F84EE93E00E949F141B0137
:103CE0002C016115710581059105A9F12EC0C50151
:103CF0000E9467260BC086E090E00E94F4258C01AC
:103D0000009771F5C5010E94672633C00FEF1FEFC2
:103D100030C08091E603882309F0E2CEF7CFE60CAD
:103D2000F71CF7011082F30101900020E9F78F01E1
:103D300001501040061917090D30110508F068CF21
:103D400022CFA114B10499F6E1CF0894811C911CF3
:103D5000EE24FF240DCF81E090E0019761F6C7CFFC
:103D6000FC01118210828DA19EA193838283B58272
:103D7000A4820E949816C801A6960FB6F894DEBFDA
:103D80000FBECDBFDF91CF911F910F91FF90EF90AC
:103D9000DF90CF90BF90AF909F908F907F906F906B
:103DA0005F904F903F902F9008958FEF9FEF089571
:103DB0002F923F924F925F926F927F928F929F923B
:103DC000AF92BF92CF92DF92EF92FF920F931F9329
:103DD000CF93DF935C016B014A0129013801170180
:103DE00081E090E00E940810C0E0D0E076018501FB
:103DF00009C0F80181918F010E94FD0FF7018193A5
:103E00007F012196C815D905A4F3C0E0D0E0730165
:103E1000820109C0F80181918F010E94FD0FF70115
:103E200081937F012196C215D305A4F30E94E50F6B
:103E300080E090E0DF91CF911F910F91FF90EF9084
:103E4000DF90CF90BF90AF909F908F907F906F90BA
:103E50005F904F903F902F900895EF92FF920F93B5
:103E60001F93CF93DF93CDB7DEB722970FB6F894A9
:103E7000DEBF0FBECDBF87ED89838FEF8A83EE242F
:103E8000FF2400E010E020E030E042E050E0CE010E
:103E90000196BC010E94D81E892B19F08FEF90E08B
:103EA00002C08A81992722960FB6F894DEBF0FBE12
:103EB000CDBFDF91CF911F910F91FF90EF900895AB
:103EC0000F931F930E942D1F0E942D1F082F60E04B
:103ED00070E020914C0430914D040EC06F5F7F4F15
:103EE000808580239185891739F48AE0189F900195
:103EF000112427573D4F18C0162F462F5527FA017A
:103F0000EE0FFF1FCA01A3E0880F991FAA95E1F7E2
:103F1000E80FF91FE757FD4F80819181A281B3819E
:103F20000097A105B105D1F630934D0420934C04C0
:103F3000CA011F910F910895EF92FF920F931F9363
:103F4000CF93DF937B018C01EA0119C0209731F4F4
:103F500061E070E080E090E00E94D42B0894E108DA
:103F6000F108010911098FEFE8168FEFF8068FEFBE
:103F700008078FEF180719F48FEF9FEF06C00E9414
:103F80002D1F87FFE3CF80E090E0DF91CF911F915D
:103F90000F91FF90EF9008955F926F927F928F92B2
:103FA0009F92AF92BF92CF92DF92EF92FF920F93C8
:103FB0001F93CF93DF93582E4A015B01E90138012B
:103FC0008701293031051CF08FEF9FEF23C0A90135
:103FD00060E070E08EE494E00E94754750924E04D9
:103FE00081149104A104B10469F0C501AA27BB277B
:103FF00080934F04BB27AB2D9A2D892D80935004BD
:104000008092510476019301AE016EE474E0CB011D
:104010000E94D81EDF91CF911F910F91FF90EF90DA
:10402000DF90CF90BF90AF909F908F907F906F90D8
:104030005F9008958F929F92AF92BF92CF92DF923E
:10404000EF92FF920F931F93CF93DF934B015C018D
:104050008A016901C9010E946143EC01009719F4CA
:104060000FEF1FEF36C07C0124E030E040E050E06D
:1040700060E070E084E80E94CC1F892B29F5E09174
:104080004C04F0914D04068004C0880C991CAA1CB5
:10409000BB1C0A94D2F7CC24DD24EE24FF2400E0DC
:1040A00010E024E030E0B501A40183E80E94CC1FB9
:1040B000892B51F441E050E068EE73E080E090E03D
:1040C0000E949C1F8C0102C00FEF1FEFCE010E94C7
:1040D0005E43C801DF91CF911F910F91FF90EF9048
:1040E000DF90CF90BF90AF909F908F900895CF9228
:1040F000DF92EF92FF920F931F93E0914C04F091A7
:104100004D04068004C0660F771F881F991F0A940C
:10411000D2F769017A018A0128E030E0AB01BC01E5
:1041200088EE0E94CC1F1F910F91FF90EF90DF90BF
:10413000CF900895CF92DF92EF92FF920F931F934B
:10414000AA27BB27CC24DD24EE24FF2400E010E0C6
:1041500024E030E0AC01BD0181E80E94CC1F1F913A
:104160000F91FF90EF90DF90CF900895609570953C
:1041700080959095209156043091570440915804B1
:10418000509159042623372348235923209356045A
:1041900030935704409358045093590480E090E0C2
:1041A0000895AF92BF92CF92DF92EF92FF920F935A
:1041B0001F93CF93DF93CDB7DEB722970FB6F89456
:1041C000DEBF0FBECDBF9B015A01492F5527498342
:1041D0008A83CC24DD247601850142E050E0BE01D3
:1041E0006F5F7F4F87E50E94C83D8A159B0519F4D4
:1041F00080E090E002C08FEF9FEF22960FB6F89418
:10420000DEBF0FBECDBFDF91CF911F910F91FF9009
:10421000EF90DF90CF90BF90AF900895AF92BF9294
:10422000CF92DF92EF92FF920F931F93CF93DF9382
:10423000CDB7DEB722970FB6F894DEBF0FBECDBF65
:104240009B015A0119828A83CC24DD2476018A01DC
:1042500042E050E0BE016F5F7F4F8FE60E94C83D95
:104260008A159B0519F480E090E002C08FEF9FEF64
:1042700022960FB6F894DEBF0FBECDBFDF91CF916F
:104280001F910F91FF90EF90DF90CF90BF90AF9074
:1042900008950F931F93CF93DF93CDB7DEB7219788
:1042A0000FB6F894DEBF0FBECDBF8C0141E050E0E9
:1042B000BE016F5F7F4F8FE30E940E21892BE9F4CF
:1042C00089819927AA27BB2720915604309157044A
:1042D0004091580450915904822B932BA42BB52B59
:1042E0008093560490935704A0935804B0935904B4
:1042F000F80180839183A283B383809156049091C7
:10430000570421960FB6F894DEBF0FBECDBFDF91E4
:10431000CF911F910F910895CF93DF93CDB7DEB763
:1043200024970FB6F894DEBF0FBECDBF80E00E9489
:10433000C43C009721F4CE0101960E9449212496A5
:104340000FB6F894DEBF0FBECDBFDF91CF910895B9
:10435000EF92FF920F931F93CF93DF93CDB7DEB70A
:1043600028970FB6F894DEBF0FBECDBF8C0148E092
:1043700050E0BE016F5F7F4F80E30E940E217C0101
:10438000892B09F073C02981822F82958F706AE092
:10439000869FC00111242F70820F911DD8018D932B
:1043A0009C932A81822F82958F70869FC001112451
:1043B0002F70820F911DF801938382832B81332705
:1043C000C9018F739070B4E095958795BA95E1F720
:1043D000AC01A3E0440F551FAA95E1F7880F991F80
:1043E000840F951F2F703070820F931F95838483E5
:1043F0002C81822F82958F70869FC00111242F708F
:10440000820F911D978386832D81822F82958F70D5
:10441000869FC00111242F70820F911D01979187F3
:1044200080878E81282F22952F70269FA00111242E
:1044300099278F7090708C599F4F480F591F538741
:1044400042872885822F82958F70869FC001112414
:104450002F70820F911D4A9724F04C595F4F53875C
:1044600042878F819927F80195878487C70128960D
:104470000FB6F894DEBF0FBECDBFDF91CF911F9175
:104480000F91FF90EF900895AF92BF92CF92DF927D
:10449000EF92FF920F931F93CF93DF93CDB7DEB7C9
:1044A00023970FB6F894DEBF0FBECDBF19822FE35E
:1044B0002A835E010894A11CB11C892BA1F082E023
:1044C0008B83CC24DD24760100E010E020E030E096
:1044D00043E050E0B5018FE60E94C83D009789F4A3
:1044E00086E08B8306C01B82CC24DD24760100E0AD
:1044F00010E020E030E043E050E0B5018FE60E949C
:10450000C83D23960FB6F894DEBF0FBECDBFDF9136
:10451000CF911F910F91FF90EF90DF90CF90BF90C0
:10452000AF900895AF92BF92CF92DF92EF92FF9239
:104530000F931F93CF93DF93CDB7DEB721970FB6BD
:10454000F894DEBF0FBECDBF13E1A12EB12C0FC07A
:1045500061E070E080E090E00E94D42B0894A10814
:10456000B108A114B10419F48FEF9FEF14C0CC244B
:10457000DD24760101E010E09E012F5F3F4F40E017
:1045800050E060E070E087E50E94C83D8F5F9F4F7C
:10459000F9F280E090E021960FB6F894DEBF0FBEEE
:1045A000CDBFDF91CF911F910F91FF90EF90DF90E2
:1045B000CF90BF90AF9008952F923F924F925F920D
:1045C0006F927F928F929F92AF92BF92CF92DF9223
:1045D000EF92FF920F931F93CF93DF933C014A0119
:1045E0002B0100E010E046C0C3018F73907020E4FF
:1045F00030E0281B390B54012815390508F45901FE
:1046000082E0282E312C2A0C3B1CC1010E94614300
:10461000EC01892BA1F1872D992788836982A50157
:10462000B201CE0102960E946C4781E090E00E94A8
:1046300044228C01892B31F5CC24DD24760100E065
:1046400010E020E030E0A101BE0187E50E94C83DF6
:104650008C01CE010E945E4301151105B1F40E9448
:1046600092228C01892B89F48A189B086A0C7B1C86
:104670004A0C5B1C8114910409F0B6CF06C00FEF01
:104680001FEF03C0CE010E945E4380E090E00E94D5
:104690004422C801DF91CF911F910F91FF90EF90BD
:1046A000DF90CF90BF90AF909F908F907F906F9052
:1046B0005F904F903F902F9008958F929F92AF926E
:1046C000BF92CF92DF92EF92FF920F931F93CF93FF
:1046D000DF934C015B01EA0181E090E00E944422FB
:1046E0008C01892BC1F4CC24DD24760100E010E09C
:1046F00020E030E0AE01B5018FE60E94C83D8C019C
:10470000892B29F4892819F00E9492228C0180E0DB
:1047100090E00E944422C801DF91CF911F910F9138
:10472000FF90EF90DF90CF90BF90AF909F908F90D1
:104730000895EF92FF920F931F93CF93DF93CDB71E
:10474000DEB72A970FB6F894DEBF0FBECDBF8B0140
:104750007A012AE0FE01319611922A95E9F723E0C9
:10476000880F991F2A95E1F78A836115710509F46D
:104770007AC040FF12C0FB0140815181842F6AE062
:104780000E94B647282F2295207FCA016AE070E078
:104790000E94D647280F20682B83E1FE12C0F80143
:1047A00042815381842F6AE00E94B647282F2295C8
:1047B000207FCA016AE070E00E94D647280F206877
:1047C0002C83E2FE12C0F80144815581842F6AE0F7
:1047D0000E94B647282F2295207FCA016AE070E028
:1047E0000E94D647280F20682D83E3FE12C0F801EF
:1047F00046815781842F6AE00E94B647282F229570
:10480000207FCA016AE070E00E94D647280F206826
:104810002E83E4FE14C0F80140855185842F8F5FFC
:104820006AE00E94B647282F2295207FCA01019690
:104830006AE070E00E94D647280F20682F83E7FEC9
:1048400012C0F80144855585842F6AE00E94B6475E
:10485000282F2295207FCA016AE070E00E94D64787
:10486000280F206829874AE050E0BE016F5F7F4F24
:1048700081E090E00E945D232A960FB6F894DEBF97
:104880000FBECDBFDF91CF911F910F91FF90EF90A1
:104890000895EF92FF920F931F93CF93DF93CDB7BD
:1048A000DEB728970FB6F894DEBF0FBECDBF7B01F1
:1048B0008A01FA011182108292E1FB0111929A950C
:1048C000E9F748E050E0BE016F5F7F4F880F880F27
:1048D000880F0E940E21BC01892B09F09FC02981FD
:1048E00027FF20C0F80180819181816091838083BE
:1048F0003327C9018F779070F4E095958795FA95E5
:10490000E1F7AC01E3E0440F551FEA95E1F7880FAA
:10491000991F840F951F2F703070820F931FF7011E
:10492000918380833A8137FF13C0F80180819181A0
:10493000826091838083832F82958F702AE0829F8B
:10494000C00111243F70830F911DF701938382836F
:104950002B8127FF20C0F8018081918184609183A1
:1049600080833327C9018F779070A4E09595879550
:10497000AA95E1F7AC01F3E0440F551FFA95E1F772
:10498000880F991F840F951F2F703070820F931F0F
:10499000F701958384833C8137FF13C0F801808140
:1049A0009181886091838083832F82958F702AE024
:1049B000829FC00111243F70830F911DF7019783DF
:1049C00086833D8137FF14C0F80180819181806129
:1049D00091838083832F82958F702AE0829FC0010C
:1049E00011243F70830F911D0197F70191878087F4
:1049F0003F8137FF13C0F8018081918180689183E6
:104A00008083832F82958F702AE0829FC0011124BA
:104A10003F70830F911DF70195878487CB012896FE
:104A20000FB6F894DEBF0FBECDBFDF91CF911F91BF
:104A30000F91FF90EF9008950F931F93CF93DF9303
:104A4000CDB7DEB72A970FB6F894DEBF0FBECDBF45
:104A50008C018AE0FE01319611928A95E9F70115E1
:104A6000110509F481C080E38A83F80140815181F6
:104A7000842F6AE00E94B647282F2295207FCA0122
:104A80006AE070E00E94D647280F2B834281538151
:104A9000842F6AE00E94B647282F2295207FCA0102
:104AA0006AE070E00E94D647280F2C83448155812C
:104AB000842F6AE00E94B647282F2295207FCA01E2
:104AC0006AE070E00E94D647280F20682D83468157
:104AD0005781842F6AE00E94B647282F2295207FB5
:104AE000CA016AE070E00E94D647280F2E834085F5
:104AF0005185842F8F5F6AE00E94B647282F229548
:104B0000207FCA0101966AE070E00E94D647280F14
:104B10002F8342855385443651059CF0842F84565B
:104B20006AE00E94B647282F2295207FCA0184564A
:104B300090406AE070E00E94D647280F288780E204
:104B40000FC0842F6AE00E94B647282F2295207F4D
:104B5000CA016AE070E00E94D647280F288789E1E1
:104B60008A87F801848589874AE050E0BE016F5F3B
:104B70007F4F80E090E00E945D232A960FB6F89464
:104B8000DEBF0FBECDBFDF91CF911F910F91089572
:104B90008093EC0208950E94522D20E033E040E023
:104BA00050E063E075E087EE92E00E94C6308EEF41
:104BB0000E94F8290E947C2A0E94C3292091EC02BD
:104BC0002F3FC1F393B783B7817F822B83BF83B716
:104BD000816083BF889583B78E7F83BF83B7817FD2
:104BE0009E70892B83BFE6CF0F931F93CF93DF93E4
:104BF00000915B0410915C048017910730F080E015
:104C000090E060C0EF01DB012FC0AC014A5F5F4F55
:104C10004430510510F444E050E0E091F906F09181
:104C2000FA0669EF76E0C0E0D0E0A0E0B0E017C09F
:104C3000208131812417350760F02417350711F3DF
:104C4000209729F0888199812817390710F4EF01FE
:104C5000DB01BF016E5F7F4F0280F381E02D309753
:104C600039F7CE01209771F128813981CA010A965E
:104C70006A817B818217930770F4FE01E40FF51FB0
:104C8000241B350B318320837383628359834883CC
:104C9000ED93FC9302C06D937C93E881F9810E1B28
:104CA0001F0B10935C0400935B04EC0FFD1F349703
:104CB0008FEE9EEBADEABEED80839183A283B3833A
:104CC000CE010296DF91CF911F910F910895CF935E
:104CD000DF93DC0112976D917C911197E091F906B9
:104CE000F091FA06C9EFD6E03AC040815181CF0178
:104CF000840F951F8A179B07C1F49A01260F371F4F
:104D00003183208382819381DF01A20FB31FA81713
:104D1000B90791F58D919C911197280F391F318317
:104D20002083ED018A819B8125C0AE17BF0778F4EF
:104D3000B983A8832D913C911197CD01820F931FC8
:104D40008E179F0779F0ED01FB83EA8315C0A81742
:104D5000B90728F1EF0122960280F381E02D309708
:104D600021F617C0240F351F11963C932E93828194
:104D70009381FD019383828380915B0490915C0415
:104D8000860F971F90935C0480935B0480E090E013
:104D900008C0FD0113821282B983A883EDCF8FEF83
:104DA0009FEFDF91CF910895FC0161937193CF0143
:104DB0000E946726089580915B0490915C04089599
:104DC0000F931F93CF93DF938C010E94F425EC0186
:104DD000009729F0A80160E070E00E947547CE01BD
:104DE000DF91CF911F910F9108958091660490916A
:104DF000670490936B0480936A0490936E0480938D
:104E00006D0410926C0410926F0422E02093FFFF57
:104E100021E020935D0410926204109263041092CA
:104E2000640410926504089580E090E8909367040C
:104E30008093660480E090EC90936904809368040A
:104E400080E090E8A7E0B0E080935E0490935F0478
:104E5000A0936004B09361040E94F5260895FC01BC
:104E600080915D04882389F490916C0480916F0493
:104E7000981759F420916A0430916B0480916D0465
:104E800090916E048217930740F48091680490918A
:104E9000690420916A0430916B04821B930B918307
:104EA000808380916C048E5F8093FFFF80916A0401
:104EB00090916B040895FC0180915D04882319F0A2
:104EC0001182108227C090916C0480916F04981712
:104ED00059F420916D0430916E0480916A04909190
:104EE0006B042817390768F0809168049091690471
:104EF00020916D0430916E04821B930B918380830B
:104F000009C0821B930B91838083892B19F481E064
:104F100080935D0480916F048E5F8093FFFF80918A
:104F20006D0490916E040895009709F440C060915B
:104F30006A0470916B04680F791F70936B0460931F
:104F40006A0410925D049C014427552780916204F5
:104F500090916304A0916404B0916504820F931F43
:104F6000A41FB51F8093620490936304A09364040C
:104F7000B09365048091680490916904681779077B
:104F8000B1F4809166049091670490936B048093D0
:104F90006A0480916C048F5F80936C048E3114F0EE
:104FA00010926C0480916C048E5F8093FFFF80915F
:104FB0006A0490916B040895009709F452C06091BF
:104FC0006D0470916E04680F791F70936E04609386
:104FD0006D049C01442755278091620490916304DD
:104FE000A0916404B0916504821B930BA40BB50BD4
:104FF0008093620490936304A0936404B093650467
:10500000809168049091690468177907B1F48091E0
:1050100066049091670490936E0480936D04809170
:105020006F048F5F80936F048E3114F010926F04C1
:1050300080916F048E5F8093FFFF20916D0430910B
:105040006E0480916A0490916B042817390749F423
:1050500090916F0480916C04981719F481E080930B
:105060005D0480916D0490916E0408950097D9F1CC
:1050700060916A0470916B04680F791F70936B04E0
:1050800060936A049C0144275527809162049091A3
:105090006304A0916404B0916504820F931FA41F60
:1050A000B51F8093620490936304A0936404B0934B
:1050B000650410925D0480916804909169046817FA
:1050C000790789F4809166049091670490936B044A
:1050D00080936A0480916C048F5F80936C048E319E
:1050E00014F010926C0480916F048E5F8093FFFF28
:1050F0000895009709F44DC060916D0470916E049D
:10510000680F791F70936E0460936D049C014427AF
:1051100055278091620490916304A0916404B0913A
:105120006504821B930BA40BB50B809362049093D0
:105130006304A0936404B093650480916804909123
:1051400069046817790789F480916604909167046F
:1051500090936E0480936D0480916F048F5F8093B1
:105160006F048E3114F010926F0420916D04309111
:105170006E0480916A0490916B042817390749F4F2
:1051800090916F0480916C04981719F481E08093DA
:105190005D0480916C048E5F8093FFFF08956091A1
:1051A0005E0470915F04809160049091610420918D
:1051B0006204309163044091640450916504621B61
:1051C000730B840B950B08956091620470916304D6
:1051D0008091640490916504089580916204909197
:1051E0006304A0916404B091650480509044A04091
:1051F000B0408093620490936304A0936404B093DE
:10520000650480916F048F5F80936F048E3114F07A
:1052100010926F0480916F048E5F8093FFFF08955A
:10522000CF93DF93DC019B01EC01788F6F8B1D82A4
:105230001C820FB6F8940F92EB01E881F9818FEF91
:10524000EF3FF80749F4ED018C819D8101969D8324
:105250008C83E0E0F0E015C0309799F00F900FBE1E
:10526000ED019A8908C09F012E5F3F4F0280F381B4
:10527000E02D309719F082899817A8F70FB6F894A7
:105280000F92ED01FB83EA83F901B183A083EA81E8
:10529000FB81309771F084819581892B51F08C814D
:1052A0009D8124813581820F931F9D838C8315827C
:1052B00014820F900FBEDF91CF910895CF93DF93AB
:1052C0009C01DB010FB6F8940F92ED91FC911197C0
:1052D0000F900FBE8FEFEF3FF80731F527C08281A7
:1052E0009381E217F307E9F40FB6F8940F92119641
:1052F0009C938E9384819581892B59F0A281B381EF
:10530000109729F084819581ED019D838C8315820E
:1053100014820F900FBEF90113821282108E178A29
:1053200005C0DF011296FC013097C9F6DF91CF91DD
:105330000895FB01168A158A82E087876DEF76E073
:10534000CF010E94102908950F931F93CF93DF93ED
:105350008C01C091FB06D091FC060CC0B801CE01B7
:1053600006960E948747892B11F4CE0107C0099049
:10537000D881C02D209791F780E090E0DF91CF9108
:105380001F910F910895E0910107F0910207309766
:1053900041F0838994890E94672610920207109237
:1053A00001070895CF93DF93C091FB06D091FC06CF
:1053B0000E94C3292091FF0630910007EBEFF6E031
:1053C0000AC088819981C217D30719F49183808319
:1053D00004C0FE01EC012097A1F78091FF06909197
:1053E00000079093020780930107DF91CF91089502
:1053F0000F931F93182FE091FF06F0910007028989
:105400006DEF76E0CF010E945E29E091FF06F091FA
:105410000007128B1F3F49F06DEF76E08091FF0689
:10542000909100070E94102902C00E94D229E091A9
:10543000FF06F09100078091FD069091FE06E817A7
:10544000F90719F481E0878709C082E087870FB6E2
:10545000F8940F920E9487300F900FBE802F9927EB
:105460001F910F9108958FEF0E94F8290895CF930F
:10547000DF93C091FB06D091FC0620C00FB6F894D4
:105480000F928C819D810F900FBE892BA1F0EF8927
:10549000F88D0FB6F8940F928C819D8101979D83B2
:1054A0008C830F900FBE808191818F5F9F4F19F089
:1054B000CF010E94DA2D0990D881C02D2097F1F6F6
:1054C0000E94C62CE091FF06F09100078091FD0636
:1054D0009091FE06E817F90761F08785813011F495
:1054E00082E087870FB6F8940F920E9487300F9062
:1054F0000FBEDF91CF910895E091FF06F091000774
:1055000082819381892B69F06DEF76E0CF010E9453
:105510005E296DEF76E08091FF06909100070E9472
:1055200010290E94372A08958091090790910A074F
:10553000A0910B07B0910C070196A11DB11D80939E
:10554000090790930A07A0930B07B0930C070895DF
:105550009B01AC01609103077091040780910507DE
:10556000909106070E94974728EE33E040E050E014
:105570000E94E94701C00000215031094109510949
:10558000D0F708959927AA27BB27BC01CD0128EEA3
:1055900033E040E050E00E9497470E94A82A089517
:1055A000CF93DF93EC011B821A82E0910707F09101
:1055B00008071AC0288539854A855B8580859185CD
:1055C000A285B385281739074A075B0780F0281B97
:1055D000390B4A0B5B0B288739874A875B87FB832C
:1055E000EA830190F081E02D309721F718C0821BEB
:1055F000930BA40BB50B80879187A287B387F983A0
:10560000E883D383C283EA81FB81309719F0D18389
:10561000C08308C0D0930807C093070703C019824E
:105620001882F1CFDF91CF910895CF93DF93FC01E2
:1056300014821582168217821586148680859185BC
:10564000A285B3850097A105B10561F1A281B3815F
:1056500080819181109719F08D939C9304C0909351
:10566000080780930707C081D1812097A1F082812C
:1056700093819B838A8388859985AA85BB852085AC
:10568000318542855385820F931FA41FB51F8887DC
:105690009987AA87BB871086118612861386CF0149
:1056A0000E94D02ADF91CF9108950FB6F8940F92FF
:1056B0006091090770910A0780910B0790910C0780
:1056C0000F900FBE0895AF92BF92CF92DF92EF92EC
:1056D000FF920F93CF93DF936B017C01EA01590195
:1056E00080E190E00E94F425FC01892B81F10FB646
:1056F000F8940F928091090790910A07A0910B07E7
:10570000B0910C070F900FBE8C0D9D1DAE1DBF1DDF
:10571000209170043091710440917204509173048F
:10572000821B930BA40BB50B80879187A287B3874D
:1057300000FF05C0148215821682178204C0C4823D
:10574000D582E682F782D587C487B786A686CF0141
:10575000DF91CF910F91FF90EF90DF90CF90BF90AE
:10576000AF9008950F93CF93DF930E94632BEC01CA
:10577000009711F00E94D02ACE01DF91CF910F91B6
:105780000895CF92DF92EF92FF920F936A01790111
:105790000E9498319701A6010E94B22B0F91FF90B1
:1057A000EF90DF90CF900895AF92BF92CF92DF92AB
:1057B000EF92FF920F93CF93DF935B016C01611522
:1057C000710581059105D1F1CDEFD6E0BE01809143
:1057D000FF06909100070E945E29E091FF06F0917C
:1057E000000783E08787E090FF06F090000701E064
:1057F000970149E959E2C601B5010E94C12BF701A1
:10580000968B858B892B19F00E94372A19C0E0915D
:10581000FF06F0910007D08FC78B8091FD06909115
:10582000FE069383828381E087878091FF069091B3
:1058300000079093FE068093FD0602C00E947C2A1A
:10584000DF91CF910F91FF90EF90DF90CF90BF90BD
:10585000AF9008952F923F924F925F926F927F92F6
:105860008F929F92AF92BF92CF92DF92EF92FF9270
:105870000F931F93CF93DF93CDB7DEB724970FB667
:10588000F894DEBF0FBECDBF0FB6F8940F92A09074
:105890000907B0900A07C0900B07D0900C070F9033
:1058A0000FBE0E946E319B01AC01C601B5010E9482
:1058B000E94739014A010E946E311B012C010E9407
:1058C0006E3169837A838B839C83C401B30128EE94
:1058D00033E040E050E00E9497477B018C01C40117
:1058E000B301A20191010E949747A61AB70AC80AFC
:1058F000D90AC601B50128EE33E040E050E00E942D
:10590000974729813A814B815C810E94E947E20EE9
:10591000F31E041F151FC801B70124960FB6F89493
:10592000DEBF0FBECDBFDF91CF911F910F91FF90D2
:10593000EF90DF90CF90BF90AF909F908F907F902F
:105940006F905F904F903F902F900895EF92FF924D
:105950000F931F930FB6F8940F92E0900907F09001
:105960000A0700910B0710910C070F900FBE0E94C1
:105970006E319B01AC01C801B7010E94E947CA0121
:10598000B9011F910F91FF90EF900895EF92FF9250
:105990000F931F93CF93DF930FB6F8940F9220913C
:1059A000090730910A0740910B0750910C070F909F
:1059B0000FBE8091700490917104A0917204B09117
:1059C000730479018A01E81AF90A0A0B1B0B209368
:1059D00070043093710440937204509373044FC069
:1059E00088859985AA85BB85E816F9060A071B07ED
:1059F000A0F48E199F09A00BB10B88879987AA87FD
:105A0000BB870097A105B10521F0EE24FF24870193
:105A100036C0EE24FF24870108C0E81AF90A0A0BF1
:105A20001B0B188619861A861B86EC85FD85309718
:105A300021F06E857F85CE011995E0910707F091E1
:105A400008070190F081E02DF0930807E093070725
:105A5000309711F0138212828C819D81AE81BF81BB
:105A600088879987AA87BB870097A105B10521F48C
:105A7000CE010E94672603C0CE010E94D02AC091A9
:105A80000707D0910807209731F0E114F1040105D0
:105A9000110509F0A5CFDF91CF911F910F91FF90D4
:105AA000EF90089584E99AE20E947331809170002A
:105AB0008260809370000FB6F8940F9220910907CE
:105AC00030910A0740910B0750910C070F900FBEC1
:105AD0000FB6F8940F928091090790910A07A09150
